{
	"contracts/Pharmacy.sol": {
		"Pharmacy": {
			"abi": [
				{
					"inputs": [],
					"stateMutability": "nonpayable",
					"type": "constructor"
				},
				{
					"anonymous": false,
					"inputs": [
						{
							"indexed": false,
							"internalType": "uint256",
							"name": "orderId",
							"type": "uint256"
						}
					],
					"name": "OrderDelivered",
					"type": "event"
				},
				{
					"anonymous": false,
					"inputs": [
						{
							"indexed": false,
							"internalType": "uint256",
							"name": "orderId",
							"type": "uint256"
						},
						{
							"indexed": false,
							"internalType": "address",
							"name": "patient",
							"type": "address"
						},
						{
							"indexed": false,
							"internalType": "string",
							"name": "drugName",
							"type": "string"
						},
						{
							"indexed": false,
							"internalType": "uint256",
							"name": "quantity",
							"type": "uint256"
						},
						{
							"indexed": false,
							"internalType": "uint256",
							"name": "amountPaid",
							"type": "uint256"
						}
					],
					"name": "OrderPlaced",
					"type": "event"
				},
				{
					"inputs": [
						{
							"internalType": "uint256",
							"name": "_orderId",
							"type": "uint256"
						}
					],
					"name": "deliverOrder",
					"outputs": [],
					"stateMutability": "nonpayable",
					"type": "function"
				},
				{
					"inputs": [],
					"name": "drugPrice",
					"outputs": [
						{
							"internalType": "uint256",
							"name": "",
							"type": "uint256"
						}
					],
					"stateMutability": "view",
					"type": "function"
				},
				{
					"inputs": [],
					"name": "orderCount",
					"outputs": [
						{
							"internalType": "uint256",
							"name": "",
							"type": "uint256"
						}
					],
					"stateMutability": "view",
					"type": "function"
				},
				{
					"inputs": [
						{
							"internalType": "uint256",
							"name": "",
							"type": "uint256"
						}
					],
					"name": "orders",
					"outputs": [
						{
							"internalType": "address payable",
							"name": "patient",
							"type": "address"
						},
						{
							"internalType": "string",
							"name": "drugName",
							"type": "string"
						},
						{
							"internalType": "uint256",
							"name": "quantity",
							"type": "uint256"
						},
						{
							"internalType": "uint256",
							"name": "amountPaid",
							"type": "uint256"
						},
						{
							"internalType": "bool",
							"name": "isDelivered",
							"type": "bool"
						}
					],
					"stateMutability": "view",
					"type": "function"
				},
				{
					"inputs": [],
					"name": "pharmacyOwner",
					"outputs": [
						{
							"internalType": "address payable",
							"name": "",
							"type": "address"
						}
					],
					"stateMutability": "view",
					"type": "function"
				},
				{
					"inputs": [
						{
							"internalType": "string",
							"name": "_drugName",
							"type": "string"
						},
						{
							"internalType": "uint256",
							"name": "_quantity",
							"type": "uint256"
						}
					],
					"name": "placeOrder",
					"outputs": [],
					"stateMutability": "payable",
					"type": "function"
				},
				{
					"inputs": [
						{
							"internalType": "uint256",
							"name": "_newPrice",
							"type": "uint256"
						}
					],
					"name": "setDrugPrice",
					"outputs": [],
					"stateMutability": "nonpayable",
					"type": "function"
				}
			],
			"devdoc": {
				"kind": "dev",
				"methods": {},
				"version": 1
			},
			"evm": {
				"assembly": "    /* \"contracts/Pharmacy.sol\":57:1829  contract Pharmacy {... */\n  mstore(0x40, 0x80)\n    /* \"contracts/Pharmacy.sol\":524:706  constructor() {... */\n  callvalue\n  dup1\n  iszero\n  tag_1\n  jumpi\n  0x00\n  dup1\n  revert\ntag_1:\n  pop\n    /* \"contracts/Pharmacy.sol\":572:582  msg.sender */\n  caller\n    /* \"contracts/Pharmacy.sol\":548:561  pharmacyOwner */\n  0x00\n  dup1\n    /* \"contracts/Pharmacy.sol\":548:583  pharmacyOwner = payable(msg.sender) */\n  0x0100\n  exp\n  dup2\n  sload\n  dup2\n  0xffffffffffffffffffffffffffffffffffffffff\n  mul\n  not\n  and\n  swap1\n  dup4\n  0xffffffffffffffffffffffffffffffffffffffff\n  and\n  mul\n  or\n  swap1\n  sstore\n  pop\n    /* \"contracts/Pharmacy.sol\":605:612  1 ether */\n  0x0de0b6b3a7640000\n    /* \"contracts/Pharmacy.sol\":593:602  drugPrice */\n  0x01\n    /* \"contracts/Pharmacy.sol\":593:612  drugPrice = 1 ether */\n  dup2\n  swap1\n  sstore\n  pop\n    /* \"contracts/Pharmacy.sol\":698:699  0 */\n  0x00\n    /* \"contracts/Pharmacy.sol\":685:695  orderCount */\n  0x03\n    /* \"contracts/Pharmacy.sol\":685:699  orderCount = 0 */\n  dup2\n  swap1\n  sstore\n  pop\n    /* \"contracts/Pharmacy.sol\":57:1829  contract Pharmacy {... */\n  dataSize(sub_0)\n  dup1\n  dataOffset(sub_0)\n  0x00\n  codecopy\n  0x00\n  return\nstop\n\nsub_0: assembly {\n        /* \"contracts/Pharmacy.sol\":57:1829  contract Pharmacy {... */\n      mstore(0x40, 0x80)\n      jumpi(tag_1, lt(calldatasize, 0x04))\n      shr(0xe0, calldataload(0x00))\n      dup1\n      0xa85c38ef\n      gt\n      tag_9\n      jumpi\n      dup1\n      0xa85c38ef\n      eq\n      tag_5\n      jumpi\n      dup1\n      0xcfde19e6\n      eq\n      tag_6\n      jumpi\n      dup1\n      0xddff5e7d\n      eq\n      tag_7\n      jumpi\n      dup1\n      0xe1729b95\n      eq\n      tag_8\n      jumpi\n      jump(tag_1)\n    tag_9:\n      dup1\n      0x2453ffa8\n      eq\n      tag_2\n      jumpi\n      dup1\n      0x5a985001\n      eq\n      tag_3\n      jumpi\n      dup1\n      0xa1b6e836\n      eq\n      tag_4\n      jumpi\n    tag_1:\n      0x00\n      dup1\n      revert\n        /* \"contracts/Pharmacy.sol\":351:373  uint public orderCount */\n    tag_2:\n      callvalue\n      dup1\n      iszero\n      tag_10\n      jumpi\n      0x00\n      dup1\n      revert\n    tag_10:\n      pop\n      tag_11\n      tag_12\n      jump\t// in\n    tag_11:\n      mload(0x40)\n      tag_13\n      swap2\n      swap1\n      tag_14\n      jump\t// in\n    tag_13:\n      mload(0x40)\n      dup1\n      swap2\n      sub\n      swap1\n      return\n        /* \"contracts/Pharmacy.sol\":81:117  address payable public pharmacyOwner */\n    tag_3:\n      callvalue\n      dup1\n      iszero\n      tag_15\n      jumpi\n      0x00\n      dup1\n      revert\n    tag_15:\n      pop\n      tag_16\n      tag_17\n      jump\t// in\n    tag_16:\n      mload(0x40)\n      tag_18\n      swap2\n      swap1\n      tag_19\n      jump\t// in\n    tag_18:\n      mload(0x40)\n      dup1\n      swap2\n      sub\n      swap1\n      return\n        /* \"contracts/Pharmacy.sol\":712:1249  function placeOrder(string memory _drugName, uint _quantity) public payable {... */\n    tag_4:\n      tag_20\n      0x04\n      dup1\n      calldatasize\n      sub\n      dup2\n      add\n      swap1\n      tag_21\n      swap2\n      swap1\n      tag_22\n      jump\t// in\n    tag_21:\n      tag_23\n      jump\t// in\n    tag_20:\n      stop\n        /* \"contracts/Pharmacy.sol\":309:345  mapping(uint => Order) public orders */\n    tag_5:\n      callvalue\n      dup1\n      iszero\n      tag_24\n      jumpi\n      0x00\n      dup1\n      revert\n    tag_24:\n      pop\n      tag_25\n      0x04\n      dup1\n      calldatasize\n      sub\n      dup2\n      add\n      swap1\n      tag_26\n      swap2\n      swap1\n      tag_27\n      jump\t// in\n    tag_26:\n      tag_28\n      jump\t// in\n    tag_25:\n      mload(0x40)\n      tag_29\n      swap6\n      swap5\n      swap4\n      swap3\n      swap2\n      swap1\n      tag_30\n      jump\t// in\n    tag_29:\n      mload(0x40)\n      dup1\n      swap2\n      sub\n      swap1\n      return\n        /* \"contracts/Pharmacy.sol\":1652:1827  function setDrugPrice(uint _newPrice) public {... */\n    tag_6:\n      callvalue\n      dup1\n      iszero\n      tag_31\n      jumpi\n      0x00\n      dup1\n      revert\n    tag_31:\n      pop\n      tag_32\n      0x04\n      dup1\n      calldatasize\n      sub\n      dup2\n      add\n      swap1\n      tag_33\n      swap2\n      swap1\n      tag_27\n      jump\t// in\n    tag_33:\n      tag_34\n      jump\t// in\n    tag_32:\n      stop\n        /* \"contracts/Pharmacy.sol\":1255:1646  function deliverOrder(uint _orderId) public {... */\n    tag_7:\n      callvalue\n      dup1\n      iszero\n      tag_35\n      jumpi\n      0x00\n      dup1\n      revert\n    tag_35:\n      pop\n      tag_36\n      0x04\n      dup1\n      calldatasize\n      sub\n      dup2\n      add\n      swap1\n      tag_37\n      swap2\n      swap1\n      tag_27\n      jump\t// in\n    tag_37:\n      tag_38\n      jump\t// in\n    tag_36:\n      stop\n        /* \"contracts/Pharmacy.sol\":123:144  uint public drugPrice */\n    tag_8:\n      callvalue\n      dup1\n      iszero\n      tag_39\n      jumpi\n      0x00\n      dup1\n      revert\n    tag_39:\n      pop\n      tag_40\n      tag_41\n      jump\t// in\n    tag_40:\n      mload(0x40)\n      tag_42\n      swap2\n      swap1\n      tag_14\n      jump\t// in\n    tag_42:\n      mload(0x40)\n      dup1\n      swap2\n      sub\n      swap1\n      return\n        /* \"contracts/Pharmacy.sol\":351:373  uint public orderCount */\n    tag_12:\n      sload(0x03)\n      dup2\n      jump\t// out\n        /* \"contracts/Pharmacy.sol\":81:117  address payable public pharmacyOwner */\n    tag_17:\n      0x00\n      dup1\n      sload\n      swap1\n      0x0100\n      exp\n      swap1\n      div\n      0xffffffffffffffffffffffffffffffffffffffff\n      and\n      dup2\n      jump\t// out\n        /* \"contracts/Pharmacy.sol\":712:1249  function placeOrder(string memory _drugName, uint _quantity) public payable {... */\n    tag_23:\n        /* \"contracts/Pharmacy.sol\":831:840  _quantity */\n      dup1\n        /* \"contracts/Pharmacy.sol\":819:828  drugPrice */\n      sload(0x01)\n        /* \"contracts/Pharmacy.sol\":819:840  drugPrice * _quantity */\n      tag_44\n      swap2\n      swap1\n      tag_45\n      jump\t// in\n    tag_44:\n        /* \"contracts/Pharmacy.sol\":806:815  msg.value */\n      callvalue\n        /* \"contracts/Pharmacy.sol\":806:840  msg.value == drugPrice * _quantity */\n      eq\n        /* \"contracts/Pharmacy.sol\":798:865  require(msg.value == drugPrice * _quantity, \"Insufficient payment\") */\n      tag_46\n      jumpi\n      mload(0x40)\n      0x08c379a000000000000000000000000000000000000000000000000000000000\n      dup2\n      mstore\n      0x04\n      add\n      tag_47\n      swap1\n      tag_48\n      jump\t// in\n    tag_47:\n      mload(0x40)\n      dup1\n      swap2\n      sub\n      swap1\n      revert\n    tag_46:\n        /* \"contracts/Pharmacy.sol\":876:897  Order memory newOrder */\n      0x00\n        /* \"contracts/Pharmacy.sol\":900:1092  Order({... */\n      mload(0x40)\n      dup1\n      0xa0\n      add\n      0x40\n      mstore\n      dup1\n        /* \"contracts/Pharmacy.sol\":937:947  msg.sender */\n      caller\n        /* \"contracts/Pharmacy.sol\":900:1092  Order({... */\n      0xffffffffffffffffffffffffffffffffffffffff\n      and\n      dup2\n      mstore\n      0x20\n      add\n        /* \"contracts/Pharmacy.sol\":972:981  _drugName */\n      dup5\n        /* \"contracts/Pharmacy.sol\":900:1092  Order({... */\n      dup2\n      mstore\n      0x20\n      add\n        /* \"contracts/Pharmacy.sol\":1005:1014  _quantity */\n      dup4\n        /* \"contracts/Pharmacy.sol\":900:1092  Order({... */\n      dup2\n      mstore\n      0x20\n      add\n        /* \"contracts/Pharmacy.sol\":1040:1049  msg.value */\n      callvalue\n        /* \"contracts/Pharmacy.sol\":900:1092  Order({... */\n      dup2\n      mstore\n      0x20\n      add\n        /* \"contracts/Pharmacy.sol\":1076:1081  false */\n      0x00\n        /* \"contracts/Pharmacy.sol\":900:1092  Order({... */\n      iszero\n      iszero\n      dup2\n      mstore\n      pop\n        /* \"contracts/Pharmacy.sol\":876:1092  Order memory newOrder = Order({... */\n      swap1\n      pop\n        /* \"contracts/Pharmacy.sol\":1124:1132  newOrder */\n      dup1\n        /* \"contracts/Pharmacy.sol\":1103:1109  orders */\n      0x02\n        /* \"contracts/Pharmacy.sol\":1103:1121  orders[orderCount] */\n      0x00\n        /* \"contracts/Pharmacy.sol\":1110:1120  orderCount */\n      sload(0x03)\n        /* \"contracts/Pharmacy.sol\":1103:1121  orders[orderCount] */\n      dup2\n      mstore\n      0x20\n      add\n      swap1\n      dup2\n      mstore\n      0x20\n      add\n      0x00\n      keccak256\n        /* \"contracts/Pharmacy.sol\":1103:1132  orders[orderCount] = newOrder */\n      0x00\n      dup3\n      add\n      mload\n      dup2\n      0x00\n      add\n      exp(0x0100, 0x00)\n      dup2\n      sload\n      dup2\n      0xffffffffffffffffffffffffffffffffffffffff\n      mul\n      not\n      and\n      swap1\n      dup4\n      0xffffffffffffffffffffffffffffffffffffffff\n      and\n      mul\n      or\n      swap1\n      sstore\n      pop\n      0x20\n      dup3\n      add\n      mload\n      dup2\n      0x01\n      add\n      swap1\n      dup1\n      mload\n      swap1\n      0x20\n      add\n      swap1\n      tag_49\n      swap3\n      swap2\n      swap1\n      tag_50\n      jump\t// in\n    tag_49:\n      pop\n      0x40\n      dup3\n      add\n      mload\n      dup2\n      0x02\n      add\n      sstore\n      0x60\n      dup3\n      add\n      mload\n      dup2\n      0x03\n      add\n      sstore\n      0x80\n      dup3\n      add\n      mload\n      dup2\n      0x04\n      add\n      exp(0x0100, 0x00)\n      dup2\n      sload\n      dup2\n      0xff\n      mul\n      not\n      and\n      swap1\n      dup4\n      iszero\n      iszero\n      mul\n      or\n      swap1\n      sstore\n      pop\n      swap1\n      pop\n      pop\n        /* \"contracts/Pharmacy.sol\":1142:1152  orderCount */\n      0x03\n      0x00\n        /* \"contracts/Pharmacy.sol\":1142:1154  orderCount++ */\n      dup2\n      sload\n      dup1\n      swap3\n      swap2\n      swap1\n      tag_51\n      swap1\n      tag_52\n      jump\t// in\n    tag_51:\n      swap2\n      swap1\n      pop\n      sstore\n      pop\n        /* \"contracts/Pharmacy.sol\":1170:1242  OrderPlaced(orderCount - 1, msg.sender, _drugName, _quantity, msg.value) */\n      0x51c59ae689b84c77fee955a4759ad18142b0a92a25233547dd1b0e9e330dcb70\n        /* \"contracts/Pharmacy.sol\":1195:1196  1 */\n      0x01\n        /* \"contracts/Pharmacy.sol\":1182:1192  orderCount */\n      sload(0x03)\n        /* \"contracts/Pharmacy.sol\":1182:1196  orderCount - 1 */\n      tag_53\n      swap2\n      swap1\n      tag_54\n      jump\t// in\n    tag_53:\n        /* \"contracts/Pharmacy.sol\":1198:1208  msg.sender */\n      caller\n        /* \"contracts/Pharmacy.sol\":1210:1219  _drugName */\n      dup6\n        /* \"contracts/Pharmacy.sol\":1221:1230  _quantity */\n      dup6\n        /* \"contracts/Pharmacy.sol\":1232:1241  msg.value */\n      callvalue\n        /* \"contracts/Pharmacy.sol\":1170:1242  OrderPlaced(orderCount - 1, msg.sender, _drugName, _quantity, msg.value) */\n      mload(0x40)\n      tag_55\n      swap6\n      swap5\n      swap4\n      swap3\n      swap2\n      swap1\n      tag_56\n      jump\t// in\n    tag_55:\n      mload(0x40)\n      dup1\n      swap2\n      sub\n      swap1\n      log1\n        /* \"contracts/Pharmacy.sol\":788:1249  {... */\n      pop\n        /* \"contracts/Pharmacy.sol\":712:1249  function placeOrder(string memory _drugName, uint _quantity) public payable {... */\n      pop\n      pop\n      jump\t// out\n        /* \"contracts/Pharmacy.sol\":309:345  mapping(uint => Order) public orders */\n    tag_28:\n      mstore(0x20, 0x02)\n      dup1\n      0x00\n      mstore\n      keccak256(0x00, 0x40)\n      0x00\n      swap2\n      pop\n      swap1\n      pop\n      dup1\n      0x00\n      add\n      0x00\n      swap1\n      sload\n      swap1\n      0x0100\n      exp\n      swap1\n      div\n      0xffffffffffffffffffffffffffffffffffffffff\n      and\n      swap1\n      dup1\n      0x01\n      add\n      dup1\n      sload\n      tag_57\n      swap1\n      tag_58\n      jump\t// in\n    tag_57:\n      dup1\n      0x1f\n      add\n      0x20\n      dup1\n      swap2\n      div\n      mul\n      0x20\n      add\n      mload(0x40)\n      swap1\n      dup2\n      add\n      0x40\n      mstore\n      dup1\n      swap3\n      swap2\n      swap1\n      dup2\n      dup2\n      mstore\n      0x20\n      add\n      dup3\n      dup1\n      sload\n      tag_59\n      swap1\n      tag_58\n      jump\t// in\n    tag_59:\n      dup1\n      iszero\n      tag_60\n      jumpi\n      dup1\n      0x1f\n      lt\n      tag_61\n      jumpi\n      0x0100\n      dup1\n      dup4\n      sload\n      div\n      mul\n      dup4\n      mstore\n      swap2\n      0x20\n      add\n      swap2\n      jump(tag_60)\n    tag_61:\n      dup3\n      add\n      swap2\n      swap1\n      0x00\n      mstore\n      keccak256(0x00, 0x20)\n      swap1\n    tag_62:\n      dup2\n      sload\n      dup2\n      mstore\n      swap1\n      0x01\n      add\n      swap1\n      0x20\n      add\n      dup1\n      dup4\n      gt\n      tag_62\n      jumpi\n      dup3\n      swap1\n      sub\n      0x1f\n      and\n      dup3\n      add\n      swap2\n    tag_60:\n      pop\n      pop\n      pop\n      pop\n      pop\n      swap1\n      dup1\n      0x02\n      add\n      sload\n      swap1\n      dup1\n      0x03\n      add\n      sload\n      swap1\n      dup1\n      0x04\n      add\n      0x00\n      swap1\n      sload\n      swap1\n      0x0100\n      exp\n      swap1\n      div\n      0xff\n      and\n      swap1\n      pop\n      dup6\n      jump\t// out\n        /* \"contracts/Pharmacy.sol\":1652:1827  function setDrugPrice(uint _newPrice) public {... */\n    tag_34:\n        /* \"contracts/Pharmacy.sol\":1729:1742  pharmacyOwner */\n      0x00\n      dup1\n      sload\n      swap1\n      0x0100\n      exp\n      swap1\n      div\n      0xffffffffffffffffffffffffffffffffffffffff\n      and\n        /* \"contracts/Pharmacy.sol\":1715:1742  msg.sender == pharmacyOwner */\n      0xffffffffffffffffffffffffffffffffffffffff\n      and\n        /* \"contracts/Pharmacy.sol\":1715:1725  msg.sender */\n      caller\n        /* \"contracts/Pharmacy.sol\":1715:1742  msg.sender == pharmacyOwner */\n      0xffffffffffffffffffffffffffffffffffffffff\n      and\n      eq\n        /* \"contracts/Pharmacy.sol\":1707:1788  require(msg.sender == pharmacyOwner, \"Only pharmacy owner can change drug price\") */\n      tag_64\n      jumpi\n      mload(0x40)\n      0x08c379a000000000000000000000000000000000000000000000000000000000\n      dup2\n      mstore\n      0x04\n      add\n      tag_65\n      swap1\n      tag_66\n      jump\t// in\n    tag_65:\n      mload(0x40)\n      dup1\n      swap2\n      sub\n      swap1\n      revert\n    tag_64:\n        /* \"contracts/Pharmacy.sol\":1811:1820  _newPrice */\n      dup1\n        /* \"contracts/Pharmacy.sol\":1799:1808  drugPrice */\n      0x01\n        /* \"contracts/Pharmacy.sol\":1799:1820  drugPrice = _newPrice */\n      dup2\n      swap1\n      sstore\n      pop\n        /* \"contracts/Pharmacy.sol\":1652:1827  function setDrugPrice(uint _newPrice) public {... */\n      pop\n      jump\t// out\n        /* \"contracts/Pharmacy.sol\":1255:1646  function deliverOrder(uint _orderId) public {... */\n    tag_38:\n        /* \"contracts/Pharmacy.sol\":1331:1344  pharmacyOwner */\n      0x00\n      dup1\n      sload\n      swap1\n      0x0100\n      exp\n      swap1\n      div\n      0xffffffffffffffffffffffffffffffffffffffff\n      and\n        /* \"contracts/Pharmacy.sol\":1317:1344  msg.sender == pharmacyOwner */\n      0xffffffffffffffffffffffffffffffffffffffff\n      and\n        /* \"contracts/Pharmacy.sol\":1317:1327  msg.sender */\n      caller\n        /* \"contracts/Pharmacy.sol\":1317:1344  msg.sender == pharmacyOwner */\n      0xffffffffffffffffffffffffffffffffffffffff\n      and\n      eq\n        /* \"contracts/Pharmacy.sol\":1309:1387  require(msg.sender == pharmacyOwner, \"Only pharmacy owner can deliver orders\") */\n      tag_68\n      jumpi\n      mload(0x40)\n      0x08c379a000000000000000000000000000000000000000000000000000000000\n      dup2\n      mstore\n      0x04\n      add\n      tag_69\n      swap1\n      tag_70\n      jump\t// in\n    tag_69:\n      mload(0x40)\n      dup1\n      swap2\n      sub\n      swap1\n      revert\n    tag_68:\n        /* \"contracts/Pharmacy.sol\":1406:1412  orders */\n      0x02\n        /* \"contracts/Pharmacy.sol\":1406:1422  orders[_orderId] */\n      0x00\n        /* \"contracts/Pharmacy.sol\":1413:1421  _orderId */\n      dup3\n        /* \"contracts/Pharmacy.sol\":1406:1422  orders[_orderId] */\n      dup2\n      mstore\n      0x20\n      add\n      swap1\n      dup2\n      mstore\n      0x20\n      add\n      0x00\n      keccak256\n        /* \"contracts/Pharmacy.sol\":1406:1434  orders[_orderId].isDelivered */\n      0x04\n      add\n      0x00\n      swap1\n      sload\n      swap1\n      0x0100\n      exp\n      swap1\n      div\n      0xff\n      and\n        /* \"contracts/Pharmacy.sol\":1405:1434  !orders[_orderId].isDelivered */\n      iszero\n        /* \"contracts/Pharmacy.sol\":1397:1471  require(!orders[_orderId].isDelivered, \"Order has already been delivered\") */\n      tag_71\n      jumpi\n      mload(0x40)\n      0x08c379a000000000000000000000000000000000000000000000000000000000\n      dup2\n      mstore\n      0x04\n      add\n      tag_72\n      swap1\n      tag_73\n      jump\t// in\n    tag_72:\n      mload(0x40)\n      dup1\n      swap2\n      sub\n      swap1\n      revert\n    tag_71:\n        /* \"contracts/Pharmacy.sol\":1513:1517  true */\n      0x01\n        /* \"contracts/Pharmacy.sol\":1482:1488  orders */\n      0x02\n        /* \"contracts/Pharmacy.sol\":1482:1498  orders[_orderId] */\n      0x00\n        /* \"contracts/Pharmacy.sol\":1489:1497  _orderId */\n      dup4\n        /* \"contracts/Pharmacy.sol\":1482:1498  orders[_orderId] */\n      dup2\n      mstore\n      0x20\n      add\n      swap1\n      dup2\n      mstore\n      0x20\n      add\n      0x00\n      keccak256\n        /* \"contracts/Pharmacy.sol\":1482:1510  orders[_orderId].isDelivered */\n      0x04\n      add\n      0x00\n        /* \"contracts/Pharmacy.sol\":1482:1517  orders[_orderId].isDelivered = true */\n      0x0100\n      exp\n      dup2\n      sload\n      dup2\n      0xff\n      mul\n      not\n      and\n      swap1\n      dup4\n      iszero\n      iszero\n      mul\n      or\n      swap1\n      sstore\n      pop\n        /* \"contracts/Pharmacy.sol\":1527:1533  orders */\n      0x02\n        /* \"contracts/Pharmacy.sol\":1527:1543  orders[_orderId] */\n      0x00\n        /* \"contracts/Pharmacy.sol\":1534:1542  _orderId */\n      dup3\n        /* \"contracts/Pharmacy.sol\":1527:1543  orders[_orderId] */\n      dup2\n      mstore\n      0x20\n      add\n      swap1\n      dup2\n      mstore\n      0x20\n      add\n      0x00\n      keccak256\n        /* \"contracts/Pharmacy.sol\":1527:1551  orders[_orderId].patient */\n      0x00\n      add\n      0x00\n      swap1\n      sload\n      swap1\n      0x0100\n      exp\n      swap1\n      div\n      0xffffffffffffffffffffffffffffffffffffffff\n      and\n        /* \"contracts/Pharmacy.sol\":1527:1560  orders[_orderId].patient.transfer */\n      0xffffffffffffffffffffffffffffffffffffffff\n      and\n        /* \"contracts/Pharmacy.sol\":1527:1599  orders[_orderId].patient.transfer(drugPrice * orders[_orderId].quantity) */\n      0x08fc\n        /* \"contracts/Pharmacy.sol\":1573:1579  orders */\n      0x02\n        /* \"contracts/Pharmacy.sol\":1573:1589  orders[_orderId] */\n      0x00\n        /* \"contracts/Pharmacy.sol\":1580:1588  _orderId */\n      dup5\n        /* \"contracts/Pharmacy.sol\":1573:1589  orders[_orderId] */\n      dup2\n      mstore\n      0x20\n      add\n      swap1\n      dup2\n      mstore\n      0x20\n      add\n      0x00\n      keccak256\n        /* \"contracts/Pharmacy.sol\":1573:1598  orders[_orderId].quantity */\n      0x02\n      add\n      sload\n        /* \"contracts/Pharmacy.sol\":1561:1570  drugPrice */\n      sload(0x01)\n        /* \"contracts/Pharmacy.sol\":1561:1598  drugPrice * orders[_orderId].quantity */\n      tag_74\n      swap2\n      swap1\n      tag_45\n      jump\t// in\n    tag_74:\n        /* \"contracts/Pharmacy.sol\":1527:1599  orders[_orderId].patient.transfer(drugPrice * orders[_orderId].quantity) */\n      swap1\n      dup2\n      iszero\n      mul\n      swap1\n      mload(0x40)\n      0x00\n      mload(0x40)\n      dup1\n      dup4\n      sub\n      dup2\n      dup6\n      dup9\n      dup9\n      call\n      swap4\n      pop\n      pop\n      pop\n      pop\n      iszero\n      dup1\n      iszero\n      tag_76\n      jumpi\n      returndatasize\n      0x00\n      dup1\n      returndatacopy\n      revert(0x00, returndatasize)\n    tag_76:\n      pop\n        /* \"contracts/Pharmacy.sol\":1615:1639  OrderDelivered(_orderId) */\n      0xe21fe02c1589242b30be2057f54fd54b7ddc463695d19ffdb54f9ebb0584f24a\n        /* \"contracts/Pharmacy.sol\":1630:1638  _orderId */\n      dup2\n        /* \"contracts/Pharmacy.sol\":1615:1639  OrderDelivered(_orderId) */\n      mload(0x40)\n      tag_77\n      swap2\n      swap1\n      tag_14\n      jump\t// in\n    tag_77:\n      mload(0x40)\n      dup1\n      swap2\n      sub\n      swap1\n      log1\n        /* \"contracts/Pharmacy.sol\":1255:1646  function deliverOrder(uint _orderId) public {... */\n      pop\n      jump\t// out\n        /* \"contracts/Pharmacy.sol\":123:144  uint public drugPrice */\n    tag_41:\n      sload(0x01)\n      dup2\n      jump\t// out\n    tag_50:\n      dup3\n      dup1\n      sload\n      tag_78\n      swap1\n      tag_58\n      jump\t// in\n    tag_78:\n      swap1\n      0x00\n      mstore\n      keccak256(0x00, 0x20)\n      swap1\n      0x1f\n      add\n      0x20\n      swap1\n      div\n      dup2\n      add\n      swap3\n      dup3\n      tag_80\n      jumpi\n      0x00\n      dup6\n      sstore\n      jump(tag_79)\n    tag_80:\n      dup3\n      0x1f\n      lt\n      tag_81\n      jumpi\n      dup1\n      mload\n      not(0xff)\n      and\n      dup4\n      dup1\n      add\n      or\n      dup6\n      sstore\n      jump(tag_79)\n    tag_81:\n      dup3\n      dup1\n      add\n      0x01\n      add\n      dup6\n      sstore\n      dup3\n      iszero\n      tag_79\n      jumpi\n      swap2\n      dup3\n      add\n    tag_82:\n      dup3\n      dup2\n      gt\n      iszero\n      tag_83\n      jumpi\n      dup3\n      mload\n      dup3\n      sstore\n      swap2\n      0x20\n      add\n      swap2\n      swap1\n      0x01\n      add\n      swap1\n      jump(tag_82)\n    tag_83:\n    tag_79:\n      pop\n      swap1\n      pop\n      tag_84\n      swap2\n      swap1\n      tag_85\n      jump\t// in\n    tag_84:\n      pop\n      swap1\n      jump\t// out\n    tag_85:\n    tag_86:\n      dup1\n      dup3\n      gt\n      iszero\n      tag_87\n      jumpi\n      0x00\n      dup2\n      0x00\n      swap1\n      sstore\n      pop\n      0x01\n      add\n      jump(tag_86)\n    tag_87:\n      pop\n      swap1\n      jump\t// out\n        /* \"#utility.yul\":7:419   */\n    tag_89:\n        /* \"#utility.yul\":85:90   */\n      0x00\n        /* \"#utility.yul\":110:176   */\n      tag_91\n        /* \"#utility.yul\":126:175   */\n      tag_92\n        /* \"#utility.yul\":168:174   */\n      dup5\n        /* \"#utility.yul\":126:175   */\n      tag_93\n      jump\t// in\n    tag_92:\n        /* \"#utility.yul\":110:176   */\n      tag_94\n      jump\t// in\n    tag_91:\n        /* \"#utility.yul\":101:176   */\n      swap1\n      pop\n        /* \"#utility.yul\":199:205   */\n      dup3\n        /* \"#utility.yul\":192:197   */\n      dup2\n        /* \"#utility.yul\":185:206   */\n      mstore\n        /* \"#utility.yul\":237:241   */\n      0x20\n        /* \"#utility.yul\":230:235   */\n      dup2\n        /* \"#utility.yul\":226:242   */\n      add\n        /* \"#utility.yul\":275:278   */\n      dup5\n        /* \"#utility.yul\":266:272   */\n      dup5\n        /* \"#utility.yul\":261:264   */\n      dup5\n        /* \"#utility.yul\":257:273   */\n      add\n        /* \"#utility.yul\":254:279   */\n      gt\n        /* \"#utility.yul\":251:363   */\n      iszero\n      tag_95\n      jumpi\n        /* \"#utility.yul\":282:361   */\n      tag_96\n      tag_97\n      jump\t// in\n    tag_96:\n        /* \"#utility.yul\":251:363   */\n    tag_95:\n        /* \"#utility.yul\":372:413   */\n      tag_98\n        /* \"#utility.yul\":406:412   */\n      dup5\n        /* \"#utility.yul\":401:404   */\n      dup3\n        /* \"#utility.yul\":396:399   */\n      dup6\n        /* \"#utility.yul\":372:413   */\n      tag_99\n      jump\t// in\n    tag_98:\n        /* \"#utility.yul\":91:419   */\n      pop\n        /* \"#utility.yul\":7:419   */\n      swap4\n      swap3\n      pop\n      pop\n      pop\n      jump\t// out\n        /* \"#utility.yul\":439:779   */\n    tag_100:\n        /* \"#utility.yul\":495:500   */\n      0x00\n        /* \"#utility.yul\":544:547   */\n      dup3\n        /* \"#utility.yul\":537:541   */\n      0x1f\n        /* \"#utility.yul\":529:535   */\n      dup4\n        /* \"#utility.yul\":525:542   */\n      add\n        /* \"#utility.yul\":521:548   */\n      slt\n        /* \"#utility.yul\":511:633   */\n      tag_102\n      jumpi\n        /* \"#utility.yul\":552:631   */\n      tag_103\n      tag_104\n      jump\t// in\n    tag_103:\n        /* \"#utility.yul\":511:633   */\n    tag_102:\n        /* \"#utility.yul\":669:675   */\n      dup2\n        /* \"#utility.yul\":656:676   */\n      calldataload\n        /* \"#utility.yul\":694:773   */\n      tag_105\n        /* \"#utility.yul\":769:772   */\n      dup5\n        /* \"#utility.yul\":761:767   */\n      dup3\n        /* \"#utility.yul\":754:758   */\n      0x20\n        /* \"#utility.yul\":746:752   */\n      dup7\n        /* \"#utility.yul\":742:759   */\n      add\n        /* \"#utility.yul\":694:773   */\n      tag_89\n      jump\t// in\n    tag_105:\n        /* \"#utility.yul\":685:773   */\n      swap2\n      pop\n        /* \"#utility.yul\":501:779   */\n      pop\n        /* \"#utility.yul\":439:779   */\n      swap3\n      swap2\n      pop\n      pop\n      jump\t// out\n        /* \"#utility.yul\":785:924   */\n    tag_106:\n        /* \"#utility.yul\":831:836   */\n      0x00\n        /* \"#utility.yul\":869:875   */\n      dup2\n        /* \"#utility.yul\":856:876   */\n      calldataload\n        /* \"#utility.yul\":847:876   */\n      swap1\n      pop\n        /* \"#utility.yul\":885:918   */\n      tag_108\n        /* \"#utility.yul\":912:917   */\n      dup2\n        /* \"#utility.yul\":885:918   */\n      tag_109\n      jump\t// in\n    tag_108:\n        /* \"#utility.yul\":785:924   */\n      swap3\n      swap2\n      pop\n      pop\n      jump\t// out\n        /* \"#utility.yul\":930:1584   */\n    tag_22:\n        /* \"#utility.yul\":1008:1014   */\n      0x00\n        /* \"#utility.yul\":1016:1022   */\n      dup1\n        /* \"#utility.yul\":1065:1067   */\n      0x40\n        /* \"#utility.yul\":1053:1062   */\n      dup4\n        /* \"#utility.yul\":1044:1051   */\n      dup6\n        /* \"#utility.yul\":1040:1063   */\n      sub\n        /* \"#utility.yul\":1036:1068   */\n      slt\n        /* \"#utility.yul\":1033:1152   */\n      iszero\n      tag_111\n      jumpi\n        /* \"#utility.yul\":1071:1150   */\n      tag_112\n      tag_113\n      jump\t// in\n    tag_112:\n        /* \"#utility.yul\":1033:1152   */\n    tag_111:\n        /* \"#utility.yul\":1219:1220   */\n      0x00\n        /* \"#utility.yul\":1208:1217   */\n      dup4\n        /* \"#utility.yul\":1204:1221   */\n      add\n        /* \"#utility.yul\":1191:1222   */\n      calldataload\n        /* \"#utility.yul\":1249:1267   */\n      0xffffffffffffffff\n        /* \"#utility.yul\":1241:1247   */\n      dup2\n        /* \"#utility.yul\":1238:1268   */\n      gt\n        /* \"#utility.yul\":1235:1352   */\n      iszero\n      tag_114\n      jumpi\n        /* \"#utility.yul\":1271:1350   */\n      tag_115\n      tag_116\n      jump\t// in\n    tag_115:\n        /* \"#utility.yul\":1235:1352   */\n    tag_114:\n        /* \"#utility.yul\":1376:1439   */\n      tag_117\n        /* \"#utility.yul\":1431:1438   */\n      dup6\n        /* \"#utility.yul\":1422:1428   */\n      dup3\n        /* \"#utility.yul\":1411:1420   */\n      dup7\n        /* \"#utility.yul\":1407:1429   */\n      add\n        /* \"#utility.yul\":1376:1439   */\n      tag_100\n      jump\t// in\n    tag_117:\n        /* \"#utility.yul\":1366:1439   */\n      swap3\n      pop\n        /* \"#utility.yul\":1162:1449   */\n      pop\n        /* \"#utility.yul\":1488:1490   */\n      0x20\n        /* \"#utility.yul\":1514:1567   */\n      tag_118\n        /* \"#utility.yul\":1559:1566   */\n      dup6\n        /* \"#utility.yul\":1550:1556   */\n      dup3\n        /* \"#utility.yul\":1539:1548   */\n      dup7\n        /* \"#utility.yul\":1535:1557   */\n      add\n        /* \"#utility.yul\":1514:1567   */\n      tag_106\n      jump\t// in\n    tag_118:\n        /* \"#utility.yul\":1504:1567   */\n      swap2\n      pop\n        /* \"#utility.yul\":1459:1577   */\n      pop\n        /* \"#utility.yul\":930:1584   */\n      swap3\n      pop\n      swap3\n      swap1\n      pop\n      jump\t// out\n        /* \"#utility.yul\":1590:1919   */\n    tag_27:\n        /* \"#utility.yul\":1649:1655   */\n      0x00\n        /* \"#utility.yul\":1698:1700   */\n      0x20\n        /* \"#utility.yul\":1686:1695   */\n      dup3\n        /* \"#utility.yul\":1677:1684   */\n      dup5\n        /* \"#utility.yul\":1673:1696   */\n      sub\n        /* \"#utility.yul\":1669:1701   */\n      slt\n        /* \"#utility.yul\":1666:1785   */\n      iszero\n      tag_120\n      jumpi\n        /* \"#utility.yul\":1704:1783   */\n      tag_121\n      tag_113\n      jump\t// in\n    tag_121:\n        /* \"#utility.yul\":1666:1785   */\n    tag_120:\n        /* \"#utility.yul\":1824:1825   */\n      0x00\n        /* \"#utility.yul\":1849:1902   */\n      tag_122\n        /* \"#utility.yul\":1894:1901   */\n      dup5\n        /* \"#utility.yul\":1885:1891   */\n      dup3\n        /* \"#utility.yul\":1874:1883   */\n      dup6\n        /* \"#utility.yul\":1870:1892   */\n      add\n        /* \"#utility.yul\":1849:1902   */\n      tag_106\n      jump\t// in\n    tag_122:\n        /* \"#utility.yul\":1839:1902   */\n      swap2\n      pop\n        /* \"#utility.yul\":1795:1912   */\n      pop\n        /* \"#utility.yul\":1590:1919   */\n      swap3\n      swap2\n      pop\n      pop\n      jump\t// out\n        /* \"#utility.yul\":1925:2067   */\n    tag_123:\n        /* \"#utility.yul\":2028:2060   */\n      tag_125\n        /* \"#utility.yul\":2054:2059   */\n      dup2\n        /* \"#utility.yul\":2028:2060   */\n      tag_126\n      jump\t// in\n    tag_125:\n        /* \"#utility.yul\":2023:2026   */\n      dup3\n        /* \"#utility.yul\":2016:2061   */\n      mstore\n        /* \"#utility.yul\":1925:2067   */\n      pop\n      pop\n      jump\t// out\n        /* \"#utility.yul\":2073:2191   */\n    tag_127:\n        /* \"#utility.yul\":2160:2184   */\n      tag_129\n        /* \"#utility.yul\":2178:2183   */\n      dup2\n        /* \"#utility.yul\":2160:2184   */\n      tag_130\n      jump\t// in\n    tag_129:\n        /* \"#utility.yul\":2155:2158   */\n      dup3\n        /* \"#utility.yul\":2148:2185   */\n      mstore\n        /* \"#utility.yul\":2073:2191   */\n      pop\n      pop\n      jump\t// out\n        /* \"#utility.yul\":2197:2306   */\n    tag_131:\n        /* \"#utility.yul\":2278:2299   */\n      tag_133\n        /* \"#utility.yul\":2293:2298   */\n      dup2\n        /* \"#utility.yul\":2278:2299   */\n      tag_134\n      jump\t// in\n    tag_133:\n        /* \"#utility.yul\":2273:2276   */\n      dup3\n        /* \"#utility.yul\":2266:2300   */\n      mstore\n        /* \"#utility.yul\":2197:2306   */\n      pop\n      pop\n      jump\t// out\n        /* \"#utility.yul\":2312:2676   */\n    tag_135:\n        /* \"#utility.yul\":2400:2403   */\n      0x00\n        /* \"#utility.yul\":2428:2467   */\n      tag_137\n        /* \"#utility.yul\":2461:2466   */\n      dup3\n        /* \"#utility.yul\":2428:2467   */\n      tag_138\n      jump\t// in\n    tag_137:\n        /* \"#utility.yul\":2483:2554   */\n      tag_139\n        /* \"#utility.yul\":2547:2553   */\n      dup2\n        /* \"#utility.yul\":2542:2545   */\n      dup6\n        /* \"#utility.yul\":2483:2554   */\n      tag_140\n      jump\t// in\n    tag_139:\n        /* \"#utility.yul\":2476:2554   */\n      swap4\n      pop\n        /* \"#utility.yul\":2563:2615   */\n      tag_141\n        /* \"#utility.yul\":2608:2614   */\n      dup2\n        /* \"#utility.yul\":2603:2606   */\n      dup6\n        /* \"#utility.yul\":2596:2600   */\n      0x20\n        /* \"#utility.yul\":2589:2594   */\n      dup7\n        /* \"#utility.yul\":2585:2601   */\n      add\n        /* \"#utility.yul\":2563:2615   */\n      tag_142\n      jump\t// in\n    tag_141:\n        /* \"#utility.yul\":2640:2669   */\n      tag_143\n        /* \"#utility.yul\":2662:2668   */\n      dup2\n        /* \"#utility.yul\":2640:2669   */\n      tag_144\n      jump\t// in\n    tag_143:\n        /* \"#utility.yul\":2635:2638   */\n      dup5\n        /* \"#utility.yul\":2631:2670   */\n      add\n        /* \"#utility.yul\":2624:2670   */\n      swap2\n      pop\n        /* \"#utility.yul\":2404:2676   */\n      pop\n        /* \"#utility.yul\":2312:2676   */\n      swap3\n      swap2\n      pop\n      pop\n      jump\t// out\n        /* \"#utility.yul\":2682:3048   */\n    tag_145:\n        /* \"#utility.yul\":2824:2827   */\n      0x00\n        /* \"#utility.yul\":2845:2912   */\n      tag_147\n        /* \"#utility.yul\":2909:2911   */\n      0x29\n        /* \"#utility.yul\":2904:2907   */\n      dup4\n        /* \"#utility.yul\":2845:2912   */\n      tag_140\n      jump\t// in\n    tag_147:\n        /* \"#utility.yul\":2838:2912   */\n      swap2\n      pop\n        /* \"#utility.yul\":2921:3014   */\n      tag_148\n        /* \"#utility.yul\":3010:3013   */\n      dup3\n        /* \"#utility.yul\":2921:3014   */\n      tag_149\n      jump\t// in\n    tag_148:\n        /* \"#utility.yul\":3039:3041   */\n      0x40\n        /* \"#utility.yul\":3034:3037   */\n      dup3\n        /* \"#utility.yul\":3030:3042   */\n      add\n        /* \"#utility.yul\":3023:3042   */\n      swap1\n      pop\n        /* \"#utility.yul\":2682:3048   */\n      swap2\n      swap1\n      pop\n      jump\t// out\n        /* \"#utility.yul\":3054:3420   */\n    tag_150:\n        /* \"#utility.yul\":3196:3199   */\n      0x00\n        /* \"#utility.yul\":3217:3284   */\n      tag_152\n        /* \"#utility.yul\":3281:3283   */\n      0x20\n        /* \"#utility.yul\":3276:3279   */\n      dup4\n        /* \"#utility.yul\":3217:3284   */\n      tag_140\n      jump\t// in\n    tag_152:\n        /* \"#utility.yul\":3210:3284   */\n      swap2\n      pop\n        /* \"#utility.yul\":3293:3386   */\n      tag_153\n        /* \"#utility.yul\":3382:3385   */\n      dup3\n        /* \"#utility.yul\":3293:3386   */\n      tag_154\n      jump\t// in\n    tag_153:\n        /* \"#utility.yul\":3411:3413   */\n      0x20\n        /* \"#utility.yul\":3406:3409   */\n      dup3\n        /* \"#utility.yul\":3402:3414   */\n      add\n        /* \"#utility.yul\":3395:3414   */\n      swap1\n      pop\n        /* \"#utility.yul\":3054:3420   */\n      swap2\n      swap1\n      pop\n      jump\t// out\n        /* \"#utility.yul\":3426:3792   */\n    tag_155:\n        /* \"#utility.yul\":3568:3571   */\n      0x00\n        /* \"#utility.yul\":3589:3656   */\n      tag_157\n        /* \"#utility.yul\":3653:3655   */\n      0x14\n        /* \"#utility.yul\":3648:3651   */\n      dup4\n        /* \"#utility.yul\":3589:3656   */\n      tag_140\n      jump\t// in\n    tag_157:\n        /* \"#utility.yul\":3582:3656   */\n      swap2\n      pop\n        /* \"#utility.yul\":3665:3758   */\n      tag_158\n        /* \"#utility.yul\":3754:3757   */\n      dup3\n        /* \"#utility.yul\":3665:3758   */\n      tag_159\n      jump\t// in\n    tag_158:\n        /* \"#utility.yul\":3783:3785   */\n      0x20\n        /* \"#utility.yul\":3778:3781   */\n      dup3\n        /* \"#utility.yul\":3774:3786   */\n      add\n        /* \"#utility.yul\":3767:3786   */\n      swap1\n      pop\n        /* \"#utility.yul\":3426:3792   */\n      swap2\n      swap1\n      pop\n      jump\t// out\n        /* \"#utility.yul\":3798:4164   */\n    tag_160:\n        /* \"#utility.yul\":3940:3943   */\n      0x00\n        /* \"#utility.yul\":3961:4028   */\n      tag_162\n        /* \"#utility.yul\":4025:4027   */\n      0x26\n        /* \"#utility.yul\":4020:4023   */\n      dup4\n        /* \"#utility.yul\":3961:4028   */\n      tag_140\n      jump\t// in\n    tag_162:\n        /* \"#utility.yul\":3954:4028   */\n      swap2\n      pop\n        /* \"#utility.yul\":4037:4130   */\n      tag_163\n        /* \"#utility.yul\":4126:4129   */\n      dup3\n        /* \"#utility.yul\":4037:4130   */\n      tag_164\n      jump\t// in\n    tag_163:\n        /* \"#utility.yul\":4155:4157   */\n      0x40\n        /* \"#utility.yul\":4150:4153   */\n      dup3\n        /* \"#utility.yul\":4146:4158   */\n      add\n        /* \"#utility.yul\":4139:4158   */\n      swap1\n      pop\n        /* \"#utility.yul\":3798:4164   */\n      swap2\n      swap1\n      pop\n      jump\t// out\n        /* \"#utility.yul\":4170:4288   */\n    tag_165:\n        /* \"#utility.yul\":4257:4281   */\n      tag_167\n        /* \"#utility.yul\":4275:4280   */\n      dup2\n        /* \"#utility.yul\":4257:4281   */\n      tag_168\n      jump\t// in\n    tag_167:\n        /* \"#utility.yul\":4252:4255   */\n      dup3\n        /* \"#utility.yul\":4245:4282   */\n      mstore\n        /* \"#utility.yul\":4170:4288   */\n      pop\n      pop\n      jump\t// out\n        /* \"#utility.yul\":4294:4548   */\n    tag_19:\n        /* \"#utility.yul\":4403:4407   */\n      0x00\n        /* \"#utility.yul\":4441:4443   */\n      0x20\n        /* \"#utility.yul\":4430:4439   */\n      dup3\n        /* \"#utility.yul\":4426:4444   */\n      add\n        /* \"#utility.yul\":4418:4444   */\n      swap1\n      pop\n        /* \"#utility.yul\":4454:4541   */\n      tag_170\n        /* \"#utility.yul\":4538:4539   */\n      0x00\n        /* \"#utility.yul\":4527:4536   */\n      dup4\n        /* \"#utility.yul\":4523:4540   */\n      add\n        /* \"#utility.yul\":4514:4520   */\n      dup5\n        /* \"#utility.yul\":4454:4541   */\n      tag_123\n      jump\t// in\n    tag_170:\n        /* \"#utility.yul\":4294:4548   */\n      swap3\n      swap2\n      pop\n      pop\n      jump\t// out\n        /* \"#utility.yul\":4554:5329   */\n    tag_30:\n        /* \"#utility.yul\":4789:4793   */\n      0x00\n        /* \"#utility.yul\":4827:4830   */\n      0xa0\n        /* \"#utility.yul\":4816:4825   */\n      dup3\n        /* \"#utility.yul\":4812:4831   */\n      add\n        /* \"#utility.yul\":4804:4831   */\n      swap1\n      pop\n        /* \"#utility.yul\":4841:4928   */\n      tag_172\n        /* \"#utility.yul\":4925:4926   */\n      0x00\n        /* \"#utility.yul\":4914:4923   */\n      dup4\n        /* \"#utility.yul\":4910:4927   */\n      add\n        /* \"#utility.yul\":4901:4907   */\n      dup9\n        /* \"#utility.yul\":4841:4928   */\n      tag_123\n      jump\t// in\n    tag_172:\n        /* \"#utility.yul\":4975:4984   */\n      dup2\n        /* \"#utility.yul\":4969:4973   */\n      dup2\n        /* \"#utility.yul\":4965:4985   */\n      sub\n        /* \"#utility.yul\":4960:4962   */\n      0x20\n        /* \"#utility.yul\":4949:4958   */\n      dup4\n        /* \"#utility.yul\":4945:4963   */\n      add\n        /* \"#utility.yul\":4938:4986   */\n      mstore\n        /* \"#utility.yul\":5003:5081   */\n      tag_173\n        /* \"#utility.yul\":5076:5080   */\n      dup2\n        /* \"#utility.yul\":5067:5073   */\n      dup8\n        /* \"#utility.yul\":5003:5081   */\n      tag_135\n      jump\t// in\n    tag_173:\n        /* \"#utility.yul\":4995:5081   */\n      swap1\n      pop\n        /* \"#utility.yul\":5091:5163   */\n      tag_174\n        /* \"#utility.yul\":5159:5161   */\n      0x40\n        /* \"#utility.yul\":5148:5157   */\n      dup4\n        /* \"#utility.yul\":5144:5162   */\n      add\n        /* \"#utility.yul\":5135:5141   */\n      dup7\n        /* \"#utility.yul\":5091:5163   */\n      tag_165\n      jump\t// in\n    tag_174:\n        /* \"#utility.yul\":5173:5245   */\n      tag_175\n        /* \"#utility.yul\":5241:5243   */\n      0x60\n        /* \"#utility.yul\":5230:5239   */\n      dup4\n        /* \"#utility.yul\":5226:5244   */\n      add\n        /* \"#utility.yul\":5217:5223   */\n      dup6\n        /* \"#utility.yul\":5173:5245   */\n      tag_165\n      jump\t// in\n    tag_175:\n        /* \"#utility.yul\":5255:5322   */\n      tag_176\n        /* \"#utility.yul\":5317:5320   */\n      0x80\n        /* \"#utility.yul\":5306:5315   */\n      dup4\n        /* \"#utility.yul\":5302:5321   */\n      add\n        /* \"#utility.yul\":5293:5299   */\n      dup5\n        /* \"#utility.yul\":5255:5322   */\n      tag_131\n      jump\t// in\n    tag_176:\n        /* \"#utility.yul\":4554:5329   */\n      swap7\n      swap6\n      pop\n      pop\n      pop\n      pop\n      pop\n      pop\n      jump\t// out\n        /* \"#utility.yul\":5335:5754   */\n    tag_66:\n        /* \"#utility.yul\":5501:5505   */\n      0x00\n        /* \"#utility.yul\":5539:5541   */\n      0x20\n        /* \"#utility.yul\":5528:5537   */\n      dup3\n        /* \"#utility.yul\":5524:5542   */\n      add\n        /* \"#utility.yul\":5516:5542   */\n      swap1\n      pop\n        /* \"#utility.yul\":5588:5597   */\n      dup2\n        /* \"#utility.yul\":5582:5586   */\n      dup2\n        /* \"#utility.yul\":5578:5598   */\n      sub\n        /* \"#utility.yul\":5574:5575   */\n      0x00\n        /* \"#utility.yul\":5563:5572   */\n      dup4\n        /* \"#utility.yul\":5559:5576   */\n      add\n        /* \"#utility.yul\":5552:5599   */\n      mstore\n        /* \"#utility.yul\":5616:5747   */\n      tag_178\n        /* \"#utility.yul\":5742:5746   */\n      dup2\n        /* \"#utility.yul\":5616:5747   */\n      tag_145\n      jump\t// in\n    tag_178:\n        /* \"#utility.yul\":5608:5747   */\n      swap1\n      pop\n        /* \"#utility.yul\":5335:5754   */\n      swap2\n      swap1\n      pop\n      jump\t// out\n        /* \"#utility.yul\":5760:6179   */\n    tag_73:\n        /* \"#utility.yul\":5926:5930   */\n      0x00\n        /* \"#utility.yul\":5964:5966   */\n      0x20\n        /* \"#utility.yul\":5953:5962   */\n      dup3\n        /* \"#utility.yul\":5949:5967   */\n      add\n        /* \"#utility.yul\":5941:5967   */\n      swap1\n      pop\n        /* \"#utility.yul\":6013:6022   */\n      dup2\n        /* \"#utility.yul\":6007:6011   */\n      dup2\n        /* \"#utility.yul\":6003:6023   */\n      sub\n        /* \"#utility.yul\":5999:6000   */\n      0x00\n        /* \"#utility.yul\":5988:5997   */\n      dup4\n        /* \"#utility.yul\":5984:6001   */\n      add\n        /* \"#utility.yul\":5977:6024   */\n      mstore\n        /* \"#utility.yul\":6041:6172   */\n      tag_180\n        /* \"#utility.yul\":6167:6171   */\n      dup2\n        /* \"#utility.yul\":6041:6172   */\n      tag_150\n      jump\t// in\n    tag_180:\n        /* \"#utility.yul\":6033:6172   */\n      swap1\n      pop\n        /* \"#utility.yul\":5760:6179   */\n      swap2\n      swap1\n      pop\n      jump\t// out\n        /* \"#utility.yul\":6185:6604   */\n    tag_48:\n        /* \"#utility.yul\":6351:6355   */\n      0x00\n        /* \"#utility.yul\":6389:6391   */\n      0x20\n        /* \"#utility.yul\":6378:6387   */\n      dup3\n        /* \"#utility.yul\":6374:6392   */\n      add\n        /* \"#utility.yul\":6366:6392   */\n      swap1\n      pop\n        /* \"#utility.yul\":6438:6447   */\n      dup2\n        /* \"#utility.yul\":6432:6436   */\n      dup2\n        /* \"#utility.yul\":6428:6448   */\n      sub\n        /* \"#utility.yul\":6424:6425   */\n      0x00\n        /* \"#utility.yul\":6413:6422   */\n      dup4\n        /* \"#utility.yul\":6409:6426   */\n      add\n        /* \"#utility.yul\":6402:6449   */\n      mstore\n        /* \"#utility.yul\":6466:6597   */\n      tag_182\n        /* \"#utility.yul\":6592:6596   */\n      dup2\n        /* \"#utility.yul\":6466:6597   */\n      tag_155\n      jump\t// in\n    tag_182:\n        /* \"#utility.yul\":6458:6597   */\n      swap1\n      pop\n        /* \"#utility.yul\":6185:6604   */\n      swap2\n      swap1\n      pop\n      jump\t// out\n        /* \"#utility.yul\":6610:7029   */\n    tag_70:\n        /* \"#utility.yul\":6776:6780   */\n      0x00\n        /* \"#utility.yul\":6814:6816   */\n      0x20\n        /* \"#utility.yul\":6803:6812   */\n      dup3\n        /* \"#utility.yul\":6799:6817   */\n      add\n        /* \"#utility.yul\":6791:6817   */\n      swap1\n      pop\n        /* \"#utility.yul\":6863:6872   */\n      dup2\n        /* \"#utility.yul\":6857:6861   */\n      dup2\n        /* \"#utility.yul\":6853:6873   */\n      sub\n        /* \"#utility.yul\":6849:6850   */\n      0x00\n        /* \"#utility.yul\":6838:6847   */\n      dup4\n        /* \"#utility.yul\":6834:6851   */\n      add\n        /* \"#utility.yul\":6827:6874   */\n      mstore\n        /* \"#utility.yul\":6891:7022   */\n      tag_184\n        /* \"#utility.yul\":7017:7021   */\n      dup2\n        /* \"#utility.yul\":6891:7022   */\n      tag_160\n      jump\t// in\n    tag_184:\n        /* \"#utility.yul\":6883:7022   */\n      swap1\n      pop\n        /* \"#utility.yul\":6610:7029   */\n      swap2\n      swap1\n      pop\n      jump\t// out\n        /* \"#utility.yul\":7035:7257   */\n    tag_14:\n        /* \"#utility.yul\":7128:7132   */\n      0x00\n        /* \"#utility.yul\":7166:7168   */\n      0x20\n        /* \"#utility.yul\":7155:7164   */\n      dup3\n        /* \"#utility.yul\":7151:7169   */\n      add\n        /* \"#utility.yul\":7143:7169   */\n      swap1\n      pop\n        /* \"#utility.yul\":7179:7250   */\n      tag_186\n        /* \"#utility.yul\":7247:7248   */\n      0x00\n        /* \"#utility.yul\":7236:7245   */\n      dup4\n        /* \"#utility.yul\":7232:7249   */\n      add\n        /* \"#utility.yul\":7223:7229   */\n      dup5\n        /* \"#utility.yul\":7179:7250   */\n      tag_165\n      jump\t// in\n    tag_186:\n        /* \"#utility.yul\":7035:7257   */\n      swap3\n      swap2\n      pop\n      pop\n      jump\t// out\n        /* \"#utility.yul\":7263:8018   */\n    tag_56:\n        /* \"#utility.yul\":7488:7492   */\n      0x00\n        /* \"#utility.yul\":7526:7529   */\n      0xa0\n        /* \"#utility.yul\":7515:7524   */\n      dup3\n        /* \"#utility.yul\":7511:7530   */\n      add\n        /* \"#utility.yul\":7503:7530   */\n      swap1\n      pop\n        /* \"#utility.yul\":7540:7611   */\n      tag_188\n        /* \"#utility.yul\":7608:7609   */\n      0x00\n        /* \"#utility.yul\":7597:7606   */\n      dup4\n        /* \"#utility.yul\":7593:7610   */\n      add\n        /* \"#utility.yul\":7584:7590   */\n      dup9\n        /* \"#utility.yul\":7540:7611   */\n      tag_165\n      jump\t// in\n    tag_188:\n        /* \"#utility.yul\":7621:7693   */\n      tag_189\n        /* \"#utility.yul\":7689:7691   */\n      0x20\n        /* \"#utility.yul\":7678:7687   */\n      dup4\n        /* \"#utility.yul\":7674:7692   */\n      add\n        /* \"#utility.yul\":7665:7671   */\n      dup8\n        /* \"#utility.yul\":7621:7693   */\n      tag_127\n      jump\t// in\n    tag_189:\n        /* \"#utility.yul\":7740:7749   */\n      dup2\n        /* \"#utility.yul\":7734:7738   */\n      dup2\n        /* \"#utility.yul\":7730:7750   */\n      sub\n        /* \"#utility.yul\":7725:7727   */\n      0x40\n        /* \"#utility.yul\":7714:7723   */\n      dup4\n        /* \"#utility.yul\":7710:7728   */\n      add\n        /* \"#utility.yul\":7703:7751   */\n      mstore\n        /* \"#utility.yul\":7768:7846   */\n      tag_190\n        /* \"#utility.yul\":7841:7845   */\n      dup2\n        /* \"#utility.yul\":7832:7838   */\n      dup7\n        /* \"#utility.yul\":7768:7846   */\n      tag_135\n      jump\t// in\n    tag_190:\n        /* \"#utility.yul\":7760:7846   */\n      swap1\n      pop\n        /* \"#utility.yul\":7856:7928   */\n      tag_191\n        /* \"#utility.yul\":7924:7926   */\n      0x60\n        /* \"#utility.yul\":7913:7922   */\n      dup4\n        /* \"#utility.yul\":7909:7927   */\n      add\n        /* \"#utility.yul\":7900:7906   */\n      dup6\n        /* \"#utility.yul\":7856:7928   */\n      tag_165\n      jump\t// in\n    tag_191:\n        /* \"#utility.yul\":7938:8011   */\n      tag_192\n        /* \"#utility.yul\":8006:8009   */\n      0x80\n        /* \"#utility.yul\":7995:8004   */\n      dup4\n        /* \"#utility.yul\":7991:8010   */\n      add\n        /* \"#utility.yul\":7982:7988   */\n      dup5\n        /* \"#utility.yul\":7938:8011   */\n      tag_165\n      jump\t// in\n    tag_192:\n        /* \"#utility.yul\":7263:8018   */\n      swap7\n      swap6\n      pop\n      pop\n      pop\n      pop\n      pop\n      pop\n      jump\t// out\n        /* \"#utility.yul\":8024:8153   */\n    tag_94:\n        /* \"#utility.yul\":8058:8064   */\n      0x00\n        /* \"#utility.yul\":8085:8105   */\n      tag_194\n      tag_195\n      jump\t// in\n    tag_194:\n        /* \"#utility.yul\":8075:8105   */\n      swap1\n      pop\n        /* \"#utility.yul\":8114:8147   */\n      tag_196\n        /* \"#utility.yul\":8142:8146   */\n      dup3\n        /* \"#utility.yul\":8134:8140   */\n      dup3\n        /* \"#utility.yul\":8114:8147   */\n      tag_197\n      jump\t// in\n    tag_196:\n        /* \"#utility.yul\":8024:8153   */\n      swap2\n      swap1\n      pop\n      jump\t// out\n        /* \"#utility.yul\":8159:8234   */\n    tag_195:\n        /* \"#utility.yul\":8192:8198   */\n      0x00\n        /* \"#utility.yul\":8225:8227   */\n      0x40\n        /* \"#utility.yul\":8219:8228   */\n      mload\n        /* \"#utility.yul\":8209:8228   */\n      swap1\n      pop\n        /* \"#utility.yul\":8159:8234   */\n      swap1\n      jump\t// out\n        /* \"#utility.yul\":8240:8548   */\n    tag_93:\n        /* \"#utility.yul\":8302:8306   */\n      0x00\n        /* \"#utility.yul\":8392:8410   */\n      0xffffffffffffffff\n        /* \"#utility.yul\":8384:8390   */\n      dup3\n        /* \"#utility.yul\":8381:8411   */\n      gt\n        /* \"#utility.yul\":8378:8434   */\n      iszero\n      tag_200\n      jumpi\n        /* \"#utility.yul\":8414:8432   */\n      tag_201\n      tag_202\n      jump\t// in\n    tag_201:\n        /* \"#utility.yul\":8378:8434   */\n    tag_200:\n        /* \"#utility.yul\":8452:8481   */\n      tag_203\n        /* \"#utility.yul\":8474:8480   */\n      dup3\n        /* \"#utility.yul\":8452:8481   */\n      tag_144\n      jump\t// in\n    tag_203:\n        /* \"#utility.yul\":8444:8481   */\n      swap1\n      pop\n        /* \"#utility.yul\":8536:8540   */\n      0x20\n        /* \"#utility.yul\":8530:8534   */\n      dup2\n        /* \"#utility.yul\":8526:8541   */\n      add\n        /* \"#utility.yul\":8518:8541   */\n      swap1\n      pop\n        /* \"#utility.yul\":8240:8548   */\n      swap2\n      swap1\n      pop\n      jump\t// out\n        /* \"#utility.yul\":8554:8653   */\n    tag_138:\n        /* \"#utility.yul\":8606:8612   */\n      0x00\n        /* \"#utility.yul\":8640:8645   */\n      dup2\n        /* \"#utility.yul\":8634:8646   */\n      mload\n        /* \"#utility.yul\":8624:8646   */\n      swap1\n      pop\n        /* \"#utility.yul\":8554:8653   */\n      swap2\n      swap1\n      pop\n      jump\t// out\n        /* \"#utility.yul\":8659:8828   */\n    tag_140:\n        /* \"#utility.yul\":8743:8754   */\n      0x00\n        /* \"#utility.yul\":8777:8783   */\n      dup3\n        /* \"#utility.yul\":8772:8775   */\n      dup3\n        /* \"#utility.yul\":8765:8784   */\n      mstore\n        /* \"#utility.yul\":8817:8821   */\n      0x20\n        /* \"#utility.yul\":8812:8815   */\n      dup3\n        /* \"#utility.yul\":8808:8822   */\n      add\n        /* \"#utility.yul\":8793:8822   */\n      swap1\n      pop\n        /* \"#utility.yul\":8659:8828   */\n      swap3\n      swap2\n      pop\n      pop\n      jump\t// out\n        /* \"#utility.yul\":8834:9182   */\n    tag_45:\n        /* \"#utility.yul\":8874:8881   */\n      0x00\n        /* \"#utility.yul\":8897:8917   */\n      tag_207\n        /* \"#utility.yul\":8915:8916   */\n      dup3\n        /* \"#utility.yul\":8897:8917   */\n      tag_168\n      jump\t// in\n    tag_207:\n        /* \"#utility.yul\":8892:8917   */\n      swap2\n      pop\n        /* \"#utility.yul\":8931:8951   */\n      tag_208\n        /* \"#utility.yul\":8949:8950   */\n      dup4\n        /* \"#utility.yul\":8931:8951   */\n      tag_168\n      jump\t// in\n    tag_208:\n        /* \"#utility.yul\":8926:8951   */\n      swap3\n      pop\n        /* \"#utility.yul\":9119:9120   */\n      dup2\n        /* \"#utility.yul\":9051:9117   */\n      0xffffffffffffffffffffffffffffffffffffffffffffffffffffffffffffffff\n        /* \"#utility.yul\":9047:9121   */\n      div\n        /* \"#utility.yul\":9044:9045   */\n      dup4\n        /* \"#utility.yul\":9041:9122   */\n      gt\n        /* \"#utility.yul\":9036:9037   */\n      dup3\n        /* \"#utility.yul\":9029:9038   */\n      iszero\n        /* \"#utility.yul\":9022:9039   */\n      iszero\n        /* \"#utility.yul\":9018:9123   */\n      and\n        /* \"#utility.yul\":9015:9146   */\n      iszero\n      tag_209\n      jumpi\n        /* \"#utility.yul\":9126:9144   */\n      tag_210\n      tag_211\n      jump\t// in\n    tag_210:\n        /* \"#utility.yul\":9015:9146   */\n    tag_209:\n        /* \"#utility.yul\":9174:9175   */\n      dup3\n        /* \"#utility.yul\":9171:9172   */\n      dup3\n        /* \"#utility.yul\":9167:9176   */\n      mul\n        /* \"#utility.yul\":9156:9176   */\n      swap1\n      pop\n        /* \"#utility.yul\":8834:9182   */\n      swap3\n      swap2\n      pop\n      pop\n      jump\t// out\n        /* \"#utility.yul\":9188:9379   */\n    tag_54:\n        /* \"#utility.yul\":9228:9232   */\n      0x00\n        /* \"#utility.yul\":9248:9268   */\n      tag_213\n        /* \"#utility.yul\":9266:9267   */\n      dup3\n        /* \"#utility.yul\":9248:9268   */\n      tag_168\n      jump\t// in\n    tag_213:\n        /* \"#utility.yul\":9243:9268   */\n      swap2\n      pop\n        /* \"#utility.yul\":9282:9302   */\n      tag_214\n        /* \"#utility.yul\":9300:9301   */\n      dup4\n        /* \"#utility.yul\":9282:9302   */\n      tag_168\n      jump\t// in\n    tag_214:\n        /* \"#utility.yul\":9277:9302   */\n      swap3\n      pop\n        /* \"#utility.yul\":9321:9322   */\n      dup3\n        /* \"#utility.yul\":9318:9319   */\n      dup3\n        /* \"#utility.yul\":9315:9323   */\n      lt\n        /* \"#utility.yul\":9312:9346   */\n      iszero\n      tag_215\n      jumpi\n        /* \"#utility.yul\":9326:9344   */\n      tag_216\n      tag_211\n      jump\t// in\n    tag_216:\n        /* \"#utility.yul\":9312:9346   */\n    tag_215:\n        /* \"#utility.yul\":9371:9372   */\n      dup3\n        /* \"#utility.yul\":9368:9369   */\n      dup3\n        /* \"#utility.yul\":9364:9373   */\n      sub\n        /* \"#utility.yul\":9356:9373   */\n      swap1\n      pop\n        /* \"#utility.yul\":9188:9379   */\n      swap3\n      swap2\n      pop\n      pop\n      jump\t// out\n        /* \"#utility.yul\":9385:9481   */\n    tag_130:\n        /* \"#utility.yul\":9422:9429   */\n      0x00\n        /* \"#utility.yul\":9451:9475   */\n      tag_218\n        /* \"#utility.yul\":9469:9474   */\n      dup3\n        /* \"#utility.yul\":9451:9475   */\n      tag_219\n      jump\t// in\n    tag_218:\n        /* \"#utility.yul\":9440:9475   */\n      swap1\n      pop\n        /* \"#utility.yul\":9385:9481   */\n      swap2\n      swap1\n      pop\n      jump\t// out\n        /* \"#utility.yul\":9487:9591   */\n    tag_126:\n        /* \"#utility.yul\":9532:9539   */\n      0x00\n        /* \"#utility.yul\":9561:9585   */\n      tag_221\n        /* \"#utility.yul\":9579:9584   */\n      dup3\n        /* \"#utility.yul\":9561:9585   */\n      tag_219\n      jump\t// in\n    tag_221:\n        /* \"#utility.yul\":9550:9585   */\n      swap1\n      pop\n        /* \"#utility.yul\":9487:9591   */\n      swap2\n      swap1\n      pop\n      jump\t// out\n        /* \"#utility.yul\":9597:9687   */\n    tag_134:\n        /* \"#utility.yul\":9631:9638   */\n      0x00\n        /* \"#utility.yul\":9674:9679   */\n      dup2\n        /* \"#utility.yul\":9667:9680   */\n      iszero\n        /* \"#utility.yul\":9660:9681   */\n      iszero\n        /* \"#utility.yul\":9649:9681   */\n      swap1\n      pop\n        /* \"#utility.yul\":9597:9687   */\n      swap2\n      swap1\n      pop\n      jump\t// out\n        /* \"#utility.yul\":9693:9819   */\n    tag_219:\n        /* \"#utility.yul\":9730:9737   */\n      0x00\n        /* \"#utility.yul\":9770:9812   */\n      0xffffffffffffffffffffffffffffffffffffffff\n        /* \"#utility.yul\":9763:9768   */\n      dup3\n        /* \"#utility.yul\":9759:9813   */\n      and\n        /* \"#utility.yul\":9748:9813   */\n      swap1\n      pop\n        /* \"#utility.yul\":9693:9819   */\n      swap2\n      swap1\n      pop\n      jump\t// out\n        /* \"#utility.yul\":9825:9902   */\n    tag_168:\n        /* \"#utility.yul\":9862:9869   */\n      0x00\n        /* \"#utility.yul\":9891:9896   */\n      dup2\n        /* \"#utility.yul\":9880:9896   */\n      swap1\n      pop\n        /* \"#utility.yul\":9825:9902   */\n      swap2\n      swap1\n      pop\n      jump\t// out\n        /* \"#utility.yul\":9908:10062   */\n    tag_99:\n        /* \"#utility.yul\":9992:9998   */\n      dup3\n        /* \"#utility.yul\":9987:9990   */\n      dup2\n        /* \"#utility.yul\":9982:9985   */\n      dup4\n        /* \"#utility.yul\":9969:9999   */\n      calldatacopy\n        /* \"#utility.yul\":10054:10055   */\n      0x00\n        /* \"#utility.yul\":10045:10051   */\n      dup4\n        /* \"#utility.yul\":10040:10043   */\n      dup4\n        /* \"#utility.yul\":10036:10052   */\n      add\n        /* \"#utility.yul\":10029:10056   */\n      mstore\n        /* \"#utility.yul\":9908:10062   */\n      pop\n      pop\n      pop\n      jump\t// out\n        /* \"#utility.yul\":10068:10375   */\n    tag_142:\n        /* \"#utility.yul\":10136:10137   */\n      0x00\n        /* \"#utility.yul\":10146:10259   */\n    tag_227:\n        /* \"#utility.yul\":10160:10166   */\n      dup4\n        /* \"#utility.yul\":10157:10158   */\n      dup2\n        /* \"#utility.yul\":10154:10167   */\n      lt\n        /* \"#utility.yul\":10146:10259   */\n      iszero\n      tag_229\n      jumpi\n        /* \"#utility.yul\":10245:10246   */\n      dup1\n        /* \"#utility.yul\":10240:10243   */\n      dup3\n        /* \"#utility.yul\":10236:10247   */\n      add\n        /* \"#utility.yul\":10230:10248   */\n      mload\n        /* \"#utility.yul\":10226:10227   */\n      dup2\n        /* \"#utility.yul\":10221:10224   */\n      dup5\n        /* \"#utility.yul\":10217:10228   */\n      add\n        /* \"#utility.yul\":10210:10249   */\n      mstore\n        /* \"#utility.yul\":10182:10184   */\n      0x20\n        /* \"#utility.yul\":10179:10180   */\n      dup2\n        /* \"#utility.yul\":10175:10185   */\n      add\n        /* \"#utility.yul\":10170:10185   */\n      swap1\n      pop\n        /* \"#utility.yul\":10146:10259   */\n      jump(tag_227)\n    tag_229:\n        /* \"#utility.yul\":10277:10283   */\n      dup4\n        /* \"#utility.yul\":10274:10275   */\n      dup2\n        /* \"#utility.yul\":10271:10284   */\n      gt\n        /* \"#utility.yul\":10268:10369   */\n      iszero\n      tag_230\n      jumpi\n        /* \"#utility.yul\":10357:10358   */\n      0x00\n        /* \"#utility.yul\":10348:10354   */\n      dup5\n        /* \"#utility.yul\":10343:10346   */\n      dup5\n        /* \"#utility.yul\":10339:10355   */\n      add\n        /* \"#utility.yul\":10332:10359   */\n      mstore\n        /* \"#utility.yul\":10268:10369   */\n    tag_230:\n        /* \"#utility.yul\":10117:10375   */\n      pop\n        /* \"#utility.yul\":10068:10375   */\n      pop\n      pop\n      pop\n      jump\t// out\n        /* \"#utility.yul\":10381:10701   */\n    tag_58:\n        /* \"#utility.yul\":10425:10431   */\n      0x00\n        /* \"#utility.yul\":10462:10463   */\n      0x02\n        /* \"#utility.yul\":10456:10460   */\n      dup3\n        /* \"#utility.yul\":10452:10464   */\n      div\n        /* \"#utility.yul\":10442:10464   */\n      swap1\n      pop\n        /* \"#utility.yul\":10509:10510   */\n      0x01\n        /* \"#utility.yul\":10503:10507   */\n      dup3\n        /* \"#utility.yul\":10499:10511   */\n      and\n        /* \"#utility.yul\":10530:10548   */\n      dup1\n        /* \"#utility.yul\":10520:10601   */\n      tag_232\n      jumpi\n        /* \"#utility.yul\":10586:10590   */\n      0x7f\n        /* \"#utility.yul\":10578:10584   */\n      dup3\n        /* \"#utility.yul\":10574:10591   */\n      and\n        /* \"#utility.yul\":10564:10591   */\n      swap2\n      pop\n        /* \"#utility.yul\":10520:10601   */\n    tag_232:\n        /* \"#utility.yul\":10648:10650   */\n      0x20\n        /* \"#utility.yul\":10640:10646   */\n      dup3\n        /* \"#utility.yul\":10637:10651   */\n      lt\n        /* \"#utility.yul\":10617:10635   */\n      dup2\n        /* \"#utility.yul\":10614:10652   */\n      eq\n        /* \"#utility.yul\":10611:10695   */\n      iszero\n      tag_233\n      jumpi\n        /* \"#utility.yul\":10667:10685   */\n      tag_234\n      tag_235\n      jump\t// in\n    tag_234:\n        /* \"#utility.yul\":10611:10695   */\n    tag_233:\n        /* \"#utility.yul\":10432:10701   */\n      pop\n        /* \"#utility.yul\":10381:10701   */\n      swap2\n      swap1\n      pop\n      jump\t// out\n        /* \"#utility.yul\":10707:10988   */\n    tag_197:\n        /* \"#utility.yul\":10790:10817   */\n      tag_237\n        /* \"#utility.yul\":10812:10816   */\n      dup3\n        /* \"#utility.yul\":10790:10817   */\n      tag_144\n      jump\t// in\n    tag_237:\n        /* \"#utility.yul\":10782:10788   */\n      dup2\n        /* \"#utility.yul\":10778:10818   */\n      add\n        /* \"#utility.yul\":10920:10926   */\n      dup2\n        /* \"#utility.yul\":10908:10918   */\n      dup2\n        /* \"#utility.yul\":10905:10927   */\n      lt\n        /* \"#utility.yul\":10884:10902   */\n      0xffffffffffffffff\n        /* \"#utility.yul\":10872:10882   */\n      dup3\n        /* \"#utility.yul\":10869:10903   */\n      gt\n        /* \"#utility.yul\":10866:10928   */\n      or\n        /* \"#utility.yul\":10863:10951   */\n      iszero\n      tag_238\n      jumpi\n        /* \"#utility.yul\":10931:10949   */\n      tag_239\n      tag_202\n      jump\t// in\n    tag_239:\n        /* \"#utility.yul\":10863:10951   */\n    tag_238:\n        /* \"#utility.yul\":10971:10981   */\n      dup1\n        /* \"#utility.yul\":10967:10969   */\n      0x40\n        /* \"#utility.yul\":10960:10982   */\n      mstore\n        /* \"#utility.yul\":10750:10988   */\n      pop\n        /* \"#utility.yul\":10707:10988   */\n      pop\n      pop\n      jump\t// out\n        /* \"#utility.yul\":10994:11227   */\n    tag_52:\n        /* \"#utility.yul\":11033:11036   */\n      0x00\n        /* \"#utility.yul\":11056:11080   */\n      tag_241\n        /* \"#utility.yul\":11074:11079   */\n      dup3\n        /* \"#utility.yul\":11056:11080   */\n      tag_168\n      jump\t// in\n    tag_241:\n        /* \"#utility.yul\":11047:11080   */\n      swap2\n      pop\n        /* \"#utility.yul\":11102:11168   */\n      0xffffffffffffffffffffffffffffffffffffffffffffffffffffffffffffffff\n        /* \"#utility.yul\":11095:11100   */\n      dup3\n        /* \"#utility.yul\":11092:11169   */\n      eq\n        /* \"#utility.yul\":11089:11192   */\n      iszero\n      tag_242\n      jumpi\n        /* \"#utility.yul\":11172:11190   */\n      tag_243\n      tag_211\n      jump\t// in\n    tag_243:\n        /* \"#utility.yul\":11089:11192   */\n    tag_242:\n        /* \"#utility.yul\":11219:11220   */\n      0x01\n        /* \"#utility.yul\":11212:11217   */\n      dup3\n        /* \"#utility.yul\":11208:11221   */\n      add\n        /* \"#utility.yul\":11201:11221   */\n      swap1\n      pop\n        /* \"#utility.yul\":10994:11227   */\n      swap2\n      swap1\n      pop\n      jump\t// out\n        /* \"#utility.yul\":11233:11413   */\n    tag_211:\n        /* \"#utility.yul\":11281:11358   */\n      0x4e487b7100000000000000000000000000000000000000000000000000000000\n        /* \"#utility.yul\":11278:11279   */\n      0x00\n        /* \"#utility.yul\":11271:11359   */\n      mstore\n        /* \"#utility.yul\":11378:11382   */\n      0x11\n        /* \"#utility.yul\":11375:11376   */\n      0x04\n        /* \"#utility.yul\":11368:11383   */\n      mstore\n        /* \"#utility.yul\":11402:11406   */\n      0x24\n        /* \"#utility.yul\":11399:11400   */\n      0x00\n        /* \"#utility.yul\":11392:11407   */\n      revert\n        /* \"#utility.yul\":11419:11599   */\n    tag_235:\n        /* \"#utility.yul\":11467:11544   */\n      0x4e487b7100000000000000000000000000000000000000000000000000000000\n        /* \"#utility.yul\":11464:11465   */\n      0x00\n        /* \"#utility.yul\":11457:11545   */\n      mstore\n        /* \"#utility.yul\":11564:11568   */\n      0x22\n        /* \"#utility.yul\":11561:11562   */\n      0x04\n        /* \"#utility.yul\":11554:11569   */\n      mstore\n        /* \"#utility.yul\":11588:11592   */\n      0x24\n        /* \"#utility.yul\":11585:11586   */\n      0x00\n        /* \"#utility.yul\":11578:11593   */\n      revert\n        /* \"#utility.yul\":11605:11785   */\n    tag_202:\n        /* \"#utility.yul\":11653:11730   */\n      0x4e487b7100000000000000000000000000000000000000000000000000000000\n        /* \"#utility.yul\":11650:11651   */\n      0x00\n        /* \"#utility.yul\":11643:11731   */\n      mstore\n        /* \"#utility.yul\":11750:11754   */\n      0x41\n        /* \"#utility.yul\":11747:11748   */\n      0x04\n        /* \"#utility.yul\":11740:11755   */\n      mstore\n        /* \"#utility.yul\":11774:11778   */\n      0x24\n        /* \"#utility.yul\":11771:11772   */\n      0x00\n        /* \"#utility.yul\":11764:11779   */\n      revert\n        /* \"#utility.yul\":11791:11908   */\n    tag_104:\n        /* \"#utility.yul\":11900:11901   */\n      0x00\n        /* \"#utility.yul\":11897:11898   */\n      dup1\n        /* \"#utility.yul\":11890:11902   */\n      revert\n        /* \"#utility.yul\":11914:12031   */\n    tag_97:\n        /* \"#utility.yul\":12023:12024   */\n      0x00\n        /* \"#utility.yul\":12020:12021   */\n      dup1\n        /* \"#utility.yul\":12013:12025   */\n      revert\n        /* \"#utility.yul\":12037:12154   */\n    tag_116:\n        /* \"#utility.yul\":12146:12147   */\n      0x00\n        /* \"#utility.yul\":12143:12144   */\n      dup1\n        /* \"#utility.yul\":12136:12148   */\n      revert\n        /* \"#utility.yul\":12160:12277   */\n    tag_113:\n        /* \"#utility.yul\":12269:12270   */\n      0x00\n        /* \"#utility.yul\":12266:12267   */\n      dup1\n        /* \"#utility.yul\":12259:12271   */\n      revert\n        /* \"#utility.yul\":12283:12385   */\n    tag_144:\n        /* \"#utility.yul\":12324:12330   */\n      0x00\n        /* \"#utility.yul\":12375:12377   */\n      0x1f\n        /* \"#utility.yul\":12371:12378   */\n      not\n        /* \"#utility.yul\":12366:12368   */\n      0x1f\n        /* \"#utility.yul\":12359:12364   */\n      dup4\n        /* \"#utility.yul\":12355:12369   */\n      add\n        /* \"#utility.yul\":12351:12379   */\n      and\n        /* \"#utility.yul\":12341:12379   */\n      swap1\n      pop\n        /* \"#utility.yul\":12283:12385   */\n      swap2\n      swap1\n      pop\n      jump\t// out\n        /* \"#utility.yul\":12391:12619   */\n    tag_149:\n        /* \"#utility.yul\":12531:12565   */\n      0x4f6e6c7920706861726d616379206f776e65722063616e206368616e67652064\n        /* \"#utility.yul\":12527:12528   */\n      0x00\n        /* \"#utility.yul\":12519:12525   */\n      dup3\n        /* \"#utility.yul\":12515:12529   */\n      add\n        /* \"#utility.yul\":12508:12566   */\n      mstore\n        /* \"#utility.yul\":12600:12611   */\n      0x7275672070726963650000000000000000000000000000000000000000000000\n        /* \"#utility.yul\":12595:12597   */\n      0x20\n        /* \"#utility.yul\":12587:12593   */\n      dup3\n        /* \"#utility.yul\":12583:12598   */\n      add\n        /* \"#utility.yul\":12576:12612   */\n      mstore\n        /* \"#utility.yul\":12391:12619   */\n      pop\n      jump\t// out\n        /* \"#utility.yul\":12625:12807   */\n    tag_154:\n        /* \"#utility.yul\":12765:12799   */\n      0x4f726465722068617320616c7265616479206265656e2064656c697665726564\n        /* \"#utility.yul\":12761:12762   */\n      0x00\n        /* \"#utility.yul\":12753:12759   */\n      dup3\n        /* \"#utility.yul\":12749:12763   */\n      add\n        /* \"#utility.yul\":12742:12800   */\n      mstore\n        /* \"#utility.yul\":12625:12807   */\n      pop\n      jump\t// out\n        /* \"#utility.yul\":12813:12983   */\n    tag_159:\n        /* \"#utility.yul\":12953:12975   */\n      0x496e73756666696369656e74207061796d656e74000000000000000000000000\n        /* \"#utility.yul\":12949:12950   */\n      0x00\n        /* \"#utility.yul\":12941:12947   */\n      dup3\n        /* \"#utility.yul\":12937:12951   */\n      add\n        /* \"#utility.yul\":12930:12976   */\n      mstore\n        /* \"#utility.yul\":12813:12983   */\n      pop\n      jump\t// out\n        /* \"#utility.yul\":12989:13214   */\n    tag_164:\n        /* \"#utility.yul\":13129:13163   */\n      0x4f6e6c7920706861726d616379206f776e65722063616e2064656c6976657220\n        /* \"#utility.yul\":13125:13126   */\n      0x00\n        /* \"#utility.yul\":13117:13123   */\n      dup3\n        /* \"#utility.yul\":13113:13127   */\n      add\n        /* \"#utility.yul\":13106:13164   */\n      mstore\n        /* \"#utility.yul\":13198:13206   */\n      0x6f72646572730000000000000000000000000000000000000000000000000000\n        /* \"#utility.yul\":13193:13195   */\n      0x20\n        /* \"#utility.yul\":13185:13191   */\n      dup3\n        /* \"#utility.yul\":13181:13196   */\n      add\n        /* \"#utility.yul\":13174:13207   */\n      mstore\n        /* \"#utility.yul\":12989:13214   */\n      pop\n      jump\t// out\n        /* \"#utility.yul\":13220:13342   */\n    tag_109:\n        /* \"#utility.yul\":13293:13317   */\n      tag_257\n        /* \"#utility.yul\":13311:13316   */\n      dup2\n        /* \"#utility.yul\":13293:13317   */\n      tag_168\n      jump\t// in\n    tag_257:\n        /* \"#utility.yul\":13286:13291   */\n      dup2\n        /* \"#utility.yul\":13283:13318   */\n      eq\n        /* \"#utility.yul\":13273:13336   */\n      tag_258\n      jumpi\n        /* \"#utility.yul\":13332:13333   */\n      0x00\n        /* \"#utility.yul\":13329:13330   */\n      dup1\n        /* \"#utility.yul\":13322:13334   */\n      revert\n        /* \"#utility.yul\":13273:13336   */\n    tag_258:\n        /* \"#utility.yul\":13220:13342   */\n      pop\n      jump\t// out\n\n    auxdata: 0xa264697066735822122096fea834b4348d7b4ccc49ae5b20c82f8308f983f424289bf14a9f71e4948bdd64736f6c63430008070033\n}\n",
				"bytecode": {
					"linkReferences": {},
					"object": "608060405234801561001057600080fd5b50336000806101000a81548173ffffffffffffffffffffffffffffffffffffffff021916908373ffffffffffffffffffffffffffffffffffffffff160217905550670de0b6b3a76400006001819055506000600381905550610f54806100776000396000f3fe6080604052600436106100705760003560e01c8063a85c38ef1161004e578063a85c38ef146100e7578063cfde19e614610128578063ddff5e7d14610151578063e1729b951461017a57610070565b80632453ffa8146100755780635a985001146100a0578063a1b6e836146100cb575b600080fd5b34801561008157600080fd5b5061008a6101a5565b6040516100979190610aa8565b60405180910390f35b3480156100ac57600080fd5b506100b56101ab565b6040516100c291906109b3565b60405180910390f35b6100e560048036038101906100e09190610829565b6101cf565b005b3480156100f357600080fd5b5061010e60048036038101906101099190610885565b61037d565b60405161011f9594939291906109ce565b60405180910390f35b34801561013457600080fd5b5061014f600480360381019061014a9190610885565b610468565b005b34801561015d57600080fd5b5061017860048036038101906101739190610885565b610500565b005b34801561018657600080fd5b5061018f6106fb565b60405161019c9190610aa8565b60405180910390f35b60035481565b60008054906101000a900473ffffffffffffffffffffffffffffffffffffffff1681565b806001546101dd9190610b8f565b341461021e576040517f08c379a000000000000000000000000000000000000000000000000000000000815260040161021590610a68565b60405180910390fd5b60006040518060a001604052803373ffffffffffffffffffffffffffffffffffffffff1681526020018481526020018381526020013481526020016000151581525090508060026000600354815260200190815260200160002060008201518160000160006101000a81548173ffffffffffffffffffffffffffffffffffffffff021916908373ffffffffffffffffffffffffffffffffffffffff16021790555060208201518160010190805190602001906102db929190610701565b50604082015181600201556060820151816003015560808201518160040160006101000a81548160ff0219169083151502179055509050506003600081548092919061032690610d1c565b91905055507f51c59ae689b84c77fee955a4759ad18142b0a92a25233547dd1b0e9e330dcb70600160035461035b9190610be9565b33858534604051610370959493929190610ac3565b60405180910390a1505050565b60026020528060005260406000206000915090508060000160009054906101000a900473ffffffffffffffffffffffffffffffffffffffff16908060010180546103c690610cb9565b80601f01602080910402602001604051908101604052809291908181526020018280546103f290610cb9565b801561043f5780601f106104145761010080835404028352916020019161043f565b820191906000526020600020905b81548152906001019060200180831161042257829003601f168201915b5050505050908060020154908060030154908060040160009054906101000a900460ff16905085565b60008054906101000a900473ffffffffffffffffffffffffffffffffffffffff1673ffffffffffffffffffffffffffffffffffffffff163373ffffffffffffffffffffffffffffffffffffffff16146104f6576040517f08c379a00000000000000000000000000000000000000000000000000000000081526004016104ed90610a28565b60405180910390fd5b8060018190555050565b60008054906101000a900473ffffffffffffffffffffffffffffffffffffffff1673ffffffffffffffffffffffffffffffffffffffff163373ffffffffffffffffffffffffffffffffffffffff161461058e576040517f08c379a000000000000000000000000000000000000000000000000000000000815260040161058590610a88565b60405180910390fd5b6002600082815260200190815260200160002060040160009054906101000a900460ff16156105f2576040517f08c379a00000000000000000000000000000000000000000000000000000000081526004016105e990610a48565b60405180910390fd5b60016002600083815260200190815260200160002060040160006101000a81548160ff0219169083151502179055506002600082815260200190815260200160002060000160009054906101000a900473ffffffffffffffffffffffffffffffffffffffff1673ffffffffffffffffffffffffffffffffffffffff166108fc60026000848152602001908152602001600020600201546001546106959190610b8f565b9081150290604051600060405180830381858888f193505050501580156106c0573d6000803e3d6000fd5b507fe21fe02c1589242b30be2057f54fd54b7ddc463695d19ffdb54f9ebb0584f24a816040516106f09190610aa8565b60405180910390a150565b60015481565b82805461070d90610cb9565b90600052602060002090601f01602090048101928261072f5760008555610776565b82601f1061074857805160ff1916838001178555610776565b82800160010185558215610776579182015b8281111561077557825182559160200191906001019061075a565b5b5090506107839190610787565b5090565b5b808211156107a0576000816000905550600101610788565b5090565b60006107b76107b284610b42565b610b1d565b9050828152602081018484840111156107d3576107d2610df7565b5b6107de848285610c77565b509392505050565b600082601f8301126107fb576107fa610df2565b5b813561080b8482602086016107a4565b91505092915050565b60008135905061082381610f07565b92915050565b600080604083850312156108405761083f610e01565b5b600083013567ffffffffffffffff81111561085e5761085d610dfc565b5b61086a858286016107e6565b925050602061087b85828601610814565b9150509250929050565b60006020828403121561089b5761089a610e01565b5b60006108a984828501610814565b91505092915050565b6108bb81610c2f565b82525050565b6108ca81610c1d565b82525050565b6108d981610c41565b82525050565b60006108ea82610b73565b6108f48185610b7e565b9350610904818560208601610c86565b61090d81610e06565b840191505092915050565b6000610925602983610b7e565b915061093082610e17565b604082019050919050565b6000610948602083610b7e565b915061095382610e66565b602082019050919050565b600061096b601483610b7e565b915061097682610e8f565b602082019050919050565b600061098e602683610b7e565b915061099982610eb8565b604082019050919050565b6109ad81610c6d565b82525050565b60006020820190506109c860008301846108b2565b92915050565b600060a0820190506109e360008301886108b2565b81810360208301526109f581876108df565b9050610a0460408301866109a4565b610a1160608301856109a4565b610a1e60808301846108d0565b9695505050505050565b60006020820190508181036000830152610a4181610918565b9050919050565b60006020820190508181036000830152610a618161093b565b9050919050565b60006020820190508181036000830152610a818161095e565b9050919050565b60006020820190508181036000830152610aa181610981565b9050919050565b6000602082019050610abd60008301846109a4565b92915050565b600060a082019050610ad860008301886109a4565b610ae560208301876108c1565b8181036040830152610af781866108df565b9050610b0660608301856109a4565b610b1360808301846109a4565b9695505050505050565b6000610b27610b38565b9050610b338282610ceb565b919050565b6000604051905090565b600067ffffffffffffffff821115610b5d57610b5c610dc3565b5b610b6682610e06565b9050602081019050919050565b600081519050919050565b600082825260208201905092915050565b6000610b9a82610c6d565b9150610ba583610c6d565b9250817fffffffffffffffffffffffffffffffffffffffffffffffffffffffffffffffff0483118215151615610bde57610bdd610d65565b5b828202905092915050565b6000610bf482610c6d565b9150610bff83610c6d565b925082821015610c1257610c11610d65565b5b828203905092915050565b6000610c2882610c4d565b9050919050565b6000610c3a82610c4d565b9050919050565b60008115159050919050565b600073ffffffffffffffffffffffffffffffffffffffff82169050919050565b6000819050919050565b82818337600083830152505050565b60005b83811015610ca4578082015181840152602081019050610c89565b83811115610cb3576000848401525b50505050565b60006002820490506001821680610cd157607f821691505b60208210811415610ce557610ce4610d94565b5b50919050565b610cf482610e06565b810181811067ffffffffffffffff82111715610d1357610d12610dc3565b5b80604052505050565b6000610d2782610c6d565b91507fffffffffffffffffffffffffffffffffffffffffffffffffffffffffffffffff821415610d5a57610d59610d65565b5b600182019050919050565b7f4e487b7100000000000000000000000000000000000000000000000000000000600052601160045260246000fd5b7f4e487b7100000000000000000000000000000000000000000000000000000000600052602260045260246000fd5b7f4e487b7100000000000000000000000000000000000000000000000000000000600052604160045260246000fd5b600080fd5b600080fd5b600080fd5b600080fd5b6000601f19601f8301169050919050565b7f4f6e6c7920706861726d616379206f776e65722063616e206368616e6765206460008201527f7275672070726963650000000000000000000000000000000000000000000000602082015250565b7f4f726465722068617320616c7265616479206265656e2064656c697665726564600082015250565b7f496e73756666696369656e74207061796d656e74000000000000000000000000600082015250565b7f4f6e6c7920706861726d616379206f776e65722063616e2064656c697665722060008201527f6f72646572730000000000000000000000000000000000000000000000000000602082015250565b610f1081610c6d565b8114610f1b57600080fd5b5056fea264697066735822122096fea834b4348d7b4ccc49ae5b20c82f8308f983f424289bf14a9f71e4948bdd64736f6c63430008070033",
					"opcodes": "PUSH1 0x80 PUSH1 0x40 MSTORE CALLVALUE DUP1 ISZERO PUSH2 0x10 JUMPI PUSH1 0x0 DUP1 REVERT JUMPDEST POP CALLER PUSH1 0x0 DUP1 PUSH2 0x100 EXP DUP2 SLOAD DUP2 PUSH20 0xFFFFFFFFFFFFFFFFFFFFFFFFFFFFFFFFFFFFFFFF MUL NOT AND SWAP1 DUP4 PUSH20 0xFFFFFFFFFFFFFFFFFFFFFFFFFFFFFFFFFFFFFFFF AND MUL OR SWAP1 SSTORE POP PUSH8 0xDE0B6B3A7640000 PUSH1 0x1 DUP2 SWAP1 SSTORE POP PUSH1 0x0 PUSH1 0x3 DUP2 SWAP1 SSTORE POP PUSH2 0xF54 DUP1 PUSH2 0x77 PUSH1 0x0 CODECOPY PUSH1 0x0 RETURN INVALID PUSH1 0x80 PUSH1 0x40 MSTORE PUSH1 0x4 CALLDATASIZE LT PUSH2 0x70 JUMPI PUSH1 0x0 CALLDATALOAD PUSH1 0xE0 SHR DUP1 PUSH4 0xA85C38EF GT PUSH2 0x4E JUMPI DUP1 PUSH4 0xA85C38EF EQ PUSH2 0xE7 JUMPI DUP1 PUSH4 0xCFDE19E6 EQ PUSH2 0x128 JUMPI DUP1 PUSH4 0xDDFF5E7D EQ PUSH2 0x151 JUMPI DUP1 PUSH4 0xE1729B95 EQ PUSH2 0x17A JUMPI PUSH2 0x70 JUMP JUMPDEST DUP1 PUSH4 0x2453FFA8 EQ PUSH2 0x75 JUMPI DUP1 PUSH4 0x5A985001 EQ PUSH2 0xA0 JUMPI DUP1 PUSH4 0xA1B6E836 EQ PUSH2 0xCB JUMPI JUMPDEST PUSH1 0x0 DUP1 REVERT JUMPDEST CALLVALUE DUP1 ISZERO PUSH2 0x81 JUMPI PUSH1 0x0 DUP1 REVERT JUMPDEST POP PUSH2 0x8A PUSH2 0x1A5 JUMP JUMPDEST PUSH1 0x40 MLOAD PUSH2 0x97 SWAP2 SWAP1 PUSH2 0xAA8 JUMP JUMPDEST PUSH1 0x40 MLOAD DUP1 SWAP2 SUB SWAP1 RETURN JUMPDEST CALLVALUE DUP1 ISZERO PUSH2 0xAC JUMPI PUSH1 0x0 DUP1 REVERT JUMPDEST POP PUSH2 0xB5 PUSH2 0x1AB JUMP JUMPDEST PUSH1 0x40 MLOAD PUSH2 0xC2 SWAP2 SWAP1 PUSH2 0x9B3 JUMP JUMPDEST PUSH1 0x40 MLOAD DUP1 SWAP2 SUB SWAP1 RETURN JUMPDEST PUSH2 0xE5 PUSH1 0x4 DUP1 CALLDATASIZE SUB DUP2 ADD SWAP1 PUSH2 0xE0 SWAP2 SWAP1 PUSH2 0x829 JUMP JUMPDEST PUSH2 0x1CF JUMP JUMPDEST STOP JUMPDEST CALLVALUE DUP1 ISZERO PUSH2 0xF3 JUMPI PUSH1 0x0 DUP1 REVERT JUMPDEST POP PUSH2 0x10E PUSH1 0x4 DUP1 CALLDATASIZE SUB DUP2 ADD SWAP1 PUSH2 0x109 SWAP2 SWAP1 PUSH2 0x885 JUMP JUMPDEST PUSH2 0x37D JUMP JUMPDEST PUSH1 0x40 MLOAD PUSH2 0x11F SWAP6 SWAP5 SWAP4 SWAP3 SWAP2 SWAP1 PUSH2 0x9CE JUMP JUMPDEST PUSH1 0x40 MLOAD DUP1 SWAP2 SUB SWAP1 RETURN JUMPDEST CALLVALUE DUP1 ISZERO PUSH2 0x134 JUMPI PUSH1 0x0 DUP1 REVERT JUMPDEST POP PUSH2 0x14F PUSH1 0x4 DUP1 CALLDATASIZE SUB DUP2 ADD SWAP1 PUSH2 0x14A SWAP2 SWAP1 PUSH2 0x885 JUMP JUMPDEST PUSH2 0x468 JUMP JUMPDEST STOP JUMPDEST CALLVALUE DUP1 ISZERO PUSH2 0x15D JUMPI PUSH1 0x0 DUP1 REVERT JUMPDEST POP PUSH2 0x178 PUSH1 0x4 DUP1 CALLDATASIZE SUB DUP2 ADD SWAP1 PUSH2 0x173 SWAP2 SWAP1 PUSH2 0x885 JUMP JUMPDEST PUSH2 0x500 JUMP JUMPDEST STOP JUMPDEST CALLVALUE DUP1 ISZERO PUSH2 0x186 JUMPI PUSH1 0x0 DUP1 REVERT JUMPDEST POP PUSH2 0x18F PUSH2 0x6FB JUMP JUMPDEST PUSH1 0x40 MLOAD PUSH2 0x19C SWAP2 SWAP1 PUSH2 0xAA8 JUMP JUMPDEST PUSH1 0x40 MLOAD DUP1 SWAP2 SUB SWAP1 RETURN JUMPDEST PUSH1 0x3 SLOAD DUP2 JUMP JUMPDEST PUSH1 0x0 DUP1 SLOAD SWAP1 PUSH2 0x100 EXP SWAP1 DIV PUSH20 0xFFFFFFFFFFFFFFFFFFFFFFFFFFFFFFFFFFFFFFFF AND DUP2 JUMP JUMPDEST DUP1 PUSH1 0x1 SLOAD PUSH2 0x1DD SWAP2 SWAP1 PUSH2 0xB8F JUMP JUMPDEST CALLVALUE EQ PUSH2 0x21E JUMPI PUSH1 0x40 MLOAD PUSH32 0x8C379A000000000000000000000000000000000000000000000000000000000 DUP2 MSTORE PUSH1 0x4 ADD PUSH2 0x215 SWAP1 PUSH2 0xA68 JUMP JUMPDEST PUSH1 0x40 MLOAD DUP1 SWAP2 SUB SWAP1 REVERT JUMPDEST PUSH1 0x0 PUSH1 0x40 MLOAD DUP1 PUSH1 0xA0 ADD PUSH1 0x40 MSTORE DUP1 CALLER PUSH20 0xFFFFFFFFFFFFFFFFFFFFFFFFFFFFFFFFFFFFFFFF AND DUP2 MSTORE PUSH1 0x20 ADD DUP5 DUP2 MSTORE PUSH1 0x20 ADD DUP4 DUP2 MSTORE PUSH1 0x20 ADD CALLVALUE DUP2 MSTORE PUSH1 0x20 ADD PUSH1 0x0 ISZERO ISZERO DUP2 MSTORE POP SWAP1 POP DUP1 PUSH1 0x2 PUSH1 0x0 PUSH1 0x3 SLOAD DUP2 MSTORE PUSH1 0x20 ADD SWAP1 DUP2 MSTORE PUSH1 0x20 ADD PUSH1 0x0 KECCAK256 PUSH1 0x0 DUP3 ADD MLOAD DUP2 PUSH1 0x0 ADD PUSH1 0x0 PUSH2 0x100 EXP DUP2 SLOAD DUP2 PUSH20 0xFFFFFFFFFFFFFFFFFFFFFFFFFFFFFFFFFFFFFFFF MUL NOT AND SWAP1 DUP4 PUSH20 0xFFFFFFFFFFFFFFFFFFFFFFFFFFFFFFFFFFFFFFFF AND MUL OR SWAP1 SSTORE POP PUSH1 0x20 DUP3 ADD MLOAD DUP2 PUSH1 0x1 ADD SWAP1 DUP1 MLOAD SWAP1 PUSH1 0x20 ADD SWAP1 PUSH2 0x2DB SWAP3 SWAP2 SWAP1 PUSH2 0x701 JUMP JUMPDEST POP PUSH1 0x40 DUP3 ADD MLOAD DUP2 PUSH1 0x2 ADD SSTORE PUSH1 0x60 DUP3 ADD MLOAD DUP2 PUSH1 0x3 ADD SSTORE PUSH1 0x80 DUP3 ADD MLOAD DUP2 PUSH1 0x4 ADD PUSH1 0x0 PUSH2 0x100 EXP DUP2 SLOAD DUP2 PUSH1 0xFF MUL NOT AND SWAP1 DUP4 ISZERO ISZERO MUL OR SWAP1 SSTORE POP SWAP1 POP POP PUSH1 0x3 PUSH1 0x0 DUP2 SLOAD DUP1 SWAP3 SWAP2 SWAP1 PUSH2 0x326 SWAP1 PUSH2 0xD1C JUMP JUMPDEST SWAP2 SWAP1 POP SSTORE POP PUSH32 0x51C59AE689B84C77FEE955A4759AD18142B0A92A25233547DD1B0E9E330DCB70 PUSH1 0x1 PUSH1 0x3 SLOAD PUSH2 0x35B SWAP2 SWAP1 PUSH2 0xBE9 JUMP JUMPDEST CALLER DUP6 DUP6 CALLVALUE PUSH1 0x40 MLOAD PUSH2 0x370 SWAP6 SWAP5 SWAP4 SWAP3 SWAP2 SWAP1 PUSH2 0xAC3 JUMP JUMPDEST PUSH1 0x40 MLOAD DUP1 SWAP2 SUB SWAP1 LOG1 POP POP POP JUMP JUMPDEST PUSH1 0x2 PUSH1 0x20 MSTORE DUP1 PUSH1 0x0 MSTORE PUSH1 0x40 PUSH1 0x0 KECCAK256 PUSH1 0x0 SWAP2 POP SWAP1 POP DUP1 PUSH1 0x0 ADD PUSH1 0x0 SWAP1 SLOAD SWAP1 PUSH2 0x100 EXP SWAP1 DIV PUSH20 0xFFFFFFFFFFFFFFFFFFFFFFFFFFFFFFFFFFFFFFFF AND SWAP1 DUP1 PUSH1 0x1 ADD DUP1 SLOAD PUSH2 0x3C6 SWAP1 PUSH2 0xCB9 JUMP JUMPDEST DUP1 PUSH1 0x1F ADD PUSH1 0x20 DUP1 SWAP2 DIV MUL PUSH1 0x20 ADD PUSH1 0x40 MLOAD SWAP1 DUP2 ADD PUSH1 0x40 MSTORE DUP1 SWAP3 SWAP2 SWAP1 DUP2 DUP2 MSTORE PUSH1 0x20 ADD DUP3 DUP1 SLOAD PUSH2 0x3F2 SWAP1 PUSH2 0xCB9 JUMP JUMPDEST DUP1 ISZERO PUSH2 0x43F JUMPI DUP1 PUSH1 0x1F LT PUSH2 0x414 JUMPI PUSH2 0x100 DUP1 DUP4 SLOAD DIV MUL DUP4 MSTORE SWAP2 PUSH1 0x20 ADD SWAP2 PUSH2 0x43F JUMP JUMPDEST DUP3 ADD SWAP2 SWAP1 PUSH1 0x0 MSTORE PUSH1 0x20 PUSH1 0x0 KECCAK256 SWAP1 JUMPDEST DUP2 SLOAD DUP2 MSTORE SWAP1 PUSH1 0x1 ADD SWAP1 PUSH1 0x20 ADD DUP1 DUP4 GT PUSH2 0x422 JUMPI DUP3 SWAP1 SUB PUSH1 0x1F AND DUP3 ADD SWAP2 JUMPDEST POP POP POP POP POP SWAP1 DUP1 PUSH1 0x2 ADD SLOAD SWAP1 DUP1 PUSH1 0x3 ADD SLOAD SWAP1 DUP1 PUSH1 0x4 ADD PUSH1 0x0 SWAP1 SLOAD SWAP1 PUSH2 0x100 EXP SWAP1 DIV PUSH1 0xFF AND SWAP1 POP DUP6 JUMP JUMPDEST PUSH1 0x0 DUP1 SLOAD SWAP1 PUSH2 0x100 EXP SWAP1 DIV PUSH20 0xFFFFFFFFFFFFFFFFFFFFFFFFFFFFFFFFFFFFFFFF AND PUSH20 0xFFFFFFFFFFFFFFFFFFFFFFFFFFFFFFFFFFFFFFFF AND CALLER PUSH20 0xFFFFFFFFFFFFFFFFFFFFFFFFFFFFFFFFFFFFFFFF AND EQ PUSH2 0x4F6 JUMPI PUSH1 0x40 MLOAD PUSH32 0x8C379A000000000000000000000000000000000000000000000000000000000 DUP2 MSTORE PUSH1 0x4 ADD PUSH2 0x4ED SWAP1 PUSH2 0xA28 JUMP JUMPDEST PUSH1 0x40 MLOAD DUP1 SWAP2 SUB SWAP1 REVERT JUMPDEST DUP1 PUSH1 0x1 DUP2 SWAP1 SSTORE POP POP JUMP JUMPDEST PUSH1 0x0 DUP1 SLOAD SWAP1 PUSH2 0x100 EXP SWAP1 DIV PUSH20 0xFFFFFFFFFFFFFFFFFFFFFFFFFFFFFFFFFFFFFFFF AND PUSH20 0xFFFFFFFFFFFFFFFFFFFFFFFFFFFFFFFFFFFFFFFF AND CALLER PUSH20 0xFFFFFFFFFFFFFFFFFFFFFFFFFFFFFFFFFFFFFFFF AND EQ PUSH2 0x58E JUMPI PUSH1 0x40 MLOAD PUSH32 0x8C379A000000000000000000000000000000000000000000000000000000000 DUP2 MSTORE PUSH1 0x4 ADD PUSH2 0x585 SWAP1 PUSH2 0xA88 JUMP JUMPDEST PUSH1 0x40 MLOAD DUP1 SWAP2 SUB SWAP1 REVERT JUMPDEST PUSH1 0x2 PUSH1 0x0 DUP3 DUP2 MSTORE PUSH1 0x20 ADD SWAP1 DUP2 MSTORE PUSH1 0x20 ADD PUSH1 0x0 KECCAK256 PUSH1 0x4 ADD PUSH1 0x0 SWAP1 SLOAD SWAP1 PUSH2 0x100 EXP SWAP1 DIV PUSH1 0xFF AND ISZERO PUSH2 0x5F2 JUMPI PUSH1 0x40 MLOAD PUSH32 0x8C379A000000000000000000000000000000000000000000000000000000000 DUP2 MSTORE PUSH1 0x4 ADD PUSH2 0x5E9 SWAP1 PUSH2 0xA48 JUMP JUMPDEST PUSH1 0x40 MLOAD DUP1 SWAP2 SUB SWAP1 REVERT JUMPDEST PUSH1 0x1 PUSH1 0x2 PUSH1 0x0 DUP4 DUP2 MSTORE PUSH1 0x20 ADD SWAP1 DUP2 MSTORE PUSH1 0x20 ADD PUSH1 0x0 KECCAK256 PUSH1 0x4 ADD PUSH1 0x0 PUSH2 0x100 EXP DUP2 SLOAD DUP2 PUSH1 0xFF MUL NOT AND SWAP1 DUP4 ISZERO ISZERO MUL OR SWAP1 SSTORE POP PUSH1 0x2 PUSH1 0x0 DUP3 DUP2 MSTORE PUSH1 0x20 ADD SWAP1 DUP2 MSTORE PUSH1 0x20 ADD PUSH1 0x0 KECCAK256 PUSH1 0x0 ADD PUSH1 0x0 SWAP1 SLOAD SWAP1 PUSH2 0x100 EXP SWAP1 DIV PUSH20 0xFFFFFFFFFFFFFFFFFFFFFFFFFFFFFFFFFFFFFFFF AND PUSH20 0xFFFFFFFFFFFFFFFFFFFFFFFFFFFFFFFFFFFFFFFF AND PUSH2 0x8FC PUSH1 0x2 PUSH1 0x0 DUP5 DUP2 MSTORE PUSH1 0x20 ADD SWAP1 DUP2 MSTORE PUSH1 0x20 ADD PUSH1 0x0 KECCAK256 PUSH1 0x2 ADD SLOAD PUSH1 0x1 SLOAD PUSH2 0x695 SWAP2 SWAP1 PUSH2 0xB8F JUMP JUMPDEST SWAP1 DUP2 ISZERO MUL SWAP1 PUSH1 0x40 MLOAD PUSH1 0x0 PUSH1 0x40 MLOAD DUP1 DUP4 SUB DUP2 DUP6 DUP9 DUP9 CALL SWAP4 POP POP POP POP ISZERO DUP1 ISZERO PUSH2 0x6C0 JUMPI RETURNDATASIZE PUSH1 0x0 DUP1 RETURNDATACOPY RETURNDATASIZE PUSH1 0x0 REVERT JUMPDEST POP PUSH32 0xE21FE02C1589242B30BE2057F54FD54B7DDC463695D19FFDB54F9EBB0584F24A DUP2 PUSH1 0x40 MLOAD PUSH2 0x6F0 SWAP2 SWAP1 PUSH2 0xAA8 JUMP JUMPDEST PUSH1 0x40 MLOAD DUP1 SWAP2 SUB SWAP1 LOG1 POP JUMP JUMPDEST PUSH1 0x1 SLOAD DUP2 JUMP JUMPDEST DUP3 DUP1 SLOAD PUSH2 0x70D SWAP1 PUSH2 0xCB9 JUMP JUMPDEST SWAP1 PUSH1 0x0 MSTORE PUSH1 0x20 PUSH1 0x0 KECCAK256 SWAP1 PUSH1 0x1F ADD PUSH1 0x20 SWAP1 DIV DUP2 ADD SWAP3 DUP3 PUSH2 0x72F JUMPI PUSH1 0x0 DUP6 SSTORE PUSH2 0x776 JUMP JUMPDEST DUP3 PUSH1 0x1F LT PUSH2 0x748 JUMPI DUP1 MLOAD PUSH1 0xFF NOT AND DUP4 DUP1 ADD OR DUP6 SSTORE PUSH2 0x776 JUMP JUMPDEST DUP3 DUP1 ADD PUSH1 0x1 ADD DUP6 SSTORE DUP3 ISZERO PUSH2 0x776 JUMPI SWAP2 DUP3 ADD JUMPDEST DUP3 DUP2 GT ISZERO PUSH2 0x775 JUMPI DUP3 MLOAD DUP3 SSTORE SWAP2 PUSH1 0x20 ADD SWAP2 SWAP1 PUSH1 0x1 ADD SWAP1 PUSH2 0x75A JUMP JUMPDEST JUMPDEST POP SWAP1 POP PUSH2 0x783 SWAP2 SWAP1 PUSH2 0x787 JUMP JUMPDEST POP SWAP1 JUMP JUMPDEST JUMPDEST DUP1 DUP3 GT ISZERO PUSH2 0x7A0 JUMPI PUSH1 0x0 DUP2 PUSH1 0x0 SWAP1 SSTORE POP PUSH1 0x1 ADD PUSH2 0x788 JUMP JUMPDEST POP SWAP1 JUMP JUMPDEST PUSH1 0x0 PUSH2 0x7B7 PUSH2 0x7B2 DUP5 PUSH2 0xB42 JUMP JUMPDEST PUSH2 0xB1D JUMP JUMPDEST SWAP1 POP DUP3 DUP2 MSTORE PUSH1 0x20 DUP2 ADD DUP5 DUP5 DUP5 ADD GT ISZERO PUSH2 0x7D3 JUMPI PUSH2 0x7D2 PUSH2 0xDF7 JUMP JUMPDEST JUMPDEST PUSH2 0x7DE DUP5 DUP3 DUP6 PUSH2 0xC77 JUMP JUMPDEST POP SWAP4 SWAP3 POP POP POP JUMP JUMPDEST PUSH1 0x0 DUP3 PUSH1 0x1F DUP4 ADD SLT PUSH2 0x7FB JUMPI PUSH2 0x7FA PUSH2 0xDF2 JUMP JUMPDEST JUMPDEST DUP2 CALLDATALOAD PUSH2 0x80B DUP5 DUP3 PUSH1 0x20 DUP7 ADD PUSH2 0x7A4 JUMP JUMPDEST SWAP2 POP POP SWAP3 SWAP2 POP POP JUMP JUMPDEST PUSH1 0x0 DUP2 CALLDATALOAD SWAP1 POP PUSH2 0x823 DUP2 PUSH2 0xF07 JUMP JUMPDEST SWAP3 SWAP2 POP POP JUMP JUMPDEST PUSH1 0x0 DUP1 PUSH1 0x40 DUP4 DUP6 SUB SLT ISZERO PUSH2 0x840 JUMPI PUSH2 0x83F PUSH2 0xE01 JUMP JUMPDEST JUMPDEST PUSH1 0x0 DUP4 ADD CALLDATALOAD PUSH8 0xFFFFFFFFFFFFFFFF DUP2 GT ISZERO PUSH2 0x85E JUMPI PUSH2 0x85D PUSH2 0xDFC JUMP JUMPDEST JUMPDEST PUSH2 0x86A DUP6 DUP3 DUP7 ADD PUSH2 0x7E6 JUMP JUMPDEST SWAP3 POP POP PUSH1 0x20 PUSH2 0x87B DUP6 DUP3 DUP7 ADD PUSH2 0x814 JUMP JUMPDEST SWAP2 POP POP SWAP3 POP SWAP3 SWAP1 POP JUMP JUMPDEST PUSH1 0x0 PUSH1 0x20 DUP3 DUP5 SUB SLT ISZERO PUSH2 0x89B JUMPI PUSH2 0x89A PUSH2 0xE01 JUMP JUMPDEST JUMPDEST PUSH1 0x0 PUSH2 0x8A9 DUP5 DUP3 DUP6 ADD PUSH2 0x814 JUMP JUMPDEST SWAP2 POP POP SWAP3 SWAP2 POP POP JUMP JUMPDEST PUSH2 0x8BB DUP2 PUSH2 0xC2F JUMP JUMPDEST DUP3 MSTORE POP POP JUMP JUMPDEST PUSH2 0x8CA DUP2 PUSH2 0xC1D JUMP JUMPDEST DUP3 MSTORE POP POP JUMP JUMPDEST PUSH2 0x8D9 DUP2 PUSH2 0xC41 JUMP JUMPDEST DUP3 MSTORE POP POP JUMP JUMPDEST PUSH1 0x0 PUSH2 0x8EA DUP3 PUSH2 0xB73 JUMP JUMPDEST PUSH2 0x8F4 DUP2 DUP6 PUSH2 0xB7E JUMP JUMPDEST SWAP4 POP PUSH2 0x904 DUP2 DUP6 PUSH1 0x20 DUP7 ADD PUSH2 0xC86 JUMP JUMPDEST PUSH2 0x90D DUP2 PUSH2 0xE06 JUMP JUMPDEST DUP5 ADD SWAP2 POP POP SWAP3 SWAP2 POP POP JUMP JUMPDEST PUSH1 0x0 PUSH2 0x925 PUSH1 0x29 DUP4 PUSH2 0xB7E JUMP JUMPDEST SWAP2 POP PUSH2 0x930 DUP3 PUSH2 0xE17 JUMP JUMPDEST PUSH1 0x40 DUP3 ADD SWAP1 POP SWAP2 SWAP1 POP JUMP JUMPDEST PUSH1 0x0 PUSH2 0x948 PUSH1 0x20 DUP4 PUSH2 0xB7E JUMP JUMPDEST SWAP2 POP PUSH2 0x953 DUP3 PUSH2 0xE66 JUMP JUMPDEST PUSH1 0x20 DUP3 ADD SWAP1 POP SWAP2 SWAP1 POP JUMP JUMPDEST PUSH1 0x0 PUSH2 0x96B PUSH1 0x14 DUP4 PUSH2 0xB7E JUMP JUMPDEST SWAP2 POP PUSH2 0x976 DUP3 PUSH2 0xE8F JUMP JUMPDEST PUSH1 0x20 DUP3 ADD SWAP1 POP SWAP2 SWAP1 POP JUMP JUMPDEST PUSH1 0x0 PUSH2 0x98E PUSH1 0x26 DUP4 PUSH2 0xB7E JUMP JUMPDEST SWAP2 POP PUSH2 0x999 DUP3 PUSH2 0xEB8 JUMP JUMPDEST PUSH1 0x40 DUP3 ADD SWAP1 POP SWAP2 SWAP1 POP JUMP JUMPDEST PUSH2 0x9AD DUP2 PUSH2 0xC6D JUMP JUMPDEST DUP3 MSTORE POP POP JUMP JUMPDEST PUSH1 0x0 PUSH1 0x20 DUP3 ADD SWAP1 POP PUSH2 0x9C8 PUSH1 0x0 DUP4 ADD DUP5 PUSH2 0x8B2 JUMP JUMPDEST SWAP3 SWAP2 POP POP JUMP JUMPDEST PUSH1 0x0 PUSH1 0xA0 DUP3 ADD SWAP1 POP PUSH2 0x9E3 PUSH1 0x0 DUP4 ADD DUP9 PUSH2 0x8B2 JUMP JUMPDEST DUP2 DUP2 SUB PUSH1 0x20 DUP4 ADD MSTORE PUSH2 0x9F5 DUP2 DUP8 PUSH2 0x8DF JUMP JUMPDEST SWAP1 POP PUSH2 0xA04 PUSH1 0x40 DUP4 ADD DUP7 PUSH2 0x9A4 JUMP JUMPDEST PUSH2 0xA11 PUSH1 0x60 DUP4 ADD DUP6 PUSH2 0x9A4 JUMP JUMPDEST PUSH2 0xA1E PUSH1 0x80 DUP4 ADD DUP5 PUSH2 0x8D0 JUMP JUMPDEST SWAP7 SWAP6 POP POP POP POP POP POP JUMP JUMPDEST PUSH1 0x0 PUSH1 0x20 DUP3 ADD SWAP1 POP DUP2 DUP2 SUB PUSH1 0x0 DUP4 ADD MSTORE PUSH2 0xA41 DUP2 PUSH2 0x918 JUMP JUMPDEST SWAP1 POP SWAP2 SWAP1 POP JUMP JUMPDEST PUSH1 0x0 PUSH1 0x20 DUP3 ADD SWAP1 POP DUP2 DUP2 SUB PUSH1 0x0 DUP4 ADD MSTORE PUSH2 0xA61 DUP2 PUSH2 0x93B JUMP JUMPDEST SWAP1 POP SWAP2 SWAP1 POP JUMP JUMPDEST PUSH1 0x0 PUSH1 0x20 DUP3 ADD SWAP1 POP DUP2 DUP2 SUB PUSH1 0x0 DUP4 ADD MSTORE PUSH2 0xA81 DUP2 PUSH2 0x95E JUMP JUMPDEST SWAP1 POP SWAP2 SWAP1 POP JUMP JUMPDEST PUSH1 0x0 PUSH1 0x20 DUP3 ADD SWAP1 POP DUP2 DUP2 SUB PUSH1 0x0 DUP4 ADD MSTORE PUSH2 0xAA1 DUP2 PUSH2 0x981 JUMP JUMPDEST SWAP1 POP SWAP2 SWAP1 POP JUMP JUMPDEST PUSH1 0x0 PUSH1 0x20 DUP3 ADD SWAP1 POP PUSH2 0xABD PUSH1 0x0 DUP4 ADD DUP5 PUSH2 0x9A4 JUMP JUMPDEST SWAP3 SWAP2 POP POP JUMP JUMPDEST PUSH1 0x0 PUSH1 0xA0 DUP3 ADD SWAP1 POP PUSH2 0xAD8 PUSH1 0x0 DUP4 ADD DUP9 PUSH2 0x9A4 JUMP JUMPDEST PUSH2 0xAE5 PUSH1 0x20 DUP4 ADD DUP8 PUSH2 0x8C1 JUMP JUMPDEST DUP2 DUP2 SUB PUSH1 0x40 DUP4 ADD MSTORE PUSH2 0xAF7 DUP2 DUP7 PUSH2 0x8DF JUMP JUMPDEST SWAP1 POP PUSH2 0xB06 PUSH1 0x60 DUP4 ADD DUP6 PUSH2 0x9A4 JUMP JUMPDEST PUSH2 0xB13 PUSH1 0x80 DUP4 ADD DUP5 PUSH2 0x9A4 JUMP JUMPDEST SWAP7 SWAP6 POP POP POP POP POP POP JUMP JUMPDEST PUSH1 0x0 PUSH2 0xB27 PUSH2 0xB38 JUMP JUMPDEST SWAP1 POP PUSH2 0xB33 DUP3 DUP3 PUSH2 0xCEB JUMP JUMPDEST SWAP2 SWAP1 POP JUMP JUMPDEST PUSH1 0x0 PUSH1 0x40 MLOAD SWAP1 POP SWAP1 JUMP JUMPDEST PUSH1 0x0 PUSH8 0xFFFFFFFFFFFFFFFF DUP3 GT ISZERO PUSH2 0xB5D JUMPI PUSH2 0xB5C PUSH2 0xDC3 JUMP JUMPDEST JUMPDEST PUSH2 0xB66 DUP3 PUSH2 0xE06 JUMP JUMPDEST SWAP1 POP PUSH1 0x20 DUP2 ADD SWAP1 POP SWAP2 SWAP1 POP JUMP JUMPDEST PUSH1 0x0 DUP2 MLOAD SWAP1 POP SWAP2 SWAP1 POP JUMP JUMPDEST PUSH1 0x0 DUP3 DUP3 MSTORE PUSH1 0x20 DUP3 ADD SWAP1 POP SWAP3 SWAP2 POP POP JUMP JUMPDEST PUSH1 0x0 PUSH2 0xB9A DUP3 PUSH2 0xC6D JUMP JUMPDEST SWAP2 POP PUSH2 0xBA5 DUP4 PUSH2 0xC6D JUMP JUMPDEST SWAP3 POP DUP2 PUSH32 0xFFFFFFFFFFFFFFFFFFFFFFFFFFFFFFFFFFFFFFFFFFFFFFFFFFFFFFFFFFFFFFFF DIV DUP4 GT DUP3 ISZERO ISZERO AND ISZERO PUSH2 0xBDE JUMPI PUSH2 0xBDD PUSH2 0xD65 JUMP JUMPDEST JUMPDEST DUP3 DUP3 MUL SWAP1 POP SWAP3 SWAP2 POP POP JUMP JUMPDEST PUSH1 0x0 PUSH2 0xBF4 DUP3 PUSH2 0xC6D JUMP JUMPDEST SWAP2 POP PUSH2 0xBFF DUP4 PUSH2 0xC6D JUMP JUMPDEST SWAP3 POP DUP3 DUP3 LT ISZERO PUSH2 0xC12 JUMPI PUSH2 0xC11 PUSH2 0xD65 JUMP JUMPDEST JUMPDEST DUP3 DUP3 SUB SWAP1 POP SWAP3 SWAP2 POP POP JUMP JUMPDEST PUSH1 0x0 PUSH2 0xC28 DUP3 PUSH2 0xC4D JUMP JUMPDEST SWAP1 POP SWAP2 SWAP1 POP JUMP JUMPDEST PUSH1 0x0 PUSH2 0xC3A DUP3 PUSH2 0xC4D JUMP JUMPDEST SWAP1 POP SWAP2 SWAP1 POP JUMP JUMPDEST PUSH1 0x0 DUP2 ISZERO ISZERO SWAP1 POP SWAP2 SWAP1 POP JUMP JUMPDEST PUSH1 0x0 PUSH20 0xFFFFFFFFFFFFFFFFFFFFFFFFFFFFFFFFFFFFFFFF DUP3 AND SWAP1 POP SWAP2 SWAP1 POP JUMP JUMPDEST PUSH1 0x0 DUP2 SWAP1 POP SWAP2 SWAP1 POP JUMP JUMPDEST DUP3 DUP2 DUP4 CALLDATACOPY PUSH1 0x0 DUP4 DUP4 ADD MSTORE POP POP POP JUMP JUMPDEST PUSH1 0x0 JUMPDEST DUP4 DUP2 LT ISZERO PUSH2 0xCA4 JUMPI DUP1 DUP3 ADD MLOAD DUP2 DUP5 ADD MSTORE PUSH1 0x20 DUP2 ADD SWAP1 POP PUSH2 0xC89 JUMP JUMPDEST DUP4 DUP2 GT ISZERO PUSH2 0xCB3 JUMPI PUSH1 0x0 DUP5 DUP5 ADD MSTORE JUMPDEST POP POP POP POP JUMP JUMPDEST PUSH1 0x0 PUSH1 0x2 DUP3 DIV SWAP1 POP PUSH1 0x1 DUP3 AND DUP1 PUSH2 0xCD1 JUMPI PUSH1 0x7F DUP3 AND SWAP2 POP JUMPDEST PUSH1 0x20 DUP3 LT DUP2 EQ ISZERO PUSH2 0xCE5 JUMPI PUSH2 0xCE4 PUSH2 0xD94 JUMP JUMPDEST JUMPDEST POP SWAP2 SWAP1 POP JUMP JUMPDEST PUSH2 0xCF4 DUP3 PUSH2 0xE06 JUMP JUMPDEST DUP2 ADD DUP2 DUP2 LT PUSH8 0xFFFFFFFFFFFFFFFF DUP3 GT OR ISZERO PUSH2 0xD13 JUMPI PUSH2 0xD12 PUSH2 0xDC3 JUMP JUMPDEST JUMPDEST DUP1 PUSH1 0x40 MSTORE POP POP POP JUMP JUMPDEST PUSH1 0x0 PUSH2 0xD27 DUP3 PUSH2 0xC6D JUMP JUMPDEST SWAP2 POP PUSH32 0xFFFFFFFFFFFFFFFFFFFFFFFFFFFFFFFFFFFFFFFFFFFFFFFFFFFFFFFFFFFFFFFF DUP3 EQ ISZERO PUSH2 0xD5A JUMPI PUSH2 0xD59 PUSH2 0xD65 JUMP JUMPDEST JUMPDEST PUSH1 0x1 DUP3 ADD SWAP1 POP SWAP2 SWAP1 POP JUMP JUMPDEST PUSH32 0x4E487B7100000000000000000000000000000000000000000000000000000000 PUSH1 0x0 MSTORE PUSH1 0x11 PUSH1 0x4 MSTORE PUSH1 0x24 PUSH1 0x0 REVERT JUMPDEST PUSH32 0x4E487B7100000000000000000000000000000000000000000000000000000000 PUSH1 0x0 MSTORE PUSH1 0x22 PUSH1 0x4 MSTORE PUSH1 0x24 PUSH1 0x0 REVERT JUMPDEST PUSH32 0x4E487B7100000000000000000000000000000000000000000000000000000000 PUSH1 0x0 MSTORE PUSH1 0x41 PUSH1 0x4 MSTORE PUSH1 0x24 PUSH1 0x0 REVERT JUMPDEST PUSH1 0x0 DUP1 REVERT JUMPDEST PUSH1 0x0 DUP1 REVERT JUMPDEST PUSH1 0x0 DUP1 REVERT JUMPDEST PUSH1 0x0 DUP1 REVERT JUMPDEST PUSH1 0x0 PUSH1 0x1F NOT PUSH1 0x1F DUP4 ADD AND SWAP1 POP SWAP2 SWAP1 POP JUMP JUMPDEST PUSH32 0x4F6E6C7920706861726D616379206F776E65722063616E206368616E67652064 PUSH1 0x0 DUP3 ADD MSTORE PUSH32 0x7275672070726963650000000000000000000000000000000000000000000000 PUSH1 0x20 DUP3 ADD MSTORE POP JUMP JUMPDEST PUSH32 0x4F726465722068617320616C7265616479206265656E2064656C697665726564 PUSH1 0x0 DUP3 ADD MSTORE POP JUMP JUMPDEST PUSH32 0x496E73756666696369656E74207061796D656E74000000000000000000000000 PUSH1 0x0 DUP3 ADD MSTORE POP JUMP JUMPDEST PUSH32 0x4F6E6C7920706861726D616379206F776E65722063616E2064656C6976657220 PUSH1 0x0 DUP3 ADD MSTORE PUSH32 0x6F72646572730000000000000000000000000000000000000000000000000000 PUSH1 0x20 DUP3 ADD MSTORE POP JUMP JUMPDEST PUSH2 0xF10 DUP2 PUSH2 0xC6D JUMP JUMPDEST DUP2 EQ PUSH2 0xF1B JUMPI PUSH1 0x0 DUP1 REVERT JUMPDEST POP JUMP INVALID LOG2 PUSH5 0x6970667358 0x22 SLT KECCAK256 SWAP7 INVALID 0xA8 CALLVALUE 0xB4 CALLVALUE DUP14 PUSH28 0x4CCC49AE5B20C82F8308F983F424289BF14A9F71E4948BDD64736F6C PUSH4 0x43000807 STOP CALLER "
				},
				"gasEstimates": {
					"creation": {
						"codeDepositCost": "784800",
						"executionCost": "52212",
						"totalCost": "837012"
					},
					"external": {
						"deliverOrder(uint256)": "infinite",
						"drugPrice()": "2495",
						"orderCount()": "2430",
						"orders(uint256)": "infinite",
						"pharmacyOwner()": "2534",
						"placeOrder(string,uint256)": "infinite",
						"setDrugPrice(uint256)": "24709"
					}
				},
				"methodIdentifiers": {
					"deliverOrder(uint256)": "ddff5e7d",
					"drugPrice()": "e1729b95",
					"orderCount()": "2453ffa8",
					"orders(uint256)": "a85c38ef",
					"pharmacyOwner()": "5a985001",
					"placeOrder(string,uint256)": "a1b6e836",
					"setDrugPrice(uint256)": "cfde19e6"
				}
			},
			"storageLayout": {
				"storage": [
					{
						"astId": 3,
						"contract": "contracts/Pharmacy.sol:Pharmacy",
						"label": "pharmacyOwner",
						"offset": 0,
						"slot": "0",
						"type": "t_address_payable"
					},
					{
						"astId": 5,
						"contract": "contracts/Pharmacy.sol:Pharmacy",
						"label": "drugPrice",
						"offset": 0,
						"slot": "1",
						"type": "t_uint256"
					},
					{
						"astId": 21,
						"contract": "contracts/Pharmacy.sol:Pharmacy",
						"label": "orders",
						"offset": 0,
						"slot": "2",
						"type": "t_mapping(t_uint256,t_struct(Order)16_storage)"
					},
					{
						"astId": 23,
						"contract": "contracts/Pharmacy.sol:Pharmacy",
						"label": "orderCount",
						"offset": 0,
						"slot": "3",
						"type": "t_uint256"
					}
				],
				"types": {
					"t_address_payable": {
						"encoding": "inplace",
						"label": "address payable",
						"numberOfBytes": "20"
					},
					"t_bool": {
						"encoding": "inplace",
						"label": "bool",
						"numberOfBytes": "1"
					},
					"t_mapping(t_uint256,t_struct(Order)16_storage)": {
						"encoding": "mapping",
						"key": "t_uint256",
						"label": "mapping(uint256 => struct Pharmacy.Order)",
						"numberOfBytes": "32",
						"value": "t_struct(Order)16_storage"
					},
					"t_string_storage": {
						"encoding": "bytes",
						"label": "string",
						"numberOfBytes": "32"
					},
					"t_struct(Order)16_storage": {
						"encoding": "inplace",
						"label": "struct Pharmacy.Order",
						"members": [
							{
								"astId": 7,
								"contract": "contracts/Pharmacy.sol:Pharmacy",
								"label": "patient",
								"offset": 0,
								"slot": "0",
								"type": "t_address_payable"
							},
							{
								"astId": 9,
								"contract": "contracts/Pharmacy.sol:Pharmacy",
								"label": "drugName",
								"offset": 0,
								"slot": "1",
								"type": "t_string_storage"
							},
							{
								"astId": 11,
								"contract": "contracts/Pharmacy.sol:Pharmacy",
								"label": "quantity",
								"offset": 0,
								"slot": "2",
								"type": "t_uint256"
							},
							{
								"astId": 13,
								"contract": "contracts/Pharmacy.sol:Pharmacy",
								"label": "amountPaid",
								"offset": 0,
								"slot": "3",
								"type": "t_uint256"
							},
							{
								"astId": 15,
								"contract": "contracts/Pharmacy.sol:Pharmacy",
								"label": "isDelivered",
								"offset": 0,
								"slot": "4",
								"type": "t_bool"
							}
						],
						"numberOfBytes": "160"
					},
					"t_uint256": {
						"encoding": "inplace",
						"label": "uint256",
						"numberOfBytes": "32"
					}
				}
			},
			"userdoc": {
				"kind": "user",
				"methods": {},
				"version": 1
			}
		}
	}
}