{
	"data": {
		"bytecode": {
			"linkReferences": {},
			"object": "60806040525f6014555f6015555f6016555f6017555f601855348015610023575f80fd5b506158af80620000325f395ff3fe608060405234801561000f575f80fd5b5060043610610288575f3560e01c80638093aa5d1161015a578063b13d5d94116100cc578063d0568a4d11610085578063d0568a4d14610803578063d0f2e2b71461081f578063de623b0f1461084f578063e6fce0d21461086b578063e93a15b91461089b578063eebc3fb2146108cb57610288565b8063b13d5d941461072d578063babb1d411461074b578063c0cb24ba1461077b578063c190665b14610799578063caee6c85146107b7578063d002d3b1146107e757610288565b80639179cb8a1161011e5780639179cb8a1461066a578063920419821461068657806393961dc5146106b757806396b80d08146106d3578063a0303c41146106f1578063a1b141d41461070f57610288565b80638093aa5d146105c657806380ba2e86146105f65780638afa670b146106125780638da5cb5b146106305780639119855d1461064e57610288565b80632f9455d5116101fe5780635c2f4ef9116101b75780635c2f4ef914610500578063625961fc1461051e57806373bdec1a1461054e57806374198e611461056c57806378522bc41461058a57806379111c1c146105a857610288565b80632f9455d5146104195780633bc98280146104495780633d391f701461047a5780634b6e7d78146104aa5780634c14b38d146104b4578063549a73cd146104e457610288565b806320228e831161025057806320228e8314610344578063245f96861461037457806324c24b2b14610390578063261b73f3146103ae57806329e4afbb146103ca5780632a825ba0146103e857610288565b806302516abd1461028c578063118d1a04146102bc578063127ca4b4146102da57806312ad1c371461030a57806318f93be114610328575b5f80fd5b6102a660048036038101906102a1919061459f565b6108e9565b6040516102b391906145e4565b60405180910390f35b6102c4610982565b6040516102d19190614677565b60405180910390f35b6102f460048036038101906102ef91906146ba565b610a9b565b60405161030191906146f4565b60405180910390f35b610312610ad6565b60405161031f91906147b5565b60405180910390f35b610342600480360381019061033d919061493b565b610b61565b005b61035e600480360381019061035991906146ba565b610c96565b60405161036b91906146f4565b60405180910390f35b61038e60048036038101906103899190614ab0565b610cd1565b005b610398610f2e565b6040516103a59190614c04565b60405180910390f35b6103c860048036038101906103c39190614ab0565b610f37565b005b6103d26110c2565b6040516103df9190614c04565b60405180910390f35b61040260048036038101906103fd919061459f565b6110cb565b604051610410929190614e1c565b60405180910390f35b610433600480360381019061042e91906146ba565b6118a9565b60405161044091906146f4565b60405180910390f35b610463600480360381019061045e919061459f565b6118e4565b604051610471929190614e1c565b60405180910390f35b610494600480360381019061048f919061459f565b6120c2565b6040516104a191906145e4565b60405180910390f35b6104b2612173565b005b6104ce60048036038101906104c9919061459f565b6121b4565b6040516104db9190614c04565b60405180910390f35b6104fe60048036038101906104f99190614e4a565b612202565b005b6105086122f6565b6040516105159190614edb565b60405180910390f35b6105386004803603810190610533919061459f565b612410565b6040516105459190614c04565b60405180910390f35b61055661245e565b60405161056391906147b5565b60405180910390f35b6105746124e9565b6040516105819190614ef4565b60405180910390f35b610592612602565b60405161059f9190614c04565b60405180910390f35b6105b0612608565b6040516105bd9190614c04565b60405180910390f35b6105e060048036038101906105db91906146ba565b612611565b6040516105ed91906146f4565b60405180910390f35b610610600480360381019061060b9190614f0d565b61264c565b005b61061a6127b1565b6040516106279190614c04565b60405180910390f35b6106386127fd565b60405161064591906146f4565b60405180910390f35b61066860048036038101906106639190614e4a565b612820565b005b610684600480360381019061067f919061493b565b612914565b005b6106a0600480360381019061069b919061459f565b612b59565b6040516106ae92919061532a565b60405180910390f35b6106d160048036038101906106cc9190614e4a565b613523565b005b6106db613616565b6040516106e891906147b5565b60405180910390f35b6106f96136a1565b6040516107069190614c04565b60405180910390f35b6107176136a7565b6040516107249190614c04565b60405180910390f35b6107356136ad565b60405161074291906147b5565b60405180910390f35b610765600480360381019061076091906146ba565b613738565b60405161077291906146f4565b60405180910390f35b610783613773565b6040516107909190614c04565b60405180910390f35b6107a1613779565b6040516107ae9190614c04565b60405180910390f35b6107d160048036038101906107cc919061459f565b613782565b6040516107de919061535f565b60405180910390f35b61080160048036038101906107fc919061537f565b613ccf565b005b61081d60048036038101906108189190614f0d565b613ebe565b005b610839600480360381019061083491906146ba565b614180565b60405161084691906146f4565b60405180910390f35b6108696004803603810190610864919061537f565b6141bb565b005b610885600480360381019061088091906146ba565b6142dd565b60405161089291906146f4565b60405180910390f35b6108b560048036038101906108b0919061459f565b614318565b6040516108c29190614c04565b60405180910390f35b6108d361435e565b6040516108e09190614c04565b60405180910390f35b5f80600f5f3373ffffffffffffffffffffffffffffffffffffffff1673ffffffffffffffffffffffffffffffffffffffff1681526020019081526020015f205f8473ffffffffffffffffffffffffffffffffffffffff1673ffffffffffffffffffffffffffffffffffffffff1681526020019081526020015f205f6101000a81548160ff02191690831515021790555060019050919050565b61098a614364565b60115f3373ffffffffffffffffffffffffffffffffffffffff1673ffffffffffffffffffffffffffffffffffffffff1681526020019081526020015f205f9054906101000a900460ff166109dc575f80fd5b600c5f3373ffffffffffffffffffffffffffffffffffffffff1673ffffffffffffffffffffffffffffffffffffffff1681526020019081526020015f206040518060800160405290815f82015f9054906101000a900473ffffffffffffffffffffffffffffffffffffffff1673ffffffffffffffffffffffffffffffffffffffff1673ffffffffffffffffffffffffffffffffffffffff1681526020016001820154815260200160028201548152602001600382015481525050905090565b60038181548110610aaa575f80fd5b905f5260205f20015f915054906101000a900473ffffffffffffffffffffffffffffffffffffffff1681565b60606001805480602002602001604051908101604052809291908181526020018280548015610b5757602002820191905f5260205f20905b815f9054906101000a900473ffffffffffffffffffffffffffffffffffffffff1673ffffffffffffffffffffffffffffffffffffffff1681526020019060010190808311610b0e575b5050505050905090565b60115f3373ffffffffffffffffffffffffffffffffffffffff1673ffffffffffffffffffffffffffffffffffffffff1681526020019081526020015f205f9054906101000a900460ff16610bb3575f80fd5b5f600b5f3373ffffffffffffffffffffffffffffffffffffffff1673ffffffffffffffffffffffffffffffffffffffff1681526020019081526020015f20905088815f019081610c0391906156be565b5087816001019081610c1591906156be565b5086816002019081610c2791906156be565b5085816003019081610c3991906156be565b5084816004019081610c4b91906156be565b5083816005019081610c5d91906156be565b5082816006019081610c6f91906156be565b5081816008015f6101000a81548160ff021916908315150217905550505050505050505050565b60048181548110610ca5575f80fd5b905f5260205f20015f915054906101000a900473ffffffffffffffffffffffffffffffffffffffff1681565b60115f3373ffffffffffffffffffffffffffffffffffffffff1673ffffffffffffffffffffffffffffffffffffffff1681526020019081526020015f205f9054906101000a900460ff16610d23575f80fd5b5f60095f8973ffffffffffffffffffffffffffffffffffffffff1673ffffffffffffffffffffffffffffffffffffffff1681526020019081526020015f20905033815f015f6101000a81548173ffffffffffffffffffffffffffffffffffffffff021916908373ffffffffffffffffffffffffffffffffffffffff16021790555087816001015f6101000a81548173ffffffffffffffffffffffffffffffffffffffff021916908373ffffffffffffffffffffffffffffffffffffffff16021790555086816002019081610df791906156be565b5085816003019081610e0991906156be565b5084816006019081610e1b91906156be565b5083816004019081610e2d91906156be565b5082816005019081610e3f91906156be565b5081816007019081610e5191906156be565b50428160080181905550600788908060018154018082558091505060019003905f5260205f20015f9091909190916101000a81548173ffffffffffffffffffffffffffffffffffffffff021916908373ffffffffffffffffffffffffffffffffffffffff16021790555060175f815480929190610ecd906157ba565b919050555060135f8973ffffffffffffffffffffffffffffffffffffffff1673ffffffffffffffffffffffffffffffffffffffff1681526020019081526020015f205f815480929190610f1f906157ba565b91905055505050505050505050565b5f601854905090565b60115f3373ffffffffffffffffffffffffffffffffffffffff1673ffffffffffffffffffffffffffffffffffffffff1681526020019081526020015f205f9054906101000a900460ff16610f89575f80fd5b5f60095f3373ffffffffffffffffffffffffffffffffffffffff1673ffffffffffffffffffffffffffffffffffffffff1681526020019081526020015f20905033815f015f6101000a81548173ffffffffffffffffffffffffffffffffffffffff021916908373ffffffffffffffffffffffffffffffffffffffff16021790555087816001015f6101000a81548173ffffffffffffffffffffffffffffffffffffffff021916908373ffffffffffffffffffffffffffffffffffffffff1602179055508681600201908161105d91906156be565b508581600301908161106f91906156be565b508481600601908161108191906156be565b508381600401908161109391906156be565b50828160050190816110a591906156be565b50818160070190816110b791906156be565b505050505050505050565b5f601754905090565b6110d361439e565b6110db6143f8565b600f5f8473ffffffffffffffffffffffffffffffffffffffff1673ffffffffffffffffffffffffffffffffffffffff1681526020019081526020015f205f3373ffffffffffffffffffffffffffffffffffffffff1673ffffffffffffffffffffffffffffffffffffffff1681526020019081526020015f205f9054906101000a900460ff16611168575f80fd5b60085f8473ffffffffffffffffffffffffffffffffffffffff1673ffffffffffffffffffffffffffffffffffffffff1681526020019081526020015f20600a5f8573ffffffffffffffffffffffffffffffffffffffff1673ffffffffffffffffffffffffffffffffffffffff1681526020019081526020015f2081604051806101600160405290815f820180546111fe906154f1565b80601f016020809104026020016040519081016040528092919081815260200182805461122a906154f1565b80156112755780601f1061124c57610100808354040283529160200191611275565b820191905f5260205f20905b81548152906001019060200180831161125857829003601f168201915b5050505050815260200160018201805461128e906154f1565b80601f01602080910402602001604051908101604052809291908181526020018280546112ba906154f1565b80156113055780601f106112dc57610100808354040283529160200191611305565b820191905f5260205f20905b8154815290600101906020018083116112e857829003601f168201915b5050505050815260200160028201805461131e906154f1565b80601f016020809104026020016040519081016040528092919081815260200182805461134a906154f1565b80156113955780601f1061136c57610100808354040283529160200191611395565b820191905f5260205f20905b81548152906001019060200180831161137857829003601f168201915b505050505081526020016003820180546113ae906154f1565b80601f01602080910402602001604051908101604052809291908181526020018280546113da906154f1565b80156114255780601f106113fc57610100808354040283529160200191611425565b820191905f5260205f20905b81548152906001019060200180831161140857829003601f168201915b5050505050815260200160048201805461143e906154f1565b80601f016020809104026020016040519081016040528092919081815260200182805461146a906154f1565b80156114b55780601f1061148c576101008083540402835291602001916114b5565b820191905f5260205f20905b81548152906001019060200180831161149857829003601f168201915b505050505081526020016005820180546114ce906154f1565b80601f01602080910402602001604051908101604052809291908181526020018280546114fa906154f1565b80156115455780601f1061151c57610100808354040283529160200191611545565b820191905f5260205f20905b81548152906001019060200180831161152857829003601f168201915b5050505050815260200160068201805461155e906154f1565b80601f016020809104026020016040519081016040528092919081815260200182805461158a906154f1565b80156115d55780601f106115ac576101008083540402835291602001916115d5565b820191905f5260205f20905b8154815290600101906020018083116115b857829003601f168201915b505050505081526020016007820180546115ee906154f1565b80601f016020809104026020016040519081016040528092919081815260200182805461161a906154f1565b80156116655780601f1061163c57610100808354040283529160200191611665565b820191905f5260205f20905b81548152906001019060200180831161164857829003601f168201915b5050505050815260200160088201805461167e906154f1565b80601f01602080910402602001604051908101604052809291908181526020018280546116aa906154f1565b80156116f55780601f106116cc576101008083540402835291602001916116f5565b820191905f5260205f20905b8154815290600101906020018083116116d857829003601f168201915b5050505050815260200160098201805461170e906154f1565b80601f016020809104026020016040519081016040528092919081815260200182805461173a906154f1565b80156117855780601f1061175c57610100808354040283529160200191611785565b820191905f5260205f20905b81548152906001019060200180831161176857829003601f168201915b50505050508152602001600a8201805461179e906154f1565b80601f01602080910402602001604051908101604052809291908181526020018280546117ca906154f1565b80156118155780601f106117ec57610100808354040283529160200191611815565b820191905f5260205f20905b8154815290600101906020018083116117f857829003601f168201915b5050505050815250509150806040518060800160405290815f82015f9054906101000a900473ffffffffffffffffffffffffffffffffffffffff1673ffffffffffffffffffffffffffffffffffffffff1673ffffffffffffffffffffffffffffffffffffffff1681526020016001820154815260200160028201548152602001600382015481525050905091509150915091565b600681815481106118b8575f80fd5b905f5260205f20015f915054906101000a900473ffffffffffffffffffffffffffffffffffffffff1681565b6118ec61439e565b6118f46143f8565b600f5f8473ffffffffffffffffffffffffffffffffffffffff1673ffffffffffffffffffffffffffffffffffffffff1681526020019081526020015f205f3373ffffffffffffffffffffffffffffffffffffffff1673ffffffffffffffffffffffffffffffffffffffff1681526020019081526020015f205f9054906101000a900460ff16611981575f80fd5b60085f8473ffffffffffffffffffffffffffffffffffffffff1673ffffffffffffffffffffffffffffffffffffffff1681526020019081526020015f20600a5f8573ffffffffffffffffffffffffffffffffffffffff1673ffffffffffffffffffffffffffffffffffffffff1681526020019081526020015f2081604051806101600160405290815f82018054611a17906154f1565b80601f0160208091040260200160405190810160405280929190818152602001828054611a43906154f1565b8015611a8e5780601f10611a6557610100808354040283529160200191611a8e565b820191905f5260205f20905b815481529060010190602001808311611a7157829003601f168201915b50505050508152602001600182018054611aa7906154f1565b80601f0160208091040260200160405190810160405280929190818152602001828054611ad3906154f1565b8015611b1e5780601f10611af557610100808354040283529160200191611b1e565b820191905f5260205f20905b815481529060010190602001808311611b0157829003601f168201915b50505050508152602001600282018054611b37906154f1565b80601f0160208091040260200160405190810160405280929190818152602001828054611b63906154f1565b8015611bae5780601f10611b8557610100808354040283529160200191611bae565b820191905f5260205f20905b815481529060010190602001808311611b9157829003601f168201915b50505050508152602001600382018054611bc7906154f1565b80601f0160208091040260200160405190810160405280929190818152602001828054611bf3906154f1565b8015611c3e5780601f10611c1557610100808354040283529160200191611c3e565b820191905f5260205f20905b815481529060010190602001808311611c2157829003601f168201915b50505050508152602001600482018054611c57906154f1565b80601f0160208091040260200160405190810160405280929190818152602001828054611c83906154f1565b8015611cce5780601f10611ca557610100808354040283529160200191611cce565b820191905f5260205f20905b815481529060010190602001808311611cb157829003601f168201915b50505050508152602001600582018054611ce7906154f1565b80601f0160208091040260200160405190810160405280929190818152602001828054611d13906154f1565b8015611d5e5780601f10611d3557610100808354040283529160200191611d5e565b820191905f5260205f20905b815481529060010190602001808311611d4157829003601f168201915b50505050508152602001600682018054611d77906154f1565b80601f0160208091040260200160405190810160405280929190818152602001828054611da3906154f1565b8015611dee5780601f10611dc557610100808354040283529160200191611dee565b820191905f5260205f20905b815481529060010190602001808311611dd157829003601f168201915b50505050508152602001600782018054611e07906154f1565b80601f0160208091040260200160405190810160405280929190818152602001828054611e33906154f1565b8015611e7e5780601f10611e5557610100808354040283529160200191611e7e565b820191905f5260205f20905b815481529060010190602001808311611e6157829003601f168201915b50505050508152602001600882018054611e97906154f1565b80601f0160208091040260200160405190810160405280929190818152602001828054611ec3906154f1565b8015611f0e5780601f10611ee557610100808354040283529160200191611f0e565b820191905f5260205f20905b815481529060010190602001808311611ef157829003601f168201915b50505050508152602001600982018054611f27906154f1565b80601f0160208091040260200160405190810160405280929190818152602001828054611f53906154f1565b8015611f9e5780601f10611f7557610100808354040283529160200191611f9e565b820191905f5260205f20905b815481529060010190602001808311611f8157829003601f168201915b50505050508152602001600a82018054611fb7906154f1565b80601f0160208091040260200160405190810160405280929190818152602001828054611fe3906154f1565b801561202e5780601f106120055761010080835404028352916020019161202e565b820191905f5260205f20905b81548152906001019060200180831161201157829003601f168201915b5050505050815250509150806040518060800160405290815f82015f9054906101000a900473ffffffffffffffffffffffffffffffffffffffff1673ffffffffffffffffffffffffffffffffffffffff1673ffffffffffffffffffffffffffffffffffffffff1681526020016001820154815260200160028201548152602001600382015481525050905091509150915091565b5f6001600f5f3373ffffffffffffffffffffffffffffffffffffffff1673ffffffffffffffffffffffffffffffffffffffff1681526020019081526020015f205f8473ffffffffffffffffffffffffffffffffffffffff1673ffffffffffffffffffffffffffffffffffffffff1681526020019081526020015f205f6101000a81548160ff02191690831515021790555060185f815480929190612165906157ba565b919050555060019050919050565b335f806101000a81548173ffffffffffffffffffffffffffffffffffffffff021916908373ffffffffffffffffffffffffffffffffffffffff160217905550565b5f8060095f8473ffffffffffffffffffffffffffffffffffffffff1673ffffffffffffffffffffffffffffffffffffffff1681526020019081526020015f2090508060080154915050919050565b60115f3373ffffffffffffffffffffffffffffffffffffffff1673ffffffffffffffffffffffffffffffffffffffff1681526020019081526020015f205f9054906101000a900460ff1615612255575f80fd5b5f600c5f3373ffffffffffffffffffffffffffffffffffffffff1673ffffffffffffffffffffffffffffffffffffffff1681526020019081526020015f20905033815f015f6101000a81548173ffffffffffffffffffffffffffffffffffffffff021916908373ffffffffffffffffffffffffffffffffffffffff160217905550428160030181905550828160020181905550818160010181905550505050565b6122fe614432565b60125f3373ffffffffffffffffffffffffffffffffffffffff1673ffffffffffffffffffffffffffffffffffffffff1681526020019081526020015f205f9054906101000a900460ff1615612351575f80fd5b600e5f3373ffffffffffffffffffffffffffffffffffffffff1673ffffffffffffffffffffffffffffffffffffffff1681526020019081526020015f206040518060800160405290815f82015f9054906101000a900473ffffffffffffffffffffffffffffffffffffffff1673ffffffffffffffffffffffffffffffffffffffff1673ffffffffffffffffffffffffffffffffffffffff1681526020016001820154815260200160028201548152602001600382015481525050905090565b5f80600b5f8473ffffffffffffffffffffffffffffffffffffffff1673ffffffffffffffffffffffffffffffffffffffff1681526020019081526020015f2090508060090154915050919050565b606060058054806020026020016040519081016040528092919081815260200182805480156124df57602002820191905f5260205f20905b815f9054906101000a900473ffffffffffffffffffffffffffffffffffffffff1673ffffffffffffffffffffffffffffffffffffffff1681526020019060010190808311612496575b5050505050905090565b6124f16143f8565b60105f3373ffffffffffffffffffffffffffffffffffffffff1673ffffffffffffffffffffffffffffffffffffffff1681526020019081526020015f205f9054906101000a900460ff16612543575f80fd5b600a5f3373ffffffffffffffffffffffffffffffffffffffff1673ffffffffffffffffffffffffffffffffffffffff1681526020019081526020015f206040518060800160405290815f82015f9054906101000a900473ffffffffffffffffffffffffffffffffffffffff1673ffffffffffffffffffffffffffffffffffffffff1673ffffffffffffffffffffffffffffffffffffffff1681526020016001820154815260200160028201548152602001600382015481525050905090565b60155481565b5f601554905090565b60028181548110612620575f80fd5b905f5260205f20015f915054906101000a900473ffffffffffffffffffffffffffffffffffffffff1681565b60105f3373ffffffffffffffffffffffffffffffffffffffff1673ffffffffffffffffffffffffffffffffffffffff1681526020019081526020015f205f9054906101000a900460ff1661269e575f80fd5b5f60085f3373ffffffffffffffffffffffffffffffffffffffff1673ffffffffffffffffffffffffffffffffffffffff1681526020019081526020015f2090508b815f0190816126ee91906156be565b508a81600101908161270091906156be565b508981600201908161271291906156be565b508881600301908161272491906156be565b508781600601908161273691906156be565b508681600401908161274891906156be565b508581600501908161275a91906156be565b508481600701908161276c91906156be565b508381600801908161277e91906156be565b508281600901908161279091906156be565b508181600a0190816127a291906156be565b50505050505050505050505050565b5f80600a5f3373ffffffffffffffffffffffffffffffffffffffff1673ffffffffffffffffffffffffffffffffffffffff1681526020019081526020015f209050806001015491505090565b5f8054906101000a900473ffffffffffffffffffffffffffffffffffffffff1681565b60125f3373ffffffffffffffffffffffffffffffffffffffff1673ffffffffffffffffffffffffffffffffffffffff1681526020019081526020015f205f9054906101000a900460ff1615612873575f80fd5b5f600e5f3373ffffffffffffffffffffffffffffffffffffffff1673ffffffffffffffffffffffffffffffffffffffff1681526020019081526020015f20905033815f015f6101000a81548173ffffffffffffffffffffffffffffffffffffffff021916908373ffffffffffffffffffffffffffffffffffffffff160217905550428160010181905550828160030181905550818160020181905550505050565b60115f3373ffffffffffffffffffffffffffffffffffffffff1673ffffffffffffffffffffffffffffffffffffffff1681526020019081526020015f205f9054906101000a900460ff1615612967575f80fd5b5f8251116129aa576040517f08c379a00000000000000000000000000000000000000000000000000000000081526004016129a19061585b565b60405180910390fd5b5f600b5f3373ffffffffffffffffffffffffffffffffffffffff1673ffffffffffffffffffffffffffffffffffffffff1681526020019081526020015f20905088815f0190816129fa91906156be565b5087816001019081612a0c91906156be565b5086816002019081612a1e91906156be565b5085816003019081612a3091906156be565b5084816004019081612a4291906156be565b5083816005019081612a5491906156be565b5082816006019081612a6691906156be565b5081816008015f6101000a81548160ff021916908315150217905550600333908060018154018082558091505060019003905f5260205f20015f9091909190916101000a81548173ffffffffffffffffffffffffffffffffffffffff021916908373ffffffffffffffffffffffffffffffffffffffff160217905550600160115f3373ffffffffffffffffffffffffffffffffffffffff1673ffffffffffffffffffffffffffffffffffffffff1681526020019081526020015f205f6101000a81548160ff02191690831515021790555060155f815480929190612b49906157ba565b9190505550505050505050505050565b612b6161446c565b612b696144e1565b5f60095f8573ffffffffffffffffffffffffffffffffffffffff1673ffffffffffffffffffffffffffffffffffffffff1681526020019081526020015f20905060095f8573ffffffffffffffffffffffffffffffffffffffff1673ffffffffffffffffffffffffffffffffffffffff1681526020019081526020015f20600b5f835f015f9054906101000a900473ffffffffffffffffffffffffffffffffffffffff1673ffffffffffffffffffffffffffffffffffffffff1673ffffffffffffffffffffffffffffffffffffffff1681526020019081526020015f2081604051806101200160405290815f82015f9054906101000a900473ffffffffffffffffffffffffffffffffffffffff1673ffffffffffffffffffffffffffffffffffffffff1673ffffffffffffffffffffffffffffffffffffffff168152602001600182015f9054906101000a900473ffffffffffffffffffffffffffffffffffffffff1673ffffffffffffffffffffffffffffffffffffffff1673ffffffffffffffffffffffffffffffffffffffff168152602001600282018054612d0b906154f1565b80601f0160208091040260200160405190810160405280929190818152602001828054612d37906154f1565b8015612d825780601f10612d5957610100808354040283529160200191612d82565b820191905f5260205f20905b815481529060010190602001808311612d6557829003601f168201915b50505050508152602001600382018054612d9b906154f1565b80601f0160208091040260200160405190810160405280929190818152602001828054612dc7906154f1565b8015612e125780601f10612de957610100808354040283529160200191612e12565b820191905f5260205f20905b815481529060010190602001808311612df557829003601f168201915b50505050508152602001600482018054612e2b906154f1565b80601f0160208091040260200160405190810160405280929190818152602001828054612e57906154f1565b8015612ea25780601f10612e7957610100808354040283529160200191612ea2565b820191905f5260205f20905b815481529060010190602001808311612e8557829003601f168201915b50505050508152602001600582018054612ebb906154f1565b80601f0160208091040260200160405190810160405280929190818152602001828054612ee7906154f1565b8015612f325780601f10612f0957610100808354040283529160200191612f32565b820191905f5260205f20905b815481529060010190602001808311612f1557829003601f168201915b50505050508152602001600682018054612f4b906154f1565b80601f0160208091040260200160405190810160405280929190818152602001828054612f77906154f1565b8015612fc25780601f10612f9957610100808354040283529160200191612fc2565b820191905f5260205f20905b815481529060010190602001808311612fa557829003601f168201915b50505050508152602001600782018054612fdb906154f1565b80601f0160208091040260200160405190810160405280929190818152602001828054613007906154f1565b80156130525780601f1061302957610100808354040283529160200191613052565b820191905f5260205f20905b81548152906001019060200180831161303557829003601f168201915b50505050508152602001600882015481525050915080604051806101400160405290815f82018054613083906154f1565b80601f01602080910402602001604051908101604052809291908181526020018280546130af906154f1565b80156130fa5780601f106130d1576101008083540402835291602001916130fa565b820191905f5260205f20905b8154815290600101906020018083116130dd57829003601f168201915b50505050508152602001600182018054613113906154f1565b80601f016020809104026020016040519081016040528092919081815260200182805461313f906154f1565b801561318a5780601f106131615761010080835404028352916020019161318a565b820191905f5260205f20905b81548152906001019060200180831161316d57829003601f168201915b505050505081526020016002820180546131a3906154f1565b80601f01602080910402602001604051908101604052809291908181526020018280546131cf906154f1565b801561321a5780601f106131f15761010080835404028352916020019161321a565b820191905f5260205f20905b8154815290600101906020018083116131fd57829003601f168201915b50505050508152602001600382018054613233906154f1565b80601f016020809104026020016040519081016040528092919081815260200182805461325f906154f1565b80156132aa5780601f10613281576101008083540402835291602001916132aa565b820191905f5260205f20905b81548152906001019060200180831161328d57829003601f168201915b505050505081526020016004820180546132c3906154f1565b80601f01602080910402602001604051908101604052809291908181526020018280546132ef906154f1565b801561333a5780601f106133115761010080835404028352916020019161333a565b820191905f5260205f20905b81548152906001019060200180831161331d57829003601f168201915b50505050508152602001600582018054613353906154f1565b80601f016020809104026020016040519081016040528092919081815260200182805461337f906154f1565b80156133ca5780601f106133a1576101008083540402835291602001916133ca565b820191905f5260205f20905b8154815290600101906020018083116133ad57829003601f168201915b505050505081526020016006820180546133e3906154f1565b80601f016020809104026020016040519081016040528092919081815260200182805461340f906154f1565b801561345a5780601f106134315761010080835404028352916020019161345a565b820191905f5260205f20905b81548152906001019060200180831161343d57829003601f168201915b50505050508152602001600782018054613473906154f1565b80601f016020809104026020016040519081016040528092919081815260200182805461349f906154f1565b80156134ea5780601f106134c1576101008083540402835291602001916134ea565b820191905f5260205f20905b8154815290600101906020018083116134cd57829003601f168201915b50505050508152602001600882015f9054906101000a900460ff1615151515815260200160098201548152505090509250925050915091565b60105f3373ffffffffffffffffffffffffffffffffffffffff1673ffffffffffffffffffffffffffffffffffffffff1681526020019081526020015f205f9054906101000a900460ff16613575575f80fd5b5f600a5f3373ffffffffffffffffffffffffffffffffffffffff1673ffffffffffffffffffffffffffffffffffffffff1681526020019081526020015f20905033815f015f6101000a81548173ffffffffffffffffffffffffffffffffffffffff021916908373ffffffffffffffffffffffffffffffffffffffff160217905550428160010181905550828160030181905550818160020181905550505050565b6060600780548060200260200160405190810160405280929190818152602001828054801561369757602002820191905f5260205f20905b815f9054906101000a900473ffffffffffffffffffffffffffffffffffffffff1673ffffffffffffffffffffffffffffffffffffffff168152602001906001019080831161364e575b5050505050905090565b60145481565b60165481565b6060600380548060200260200160405190810160405280929190818152602001828054801561372e57602002820191905f5260205f20905b815f9054906101000a900473ffffffffffffffffffffffffffffffffffffffff1673ffffffffffffffffffffffffffffffffffffffff16815260200190600101908083116136e5575b5050505050905090565b60018181548110613747575f80fd5b905f5260205f20015f915054906101000a900473ffffffffffffffffffffffffffffffffffffffff1681565b60185481565b5f601454905090565b61378a6144e1565b60115f8373ffffffffffffffffffffffffffffffffffffffff1673ffffffffffffffffffffffffffffffffffffffff1681526020019081526020015f205f9054906101000a900460ff166137dc575f80fd5b600b5f8373ffffffffffffffffffffffffffffffffffffffff1673ffffffffffffffffffffffffffffffffffffffff1681526020019081526020015f20604051806101400160405290815f82018054613834906154f1565b80601f0160208091040260200160405190810160405280929190818152602001828054613860906154f1565b80156138ab5780601f10613882576101008083540402835291602001916138ab565b820191905f5260205f20905b81548152906001019060200180831161388e57829003601f168201915b505050505081526020016001820180546138c4906154f1565b80601f01602080910402602001604051908101604052809291908181526020018280546138f0906154f1565b801561393b5780601f106139125761010080835404028352916020019161393b565b820191905f5260205f20905b81548152906001019060200180831161391e57829003601f168201915b50505050508152602001600282018054613954906154f1565b80601f0160208091040260200160405190810160405280929190818152602001828054613980906154f1565b80156139cb5780601f106139a2576101008083540402835291602001916139cb565b820191905f5260205f20905b8154815290600101906020018083116139ae57829003601f168201915b505050505081526020016003820180546139e4906154f1565b80601f0160208091040260200160405190810160405280929190818152602001828054613a10906154f1565b8015613a5b5780601f10613a3257610100808354040283529160200191613a5b565b820191905f5260205f20905b815481529060010190602001808311613a3e57829003601f168201915b50505050508152602001600482018054613a74906154f1565b80601f0160208091040260200160405190810160405280929190818152602001828054613aa0906154f1565b8015613aeb5780601f10613ac257610100808354040283529160200191613aeb565b820191905f5260205f20905b815481529060010190602001808311613ace57829003601f168201915b50505050508152602001600582018054613b04906154f1565b80601f0160208091040260200160405190810160405280929190818152602001828054613b30906154f1565b8015613b7b5780601f10613b5257610100808354040283529160200191613b7b565b820191905f5260205f20905b815481529060010190602001808311613b5e57829003601f168201915b50505050508152602001600682018054613b94906154f1565b80601f0160208091040260200160405190810160405280929190818152602001828054613bc0906154f1565b8015613c0b5780601f10613be257610100808354040283529160200191613c0b565b820191905f5260205f20905b815481529060010190602001808311613bee57829003601f168201915b50505050508152602001600782018054613c24906154f1565b80601f0160208091040260200160405190810160405280929190818152602001828054613c50906154f1565b8015613c9b5780601f10613c7257610100808354040283529160200191613c9b565b820191905f5260205f20905b815481529060010190602001808311613c7e57829003601f168201915b50505050508152602001600882015f9054906101000a900460ff161515151581526020016009820154815250509050919050565b60125f3373ffffffffffffffffffffffffffffffffffffffff1673ffffffffffffffffffffffffffffffffffffffff1681526020019081526020015f205f9054906101000a900460ff1615613d22575f80fd5b5f600d5f3373ffffffffffffffffffffffffffffffffffffffff1673ffffffffffffffffffffffffffffffffffffffff1681526020019081526020015f20905087815f019081613d7291906156be565b5086816001019081613d8491906156be565b5085816002019081613d9691906156be565b5084816003019081613da891906156be565b5083816004019081613dba91906156be565b5082816006019081613dcc91906156be565b5081816007015f6101000a81548160ff021916908315150217905550600333908060018154018082558091505060019003905f5260205f20015f9091909190916101000a81548173ffffffffffffffffffffffffffffffffffffffff021916908373ffffffffffffffffffffffffffffffffffffffff160217905550600160115f3373ffffffffffffffffffffffffffffffffffffffff1673ffffffffffffffffffffffffffffffffffffffff1681526020019081526020015f205f6101000a81548160ff02191690831515021790555060155f815480929190613eaf906157ba565b91905055505050505050505050565b60105f3373ffffffffffffffffffffffffffffffffffffffff1673ffffffffffffffffffffffffffffffffffffffff1681526020019081526020015f205f9054906101000a900460ff1615613f11575f80fd5b5f60085f3373ffffffffffffffffffffffffffffffffffffffff1673ffffffffffffffffffffffffffffffffffffffff1681526020019081526020015f2090508b815f019081613f6191906156be565b508a816001019081613f7391906156be565b5089816002019081613f8591906156be565b5088816003019081613f9791906156be565b5087816006019081613fa991906156be565b5086816004019081613fbb91906156be565b5085816005019081613fcd91906156be565b5084816007019081613fdf91906156be565b5083816008019081613ff191906156be565b508281600901908161400391906156be565b508181600a01908161401591906156be565b50600133908060018154018082558091505060019003905f5260205f20015f9091909190916101000a81548173ffffffffffffffffffffffffffffffffffffffff021916908373ffffffffffffffffffffffffffffffffffffffff160217905550600160105f3373ffffffffffffffffffffffffffffffffffffffff1673ffffffffffffffffffffffffffffffffffffffff1681526020019081526020015f205f6101000a81548160ff0219169083151502179055506001600f5f3373ffffffffffffffffffffffffffffffffffffffff1673ffffffffffffffffffffffffffffffffffffffff1681526020019081526020015f205f3373ffffffffffffffffffffffffffffffffffffffff1673ffffffffffffffffffffffffffffffffffffffff1681526020019081526020015f205f6101000a81548160ff02191690831515021790555060145f81548092919061416d906157ba565b9190505550505050505050505050505050565b6005818154811061418f575f80fd5b905f5260205f20015f915054906101000a900473ffffffffffffffffffffffffffffffffffffffff1681565b60125f3373ffffffffffffffffffffffffffffffffffffffff1673ffffffffffffffffffffffffffffffffffffffff1681526020019081526020015f205f9054906101000a900460ff1661420d575f80fd5b5f600d5f3373ffffffffffffffffffffffffffffffffffffffff1673ffffffffffffffffffffffffffffffffffffffff1681526020019081526020015f20905087815f01908161425d91906156be565b508681600101908161426f91906156be565b508581600201908161428191906156be565b508481600301908161429391906156be565b50838160040190816142a591906156be565b50828160060190816142b791906156be565b5081816007015f6101000a81548160ff0219169083151502179055505050505050505050565b600781815481106142ec575f80fd5b905f5260205f20015f915054906101000a900473ffffffffffffffffffffffffffffffffffffffff1681565b5f60135f8373ffffffffffffffffffffffffffffffffffffffff1673ffffffffffffffffffffffffffffffffffffffff1681526020019081526020015f20549050919050565b60175481565b60405180608001604052805f73ffffffffffffffffffffffffffffffffffffffff1681526020015f81526020015f81526020015f81525090565b60405180610160016040528060608152602001606081526020016060815260200160608152602001606081526020016060815260200160608152602001606081526020016060815260200160608152602001606081525090565b60405180608001604052805f73ffffffffffffffffffffffffffffffffffffffff1681526020015f81526020015f81526020015f81525090565b60405180608001604052805f73ffffffffffffffffffffffffffffffffffffffff1681526020015f81526020015f81526020015f81525090565b6040518061012001604052805f73ffffffffffffffffffffffffffffffffffffffff1681526020015f73ffffffffffffffffffffffffffffffffffffffff1681526020016060815260200160608152602001606081526020016060815260200160608152602001606081526020015f81525090565b60405180610140016040528060608152602001606081526020016060815260200160608152602001606081526020016060815260200160608152602001606081526020015f151581526020015f81525090565b5f604051905090565b5f80fd5b5f80fd5b5f73ffffffffffffffffffffffffffffffffffffffff82169050919050565b5f61456e82614545565b9050919050565b61457e81614564565b8114614588575f80fd5b50565b5f8135905061459981614575565b92915050565b5f602082840312156145b4576145b361453d565b5b5f6145c18482850161458b565b91505092915050565b5f8115159050919050565b6145de816145ca565b82525050565b5f6020820190506145f75f8301846145d5565b92915050565b61460681614564565b82525050565b5f819050919050565b61461e8161460c565b82525050565b608082015f8201516146385f8501826145fd565b50602082015161464b6020850182614615565b50604082015161465e6040850182614615565b5060608201516146716060850182614615565b50505050565b5f60808201905061468a5f830184614624565b92915050565b6146998161460c565b81146146a3575f80fd5b50565b5f813590506146b481614690565b92915050565b5f602082840312156146cf576146ce61453d565b5b5f6146dc848285016146a6565b91505092915050565b6146ee81614564565b82525050565b5f6020820190506147075f8301846146e5565b92915050565b5f81519050919050565b5f82825260208201905092915050565b5f819050602082019050919050565b5f61474183836145fd565b60208301905092915050565b5f602082019050919050565b5f6147638261470d565b61476d8185614717565b935061477883614727565b805f5b838110156147a857815161478f8882614736565b975061479a8361474d565b92505060018101905061477b565b5085935050505092915050565b5f6020820190508181035f8301526147cd8184614759565b905092915050565b5f80fd5b5f80fd5b5f601f19601f8301169050919050565b7f4e487b71000000000000000000000000000000000000000000000000000000005f52604160045260245ffd5b614823826147dd565b810181811067ffffffffffffffff82111715614842576148416147ed565b5b80604052505050565b5f614854614534565b9050614860828261481a565b919050565b5f67ffffffffffffffff82111561487f5761487e6147ed565b5b614888826147dd565b9050602081019050919050565b828183375f83830152505050565b5f6148b56148b084614865565b61484b565b9050828152602081018484840111156148d1576148d06147d9565b5b6148dc848285614895565b509392505050565b5f82601f8301126148f8576148f76147d5565b5b81356149088482602086016148a3565b91505092915050565b61491a816145ca565b8114614924575f80fd5b50565b5f8135905061493581614911565b92915050565b5f805f805f805f80610100898b0312156149585761495761453d565b5b5f89013567ffffffffffffffff81111561497557614974614541565b5b6149818b828c016148e4565b985050602089013567ffffffffffffffff8111156149a2576149a1614541565b5b6149ae8b828c016148e4565b975050604089013567ffffffffffffffff8111156149cf576149ce614541565b5b6149db8b828c016148e4565b965050606089013567ffffffffffffffff8111156149fc576149fb614541565b5b614a088b828c016148e4565b955050608089013567ffffffffffffffff811115614a2957614a28614541565b5b614a358b828c016148e4565b94505060a089013567ffffffffffffffff811115614a5657614a55614541565b5b614a628b828c016148e4565b93505060c089013567ffffffffffffffff811115614a8357614a82614541565b5b614a8f8b828c016148e4565b92505060e0614aa08b828c01614927565b9150509295985092959890939650565b5f805f805f805f60e0888a031215614acb57614aca61453d565b5b5f614ad88a828b0161458b565b975050602088013567ffffffffffffffff811115614af957614af8614541565b5b614b058a828b016148e4565b965050604088013567ffffffffffffffff811115614b2657614b25614541565b5b614b328a828b016148e4565b955050606088013567ffffffffffffffff811115614b5357614b52614541565b5b614b5f8a828b016148e4565b945050608088013567ffffffffffffffff811115614b8057614b7f614541565b5b614b8c8a828b016148e4565b93505060a088013567ffffffffffffffff811115614bad57614bac614541565b5b614bb98a828b016148e4565b92505060c088013567ffffffffffffffff811115614bda57614bd9614541565b5b614be68a828b016148e4565b91505092959891949750929550565b614bfe8161460c565b82525050565b5f602082019050614c175f830184614bf5565b92915050565b5f81519050919050565b5f82825260208201905092915050565b5f5b83811015614c54578082015181840152602081019050614c39565b5f8484015250505050565b5f614c6982614c1d565b614c738185614c27565b9350614c83818560208601614c37565b614c8c816147dd565b840191505092915050565b5f61016083015f8301518482035f860152614cb28282614c5f565b91505060208301518482036020860152614ccc8282614c5f565b91505060408301518482036040860152614ce68282614c5f565b91505060608301518482036060860152614d008282614c5f565b91505060808301518482036080860152614d1a8282614c5f565b91505060a083015184820360a0860152614d348282614c5f565b91505060c083015184820360c0860152614d4e8282614c5f565b91505060e083015184820360e0860152614d688282614c5f565b915050610100830151848203610100860152614d848282614c5f565b915050610120830151848203610120860152614da08282614c5f565b915050610140830151848203610140860152614dbc8282614c5f565b9150508091505092915050565b608082015f820151614ddd5f8501826145fd565b506020820151614df06020850182614615565b506040820151614e036040850182614615565b506060820151614e166060850182614615565b50505050565b5f60a0820190508181035f830152614e348185614c97565b9050614e436020830184614dc9565b9392505050565b5f8060408385031215614e6057614e5f61453d565b5b5f614e6d858286016146a6565b9250506020614e7e858286016146a6565b9150509250929050565b608082015f820151614e9c5f8501826145fd565b506020820151614eaf6020850182614615565b506040820151614ec26040850182614615565b506060820151614ed56060850182614615565b50505050565b5f608082019050614eee5f830184614e88565b92915050565b5f608082019050614f075f830184614dc9565b92915050565b5f805f805f805f805f805f6101608c8e031215614f2d57614f2c61453d565b5b5f8c013567ffffffffffffffff811115614f4a57614f49614541565b5b614f568e828f016148e4565b9b505060208c013567ffffffffffffffff811115614f7757614f76614541565b5b614f838e828f016148e4565b9a505060408c013567ffffffffffffffff811115614fa457614fa3614541565b5b614fb08e828f016148e4565b99505060608c013567ffffffffffffffff811115614fd157614fd0614541565b5b614fdd8e828f016148e4565b98505060808c013567ffffffffffffffff811115614ffe57614ffd614541565b5b61500a8e828f016148e4565b97505060a08c013567ffffffffffffffff81111561502b5761502a614541565b5b6150378e828f016148e4565b96505060c08c013567ffffffffffffffff81111561505857615057614541565b5b6150648e828f016148e4565b95505060e08c013567ffffffffffffffff81111561508557615084614541565b5b6150918e828f016148e4565b9450506101008c013567ffffffffffffffff8111156150b3576150b2614541565b5b6150bf8e828f016148e4565b9350506101208c013567ffffffffffffffff8111156150e1576150e0614541565b5b6150ed8e828f016148e4565b9250506101408c013567ffffffffffffffff81111561510f5761510e614541565b5b61511b8e828f016148e4565b9150509295989b509295989b9093969950565b5f61012083015f8301516151445f8601826145fd565b50602083015161515760208601826145fd565b506040830151848203604086015261516f8282614c5f565b915050606083015184820360608601526151898282614c5f565b915050608083015184820360808601526151a38282614c5f565b91505060a083015184820360a08601526151bd8282614c5f565b91505060c083015184820360c08601526151d78282614c5f565b91505060e083015184820360e08601526151f18282614c5f565b915050610100830151615208610100860182614615565b508091505092915050565b61521c816145ca565b82525050565b5f61014083015f8301518482035f86015261523d8282614c5f565b915050602083015184820360208601526152578282614c5f565b915050604083015184820360408601526152718282614c5f565b9150506060830151848203606086015261528b8282614c5f565b915050608083015184820360808601526152a58282614c5f565b91505060a083015184820360a08601526152bf8282614c5f565b91505060c083015184820360c08601526152d98282614c5f565b91505060e083015184820360e08601526152f38282614c5f565b91505061010083015161530a610100860182615213565b5061012083015161531f610120860182614615565b508091505092915050565b5f6040820190508181035f830152615342818561512e565b905081810360208301526153568184615222565b90509392505050565b5f6020820190508181035f8301526153778184615222565b905092915050565b5f805f805f805f60e0888a03121561539a5761539961453d565b5b5f88013567ffffffffffffffff8111156153b7576153b6614541565b5b6153c38a828b016148e4565b975050602088013567ffffffffffffffff8111156153e4576153e3614541565b5b6153f08a828b016148e4565b965050604088013567ffffffffffffffff81111561541157615410614541565b5b61541d8a828b016148e4565b955050606088013567ffffffffffffffff81111561543e5761543d614541565b5b61544a8a828b016148e4565b945050608088013567ffffffffffffffff81111561546b5761546a614541565b5b6154778a828b016148e4565b93505060a088013567ffffffffffffffff81111561549857615497614541565b5b6154a48a828b016148e4565b92505060c06154b58a828b01614927565b91505092959891949750929550565b7f4e487b71000000000000000000000000000000000000000000000000000000005f52602260045260245ffd5b5f600282049050600182168061550857607f821691505b60208210810361551b5761551a6154c4565b5b50919050565b5f819050815f5260205f209050919050565b5f6020601f8301049050919050565b5f82821b905092915050565b5f6008830261557d7fffffffffffffffffffffffffffffffffffffffffffffffffffffffffffffffff82615542565b6155878683615542565b95508019841693508086168417925050509392505050565b5f819050919050565b5f6155c26155bd6155b88461460c565b61559f565b61460c565b9050919050565b5f819050919050565b6155db836155a8565b6155ef6155e7826155c9565b84845461554e565b825550505050565b5f90565b6156036155f7565b61560e8184846155d2565b505050565b5b81811015615631576156265f826155fb565b600181019050615614565b5050565b601f8211156156765761564781615521565b61565084615533565b8101602085101561565f578190505b61567361566b85615533565b830182615613565b50505b505050565b5f82821c905092915050565b5f6156965f198460080261567b565b1980831691505092915050565b5f6156ae8383615687565b9150826002028217905092915050565b6156c782614c1d565b67ffffffffffffffff8111156156e0576156df6147ed565b5b6156ea82546154f1565b6156f5828285615635565b5f60209050601f831160018114615726575f8415615714578287015190505b61571e85826156a3565b865550615785565b601f19841661573486615521565b5f5b8281101561575b57848901518255600182019150602085019450602081019050615736565b868310156157785784890151615774601f891682615687565b8355505b6001600288020188555050505b505050505050565b7f4e487b71000000000000000000000000000000000000000000000000000000005f52601160045260245ffd5b5f6157c48261460c565b91507fffffffffffffffffffffffffffffffffffffffffffffffffffffffffffffffff82036157f6576157f561578d565b5b600182019050919050565b5f82825260208201905092915050565b7f5370656369616c74792063616e6e6f7420626520656d707479000000000000005f82015250565b5f615845601983615801565b915061585082615811565b602082019050919050565b5f6020820190508181035f83015261587281615839565b905091905056fea26469706673582212204fcd63ffc22a8348c70711c92f7d15d84945bc26d73dc61e669d87c830a7252664736f6c63430008140033",
			"opcodes": "PUSH1 0x80 PUSH1 0x40 MSTORE PUSH0 PUSH1 0x14 SSTORE PUSH0 PUSH1 0x15 SSTORE PUSH0 PUSH1 0x16 SSTORE PUSH0 PUSH1 0x17 SSTORE PUSH0 PUSH1 0x18 SSTORE CALLVALUE DUP1 ISZERO PUSH2 0x23 JUMPI PUSH0 DUP1 REVERT JUMPDEST POP PUSH2 0x58AF DUP1 PUSH3 0x32 PUSH0 CODECOPY PUSH0 RETURN INVALID PUSH1 0x80 PUSH1 0x40 MSTORE CALLVALUE DUP1 ISZERO PUSH2 0xF JUMPI PUSH0 DUP1 REVERT JUMPDEST POP PUSH1 0x4 CALLDATASIZE LT PUSH2 0x288 JUMPI PUSH0 CALLDATALOAD PUSH1 0xE0 SHR DUP1 PUSH4 0x8093AA5D GT PUSH2 0x15A JUMPI DUP1 PUSH4 0xB13D5D94 GT PUSH2 0xCC JUMPI DUP1 PUSH4 0xD0568A4D GT PUSH2 0x85 JUMPI DUP1 PUSH4 0xD0568A4D EQ PUSH2 0x803 JUMPI DUP1 PUSH4 0xD0F2E2B7 EQ PUSH2 0x81F JUMPI DUP1 PUSH4 0xDE623B0F EQ PUSH2 0x84F JUMPI DUP1 PUSH4 0xE6FCE0D2 EQ PUSH2 0x86B JUMPI DUP1 PUSH4 0xE93A15B9 EQ PUSH2 0x89B JUMPI DUP1 PUSH4 0xEEBC3FB2 EQ PUSH2 0x8CB JUMPI PUSH2 0x288 JUMP JUMPDEST DUP1 PUSH4 0xB13D5D94 EQ PUSH2 0x72D JUMPI DUP1 PUSH4 0xBABB1D41 EQ PUSH2 0x74B JUMPI DUP1 PUSH4 0xC0CB24BA EQ PUSH2 0x77B JUMPI DUP1 PUSH4 0xC190665B EQ PUSH2 0x799 JUMPI DUP1 PUSH4 0xCAEE6C85 EQ PUSH2 0x7B7 JUMPI DUP1 PUSH4 0xD002D3B1 EQ PUSH2 0x7E7 JUMPI PUSH2 0x288 JUMP JUMPDEST DUP1 PUSH4 0x9179CB8A GT PUSH2 0x11E JUMPI DUP1 PUSH4 0x9179CB8A EQ PUSH2 0x66A JUMPI DUP1 PUSH4 0x92041982 EQ PUSH2 0x686 JUMPI DUP1 PUSH4 0x93961DC5 EQ PUSH2 0x6B7 JUMPI DUP1 PUSH4 0x96B80D08 EQ PUSH2 0x6D3 JUMPI DUP1 PUSH4 0xA0303C41 EQ PUSH2 0x6F1 JUMPI DUP1 PUSH4 0xA1B141D4 EQ PUSH2 0x70F JUMPI PUSH2 0x288 JUMP JUMPDEST DUP1 PUSH4 0x8093AA5D EQ PUSH2 0x5C6 JUMPI DUP1 PUSH4 0x80BA2E86 EQ PUSH2 0x5F6 JUMPI DUP1 PUSH4 0x8AFA670B EQ PUSH2 0x612 JUMPI DUP1 PUSH4 0x8DA5CB5B EQ PUSH2 0x630 JUMPI DUP1 PUSH4 0x9119855D EQ PUSH2 0x64E JUMPI PUSH2 0x288 JUMP JUMPDEST DUP1 PUSH4 0x2F9455D5 GT PUSH2 0x1FE JUMPI DUP1 PUSH4 0x5C2F4EF9 GT PUSH2 0x1B7 JUMPI DUP1 PUSH4 0x5C2F4EF9 EQ PUSH2 0x500 JUMPI DUP1 PUSH4 0x625961FC EQ PUSH2 0x51E JUMPI DUP1 PUSH4 0x73BDEC1A EQ PUSH2 0x54E JUMPI DUP1 PUSH4 0x74198E61 EQ PUSH2 0x56C JUMPI DUP1 PUSH4 0x78522BC4 EQ PUSH2 0x58A JUMPI DUP1 PUSH4 0x79111C1C EQ PUSH2 0x5A8 JUMPI PUSH2 0x288 JUMP JUMPDEST DUP1 PUSH4 0x2F9455D5 EQ PUSH2 0x419 JUMPI DUP1 PUSH4 0x3BC98280 EQ PUSH2 0x449 JUMPI DUP1 PUSH4 0x3D391F70 EQ PUSH2 0x47A JUMPI DUP1 PUSH4 0x4B6E7D78 EQ PUSH2 0x4AA JUMPI DUP1 PUSH4 0x4C14B38D EQ PUSH2 0x4B4 JUMPI DUP1 PUSH4 0x549A73CD EQ PUSH2 0x4E4 JUMPI PUSH2 0x288 JUMP JUMPDEST DUP1 PUSH4 0x20228E83 GT PUSH2 0x250 JUMPI DUP1 PUSH4 0x20228E83 EQ PUSH2 0x344 JUMPI DUP1 PUSH4 0x245F9686 EQ PUSH2 0x374 JUMPI DUP1 PUSH4 0x24C24B2B EQ PUSH2 0x390 JUMPI DUP1 PUSH4 0x261B73F3 EQ PUSH2 0x3AE JUMPI DUP1 PUSH4 0x29E4AFBB EQ PUSH2 0x3CA JUMPI DUP1 PUSH4 0x2A825BA0 EQ PUSH2 0x3E8 JUMPI PUSH2 0x288 JUMP JUMPDEST DUP1 PUSH4 0x2516ABD EQ PUSH2 0x28C JUMPI DUP1 PUSH4 0x118D1A04 EQ PUSH2 0x2BC JUMPI DUP1 PUSH4 0x127CA4B4 EQ PUSH2 0x2DA JUMPI DUP1 PUSH4 0x12AD1C37 EQ PUSH2 0x30A JUMPI DUP1 PUSH4 0x18F93BE1 EQ PUSH2 0x328 JUMPI JUMPDEST PUSH0 DUP1 REVERT JUMPDEST PUSH2 0x2A6 PUSH1 0x4 DUP1 CALLDATASIZE SUB DUP2 ADD SWAP1 PUSH2 0x2A1 SWAP2 SWAP1 PUSH2 0x459F JUMP JUMPDEST PUSH2 0x8E9 JUMP JUMPDEST PUSH1 0x40 MLOAD PUSH2 0x2B3 SWAP2 SWAP1 PUSH2 0x45E4 JUMP JUMPDEST PUSH1 0x40 MLOAD DUP1 SWAP2 SUB SWAP1 RETURN JUMPDEST PUSH2 0x2C4 PUSH2 0x982 JUMP JUMPDEST PUSH1 0x40 MLOAD PUSH2 0x2D1 SWAP2 SWAP1 PUSH2 0x4677 JUMP JUMPDEST PUSH1 0x40 MLOAD DUP1 SWAP2 SUB SWAP1 RETURN JUMPDEST PUSH2 0x2F4 PUSH1 0x4 DUP1 CALLDATASIZE SUB DUP2 ADD SWAP1 PUSH2 0x2EF SWAP2 SWAP1 PUSH2 0x46BA JUMP JUMPDEST PUSH2 0xA9B JUMP JUMPDEST PUSH1 0x40 MLOAD PUSH2 0x301 SWAP2 SWAP1 PUSH2 0x46F4 JUMP JUMPDEST PUSH1 0x40 MLOAD DUP1 SWAP2 SUB SWAP1 RETURN JUMPDEST PUSH2 0x312 PUSH2 0xAD6 JUMP JUMPDEST PUSH1 0x40 MLOAD PUSH2 0x31F SWAP2 SWAP1 PUSH2 0x47B5 JUMP JUMPDEST PUSH1 0x40 MLOAD DUP1 SWAP2 SUB SWAP1 RETURN JUMPDEST PUSH2 0x342 PUSH1 0x4 DUP1 CALLDATASIZE SUB DUP2 ADD SWAP1 PUSH2 0x33D SWAP2 SWAP1 PUSH2 0x493B JUMP JUMPDEST PUSH2 0xB61 JUMP JUMPDEST STOP JUMPDEST PUSH2 0x35E PUSH1 0x4 DUP1 CALLDATASIZE SUB DUP2 ADD SWAP1 PUSH2 0x359 SWAP2 SWAP1 PUSH2 0x46BA JUMP JUMPDEST PUSH2 0xC96 JUMP JUMPDEST PUSH1 0x40 MLOAD PUSH2 0x36B SWAP2 SWAP1 PUSH2 0x46F4 JUMP JUMPDEST PUSH1 0x40 MLOAD DUP1 SWAP2 SUB SWAP1 RETURN JUMPDEST PUSH2 0x38E PUSH1 0x4 DUP1 CALLDATASIZE SUB DUP2 ADD SWAP1 PUSH2 0x389 SWAP2 SWAP1 PUSH2 0x4AB0 JUMP JUMPDEST PUSH2 0xCD1 JUMP JUMPDEST STOP JUMPDEST PUSH2 0x398 PUSH2 0xF2E JUMP JUMPDEST PUSH1 0x40 MLOAD PUSH2 0x3A5 SWAP2 SWAP1 PUSH2 0x4C04 JUMP JUMPDEST PUSH1 0x40 MLOAD DUP1 SWAP2 SUB SWAP1 RETURN JUMPDEST PUSH2 0x3C8 PUSH1 0x4 DUP1 CALLDATASIZE SUB DUP2 ADD SWAP1 PUSH2 0x3C3 SWAP2 SWAP1 PUSH2 0x4AB0 JUMP JUMPDEST PUSH2 0xF37 JUMP JUMPDEST STOP JUMPDEST PUSH2 0x3D2 PUSH2 0x10C2 JUMP JUMPDEST PUSH1 0x40 MLOAD PUSH2 0x3DF SWAP2 SWAP1 PUSH2 0x4C04 JUMP JUMPDEST PUSH1 0x40 MLOAD DUP1 SWAP2 SUB SWAP1 RETURN JUMPDEST PUSH2 0x402 PUSH1 0x4 DUP1 CALLDATASIZE SUB DUP2 ADD SWAP1 PUSH2 0x3FD SWAP2 SWAP1 PUSH2 0x459F JUMP JUMPDEST PUSH2 0x10CB JUMP JUMPDEST PUSH1 0x40 MLOAD PUSH2 0x410 SWAP3 SWAP2 SWAP1 PUSH2 0x4E1C JUMP JUMPDEST PUSH1 0x40 MLOAD DUP1 SWAP2 SUB SWAP1 RETURN JUMPDEST PUSH2 0x433 PUSH1 0x4 DUP1 CALLDATASIZE SUB DUP2 ADD SWAP1 PUSH2 0x42E SWAP2 SWAP1 PUSH2 0x46BA JUMP JUMPDEST PUSH2 0x18A9 JUMP JUMPDEST PUSH1 0x40 MLOAD PUSH2 0x440 SWAP2 SWAP1 PUSH2 0x46F4 JUMP JUMPDEST PUSH1 0x40 MLOAD DUP1 SWAP2 SUB SWAP1 RETURN JUMPDEST PUSH2 0x463 PUSH1 0x4 DUP1 CALLDATASIZE SUB DUP2 ADD SWAP1 PUSH2 0x45E SWAP2 SWAP1 PUSH2 0x459F JUMP JUMPDEST PUSH2 0x18E4 JUMP JUMPDEST PUSH1 0x40 MLOAD PUSH2 0x471 SWAP3 SWAP2 SWAP1 PUSH2 0x4E1C JUMP JUMPDEST PUSH1 0x40 MLOAD DUP1 SWAP2 SUB SWAP1 RETURN JUMPDEST PUSH2 0x494 PUSH1 0x4 DUP1 CALLDATASIZE SUB DUP2 ADD SWAP1 PUSH2 0x48F SWAP2 SWAP1 PUSH2 0x459F JUMP JUMPDEST PUSH2 0x20C2 JUMP JUMPDEST PUSH1 0x40 MLOAD PUSH2 0x4A1 SWAP2 SWAP1 PUSH2 0x45E4 JUMP JUMPDEST PUSH1 0x40 MLOAD DUP1 SWAP2 SUB SWAP1 RETURN JUMPDEST PUSH2 0x4B2 PUSH2 0x2173 JUMP JUMPDEST STOP JUMPDEST PUSH2 0x4CE PUSH1 0x4 DUP1 CALLDATASIZE SUB DUP2 ADD SWAP1 PUSH2 0x4C9 SWAP2 SWAP1 PUSH2 0x459F JUMP JUMPDEST PUSH2 0x21B4 JUMP JUMPDEST PUSH1 0x40 MLOAD PUSH2 0x4DB SWAP2 SWAP1 PUSH2 0x4C04 JUMP JUMPDEST PUSH1 0x40 MLOAD DUP1 SWAP2 SUB SWAP1 RETURN JUMPDEST PUSH2 0x4FE PUSH1 0x4 DUP1 CALLDATASIZE SUB DUP2 ADD SWAP1 PUSH2 0x4F9 SWAP2 SWAP1 PUSH2 0x4E4A JUMP JUMPDEST PUSH2 0x2202 JUMP JUMPDEST STOP JUMPDEST PUSH2 0x508 PUSH2 0x22F6 JUMP JUMPDEST PUSH1 0x40 MLOAD PUSH2 0x515 SWAP2 SWAP1 PUSH2 0x4EDB JUMP JUMPDEST PUSH1 0x40 MLOAD DUP1 SWAP2 SUB SWAP1 RETURN JUMPDEST PUSH2 0x538 PUSH1 0x4 DUP1 CALLDATASIZE SUB DUP2 ADD SWAP1 PUSH2 0x533 SWAP2 SWAP1 PUSH2 0x459F JUMP JUMPDEST PUSH2 0x2410 JUMP JUMPDEST PUSH1 0x40 MLOAD PUSH2 0x545 SWAP2 SWAP1 PUSH2 0x4C04 JUMP JUMPDEST PUSH1 0x40 MLOAD DUP1 SWAP2 SUB SWAP1 RETURN JUMPDEST PUSH2 0x556 PUSH2 0x245E JUMP JUMPDEST PUSH1 0x40 MLOAD PUSH2 0x563 SWAP2 SWAP1 PUSH2 0x47B5 JUMP JUMPDEST PUSH1 0x40 MLOAD DUP1 SWAP2 SUB SWAP1 RETURN JUMPDEST PUSH2 0x574 PUSH2 0x24E9 JUMP JUMPDEST PUSH1 0x40 MLOAD PUSH2 0x581 SWAP2 SWAP1 PUSH2 0x4EF4 JUMP JUMPDEST PUSH1 0x40 MLOAD DUP1 SWAP2 SUB SWAP1 RETURN JUMPDEST PUSH2 0x592 PUSH2 0x2602 JUMP JUMPDEST PUSH1 0x40 MLOAD PUSH2 0x59F SWAP2 SWAP1 PUSH2 0x4C04 JUMP JUMPDEST PUSH1 0x40 MLOAD DUP1 SWAP2 SUB SWAP1 RETURN JUMPDEST PUSH2 0x5B0 PUSH2 0x2608 JUMP JUMPDEST PUSH1 0x40 MLOAD PUSH2 0x5BD SWAP2 SWAP1 PUSH2 0x4C04 JUMP JUMPDEST PUSH1 0x40 MLOAD DUP1 SWAP2 SUB SWAP1 RETURN JUMPDEST PUSH2 0x5E0 PUSH1 0x4 DUP1 CALLDATASIZE SUB DUP2 ADD SWAP1 PUSH2 0x5DB SWAP2 SWAP1 PUSH2 0x46BA JUMP JUMPDEST PUSH2 0x2611 JUMP JUMPDEST PUSH1 0x40 MLOAD PUSH2 0x5ED SWAP2 SWAP1 PUSH2 0x46F4 JUMP JUMPDEST PUSH1 0x40 MLOAD DUP1 SWAP2 SUB SWAP1 RETURN JUMPDEST PUSH2 0x610 PUSH1 0x4 DUP1 CALLDATASIZE SUB DUP2 ADD SWAP1 PUSH2 0x60B SWAP2 SWAP1 PUSH2 0x4F0D JUMP JUMPDEST PUSH2 0x264C JUMP JUMPDEST STOP JUMPDEST PUSH2 0x61A PUSH2 0x27B1 JUMP JUMPDEST PUSH1 0x40 MLOAD PUSH2 0x627 SWAP2 SWAP1 PUSH2 0x4C04 JUMP JUMPDEST PUSH1 0x40 MLOAD DUP1 SWAP2 SUB SWAP1 RETURN JUMPDEST PUSH2 0x638 PUSH2 0x27FD JUMP JUMPDEST PUSH1 0x40 MLOAD PUSH2 0x645 SWAP2 SWAP1 PUSH2 0x46F4 JUMP JUMPDEST PUSH1 0x40 MLOAD DUP1 SWAP2 SUB SWAP1 RETURN JUMPDEST PUSH2 0x668 PUSH1 0x4 DUP1 CALLDATASIZE SUB DUP2 ADD SWAP1 PUSH2 0x663 SWAP2 SWAP1 PUSH2 0x4E4A JUMP JUMPDEST PUSH2 0x2820 JUMP JUMPDEST STOP JUMPDEST PUSH2 0x684 PUSH1 0x4 DUP1 CALLDATASIZE SUB DUP2 ADD SWAP1 PUSH2 0x67F SWAP2 SWAP1 PUSH2 0x493B JUMP JUMPDEST PUSH2 0x2914 JUMP JUMPDEST STOP JUMPDEST PUSH2 0x6A0 PUSH1 0x4 DUP1 CALLDATASIZE SUB DUP2 ADD SWAP1 PUSH2 0x69B SWAP2 SWAP1 PUSH2 0x459F JUMP JUMPDEST PUSH2 0x2B59 JUMP JUMPDEST PUSH1 0x40 MLOAD PUSH2 0x6AE SWAP3 SWAP2 SWAP1 PUSH2 0x532A JUMP JUMPDEST PUSH1 0x40 MLOAD DUP1 SWAP2 SUB SWAP1 RETURN JUMPDEST PUSH2 0x6D1 PUSH1 0x4 DUP1 CALLDATASIZE SUB DUP2 ADD SWAP1 PUSH2 0x6CC SWAP2 SWAP1 PUSH2 0x4E4A JUMP JUMPDEST PUSH2 0x3523 JUMP JUMPDEST STOP JUMPDEST PUSH2 0x6DB PUSH2 0x3616 JUMP JUMPDEST PUSH1 0x40 MLOAD PUSH2 0x6E8 SWAP2 SWAP1 PUSH2 0x47B5 JUMP JUMPDEST PUSH1 0x40 MLOAD DUP1 SWAP2 SUB SWAP1 RETURN JUMPDEST PUSH2 0x6F9 PUSH2 0x36A1 JUMP JUMPDEST PUSH1 0x40 MLOAD PUSH2 0x706 SWAP2 SWAP1 PUSH2 0x4C04 JUMP JUMPDEST PUSH1 0x40 MLOAD DUP1 SWAP2 SUB SWAP1 RETURN JUMPDEST PUSH2 0x717 PUSH2 0x36A7 JUMP JUMPDEST PUSH1 0x40 MLOAD PUSH2 0x724 SWAP2 SWAP1 PUSH2 0x4C04 JUMP JUMPDEST PUSH1 0x40 MLOAD DUP1 SWAP2 SUB SWAP1 RETURN JUMPDEST PUSH2 0x735 PUSH2 0x36AD JUMP JUMPDEST PUSH1 0x40 MLOAD PUSH2 0x742 SWAP2 SWAP1 PUSH2 0x47B5 JUMP JUMPDEST PUSH1 0x40 MLOAD DUP1 SWAP2 SUB SWAP1 RETURN JUMPDEST PUSH2 0x765 PUSH1 0x4 DUP1 CALLDATASIZE SUB DUP2 ADD SWAP1 PUSH2 0x760 SWAP2 SWAP1 PUSH2 0x46BA JUMP JUMPDEST PUSH2 0x3738 JUMP JUMPDEST PUSH1 0x40 MLOAD PUSH2 0x772 SWAP2 SWAP1 PUSH2 0x46F4 JUMP JUMPDEST PUSH1 0x40 MLOAD DUP1 SWAP2 SUB SWAP1 RETURN JUMPDEST PUSH2 0x783 PUSH2 0x3773 JUMP JUMPDEST PUSH1 0x40 MLOAD PUSH2 0x790 SWAP2 SWAP1 PUSH2 0x4C04 JUMP JUMPDEST PUSH1 0x40 MLOAD DUP1 SWAP2 SUB SWAP1 RETURN JUMPDEST PUSH2 0x7A1 PUSH2 0x3779 JUMP JUMPDEST PUSH1 0x40 MLOAD PUSH2 0x7AE SWAP2 SWAP1 PUSH2 0x4C04 JUMP JUMPDEST PUSH1 0x40 MLOAD DUP1 SWAP2 SUB SWAP1 RETURN JUMPDEST PUSH2 0x7D1 PUSH1 0x4 DUP1 CALLDATASIZE SUB DUP2 ADD SWAP1 PUSH2 0x7CC SWAP2 SWAP1 PUSH2 0x459F JUMP JUMPDEST PUSH2 0x3782 JUMP JUMPDEST PUSH1 0x40 MLOAD PUSH2 0x7DE SWAP2 SWAP1 PUSH2 0x535F JUMP JUMPDEST PUSH1 0x40 MLOAD DUP1 SWAP2 SUB SWAP1 RETURN JUMPDEST PUSH2 0x801 PUSH1 0x4 DUP1 CALLDATASIZE SUB DUP2 ADD SWAP1 PUSH2 0x7FC SWAP2 SWAP1 PUSH2 0x537F JUMP JUMPDEST PUSH2 0x3CCF JUMP JUMPDEST STOP JUMPDEST PUSH2 0x81D PUSH1 0x4 DUP1 CALLDATASIZE SUB DUP2 ADD SWAP1 PUSH2 0x818 SWAP2 SWAP1 PUSH2 0x4F0D JUMP JUMPDEST PUSH2 0x3EBE JUMP JUMPDEST STOP JUMPDEST PUSH2 0x839 PUSH1 0x4 DUP1 CALLDATASIZE SUB DUP2 ADD SWAP1 PUSH2 0x834 SWAP2 SWAP1 PUSH2 0x46BA JUMP JUMPDEST PUSH2 0x4180 JUMP JUMPDEST PUSH1 0x40 MLOAD PUSH2 0x846 SWAP2 SWAP1 PUSH2 0x46F4 JUMP JUMPDEST PUSH1 0x40 MLOAD DUP1 SWAP2 SUB SWAP1 RETURN JUMPDEST PUSH2 0x869 PUSH1 0x4 DUP1 CALLDATASIZE SUB DUP2 ADD SWAP1 PUSH2 0x864 SWAP2 SWAP1 PUSH2 0x537F JUMP JUMPDEST PUSH2 0x41BB JUMP JUMPDEST STOP JUMPDEST PUSH2 0x885 PUSH1 0x4 DUP1 CALLDATASIZE SUB DUP2 ADD SWAP1 PUSH2 0x880 SWAP2 SWAP1 PUSH2 0x46BA JUMP JUMPDEST PUSH2 0x42DD JUMP JUMPDEST PUSH1 0x40 MLOAD PUSH2 0x892 SWAP2 SWAP1 PUSH2 0x46F4 JUMP JUMPDEST PUSH1 0x40 MLOAD DUP1 SWAP2 SUB SWAP1 RETURN JUMPDEST PUSH2 0x8B5 PUSH1 0x4 DUP1 CALLDATASIZE SUB DUP2 ADD SWAP1 PUSH2 0x8B0 SWAP2 SWAP1 PUSH2 0x459F JUMP JUMPDEST PUSH2 0x4318 JUMP JUMPDEST PUSH1 0x40 MLOAD PUSH2 0x8C2 SWAP2 SWAP1 PUSH2 0x4C04 JUMP JUMPDEST PUSH1 0x40 MLOAD DUP1 SWAP2 SUB SWAP1 RETURN JUMPDEST PUSH2 0x8D3 PUSH2 0x435E JUMP JUMPDEST PUSH1 0x40 MLOAD PUSH2 0x8E0 SWAP2 SWAP1 PUSH2 0x4C04 JUMP JUMPDEST PUSH1 0x40 MLOAD DUP1 SWAP2 SUB SWAP1 RETURN JUMPDEST PUSH0 DUP1 PUSH1 0xF PUSH0 CALLER PUSH20 0xFFFFFFFFFFFFFFFFFFFFFFFFFFFFFFFFFFFFFFFF AND PUSH20 0xFFFFFFFFFFFFFFFFFFFFFFFFFFFFFFFFFFFFFFFF AND DUP2 MSTORE PUSH1 0x20 ADD SWAP1 DUP2 MSTORE PUSH1 0x20 ADD PUSH0 KECCAK256 PUSH0 DUP5 PUSH20 0xFFFFFFFFFFFFFFFFFFFFFFFFFFFFFFFFFFFFFFFF AND PUSH20 0xFFFFFFFFFFFFFFFFFFFFFFFFFFFFFFFFFFFFFFFF AND DUP2 MSTORE PUSH1 0x20 ADD SWAP1 DUP2 MSTORE PUSH1 0x20 ADD PUSH0 KECCAK256 PUSH0 PUSH2 0x100 EXP DUP2 SLOAD DUP2 PUSH1 0xFF MUL NOT AND SWAP1 DUP4 ISZERO ISZERO MUL OR SWAP1 SSTORE POP PUSH1 0x1 SWAP1 POP SWAP2 SWAP1 POP JUMP JUMPDEST PUSH2 0x98A PUSH2 0x4364 JUMP JUMPDEST PUSH1 0x11 PUSH0 CALLER PUSH20 0xFFFFFFFFFFFFFFFFFFFFFFFFFFFFFFFFFFFFFFFF AND PUSH20 0xFFFFFFFFFFFFFFFFFFFFFFFFFFFFFFFFFFFFFFFF AND DUP2 MSTORE PUSH1 0x20 ADD SWAP1 DUP2 MSTORE PUSH1 0x20 ADD PUSH0 KECCAK256 PUSH0 SWAP1 SLOAD SWAP1 PUSH2 0x100 EXP SWAP1 DIV PUSH1 0xFF AND PUSH2 0x9DC JUMPI PUSH0 DUP1 REVERT JUMPDEST PUSH1 0xC PUSH0 CALLER PUSH20 0xFFFFFFFFFFFFFFFFFFFFFFFFFFFFFFFFFFFFFFFF AND PUSH20 0xFFFFFFFFFFFFFFFFFFFFFFFFFFFFFFFFFFFFFFFF AND DUP2 MSTORE PUSH1 0x20 ADD SWAP1 DUP2 MSTORE PUSH1 0x20 ADD PUSH0 KECCAK256 PUSH1 0x40 MLOAD DUP1 PUSH1 0x80 ADD PUSH1 0x40 MSTORE SWAP1 DUP2 PUSH0 DUP3 ADD PUSH0 SWAP1 SLOAD SWAP1 PUSH2 0x100 EXP SWAP1 DIV PUSH20 0xFFFFFFFFFFFFFFFFFFFFFFFFFFFFFFFFFFFFFFFF AND PUSH20 0xFFFFFFFFFFFFFFFFFFFFFFFFFFFFFFFFFFFFFFFF AND PUSH20 0xFFFFFFFFFFFFFFFFFFFFFFFFFFFFFFFFFFFFFFFF AND DUP2 MSTORE PUSH1 0x20 ADD PUSH1 0x1 DUP3 ADD SLOAD DUP2 MSTORE PUSH1 0x20 ADD PUSH1 0x2 DUP3 ADD SLOAD DUP2 MSTORE PUSH1 0x20 ADD PUSH1 0x3 DUP3 ADD SLOAD DUP2 MSTORE POP POP SWAP1 POP SWAP1 JUMP JUMPDEST PUSH1 0x3 DUP2 DUP2 SLOAD DUP2 LT PUSH2 0xAAA JUMPI PUSH0 DUP1 REVERT JUMPDEST SWAP1 PUSH0 MSTORE PUSH1 0x20 PUSH0 KECCAK256 ADD PUSH0 SWAP2 POP SLOAD SWAP1 PUSH2 0x100 EXP SWAP1 DIV PUSH20 0xFFFFFFFFFFFFFFFFFFFFFFFFFFFFFFFFFFFFFFFF AND DUP2 JUMP JUMPDEST PUSH1 0x60 PUSH1 0x1 DUP1 SLOAD DUP1 PUSH1 0x20 MUL PUSH1 0x20 ADD PUSH1 0x40 MLOAD SWAP1 DUP2 ADD PUSH1 0x40 MSTORE DUP1 SWAP3 SWAP2 SWAP1 DUP2 DUP2 MSTORE PUSH1 0x20 ADD DUP3 DUP1 SLOAD DUP1 ISZERO PUSH2 0xB57 JUMPI PUSH1 0x20 MUL DUP3 ADD SWAP2 SWAP1 PUSH0 MSTORE PUSH1 0x20 PUSH0 KECCAK256 SWAP1 JUMPDEST DUP2 PUSH0 SWAP1 SLOAD SWAP1 PUSH2 0x100 EXP SWAP1 DIV PUSH20 0xFFFFFFFFFFFFFFFFFFFFFFFFFFFFFFFFFFFFFFFF AND PUSH20 0xFFFFFFFFFFFFFFFFFFFFFFFFFFFFFFFFFFFFFFFF AND DUP2 MSTORE PUSH1 0x20 ADD SWAP1 PUSH1 0x1 ADD SWAP1 DUP1 DUP4 GT PUSH2 0xB0E JUMPI JUMPDEST POP POP POP POP POP SWAP1 POP SWAP1 JUMP JUMPDEST PUSH1 0x11 PUSH0 CALLER PUSH20 0xFFFFFFFFFFFFFFFFFFFFFFFFFFFFFFFFFFFFFFFF AND PUSH20 0xFFFFFFFFFFFFFFFFFFFFFFFFFFFFFFFFFFFFFFFF AND DUP2 MSTORE PUSH1 0x20 ADD SWAP1 DUP2 MSTORE PUSH1 0x20 ADD PUSH0 KECCAK256 PUSH0 SWAP1 SLOAD SWAP1 PUSH2 0x100 EXP SWAP1 DIV PUSH1 0xFF AND PUSH2 0xBB3 JUMPI PUSH0 DUP1 REVERT JUMPDEST PUSH0 PUSH1 0xB PUSH0 CALLER PUSH20 0xFFFFFFFFFFFFFFFFFFFFFFFFFFFFFFFFFFFFFFFF AND PUSH20 0xFFFFFFFFFFFFFFFFFFFFFFFFFFFFFFFFFFFFFFFF AND DUP2 MSTORE PUSH1 0x20 ADD SWAP1 DUP2 MSTORE PUSH1 0x20 ADD PUSH0 KECCAK256 SWAP1 POP DUP9 DUP2 PUSH0 ADD SWAP1 DUP2 PUSH2 0xC03 SWAP2 SWAP1 PUSH2 0x56BE JUMP JUMPDEST POP DUP8 DUP2 PUSH1 0x1 ADD SWAP1 DUP2 PUSH2 0xC15 SWAP2 SWAP1 PUSH2 0x56BE JUMP JUMPDEST POP DUP7 DUP2 PUSH1 0x2 ADD SWAP1 DUP2 PUSH2 0xC27 SWAP2 SWAP1 PUSH2 0x56BE JUMP JUMPDEST POP DUP6 DUP2 PUSH1 0x3 ADD SWAP1 DUP2 PUSH2 0xC39 SWAP2 SWAP1 PUSH2 0x56BE JUMP JUMPDEST POP DUP5 DUP2 PUSH1 0x4 ADD SWAP1 DUP2 PUSH2 0xC4B SWAP2 SWAP1 PUSH2 0x56BE JUMP JUMPDEST POP DUP4 DUP2 PUSH1 0x5 ADD SWAP1 DUP2 PUSH2 0xC5D SWAP2 SWAP1 PUSH2 0x56BE JUMP JUMPDEST POP DUP3 DUP2 PUSH1 0x6 ADD SWAP1 DUP2 PUSH2 0xC6F SWAP2 SWAP1 PUSH2 0x56BE JUMP JUMPDEST POP DUP2 DUP2 PUSH1 0x8 ADD PUSH0 PUSH2 0x100 EXP DUP2 SLOAD DUP2 PUSH1 0xFF MUL NOT AND SWAP1 DUP4 ISZERO ISZERO MUL OR SWAP1 SSTORE POP POP POP POP POP POP POP POP POP POP JUMP JUMPDEST PUSH1 0x4 DUP2 DUP2 SLOAD DUP2 LT PUSH2 0xCA5 JUMPI PUSH0 DUP1 REVERT JUMPDEST SWAP1 PUSH0 MSTORE PUSH1 0x20 PUSH0 KECCAK256 ADD PUSH0 SWAP2 POP SLOAD SWAP1 PUSH2 0x100 EXP SWAP1 DIV PUSH20 0xFFFFFFFFFFFFFFFFFFFFFFFFFFFFFFFFFFFFFFFF AND DUP2 JUMP JUMPDEST PUSH1 0x11 PUSH0 CALLER PUSH20 0xFFFFFFFFFFFFFFFFFFFFFFFFFFFFFFFFFFFFFFFF AND PUSH20 0xFFFFFFFFFFFFFFFFFFFFFFFFFFFFFFFFFFFFFFFF AND DUP2 MSTORE PUSH1 0x20 ADD SWAP1 DUP2 MSTORE PUSH1 0x20 ADD PUSH0 KECCAK256 PUSH0 SWAP1 SLOAD SWAP1 PUSH2 0x100 EXP SWAP1 DIV PUSH1 0xFF AND PUSH2 0xD23 JUMPI PUSH0 DUP1 REVERT JUMPDEST PUSH0 PUSH1 0x9 PUSH0 DUP10 PUSH20 0xFFFFFFFFFFFFFFFFFFFFFFFFFFFFFFFFFFFFFFFF AND PUSH20 0xFFFFFFFFFFFFFFFFFFFFFFFFFFFFFFFFFFFFFFFF AND DUP2 MSTORE PUSH1 0x20 ADD SWAP1 DUP2 MSTORE PUSH1 0x20 ADD PUSH0 KECCAK256 SWAP1 POP CALLER DUP2 PUSH0 ADD PUSH0 PUSH2 0x100 EXP DUP2 SLOAD DUP2 PUSH20 0xFFFFFFFFFFFFFFFFFFFFFFFFFFFFFFFFFFFFFFFF MUL NOT AND SWAP1 DUP4 PUSH20 0xFFFFFFFFFFFFFFFFFFFFFFFFFFFFFFFFFFFFFFFF AND MUL OR SWAP1 SSTORE POP DUP8 DUP2 PUSH1 0x1 ADD PUSH0 PUSH2 0x100 EXP DUP2 SLOAD DUP2 PUSH20 0xFFFFFFFFFFFFFFFFFFFFFFFFFFFFFFFFFFFFFFFF MUL NOT AND SWAP1 DUP4 PUSH20 0xFFFFFFFFFFFFFFFFFFFFFFFFFFFFFFFFFFFFFFFF AND MUL OR SWAP1 SSTORE POP DUP7 DUP2 PUSH1 0x2 ADD SWAP1 DUP2 PUSH2 0xDF7 SWAP2 SWAP1 PUSH2 0x56BE JUMP JUMPDEST POP DUP6 DUP2 PUSH1 0x3 ADD SWAP1 DUP2 PUSH2 0xE09 SWAP2 SWAP1 PUSH2 0x56BE JUMP JUMPDEST POP DUP5 DUP2 PUSH1 0x6 ADD SWAP1 DUP2 PUSH2 0xE1B SWAP2 SWAP1 PUSH2 0x56BE JUMP JUMPDEST POP DUP4 DUP2 PUSH1 0x4 ADD SWAP1 DUP2 PUSH2 0xE2D SWAP2 SWAP1 PUSH2 0x56BE JUMP JUMPDEST POP DUP3 DUP2 PUSH1 0x5 ADD SWAP1 DUP2 PUSH2 0xE3F SWAP2 SWAP1 PUSH2 0x56BE JUMP JUMPDEST POP DUP2 DUP2 PUSH1 0x7 ADD SWAP1 DUP2 PUSH2 0xE51 SWAP2 SWAP1 PUSH2 0x56BE JUMP JUMPDEST POP TIMESTAMP DUP2 PUSH1 0x8 ADD DUP2 SWAP1 SSTORE POP PUSH1 0x7 DUP9 SWAP1 DUP1 PUSH1 0x1 DUP2 SLOAD ADD DUP1 DUP3 SSTORE DUP1 SWAP2 POP POP PUSH1 0x1 SWAP1 SUB SWAP1 PUSH0 MSTORE PUSH1 0x20 PUSH0 KECCAK256 ADD PUSH0 SWAP1 SWAP2 SWAP1 SWAP2 SWAP1 SWAP2 PUSH2 0x100 EXP DUP2 SLOAD DUP2 PUSH20 0xFFFFFFFFFFFFFFFFFFFFFFFFFFFFFFFFFFFFFFFF MUL NOT AND SWAP1 DUP4 PUSH20 0xFFFFFFFFFFFFFFFFFFFFFFFFFFFFFFFFFFFFFFFF AND MUL OR SWAP1 SSTORE POP PUSH1 0x17 PUSH0 DUP2 SLOAD DUP1 SWAP3 SWAP2 SWAP1 PUSH2 0xECD SWAP1 PUSH2 0x57BA JUMP JUMPDEST SWAP2 SWAP1 POP SSTORE POP PUSH1 0x13 PUSH0 DUP10 PUSH20 0xFFFFFFFFFFFFFFFFFFFFFFFFFFFFFFFFFFFFFFFF AND PUSH20 0xFFFFFFFFFFFFFFFFFFFFFFFFFFFFFFFFFFFFFFFF AND DUP2 MSTORE PUSH1 0x20 ADD SWAP1 DUP2 MSTORE PUSH1 0x20 ADD PUSH0 KECCAK256 PUSH0 DUP2 SLOAD DUP1 SWAP3 SWAP2 SWAP1 PUSH2 0xF1F SWAP1 PUSH2 0x57BA JUMP JUMPDEST SWAP2 SWAP1 POP SSTORE POP POP POP POP POP POP POP POP POP JUMP JUMPDEST PUSH0 PUSH1 0x18 SLOAD SWAP1 POP SWAP1 JUMP JUMPDEST PUSH1 0x11 PUSH0 CALLER PUSH20 0xFFFFFFFFFFFFFFFFFFFFFFFFFFFFFFFFFFFFFFFF AND PUSH20 0xFFFFFFFFFFFFFFFFFFFFFFFFFFFFFFFFFFFFFFFF AND DUP2 MSTORE PUSH1 0x20 ADD SWAP1 DUP2 MSTORE PUSH1 0x20 ADD PUSH0 KECCAK256 PUSH0 SWAP1 SLOAD SWAP1 PUSH2 0x100 EXP SWAP1 DIV PUSH1 0xFF AND PUSH2 0xF89 JUMPI PUSH0 DUP1 REVERT JUMPDEST PUSH0 PUSH1 0x9 PUSH0 CALLER PUSH20 0xFFFFFFFFFFFFFFFFFFFFFFFFFFFFFFFFFFFFFFFF AND PUSH20 0xFFFFFFFFFFFFFFFFFFFFFFFFFFFFFFFFFFFFFFFF AND DUP2 MSTORE PUSH1 0x20 ADD SWAP1 DUP2 MSTORE PUSH1 0x20 ADD PUSH0 KECCAK256 SWAP1 POP CALLER DUP2 PUSH0 ADD PUSH0 PUSH2 0x100 EXP DUP2 SLOAD DUP2 PUSH20 0xFFFFFFFFFFFFFFFFFFFFFFFFFFFFFFFFFFFFFFFF MUL NOT AND SWAP1 DUP4 PUSH20 0xFFFFFFFFFFFFFFFFFFFFFFFFFFFFFFFFFFFFFFFF AND MUL OR SWAP1 SSTORE POP DUP8 DUP2 PUSH1 0x1 ADD PUSH0 PUSH2 0x100 EXP DUP2 SLOAD DUP2 PUSH20 0xFFFFFFFFFFFFFFFFFFFFFFFFFFFFFFFFFFFFFFFF MUL NOT AND SWAP1 DUP4 PUSH20 0xFFFFFFFFFFFFFFFFFFFFFFFFFFFFFFFFFFFFFFFF AND MUL OR SWAP1 SSTORE POP DUP7 DUP2 PUSH1 0x2 ADD SWAP1 DUP2 PUSH2 0x105D SWAP2 SWAP1 PUSH2 0x56BE JUMP JUMPDEST POP DUP6 DUP2 PUSH1 0x3 ADD SWAP1 DUP2 PUSH2 0x106F SWAP2 SWAP1 PUSH2 0x56BE JUMP JUMPDEST POP DUP5 DUP2 PUSH1 0x6 ADD SWAP1 DUP2 PUSH2 0x1081 SWAP2 SWAP1 PUSH2 0x56BE JUMP JUMPDEST POP DUP4 DUP2 PUSH1 0x4 ADD SWAP1 DUP2 PUSH2 0x1093 SWAP2 SWAP1 PUSH2 0x56BE JUMP JUMPDEST POP DUP3 DUP2 PUSH1 0x5 ADD SWAP1 DUP2 PUSH2 0x10A5 SWAP2 SWAP1 PUSH2 0x56BE JUMP JUMPDEST POP DUP2 DUP2 PUSH1 0x7 ADD SWAP1 DUP2 PUSH2 0x10B7 SWAP2 SWAP1 PUSH2 0x56BE JUMP JUMPDEST POP POP POP POP POP POP POP POP POP JUMP JUMPDEST PUSH0 PUSH1 0x17 SLOAD SWAP1 POP SWAP1 JUMP JUMPDEST PUSH2 0x10D3 PUSH2 0x439E JUMP JUMPDEST PUSH2 0x10DB PUSH2 0x43F8 JUMP JUMPDEST PUSH1 0xF PUSH0 DUP5 PUSH20 0xFFFFFFFFFFFFFFFFFFFFFFFFFFFFFFFFFFFFFFFF AND PUSH20 0xFFFFFFFFFFFFFFFFFFFFFFFFFFFFFFFFFFFFFFFF AND DUP2 MSTORE PUSH1 0x20 ADD SWAP1 DUP2 MSTORE PUSH1 0x20 ADD PUSH0 KECCAK256 PUSH0 CALLER PUSH20 0xFFFFFFFFFFFFFFFFFFFFFFFFFFFFFFFFFFFFFFFF AND PUSH20 0xFFFFFFFFFFFFFFFFFFFFFFFFFFFFFFFFFFFFFFFF AND DUP2 MSTORE PUSH1 0x20 ADD SWAP1 DUP2 MSTORE PUSH1 0x20 ADD PUSH0 KECCAK256 PUSH0 SWAP1 SLOAD SWAP1 PUSH2 0x100 EXP SWAP1 DIV PUSH1 0xFF AND PUSH2 0x1168 JUMPI PUSH0 DUP1 REVERT JUMPDEST PUSH1 0x8 PUSH0 DUP5 PUSH20 0xFFFFFFFFFFFFFFFFFFFFFFFFFFFFFFFFFFFFFFFF AND PUSH20 0xFFFFFFFFFFFFFFFFFFFFFFFFFFFFFFFFFFFFFFFF AND DUP2 MSTORE PUSH1 0x20 ADD SWAP1 DUP2 MSTORE PUSH1 0x20 ADD PUSH0 KECCAK256 PUSH1 0xA PUSH0 DUP6 PUSH20 0xFFFFFFFFFFFFFFFFFFFFFFFFFFFFFFFFFFFFFFFF AND PUSH20 0xFFFFFFFFFFFFFFFFFFFFFFFFFFFFFFFFFFFFFFFF AND DUP2 MSTORE PUSH1 0x20 ADD SWAP1 DUP2 MSTORE PUSH1 0x20 ADD PUSH0 KECCAK256 DUP2 PUSH1 0x40 MLOAD DUP1 PUSH2 0x160 ADD PUSH1 0x40 MSTORE SWAP1 DUP2 PUSH0 DUP3 ADD DUP1 SLOAD PUSH2 0x11FE SWAP1 PUSH2 0x54F1 JUMP JUMPDEST DUP1 PUSH1 0x1F ADD PUSH1 0x20 DUP1 SWAP2 DIV MUL PUSH1 0x20 ADD PUSH1 0x40 MLOAD SWAP1 DUP2 ADD PUSH1 0x40 MSTORE DUP1 SWAP3 SWAP2 SWAP1 DUP2 DUP2 MSTORE PUSH1 0x20 ADD DUP3 DUP1 SLOAD PUSH2 0x122A SWAP1 PUSH2 0x54F1 JUMP JUMPDEST DUP1 ISZERO PUSH2 0x1275 JUMPI DUP1 PUSH1 0x1F LT PUSH2 0x124C JUMPI PUSH2 0x100 DUP1 DUP4 SLOAD DIV MUL DUP4 MSTORE SWAP2 PUSH1 0x20 ADD SWAP2 PUSH2 0x1275 JUMP JUMPDEST DUP3 ADD SWAP2 SWAP1 PUSH0 MSTORE PUSH1 0x20 PUSH0 KECCAK256 SWAP1 JUMPDEST DUP2 SLOAD DUP2 MSTORE SWAP1 PUSH1 0x1 ADD SWAP1 PUSH1 0x20 ADD DUP1 DUP4 GT PUSH2 0x1258 JUMPI DUP3 SWAP1 SUB PUSH1 0x1F AND DUP3 ADD SWAP2 JUMPDEST POP POP POP POP POP DUP2 MSTORE PUSH1 0x20 ADD PUSH1 0x1 DUP3 ADD DUP1 SLOAD PUSH2 0x128E SWAP1 PUSH2 0x54F1 JUMP JUMPDEST DUP1 PUSH1 0x1F ADD PUSH1 0x20 DUP1 SWAP2 DIV MUL PUSH1 0x20 ADD PUSH1 0x40 MLOAD SWAP1 DUP2 ADD PUSH1 0x40 MSTORE DUP1 SWAP3 SWAP2 SWAP1 DUP2 DUP2 MSTORE PUSH1 0x20 ADD DUP3 DUP1 SLOAD PUSH2 0x12BA SWAP1 PUSH2 0x54F1 JUMP JUMPDEST DUP1 ISZERO PUSH2 0x1305 JUMPI DUP1 PUSH1 0x1F LT PUSH2 0x12DC JUMPI PUSH2 0x100 DUP1 DUP4 SLOAD DIV MUL DUP4 MSTORE SWAP2 PUSH1 0x20 ADD SWAP2 PUSH2 0x1305 JUMP JUMPDEST DUP3 ADD SWAP2 SWAP1 PUSH0 MSTORE PUSH1 0x20 PUSH0 KECCAK256 SWAP1 JUMPDEST DUP2 SLOAD DUP2 MSTORE SWAP1 PUSH1 0x1 ADD SWAP1 PUSH1 0x20 ADD DUP1 DUP4 GT PUSH2 0x12E8 JUMPI DUP3 SWAP1 SUB PUSH1 0x1F AND DUP3 ADD SWAP2 JUMPDEST POP POP POP POP POP DUP2 MSTORE PUSH1 0x20 ADD PUSH1 0x2 DUP3 ADD DUP1 SLOAD PUSH2 0x131E SWAP1 PUSH2 0x54F1 JUMP JUMPDEST DUP1 PUSH1 0x1F ADD PUSH1 0x20 DUP1 SWAP2 DIV MUL PUSH1 0x20 ADD PUSH1 0x40 MLOAD SWAP1 DUP2 ADD PUSH1 0x40 MSTORE DUP1 SWAP3 SWAP2 SWAP1 DUP2 DUP2 MSTORE PUSH1 0x20 ADD DUP3 DUP1 SLOAD PUSH2 0x134A SWAP1 PUSH2 0x54F1 JUMP JUMPDEST DUP1 ISZERO PUSH2 0x1395 JUMPI DUP1 PUSH1 0x1F LT PUSH2 0x136C JUMPI PUSH2 0x100 DUP1 DUP4 SLOAD DIV MUL DUP4 MSTORE SWAP2 PUSH1 0x20 ADD SWAP2 PUSH2 0x1395 JUMP JUMPDEST DUP3 ADD SWAP2 SWAP1 PUSH0 MSTORE PUSH1 0x20 PUSH0 KECCAK256 SWAP1 JUMPDEST DUP2 SLOAD DUP2 MSTORE SWAP1 PUSH1 0x1 ADD SWAP1 PUSH1 0x20 ADD DUP1 DUP4 GT PUSH2 0x1378 JUMPI DUP3 SWAP1 SUB PUSH1 0x1F AND DUP3 ADD SWAP2 JUMPDEST POP POP POP POP POP DUP2 MSTORE PUSH1 0x20 ADD PUSH1 0x3 DUP3 ADD DUP1 SLOAD PUSH2 0x13AE SWAP1 PUSH2 0x54F1 JUMP JUMPDEST DUP1 PUSH1 0x1F ADD PUSH1 0x20 DUP1 SWAP2 DIV MUL PUSH1 0x20 ADD PUSH1 0x40 MLOAD SWAP1 DUP2 ADD PUSH1 0x40 MSTORE DUP1 SWAP3 SWAP2 SWAP1 DUP2 DUP2 MSTORE PUSH1 0x20 ADD DUP3 DUP1 SLOAD PUSH2 0x13DA SWAP1 PUSH2 0x54F1 JUMP JUMPDEST DUP1 ISZERO PUSH2 0x1425 JUMPI DUP1 PUSH1 0x1F LT PUSH2 0x13FC JUMPI PUSH2 0x100 DUP1 DUP4 SLOAD DIV MUL DUP4 MSTORE SWAP2 PUSH1 0x20 ADD SWAP2 PUSH2 0x1425 JUMP JUMPDEST DUP3 ADD SWAP2 SWAP1 PUSH0 MSTORE PUSH1 0x20 PUSH0 KECCAK256 SWAP1 JUMPDEST DUP2 SLOAD DUP2 MSTORE SWAP1 PUSH1 0x1 ADD SWAP1 PUSH1 0x20 ADD DUP1 DUP4 GT PUSH2 0x1408 JUMPI DUP3 SWAP1 SUB PUSH1 0x1F AND DUP3 ADD SWAP2 JUMPDEST POP POP POP POP POP DUP2 MSTORE PUSH1 0x20 ADD PUSH1 0x4 DUP3 ADD DUP1 SLOAD PUSH2 0x143E SWAP1 PUSH2 0x54F1 JUMP JUMPDEST DUP1 PUSH1 0x1F ADD PUSH1 0x20 DUP1 SWAP2 DIV MUL PUSH1 0x20 ADD PUSH1 0x40 MLOAD SWAP1 DUP2 ADD PUSH1 0x40 MSTORE DUP1 SWAP3 SWAP2 SWAP1 DUP2 DUP2 MSTORE PUSH1 0x20 ADD DUP3 DUP1 SLOAD PUSH2 0x146A SWAP1 PUSH2 0x54F1 JUMP JUMPDEST DUP1 ISZERO PUSH2 0x14B5 JUMPI DUP1 PUSH1 0x1F LT PUSH2 0x148C JUMPI PUSH2 0x100 DUP1 DUP4 SLOAD DIV MUL DUP4 MSTORE SWAP2 PUSH1 0x20 ADD SWAP2 PUSH2 0x14B5 JUMP JUMPDEST DUP3 ADD SWAP2 SWAP1 PUSH0 MSTORE PUSH1 0x20 PUSH0 KECCAK256 SWAP1 JUMPDEST DUP2 SLOAD DUP2 MSTORE SWAP1 PUSH1 0x1 ADD SWAP1 PUSH1 0x20 ADD DUP1 DUP4 GT PUSH2 0x1498 JUMPI DUP3 SWAP1 SUB PUSH1 0x1F AND DUP3 ADD SWAP2 JUMPDEST POP POP POP POP POP DUP2 MSTORE PUSH1 0x20 ADD PUSH1 0x5 DUP3 ADD DUP1 SLOAD PUSH2 0x14CE SWAP1 PUSH2 0x54F1 JUMP JUMPDEST DUP1 PUSH1 0x1F ADD PUSH1 0x20 DUP1 SWAP2 DIV MUL PUSH1 0x20 ADD PUSH1 0x40 MLOAD SWAP1 DUP2 ADD PUSH1 0x40 MSTORE DUP1 SWAP3 SWAP2 SWAP1 DUP2 DUP2 MSTORE PUSH1 0x20 ADD DUP3 DUP1 SLOAD PUSH2 0x14FA SWAP1 PUSH2 0x54F1 JUMP JUMPDEST DUP1 ISZERO PUSH2 0x1545 JUMPI DUP1 PUSH1 0x1F LT PUSH2 0x151C JUMPI PUSH2 0x100 DUP1 DUP4 SLOAD DIV MUL DUP4 MSTORE SWAP2 PUSH1 0x20 ADD SWAP2 PUSH2 0x1545 JUMP JUMPDEST DUP3 ADD SWAP2 SWAP1 PUSH0 MSTORE PUSH1 0x20 PUSH0 KECCAK256 SWAP1 JUMPDEST DUP2 SLOAD DUP2 MSTORE SWAP1 PUSH1 0x1 ADD SWAP1 PUSH1 0x20 ADD DUP1 DUP4 GT PUSH2 0x1528 JUMPI DUP3 SWAP1 SUB PUSH1 0x1F AND DUP3 ADD SWAP2 JUMPDEST POP POP POP POP POP DUP2 MSTORE PUSH1 0x20 ADD PUSH1 0x6 DUP3 ADD DUP1 SLOAD PUSH2 0x155E SWAP1 PUSH2 0x54F1 JUMP JUMPDEST DUP1 PUSH1 0x1F ADD PUSH1 0x20 DUP1 SWAP2 DIV MUL PUSH1 0x20 ADD PUSH1 0x40 MLOAD SWAP1 DUP2 ADD PUSH1 0x40 MSTORE DUP1 SWAP3 SWAP2 SWAP1 DUP2 DUP2 MSTORE PUSH1 0x20 ADD DUP3 DUP1 SLOAD PUSH2 0x158A SWAP1 PUSH2 0x54F1 JUMP JUMPDEST DUP1 ISZERO PUSH2 0x15D5 JUMPI DUP1 PUSH1 0x1F LT PUSH2 0x15AC JUMPI PUSH2 0x100 DUP1 DUP4 SLOAD DIV MUL DUP4 MSTORE SWAP2 PUSH1 0x20 ADD SWAP2 PUSH2 0x15D5 JUMP JUMPDEST DUP3 ADD SWAP2 SWAP1 PUSH0 MSTORE PUSH1 0x20 PUSH0 KECCAK256 SWAP1 JUMPDEST DUP2 SLOAD DUP2 MSTORE SWAP1 PUSH1 0x1 ADD SWAP1 PUSH1 0x20 ADD DUP1 DUP4 GT PUSH2 0x15B8 JUMPI DUP3 SWAP1 SUB PUSH1 0x1F AND DUP3 ADD SWAP2 JUMPDEST POP POP POP POP POP DUP2 MSTORE PUSH1 0x20 ADD PUSH1 0x7 DUP3 ADD DUP1 SLOAD PUSH2 0x15EE SWAP1 PUSH2 0x54F1 JUMP JUMPDEST DUP1 PUSH1 0x1F ADD PUSH1 0x20 DUP1 SWAP2 DIV MUL PUSH1 0x20 ADD PUSH1 0x40 MLOAD SWAP1 DUP2 ADD PUSH1 0x40 MSTORE DUP1 SWAP3 SWAP2 SWAP1 DUP2 DUP2 MSTORE PUSH1 0x20 ADD DUP3 DUP1 SLOAD PUSH2 0x161A SWAP1 PUSH2 0x54F1 JUMP JUMPDEST DUP1 ISZERO PUSH2 0x1665 JUMPI DUP1 PUSH1 0x1F LT PUSH2 0x163C JUMPI PUSH2 0x100 DUP1 DUP4 SLOAD DIV MUL DUP4 MSTORE SWAP2 PUSH1 0x20 ADD SWAP2 PUSH2 0x1665 JUMP JUMPDEST DUP3 ADD SWAP2 SWAP1 PUSH0 MSTORE PUSH1 0x20 PUSH0 KECCAK256 SWAP1 JUMPDEST DUP2 SLOAD DUP2 MSTORE SWAP1 PUSH1 0x1 ADD SWAP1 PUSH1 0x20 ADD DUP1 DUP4 GT PUSH2 0x1648 JUMPI DUP3 SWAP1 SUB PUSH1 0x1F AND DUP3 ADD SWAP2 JUMPDEST POP POP POP POP POP DUP2 MSTORE PUSH1 0x20 ADD PUSH1 0x8 DUP3 ADD DUP1 SLOAD PUSH2 0x167E SWAP1 PUSH2 0x54F1 JUMP JUMPDEST DUP1 PUSH1 0x1F ADD PUSH1 0x20 DUP1 SWAP2 DIV MUL PUSH1 0x20 ADD PUSH1 0x40 MLOAD SWAP1 DUP2 ADD PUSH1 0x40 MSTORE DUP1 SWAP3 SWAP2 SWAP1 DUP2 DUP2 MSTORE PUSH1 0x20 ADD DUP3 DUP1 SLOAD PUSH2 0x16AA SWAP1 PUSH2 0x54F1 JUMP JUMPDEST DUP1 ISZERO PUSH2 0x16F5 JUMPI DUP1 PUSH1 0x1F LT PUSH2 0x16CC JUMPI PUSH2 0x100 DUP1 DUP4 SLOAD DIV MUL DUP4 MSTORE SWAP2 PUSH1 0x20 ADD SWAP2 PUSH2 0x16F5 JUMP JUMPDEST DUP3 ADD SWAP2 SWAP1 PUSH0 MSTORE PUSH1 0x20 PUSH0 KECCAK256 SWAP1 JUMPDEST DUP2 SLOAD DUP2 MSTORE SWAP1 PUSH1 0x1 ADD SWAP1 PUSH1 0x20 ADD DUP1 DUP4 GT PUSH2 0x16D8 JUMPI DUP3 SWAP1 SUB PUSH1 0x1F AND DUP3 ADD SWAP2 JUMPDEST POP POP POP POP POP DUP2 MSTORE PUSH1 0x20 ADD PUSH1 0x9 DUP3 ADD DUP1 SLOAD PUSH2 0x170E SWAP1 PUSH2 0x54F1 JUMP JUMPDEST DUP1 PUSH1 0x1F ADD PUSH1 0x20 DUP1 SWAP2 DIV MUL PUSH1 0x20 ADD PUSH1 0x40 MLOAD SWAP1 DUP2 ADD PUSH1 0x40 MSTORE DUP1 SWAP3 SWAP2 SWAP1 DUP2 DUP2 MSTORE PUSH1 0x20 ADD DUP3 DUP1 SLOAD PUSH2 0x173A SWAP1 PUSH2 0x54F1 JUMP JUMPDEST DUP1 ISZERO PUSH2 0x1785 JUMPI DUP1 PUSH1 0x1F LT PUSH2 0x175C JUMPI PUSH2 0x100 DUP1 DUP4 SLOAD DIV MUL DUP4 MSTORE SWAP2 PUSH1 0x20 ADD SWAP2 PUSH2 0x1785 JUMP JUMPDEST DUP3 ADD SWAP2 SWAP1 PUSH0 MSTORE PUSH1 0x20 PUSH0 KECCAK256 SWAP1 JUMPDEST DUP2 SLOAD DUP2 MSTORE SWAP1 PUSH1 0x1 ADD SWAP1 PUSH1 0x20 ADD DUP1 DUP4 GT PUSH2 0x1768 JUMPI DUP3 SWAP1 SUB PUSH1 0x1F AND DUP3 ADD SWAP2 JUMPDEST POP POP POP POP POP DUP2 MSTORE PUSH1 0x20 ADD PUSH1 0xA DUP3 ADD DUP1 SLOAD PUSH2 0x179E SWAP1 PUSH2 0x54F1 JUMP JUMPDEST DUP1 PUSH1 0x1F ADD PUSH1 0x20 DUP1 SWAP2 DIV MUL PUSH1 0x20 ADD PUSH1 0x40 MLOAD SWAP1 DUP2 ADD PUSH1 0x40 MSTORE DUP1 SWAP3 SWAP2 SWAP1 DUP2 DUP2 MSTORE PUSH1 0x20 ADD DUP3 DUP1 SLOAD PUSH2 0x17CA SWAP1 PUSH2 0x54F1 JUMP JUMPDEST DUP1 ISZERO PUSH2 0x1815 JUMPI DUP1 PUSH1 0x1F LT PUSH2 0x17EC JUMPI PUSH2 0x100 DUP1 DUP4 SLOAD DIV MUL DUP4 MSTORE SWAP2 PUSH1 0x20 ADD SWAP2 PUSH2 0x1815 JUMP JUMPDEST DUP3 ADD SWAP2 SWAP1 PUSH0 MSTORE PUSH1 0x20 PUSH0 KECCAK256 SWAP1 JUMPDEST DUP2 SLOAD DUP2 MSTORE SWAP1 PUSH1 0x1 ADD SWAP1 PUSH1 0x20 ADD DUP1 DUP4 GT PUSH2 0x17F8 JUMPI DUP3 SWAP1 SUB PUSH1 0x1F AND DUP3 ADD SWAP2 JUMPDEST POP POP POP POP POP DUP2 MSTORE POP POP SWAP2 POP DUP1 PUSH1 0x40 MLOAD DUP1 PUSH1 0x80 ADD PUSH1 0x40 MSTORE SWAP1 DUP2 PUSH0 DUP3 ADD PUSH0 SWAP1 SLOAD SWAP1 PUSH2 0x100 EXP SWAP1 DIV PUSH20 0xFFFFFFFFFFFFFFFFFFFFFFFFFFFFFFFFFFFFFFFF AND PUSH20 0xFFFFFFFFFFFFFFFFFFFFFFFFFFFFFFFFFFFFFFFF AND PUSH20 0xFFFFFFFFFFFFFFFFFFFFFFFFFFFFFFFFFFFFFFFF AND DUP2 MSTORE PUSH1 0x20 ADD PUSH1 0x1 DUP3 ADD SLOAD DUP2 MSTORE PUSH1 0x20 ADD PUSH1 0x2 DUP3 ADD SLOAD DUP2 MSTORE PUSH1 0x20 ADD PUSH1 0x3 DUP3 ADD SLOAD DUP2 MSTORE POP POP SWAP1 POP SWAP2 POP SWAP2 POP SWAP2 POP SWAP2 JUMP JUMPDEST PUSH1 0x6 DUP2 DUP2 SLOAD DUP2 LT PUSH2 0x18B8 JUMPI PUSH0 DUP1 REVERT JUMPDEST SWAP1 PUSH0 MSTORE PUSH1 0x20 PUSH0 KECCAK256 ADD PUSH0 SWAP2 POP SLOAD SWAP1 PUSH2 0x100 EXP SWAP1 DIV PUSH20 0xFFFFFFFFFFFFFFFFFFFFFFFFFFFFFFFFFFFFFFFF AND DUP2 JUMP JUMPDEST PUSH2 0x18EC PUSH2 0x439E JUMP JUMPDEST PUSH2 0x18F4 PUSH2 0x43F8 JUMP JUMPDEST PUSH1 0xF PUSH0 DUP5 PUSH20 0xFFFFFFFFFFFFFFFFFFFFFFFFFFFFFFFFFFFFFFFF AND PUSH20 0xFFFFFFFFFFFFFFFFFFFFFFFFFFFFFFFFFFFFFFFF AND DUP2 MSTORE PUSH1 0x20 ADD SWAP1 DUP2 MSTORE PUSH1 0x20 ADD PUSH0 KECCAK256 PUSH0 CALLER PUSH20 0xFFFFFFFFFFFFFFFFFFFFFFFFFFFFFFFFFFFFFFFF AND PUSH20 0xFFFFFFFFFFFFFFFFFFFFFFFFFFFFFFFFFFFFFFFF AND DUP2 MSTORE PUSH1 0x20 ADD SWAP1 DUP2 MSTORE PUSH1 0x20 ADD PUSH0 KECCAK256 PUSH0 SWAP1 SLOAD SWAP1 PUSH2 0x100 EXP SWAP1 DIV PUSH1 0xFF AND PUSH2 0x1981 JUMPI PUSH0 DUP1 REVERT JUMPDEST PUSH1 0x8 PUSH0 DUP5 PUSH20 0xFFFFFFFFFFFFFFFFFFFFFFFFFFFFFFFFFFFFFFFF AND PUSH20 0xFFFFFFFFFFFFFFFFFFFFFFFFFFFFFFFFFFFFFFFF AND DUP2 MSTORE PUSH1 0x20 ADD SWAP1 DUP2 MSTORE PUSH1 0x20 ADD PUSH0 KECCAK256 PUSH1 0xA PUSH0 DUP6 PUSH20 0xFFFFFFFFFFFFFFFFFFFFFFFFFFFFFFFFFFFFFFFF AND PUSH20 0xFFFFFFFFFFFFFFFFFFFFFFFFFFFFFFFFFFFFFFFF AND DUP2 MSTORE PUSH1 0x20 ADD SWAP1 DUP2 MSTORE PUSH1 0x20 ADD PUSH0 KECCAK256 DUP2 PUSH1 0x40 MLOAD DUP1 PUSH2 0x160 ADD PUSH1 0x40 MSTORE SWAP1 DUP2 PUSH0 DUP3 ADD DUP1 SLOAD PUSH2 0x1A17 SWAP1 PUSH2 0x54F1 JUMP JUMPDEST DUP1 PUSH1 0x1F ADD PUSH1 0x20 DUP1 SWAP2 DIV MUL PUSH1 0x20 ADD PUSH1 0x40 MLOAD SWAP1 DUP2 ADD PUSH1 0x40 MSTORE DUP1 SWAP3 SWAP2 SWAP1 DUP2 DUP2 MSTORE PUSH1 0x20 ADD DUP3 DUP1 SLOAD PUSH2 0x1A43 SWAP1 PUSH2 0x54F1 JUMP JUMPDEST DUP1 ISZERO PUSH2 0x1A8E JUMPI DUP1 PUSH1 0x1F LT PUSH2 0x1A65 JUMPI PUSH2 0x100 DUP1 DUP4 SLOAD DIV MUL DUP4 MSTORE SWAP2 PUSH1 0x20 ADD SWAP2 PUSH2 0x1A8E JUMP JUMPDEST DUP3 ADD SWAP2 SWAP1 PUSH0 MSTORE PUSH1 0x20 PUSH0 KECCAK256 SWAP1 JUMPDEST DUP2 SLOAD DUP2 MSTORE SWAP1 PUSH1 0x1 ADD SWAP1 PUSH1 0x20 ADD DUP1 DUP4 GT PUSH2 0x1A71 JUMPI DUP3 SWAP1 SUB PUSH1 0x1F AND DUP3 ADD SWAP2 JUMPDEST POP POP POP POP POP DUP2 MSTORE PUSH1 0x20 ADD PUSH1 0x1 DUP3 ADD DUP1 SLOAD PUSH2 0x1AA7 SWAP1 PUSH2 0x54F1 JUMP JUMPDEST DUP1 PUSH1 0x1F ADD PUSH1 0x20 DUP1 SWAP2 DIV MUL PUSH1 0x20 ADD PUSH1 0x40 MLOAD SWAP1 DUP2 ADD PUSH1 0x40 MSTORE DUP1 SWAP3 SWAP2 SWAP1 DUP2 DUP2 MSTORE PUSH1 0x20 ADD DUP3 DUP1 SLOAD PUSH2 0x1AD3 SWAP1 PUSH2 0x54F1 JUMP JUMPDEST DUP1 ISZERO PUSH2 0x1B1E JUMPI DUP1 PUSH1 0x1F LT PUSH2 0x1AF5 JUMPI PUSH2 0x100 DUP1 DUP4 SLOAD DIV MUL DUP4 MSTORE SWAP2 PUSH1 0x20 ADD SWAP2 PUSH2 0x1B1E JUMP JUMPDEST DUP3 ADD SWAP2 SWAP1 PUSH0 MSTORE PUSH1 0x20 PUSH0 KECCAK256 SWAP1 JUMPDEST DUP2 SLOAD DUP2 MSTORE SWAP1 PUSH1 0x1 ADD SWAP1 PUSH1 0x20 ADD DUP1 DUP4 GT PUSH2 0x1B01 JUMPI DUP3 SWAP1 SUB PUSH1 0x1F AND DUP3 ADD SWAP2 JUMPDEST POP POP POP POP POP DUP2 MSTORE PUSH1 0x20 ADD PUSH1 0x2 DUP3 ADD DUP1 SLOAD PUSH2 0x1B37 SWAP1 PUSH2 0x54F1 JUMP JUMPDEST DUP1 PUSH1 0x1F ADD PUSH1 0x20 DUP1 SWAP2 DIV MUL PUSH1 0x20 ADD PUSH1 0x40 MLOAD SWAP1 DUP2 ADD PUSH1 0x40 MSTORE DUP1 SWAP3 SWAP2 SWAP1 DUP2 DUP2 MSTORE PUSH1 0x20 ADD DUP3 DUP1 SLOAD PUSH2 0x1B63 SWAP1 PUSH2 0x54F1 JUMP JUMPDEST DUP1 ISZERO PUSH2 0x1BAE JUMPI DUP1 PUSH1 0x1F LT PUSH2 0x1B85 JUMPI PUSH2 0x100 DUP1 DUP4 SLOAD DIV MUL DUP4 MSTORE SWAP2 PUSH1 0x20 ADD SWAP2 PUSH2 0x1BAE JUMP JUMPDEST DUP3 ADD SWAP2 SWAP1 PUSH0 MSTORE PUSH1 0x20 PUSH0 KECCAK256 SWAP1 JUMPDEST DUP2 SLOAD DUP2 MSTORE SWAP1 PUSH1 0x1 ADD SWAP1 PUSH1 0x20 ADD DUP1 DUP4 GT PUSH2 0x1B91 JUMPI DUP3 SWAP1 SUB PUSH1 0x1F AND DUP3 ADD SWAP2 JUMPDEST POP POP POP POP POP DUP2 MSTORE PUSH1 0x20 ADD PUSH1 0x3 DUP3 ADD DUP1 SLOAD PUSH2 0x1BC7 SWAP1 PUSH2 0x54F1 JUMP JUMPDEST DUP1 PUSH1 0x1F ADD PUSH1 0x20 DUP1 SWAP2 DIV MUL PUSH1 0x20 ADD PUSH1 0x40 MLOAD SWAP1 DUP2 ADD PUSH1 0x40 MSTORE DUP1 SWAP3 SWAP2 SWAP1 DUP2 DUP2 MSTORE PUSH1 0x20 ADD DUP3 DUP1 SLOAD PUSH2 0x1BF3 SWAP1 PUSH2 0x54F1 JUMP JUMPDEST DUP1 ISZERO PUSH2 0x1C3E JUMPI DUP1 PUSH1 0x1F LT PUSH2 0x1C15 JUMPI PUSH2 0x100 DUP1 DUP4 SLOAD DIV MUL DUP4 MSTORE SWAP2 PUSH1 0x20 ADD SWAP2 PUSH2 0x1C3E JUMP JUMPDEST DUP3 ADD SWAP2 SWAP1 PUSH0 MSTORE PUSH1 0x20 PUSH0 KECCAK256 SWAP1 JUMPDEST DUP2 SLOAD DUP2 MSTORE SWAP1 PUSH1 0x1 ADD SWAP1 PUSH1 0x20 ADD DUP1 DUP4 GT PUSH2 0x1C21 JUMPI DUP3 SWAP1 SUB PUSH1 0x1F AND DUP3 ADD SWAP2 JUMPDEST POP POP POP POP POP DUP2 MSTORE PUSH1 0x20 ADD PUSH1 0x4 DUP3 ADD DUP1 SLOAD PUSH2 0x1C57 SWAP1 PUSH2 0x54F1 JUMP JUMPDEST DUP1 PUSH1 0x1F ADD PUSH1 0x20 DUP1 SWAP2 DIV MUL PUSH1 0x20 ADD PUSH1 0x40 MLOAD SWAP1 DUP2 ADD PUSH1 0x40 MSTORE DUP1 SWAP3 SWAP2 SWAP1 DUP2 DUP2 MSTORE PUSH1 0x20 ADD DUP3 DUP1 SLOAD PUSH2 0x1C83 SWAP1 PUSH2 0x54F1 JUMP JUMPDEST DUP1 ISZERO PUSH2 0x1CCE JUMPI DUP1 PUSH1 0x1F LT PUSH2 0x1CA5 JUMPI PUSH2 0x100 DUP1 DUP4 SLOAD DIV MUL DUP4 MSTORE SWAP2 PUSH1 0x20 ADD SWAP2 PUSH2 0x1CCE JUMP JUMPDEST DUP3 ADD SWAP2 SWAP1 PUSH0 MSTORE PUSH1 0x20 PUSH0 KECCAK256 SWAP1 JUMPDEST DUP2 SLOAD DUP2 MSTORE SWAP1 PUSH1 0x1 ADD SWAP1 PUSH1 0x20 ADD DUP1 DUP4 GT PUSH2 0x1CB1 JUMPI DUP3 SWAP1 SUB PUSH1 0x1F AND DUP3 ADD SWAP2 JUMPDEST POP POP POP POP POP DUP2 MSTORE PUSH1 0x20 ADD PUSH1 0x5 DUP3 ADD DUP1 SLOAD PUSH2 0x1CE7 SWAP1 PUSH2 0x54F1 JUMP JUMPDEST DUP1 PUSH1 0x1F ADD PUSH1 0x20 DUP1 SWAP2 DIV MUL PUSH1 0x20 ADD PUSH1 0x40 MLOAD SWAP1 DUP2 ADD PUSH1 0x40 MSTORE DUP1 SWAP3 SWAP2 SWAP1 DUP2 DUP2 MSTORE PUSH1 0x20 ADD DUP3 DUP1 SLOAD PUSH2 0x1D13 SWAP1 PUSH2 0x54F1 JUMP JUMPDEST DUP1 ISZERO PUSH2 0x1D5E JUMPI DUP1 PUSH1 0x1F LT PUSH2 0x1D35 JUMPI PUSH2 0x100 DUP1 DUP4 SLOAD DIV MUL DUP4 MSTORE SWAP2 PUSH1 0x20 ADD SWAP2 PUSH2 0x1D5E JUMP JUMPDEST DUP3 ADD SWAP2 SWAP1 PUSH0 MSTORE PUSH1 0x20 PUSH0 KECCAK256 SWAP1 JUMPDEST DUP2 SLOAD DUP2 MSTORE SWAP1 PUSH1 0x1 ADD SWAP1 PUSH1 0x20 ADD DUP1 DUP4 GT PUSH2 0x1D41 JUMPI DUP3 SWAP1 SUB PUSH1 0x1F AND DUP3 ADD SWAP2 JUMPDEST POP POP POP POP POP DUP2 MSTORE PUSH1 0x20 ADD PUSH1 0x6 DUP3 ADD DUP1 SLOAD PUSH2 0x1D77 SWAP1 PUSH2 0x54F1 JUMP JUMPDEST DUP1 PUSH1 0x1F ADD PUSH1 0x20 DUP1 SWAP2 DIV MUL PUSH1 0x20 ADD PUSH1 0x40 MLOAD SWAP1 DUP2 ADD PUSH1 0x40 MSTORE DUP1 SWAP3 SWAP2 SWAP1 DUP2 DUP2 MSTORE PUSH1 0x20 ADD DUP3 DUP1 SLOAD PUSH2 0x1DA3 SWAP1 PUSH2 0x54F1 JUMP JUMPDEST DUP1 ISZERO PUSH2 0x1DEE JUMPI DUP1 PUSH1 0x1F LT PUSH2 0x1DC5 JUMPI PUSH2 0x100 DUP1 DUP4 SLOAD DIV MUL DUP4 MSTORE SWAP2 PUSH1 0x20 ADD SWAP2 PUSH2 0x1DEE JUMP JUMPDEST DUP3 ADD SWAP2 SWAP1 PUSH0 MSTORE PUSH1 0x20 PUSH0 KECCAK256 SWAP1 JUMPDEST DUP2 SLOAD DUP2 MSTORE SWAP1 PUSH1 0x1 ADD SWAP1 PUSH1 0x20 ADD DUP1 DUP4 GT PUSH2 0x1DD1 JUMPI DUP3 SWAP1 SUB PUSH1 0x1F AND DUP3 ADD SWAP2 JUMPDEST POP POP POP POP POP DUP2 MSTORE PUSH1 0x20 ADD PUSH1 0x7 DUP3 ADD DUP1 SLOAD PUSH2 0x1E07 SWAP1 PUSH2 0x54F1 JUMP JUMPDEST DUP1 PUSH1 0x1F ADD PUSH1 0x20 DUP1 SWAP2 DIV MUL PUSH1 0x20 ADD PUSH1 0x40 MLOAD SWAP1 DUP2 ADD PUSH1 0x40 MSTORE DUP1 SWAP3 SWAP2 SWAP1 DUP2 DUP2 MSTORE PUSH1 0x20 ADD DUP3 DUP1 SLOAD PUSH2 0x1E33 SWAP1 PUSH2 0x54F1 JUMP JUMPDEST DUP1 ISZERO PUSH2 0x1E7E JUMPI DUP1 PUSH1 0x1F LT PUSH2 0x1E55 JUMPI PUSH2 0x100 DUP1 DUP4 SLOAD DIV MUL DUP4 MSTORE SWAP2 PUSH1 0x20 ADD SWAP2 PUSH2 0x1E7E JUMP JUMPDEST DUP3 ADD SWAP2 SWAP1 PUSH0 MSTORE PUSH1 0x20 PUSH0 KECCAK256 SWAP1 JUMPDEST DUP2 SLOAD DUP2 MSTORE SWAP1 PUSH1 0x1 ADD SWAP1 PUSH1 0x20 ADD DUP1 DUP4 GT PUSH2 0x1E61 JUMPI DUP3 SWAP1 SUB PUSH1 0x1F AND DUP3 ADD SWAP2 JUMPDEST POP POP POP POP POP DUP2 MSTORE PUSH1 0x20 ADD PUSH1 0x8 DUP3 ADD DUP1 SLOAD PUSH2 0x1E97 SWAP1 PUSH2 0x54F1 JUMP JUMPDEST DUP1 PUSH1 0x1F ADD PUSH1 0x20 DUP1 SWAP2 DIV MUL PUSH1 0x20 ADD PUSH1 0x40 MLOAD SWAP1 DUP2 ADD PUSH1 0x40 MSTORE DUP1 SWAP3 SWAP2 SWAP1 DUP2 DUP2 MSTORE PUSH1 0x20 ADD DUP3 DUP1 SLOAD PUSH2 0x1EC3 SWAP1 PUSH2 0x54F1 JUMP JUMPDEST DUP1 ISZERO PUSH2 0x1F0E JUMPI DUP1 PUSH1 0x1F LT PUSH2 0x1EE5 JUMPI PUSH2 0x100 DUP1 DUP4 SLOAD DIV MUL DUP4 MSTORE SWAP2 PUSH1 0x20 ADD SWAP2 PUSH2 0x1F0E JUMP JUMPDEST DUP3 ADD SWAP2 SWAP1 PUSH0 MSTORE PUSH1 0x20 PUSH0 KECCAK256 SWAP1 JUMPDEST DUP2 SLOAD DUP2 MSTORE SWAP1 PUSH1 0x1 ADD SWAP1 PUSH1 0x20 ADD DUP1 DUP4 GT PUSH2 0x1EF1 JUMPI DUP3 SWAP1 SUB PUSH1 0x1F AND DUP3 ADD SWAP2 JUMPDEST POP POP POP POP POP DUP2 MSTORE PUSH1 0x20 ADD PUSH1 0x9 DUP3 ADD DUP1 SLOAD PUSH2 0x1F27 SWAP1 PUSH2 0x54F1 JUMP JUMPDEST DUP1 PUSH1 0x1F ADD PUSH1 0x20 DUP1 SWAP2 DIV MUL PUSH1 0x20 ADD PUSH1 0x40 MLOAD SWAP1 DUP2 ADD PUSH1 0x40 MSTORE DUP1 SWAP3 SWAP2 SWAP1 DUP2 DUP2 MSTORE PUSH1 0x20 ADD DUP3 DUP1 SLOAD PUSH2 0x1F53 SWAP1 PUSH2 0x54F1 JUMP JUMPDEST DUP1 ISZERO PUSH2 0x1F9E JUMPI DUP1 PUSH1 0x1F LT PUSH2 0x1F75 JUMPI PUSH2 0x100 DUP1 DUP4 SLOAD DIV MUL DUP4 MSTORE SWAP2 PUSH1 0x20 ADD SWAP2 PUSH2 0x1F9E JUMP JUMPDEST DUP3 ADD SWAP2 SWAP1 PUSH0 MSTORE PUSH1 0x20 PUSH0 KECCAK256 SWAP1 JUMPDEST DUP2 SLOAD DUP2 MSTORE SWAP1 PUSH1 0x1 ADD SWAP1 PUSH1 0x20 ADD DUP1 DUP4 GT PUSH2 0x1F81 JUMPI DUP3 SWAP1 SUB PUSH1 0x1F AND DUP3 ADD SWAP2 JUMPDEST POP POP POP POP POP DUP2 MSTORE PUSH1 0x20 ADD PUSH1 0xA DUP3 ADD DUP1 SLOAD PUSH2 0x1FB7 SWAP1 PUSH2 0x54F1 JUMP JUMPDEST DUP1 PUSH1 0x1F ADD PUSH1 0x20 DUP1 SWAP2 DIV MUL PUSH1 0x20 ADD PUSH1 0x40 MLOAD SWAP1 DUP2 ADD PUSH1 0x40 MSTORE DUP1 SWAP3 SWAP2 SWAP1 DUP2 DUP2 MSTORE PUSH1 0x20 ADD DUP3 DUP1 SLOAD PUSH2 0x1FE3 SWAP1 PUSH2 0x54F1 JUMP JUMPDEST DUP1 ISZERO PUSH2 0x202E JUMPI DUP1 PUSH1 0x1F LT PUSH2 0x2005 JUMPI PUSH2 0x100 DUP1 DUP4 SLOAD DIV MUL DUP4 MSTORE SWAP2 PUSH1 0x20 ADD SWAP2 PUSH2 0x202E JUMP JUMPDEST DUP3 ADD SWAP2 SWAP1 PUSH0 MSTORE PUSH1 0x20 PUSH0 KECCAK256 SWAP1 JUMPDEST DUP2 SLOAD DUP2 MSTORE SWAP1 PUSH1 0x1 ADD SWAP1 PUSH1 0x20 ADD DUP1 DUP4 GT PUSH2 0x2011 JUMPI DUP3 SWAP1 SUB PUSH1 0x1F AND DUP3 ADD SWAP2 JUMPDEST POP POP POP POP POP DUP2 MSTORE POP POP SWAP2 POP DUP1 PUSH1 0x40 MLOAD DUP1 PUSH1 0x80 ADD PUSH1 0x40 MSTORE SWAP1 DUP2 PUSH0 DUP3 ADD PUSH0 SWAP1 SLOAD SWAP1 PUSH2 0x100 EXP SWAP1 DIV PUSH20 0xFFFFFFFFFFFFFFFFFFFFFFFFFFFFFFFFFFFFFFFF AND PUSH20 0xFFFFFFFFFFFFFFFFFFFFFFFFFFFFFFFFFFFFFFFF AND PUSH20 0xFFFFFFFFFFFFFFFFFFFFFFFFFFFFFFFFFFFFFFFF AND DUP2 MSTORE PUSH1 0x20 ADD PUSH1 0x1 DUP3 ADD SLOAD DUP2 MSTORE PUSH1 0x20 ADD PUSH1 0x2 DUP3 ADD SLOAD DUP2 MSTORE PUSH1 0x20 ADD PUSH1 0x3 DUP3 ADD SLOAD DUP2 MSTORE POP POP SWAP1 POP SWAP2 POP SWAP2 POP SWAP2 POP SWAP2 JUMP JUMPDEST PUSH0 PUSH1 0x1 PUSH1 0xF PUSH0 CALLER PUSH20 0xFFFFFFFFFFFFFFFFFFFFFFFFFFFFFFFFFFFFFFFF AND PUSH20 0xFFFFFFFFFFFFFFFFFFFFFFFFFFFFFFFFFFFFFFFF AND DUP2 MSTORE PUSH1 0x20 ADD SWAP1 DUP2 MSTORE PUSH1 0x20 ADD PUSH0 KECCAK256 PUSH0 DUP5 PUSH20 0xFFFFFFFFFFFFFFFFFFFFFFFFFFFFFFFFFFFFFFFF AND PUSH20 0xFFFFFFFFFFFFFFFFFFFFFFFFFFFFFFFFFFFFFFFF AND DUP2 MSTORE PUSH1 0x20 ADD SWAP1 DUP2 MSTORE PUSH1 0x20 ADD PUSH0 KECCAK256 PUSH0 PUSH2 0x100 EXP DUP2 SLOAD DUP2 PUSH1 0xFF MUL NOT AND SWAP1 DUP4 ISZERO ISZERO MUL OR SWAP1 SSTORE POP PUSH1 0x18 PUSH0 DUP2 SLOAD DUP1 SWAP3 SWAP2 SWAP1 PUSH2 0x2165 SWAP1 PUSH2 0x57BA JUMP JUMPDEST SWAP2 SWAP1 POP SSTORE POP PUSH1 0x1 SWAP1 POP SWAP2 SWAP1 POP JUMP JUMPDEST CALLER PUSH0 DUP1 PUSH2 0x100 EXP DUP2 SLOAD DUP2 PUSH20 0xFFFFFFFFFFFFFFFFFFFFFFFFFFFFFFFFFFFFFFFF MUL NOT AND SWAP1 DUP4 PUSH20 0xFFFFFFFFFFFFFFFFFFFFFFFFFFFFFFFFFFFFFFFF AND MUL OR SWAP1 SSTORE POP JUMP JUMPDEST PUSH0 DUP1 PUSH1 0x9 PUSH0 DUP5 PUSH20 0xFFFFFFFFFFFFFFFFFFFFFFFFFFFFFFFFFFFFFFFF AND PUSH20 0xFFFFFFFFFFFFFFFFFFFFFFFFFFFFFFFFFFFFFFFF AND DUP2 MSTORE PUSH1 0x20 ADD SWAP1 DUP2 MSTORE PUSH1 0x20 ADD PUSH0 KECCAK256 SWAP1 POP DUP1 PUSH1 0x8 ADD SLOAD SWAP2 POP POP SWAP2 SWAP1 POP JUMP JUMPDEST PUSH1 0x11 PUSH0 CALLER PUSH20 0xFFFFFFFFFFFFFFFFFFFFFFFFFFFFFFFFFFFFFFFF AND PUSH20 0xFFFFFFFFFFFFFFFFFFFFFFFFFFFFFFFFFFFFFFFF AND DUP2 MSTORE PUSH1 0x20 ADD SWAP1 DUP2 MSTORE PUSH1 0x20 ADD PUSH0 KECCAK256 PUSH0 SWAP1 SLOAD SWAP1 PUSH2 0x100 EXP SWAP1 DIV PUSH1 0xFF AND ISZERO PUSH2 0x2255 JUMPI PUSH0 DUP1 REVERT JUMPDEST PUSH0 PUSH1 0xC PUSH0 CALLER PUSH20 0xFFFFFFFFFFFFFFFFFFFFFFFFFFFFFFFFFFFFFFFF AND PUSH20 0xFFFFFFFFFFFFFFFFFFFFFFFFFFFFFFFFFFFFFFFF AND DUP2 MSTORE PUSH1 0x20 ADD SWAP1 DUP2 MSTORE PUSH1 0x20 ADD PUSH0 KECCAK256 SWAP1 POP CALLER DUP2 PUSH0 ADD PUSH0 PUSH2 0x100 EXP DUP2 SLOAD DUP2 PUSH20 0xFFFFFFFFFFFFFFFFFFFFFFFFFFFFFFFFFFFFFFFF MUL NOT AND SWAP1 DUP4 PUSH20 0xFFFFFFFFFFFFFFFFFFFFFFFFFFFFFFFFFFFFFFFF AND MUL OR SWAP1 SSTORE POP TIMESTAMP DUP2 PUSH1 0x3 ADD DUP2 SWAP1 SSTORE POP DUP3 DUP2 PUSH1 0x2 ADD DUP2 SWAP1 SSTORE POP DUP2 DUP2 PUSH1 0x1 ADD DUP2 SWAP1 SSTORE POP POP POP POP JUMP JUMPDEST PUSH2 0x22FE PUSH2 0x4432 JUMP JUMPDEST PUSH1 0x12 PUSH0 CALLER PUSH20 0xFFFFFFFFFFFFFFFFFFFFFFFFFFFFFFFFFFFFFFFF AND PUSH20 0xFFFFFFFFFFFFFFFFFFFFFFFFFFFFFFFFFFFFFFFF AND DUP2 MSTORE PUSH1 0x20 ADD SWAP1 DUP2 MSTORE PUSH1 0x20 ADD PUSH0 KECCAK256 PUSH0 SWAP1 SLOAD SWAP1 PUSH2 0x100 EXP SWAP1 DIV PUSH1 0xFF AND ISZERO PUSH2 0x2351 JUMPI PUSH0 DUP1 REVERT JUMPDEST PUSH1 0xE PUSH0 CALLER PUSH20 0xFFFFFFFFFFFFFFFFFFFFFFFFFFFFFFFFFFFFFFFF AND PUSH20 0xFFFFFFFFFFFFFFFFFFFFFFFFFFFFFFFFFFFFFFFF AND DUP2 MSTORE PUSH1 0x20 ADD SWAP1 DUP2 MSTORE PUSH1 0x20 ADD PUSH0 KECCAK256 PUSH1 0x40 MLOAD DUP1 PUSH1 0x80 ADD PUSH1 0x40 MSTORE SWAP1 DUP2 PUSH0 DUP3 ADD PUSH0 SWAP1 SLOAD SWAP1 PUSH2 0x100 EXP SWAP1 DIV PUSH20 0xFFFFFFFFFFFFFFFFFFFFFFFFFFFFFFFFFFFFFFFF AND PUSH20 0xFFFFFFFFFFFFFFFFFFFFFFFFFFFFFFFFFFFFFFFF AND PUSH20 0xFFFFFFFFFFFFFFFFFFFFFFFFFFFFFFFFFFFFFFFF AND DUP2 MSTORE PUSH1 0x20 ADD PUSH1 0x1 DUP3 ADD SLOAD DUP2 MSTORE PUSH1 0x20 ADD PUSH1 0x2 DUP3 ADD SLOAD DUP2 MSTORE PUSH1 0x20 ADD PUSH1 0x3 DUP3 ADD SLOAD DUP2 MSTORE POP POP SWAP1 POP SWAP1 JUMP JUMPDEST PUSH0 DUP1 PUSH1 0xB PUSH0 DUP5 PUSH20 0xFFFFFFFFFFFFFFFFFFFFFFFFFFFFFFFFFFFFFFFF AND PUSH20 0xFFFFFFFFFFFFFFFFFFFFFFFFFFFFFFFFFFFFFFFF AND DUP2 MSTORE PUSH1 0x20 ADD SWAP1 DUP2 MSTORE PUSH1 0x20 ADD PUSH0 KECCAK256 SWAP1 POP DUP1 PUSH1 0x9 ADD SLOAD SWAP2 POP POP SWAP2 SWAP1 POP JUMP JUMPDEST PUSH1 0x60 PUSH1 0x5 DUP1 SLOAD DUP1 PUSH1 0x20 MUL PUSH1 0x20 ADD PUSH1 0x40 MLOAD SWAP1 DUP2 ADD PUSH1 0x40 MSTORE DUP1 SWAP3 SWAP2 SWAP1 DUP2 DUP2 MSTORE PUSH1 0x20 ADD DUP3 DUP1 SLOAD DUP1 ISZERO PUSH2 0x24DF JUMPI PUSH1 0x20 MUL DUP3 ADD SWAP2 SWAP1 PUSH0 MSTORE PUSH1 0x20 PUSH0 KECCAK256 SWAP1 JUMPDEST DUP2 PUSH0 SWAP1 SLOAD SWAP1 PUSH2 0x100 EXP SWAP1 DIV PUSH20 0xFFFFFFFFFFFFFFFFFFFFFFFFFFFFFFFFFFFFFFFF AND PUSH20 0xFFFFFFFFFFFFFFFFFFFFFFFFFFFFFFFFFFFFFFFF AND DUP2 MSTORE PUSH1 0x20 ADD SWAP1 PUSH1 0x1 ADD SWAP1 DUP1 DUP4 GT PUSH2 0x2496 JUMPI JUMPDEST POP POP POP POP POP SWAP1 POP SWAP1 JUMP JUMPDEST PUSH2 0x24F1 PUSH2 0x43F8 JUMP JUMPDEST PUSH1 0x10 PUSH0 CALLER PUSH20 0xFFFFFFFFFFFFFFFFFFFFFFFFFFFFFFFFFFFFFFFF AND PUSH20 0xFFFFFFFFFFFFFFFFFFFFFFFFFFFFFFFFFFFFFFFF AND DUP2 MSTORE PUSH1 0x20 ADD SWAP1 DUP2 MSTORE PUSH1 0x20 ADD PUSH0 KECCAK256 PUSH0 SWAP1 SLOAD SWAP1 PUSH2 0x100 EXP SWAP1 DIV PUSH1 0xFF AND PUSH2 0x2543 JUMPI PUSH0 DUP1 REVERT JUMPDEST PUSH1 0xA PUSH0 CALLER PUSH20 0xFFFFFFFFFFFFFFFFFFFFFFFFFFFFFFFFFFFFFFFF AND PUSH20 0xFFFFFFFFFFFFFFFFFFFFFFFFFFFFFFFFFFFFFFFF AND DUP2 MSTORE PUSH1 0x20 ADD SWAP1 DUP2 MSTORE PUSH1 0x20 ADD PUSH0 KECCAK256 PUSH1 0x40 MLOAD DUP1 PUSH1 0x80 ADD PUSH1 0x40 MSTORE SWAP1 DUP2 PUSH0 DUP3 ADD PUSH0 SWAP1 SLOAD SWAP1 PUSH2 0x100 EXP SWAP1 DIV PUSH20 0xFFFFFFFFFFFFFFFFFFFFFFFFFFFFFFFFFFFFFFFF AND PUSH20 0xFFFFFFFFFFFFFFFFFFFFFFFFFFFFFFFFFFFFFFFF AND PUSH20 0xFFFFFFFFFFFFFFFFFFFFFFFFFFFFFFFFFFFFFFFF AND DUP2 MSTORE PUSH1 0x20 ADD PUSH1 0x1 DUP3 ADD SLOAD DUP2 MSTORE PUSH1 0x20 ADD PUSH1 0x2 DUP3 ADD SLOAD DUP2 MSTORE PUSH1 0x20 ADD PUSH1 0x3 DUP3 ADD SLOAD DUP2 MSTORE POP POP SWAP1 POP SWAP1 JUMP JUMPDEST PUSH1 0x15 SLOAD DUP2 JUMP JUMPDEST PUSH0 PUSH1 0x15 SLOAD SWAP1 POP SWAP1 JUMP JUMPDEST PUSH1 0x2 DUP2 DUP2 SLOAD DUP2 LT PUSH2 0x2620 JUMPI PUSH0 DUP1 REVERT JUMPDEST SWAP1 PUSH0 MSTORE PUSH1 0x20 PUSH0 KECCAK256 ADD PUSH0 SWAP2 POP SLOAD SWAP1 PUSH2 0x100 EXP SWAP1 DIV PUSH20 0xFFFFFFFFFFFFFFFFFFFFFFFFFFFFFFFFFFFFFFFF AND DUP2 JUMP JUMPDEST PUSH1 0x10 PUSH0 CALLER PUSH20 0xFFFFFFFFFFFFFFFFFFFFFFFFFFFFFFFFFFFFFFFF AND PUSH20 0xFFFFFFFFFFFFFFFFFFFFFFFFFFFFFFFFFFFFFFFF AND DUP2 MSTORE PUSH1 0x20 ADD SWAP1 DUP2 MSTORE PUSH1 0x20 ADD PUSH0 KECCAK256 PUSH0 SWAP1 SLOAD SWAP1 PUSH2 0x100 EXP SWAP1 DIV PUSH1 0xFF AND PUSH2 0x269E JUMPI PUSH0 DUP1 REVERT JUMPDEST PUSH0 PUSH1 0x8 PUSH0 CALLER PUSH20 0xFFFFFFFFFFFFFFFFFFFFFFFFFFFFFFFFFFFFFFFF AND PUSH20 0xFFFFFFFFFFFFFFFFFFFFFFFFFFFFFFFFFFFFFFFF AND DUP2 MSTORE PUSH1 0x20 ADD SWAP1 DUP2 MSTORE PUSH1 0x20 ADD PUSH0 KECCAK256 SWAP1 POP DUP12 DUP2 PUSH0 ADD SWAP1 DUP2 PUSH2 0x26EE SWAP2 SWAP1 PUSH2 0x56BE JUMP JUMPDEST POP DUP11 DUP2 PUSH1 0x1 ADD SWAP1 DUP2 PUSH2 0x2700 SWAP2 SWAP1 PUSH2 0x56BE JUMP JUMPDEST POP DUP10 DUP2 PUSH1 0x2 ADD SWAP1 DUP2 PUSH2 0x2712 SWAP2 SWAP1 PUSH2 0x56BE JUMP JUMPDEST POP DUP9 DUP2 PUSH1 0x3 ADD SWAP1 DUP2 PUSH2 0x2724 SWAP2 SWAP1 PUSH2 0x56BE JUMP JUMPDEST POP DUP8 DUP2 PUSH1 0x6 ADD SWAP1 DUP2 PUSH2 0x2736 SWAP2 SWAP1 PUSH2 0x56BE JUMP JUMPDEST POP DUP7 DUP2 PUSH1 0x4 ADD SWAP1 DUP2 PUSH2 0x2748 SWAP2 SWAP1 PUSH2 0x56BE JUMP JUMPDEST POP DUP6 DUP2 PUSH1 0x5 ADD SWAP1 DUP2 PUSH2 0x275A SWAP2 SWAP1 PUSH2 0x56BE JUMP JUMPDEST POP DUP5 DUP2 PUSH1 0x7 ADD SWAP1 DUP2 PUSH2 0x276C SWAP2 SWAP1 PUSH2 0x56BE JUMP JUMPDEST POP DUP4 DUP2 PUSH1 0x8 ADD SWAP1 DUP2 PUSH2 0x277E SWAP2 SWAP1 PUSH2 0x56BE JUMP JUMPDEST POP DUP3 DUP2 PUSH1 0x9 ADD SWAP1 DUP2 PUSH2 0x2790 SWAP2 SWAP1 PUSH2 0x56BE JUMP JUMPDEST POP DUP2 DUP2 PUSH1 0xA ADD SWAP1 DUP2 PUSH2 0x27A2 SWAP2 SWAP1 PUSH2 0x56BE JUMP JUMPDEST POP POP POP POP POP POP POP POP POP POP POP POP POP JUMP JUMPDEST PUSH0 DUP1 PUSH1 0xA PUSH0 CALLER PUSH20 0xFFFFFFFFFFFFFFFFFFFFFFFFFFFFFFFFFFFFFFFF AND PUSH20 0xFFFFFFFFFFFFFFFFFFFFFFFFFFFFFFFFFFFFFFFF AND DUP2 MSTORE PUSH1 0x20 ADD SWAP1 DUP2 MSTORE PUSH1 0x20 ADD PUSH0 KECCAK256 SWAP1 POP DUP1 PUSH1 0x1 ADD SLOAD SWAP2 POP POP SWAP1 JUMP JUMPDEST PUSH0 DUP1 SLOAD SWAP1 PUSH2 0x100 EXP SWAP1 DIV PUSH20 0xFFFFFFFFFFFFFFFFFFFFFFFFFFFFFFFFFFFFFFFF AND DUP2 JUMP JUMPDEST PUSH1 0x12 PUSH0 CALLER PUSH20 0xFFFFFFFFFFFFFFFFFFFFFFFFFFFFFFFFFFFFFFFF AND PUSH20 0xFFFFFFFFFFFFFFFFFFFFFFFFFFFFFFFFFFFFFFFF AND DUP2 MSTORE PUSH1 0x20 ADD SWAP1 DUP2 MSTORE PUSH1 0x20 ADD PUSH0 KECCAK256 PUSH0 SWAP1 SLOAD SWAP1 PUSH2 0x100 EXP SWAP1 DIV PUSH1 0xFF AND ISZERO PUSH2 0x2873 JUMPI PUSH0 DUP1 REVERT JUMPDEST PUSH0 PUSH1 0xE PUSH0 CALLER PUSH20 0xFFFFFFFFFFFFFFFFFFFFFFFFFFFFFFFFFFFFFFFF AND PUSH20 0xFFFFFFFFFFFFFFFFFFFFFFFFFFFFFFFFFFFFFFFF AND DUP2 MSTORE PUSH1 0x20 ADD SWAP1 DUP2 MSTORE PUSH1 0x20 ADD PUSH0 KECCAK256 SWAP1 POP CALLER DUP2 PUSH0 ADD PUSH0 PUSH2 0x100 EXP DUP2 SLOAD DUP2 PUSH20 0xFFFFFFFFFFFFFFFFFFFFFFFFFFFFFFFFFFFFFFFF MUL NOT AND SWAP1 DUP4 PUSH20 0xFFFFFFFFFFFFFFFFFFFFFFFFFFFFFFFFFFFFFFFF AND MUL OR SWAP1 SSTORE POP TIMESTAMP DUP2 PUSH1 0x1 ADD DUP2 SWAP1 SSTORE POP DUP3 DUP2 PUSH1 0x3 ADD DUP2 SWAP1 SSTORE POP DUP2 DUP2 PUSH1 0x2 ADD DUP2 SWAP1 SSTORE POP POP POP POP JUMP JUMPDEST PUSH1 0x11 PUSH0 CALLER PUSH20 0xFFFFFFFFFFFFFFFFFFFFFFFFFFFFFFFFFFFFFFFF AND PUSH20 0xFFFFFFFFFFFFFFFFFFFFFFFFFFFFFFFFFFFFFFFF AND DUP2 MSTORE PUSH1 0x20 ADD SWAP1 DUP2 MSTORE PUSH1 0x20 ADD PUSH0 KECCAK256 PUSH0 SWAP1 SLOAD SWAP1 PUSH2 0x100 EXP SWAP1 DIV PUSH1 0xFF AND ISZERO PUSH2 0x2967 JUMPI PUSH0 DUP1 REVERT JUMPDEST PUSH0 DUP3 MLOAD GT PUSH2 0x29AA JUMPI PUSH1 0x40 MLOAD PUSH32 0x8C379A000000000000000000000000000000000000000000000000000000000 DUP2 MSTORE PUSH1 0x4 ADD PUSH2 0x29A1 SWAP1 PUSH2 0x585B JUMP JUMPDEST PUSH1 0x40 MLOAD DUP1 SWAP2 SUB SWAP1 REVERT JUMPDEST PUSH0 PUSH1 0xB PUSH0 CALLER PUSH20 0xFFFFFFFFFFFFFFFFFFFFFFFFFFFFFFFFFFFFFFFF AND PUSH20 0xFFFFFFFFFFFFFFFFFFFFFFFFFFFFFFFFFFFFFFFF AND DUP2 MSTORE PUSH1 0x20 ADD SWAP1 DUP2 MSTORE PUSH1 0x20 ADD PUSH0 KECCAK256 SWAP1 POP DUP9 DUP2 PUSH0 ADD SWAP1 DUP2 PUSH2 0x29FA SWAP2 SWAP1 PUSH2 0x56BE JUMP JUMPDEST POP DUP8 DUP2 PUSH1 0x1 ADD SWAP1 DUP2 PUSH2 0x2A0C SWAP2 SWAP1 PUSH2 0x56BE JUMP JUMPDEST POP DUP7 DUP2 PUSH1 0x2 ADD SWAP1 DUP2 PUSH2 0x2A1E SWAP2 SWAP1 PUSH2 0x56BE JUMP JUMPDEST POP DUP6 DUP2 PUSH1 0x3 ADD SWAP1 DUP2 PUSH2 0x2A30 SWAP2 SWAP1 PUSH2 0x56BE JUMP JUMPDEST POP DUP5 DUP2 PUSH1 0x4 ADD SWAP1 DUP2 PUSH2 0x2A42 SWAP2 SWAP1 PUSH2 0x56BE JUMP JUMPDEST POP DUP4 DUP2 PUSH1 0x5 ADD SWAP1 DUP2 PUSH2 0x2A54 SWAP2 SWAP1 PUSH2 0x56BE JUMP JUMPDEST POP DUP3 DUP2 PUSH1 0x6 ADD SWAP1 DUP2 PUSH2 0x2A66 SWAP2 SWAP1 PUSH2 0x56BE JUMP JUMPDEST POP DUP2 DUP2 PUSH1 0x8 ADD PUSH0 PUSH2 0x100 EXP DUP2 SLOAD DUP2 PUSH1 0xFF MUL NOT AND SWAP1 DUP4 ISZERO ISZERO MUL OR SWAP1 SSTORE POP PUSH1 0x3 CALLER SWAP1 DUP1 PUSH1 0x1 DUP2 SLOAD ADD DUP1 DUP3 SSTORE DUP1 SWAP2 POP POP PUSH1 0x1 SWAP1 SUB SWAP1 PUSH0 MSTORE PUSH1 0x20 PUSH0 KECCAK256 ADD PUSH0 SWAP1 SWAP2 SWAP1 SWAP2 SWAP1 SWAP2 PUSH2 0x100 EXP DUP2 SLOAD DUP2 PUSH20 0xFFFFFFFFFFFFFFFFFFFFFFFFFFFFFFFFFFFFFFFF MUL NOT AND SWAP1 DUP4 PUSH20 0xFFFFFFFFFFFFFFFFFFFFFFFFFFFFFFFFFFFFFFFF AND MUL OR SWAP1 SSTORE POP PUSH1 0x1 PUSH1 0x11 PUSH0 CALLER PUSH20 0xFFFFFFFFFFFFFFFFFFFFFFFFFFFFFFFFFFFFFFFF AND PUSH20 0xFFFFFFFFFFFFFFFFFFFFFFFFFFFFFFFFFFFFFFFF AND DUP2 MSTORE PUSH1 0x20 ADD SWAP1 DUP2 MSTORE PUSH1 0x20 ADD PUSH0 KECCAK256 PUSH0 PUSH2 0x100 EXP DUP2 SLOAD DUP2 PUSH1 0xFF MUL NOT AND SWAP1 DUP4 ISZERO ISZERO MUL OR SWAP1 SSTORE POP PUSH1 0x15 PUSH0 DUP2 SLOAD DUP1 SWAP3 SWAP2 SWAP1 PUSH2 0x2B49 SWAP1 PUSH2 0x57BA JUMP JUMPDEST SWAP2 SWAP1 POP SSTORE POP POP POP POP POP POP POP POP POP POP JUMP JUMPDEST PUSH2 0x2B61 PUSH2 0x446C JUMP JUMPDEST PUSH2 0x2B69 PUSH2 0x44E1 JUMP JUMPDEST PUSH0 PUSH1 0x9 PUSH0 DUP6 PUSH20 0xFFFFFFFFFFFFFFFFFFFFFFFFFFFFFFFFFFFFFFFF AND PUSH20 0xFFFFFFFFFFFFFFFFFFFFFFFFFFFFFFFFFFFFFFFF AND DUP2 MSTORE PUSH1 0x20 ADD SWAP1 DUP2 MSTORE PUSH1 0x20 ADD PUSH0 KECCAK256 SWAP1 POP PUSH1 0x9 PUSH0 DUP6 PUSH20 0xFFFFFFFFFFFFFFFFFFFFFFFFFFFFFFFFFFFFFFFF AND PUSH20 0xFFFFFFFFFFFFFFFFFFFFFFFFFFFFFFFFFFFFFFFF AND DUP2 MSTORE PUSH1 0x20 ADD SWAP1 DUP2 MSTORE PUSH1 0x20 ADD PUSH0 KECCAK256 PUSH1 0xB PUSH0 DUP4 PUSH0 ADD PUSH0 SWAP1 SLOAD SWAP1 PUSH2 0x100 EXP SWAP1 DIV PUSH20 0xFFFFFFFFFFFFFFFFFFFFFFFFFFFFFFFFFFFFFFFF AND PUSH20 0xFFFFFFFFFFFFFFFFFFFFFFFFFFFFFFFFFFFFFFFF AND PUSH20 0xFFFFFFFFFFFFFFFFFFFFFFFFFFFFFFFFFFFFFFFF AND DUP2 MSTORE PUSH1 0x20 ADD SWAP1 DUP2 MSTORE PUSH1 0x20 ADD PUSH0 KECCAK256 DUP2 PUSH1 0x40 MLOAD DUP1 PUSH2 0x120 ADD PUSH1 0x40 MSTORE SWAP1 DUP2 PUSH0 DUP3 ADD PUSH0 SWAP1 SLOAD SWAP1 PUSH2 0x100 EXP SWAP1 DIV PUSH20 0xFFFFFFFFFFFFFFFFFFFFFFFFFFFFFFFFFFFFFFFF AND PUSH20 0xFFFFFFFFFFFFFFFFFFFFFFFFFFFFFFFFFFFFFFFF AND PUSH20 0xFFFFFFFFFFFFFFFFFFFFFFFFFFFFFFFFFFFFFFFF AND DUP2 MSTORE PUSH1 0x20 ADD PUSH1 0x1 DUP3 ADD PUSH0 SWAP1 SLOAD SWAP1 PUSH2 0x100 EXP SWAP1 DIV PUSH20 0xFFFFFFFFFFFFFFFFFFFFFFFFFFFFFFFFFFFFFFFF AND PUSH20 0xFFFFFFFFFFFFFFFFFFFFFFFFFFFFFFFFFFFFFFFF AND PUSH20 0xFFFFFFFFFFFFFFFFFFFFFFFFFFFFFFFFFFFFFFFF AND DUP2 MSTORE PUSH1 0x20 ADD PUSH1 0x2 DUP3 ADD DUP1 SLOAD PUSH2 0x2D0B SWAP1 PUSH2 0x54F1 JUMP JUMPDEST DUP1 PUSH1 0x1F ADD PUSH1 0x20 DUP1 SWAP2 DIV MUL PUSH1 0x20 ADD PUSH1 0x40 MLOAD SWAP1 DUP2 ADD PUSH1 0x40 MSTORE DUP1 SWAP3 SWAP2 SWAP1 DUP2 DUP2 MSTORE PUSH1 0x20 ADD DUP3 DUP1 SLOAD PUSH2 0x2D37 SWAP1 PUSH2 0x54F1 JUMP JUMPDEST DUP1 ISZERO PUSH2 0x2D82 JUMPI DUP1 PUSH1 0x1F LT PUSH2 0x2D59 JUMPI PUSH2 0x100 DUP1 DUP4 SLOAD DIV MUL DUP4 MSTORE SWAP2 PUSH1 0x20 ADD SWAP2 PUSH2 0x2D82 JUMP JUMPDEST DUP3 ADD SWAP2 SWAP1 PUSH0 MSTORE PUSH1 0x20 PUSH0 KECCAK256 SWAP1 JUMPDEST DUP2 SLOAD DUP2 MSTORE SWAP1 PUSH1 0x1 ADD SWAP1 PUSH1 0x20 ADD DUP1 DUP4 GT PUSH2 0x2D65 JUMPI DUP3 SWAP1 SUB PUSH1 0x1F AND DUP3 ADD SWAP2 JUMPDEST POP POP POP POP POP DUP2 MSTORE PUSH1 0x20 ADD PUSH1 0x3 DUP3 ADD DUP1 SLOAD PUSH2 0x2D9B SWAP1 PUSH2 0x54F1 JUMP JUMPDEST DUP1 PUSH1 0x1F ADD PUSH1 0x20 DUP1 SWAP2 DIV MUL PUSH1 0x20 ADD PUSH1 0x40 MLOAD SWAP1 DUP2 ADD PUSH1 0x40 MSTORE DUP1 SWAP3 SWAP2 SWAP1 DUP2 DUP2 MSTORE PUSH1 0x20 ADD DUP3 DUP1 SLOAD PUSH2 0x2DC7 SWAP1 PUSH2 0x54F1 JUMP JUMPDEST DUP1 ISZERO PUSH2 0x2E12 JUMPI DUP1 PUSH1 0x1F LT PUSH2 0x2DE9 JUMPI PUSH2 0x100 DUP1 DUP4 SLOAD DIV MUL DUP4 MSTORE SWAP2 PUSH1 0x20 ADD SWAP2 PUSH2 0x2E12 JUMP JUMPDEST DUP3 ADD SWAP2 SWAP1 PUSH0 MSTORE PUSH1 0x20 PUSH0 KECCAK256 SWAP1 JUMPDEST DUP2 SLOAD DUP2 MSTORE SWAP1 PUSH1 0x1 ADD SWAP1 PUSH1 0x20 ADD DUP1 DUP4 GT PUSH2 0x2DF5 JUMPI DUP3 SWAP1 SUB PUSH1 0x1F AND DUP3 ADD SWAP2 JUMPDEST POP POP POP POP POP DUP2 MSTORE PUSH1 0x20 ADD PUSH1 0x4 DUP3 ADD DUP1 SLOAD PUSH2 0x2E2B SWAP1 PUSH2 0x54F1 JUMP JUMPDEST DUP1 PUSH1 0x1F ADD PUSH1 0x20 DUP1 SWAP2 DIV MUL PUSH1 0x20 ADD PUSH1 0x40 MLOAD SWAP1 DUP2 ADD PUSH1 0x40 MSTORE DUP1 SWAP3 SWAP2 SWAP1 DUP2 DUP2 MSTORE PUSH1 0x20 ADD DUP3 DUP1 SLOAD PUSH2 0x2E57 SWAP1 PUSH2 0x54F1 JUMP JUMPDEST DUP1 ISZERO PUSH2 0x2EA2 JUMPI DUP1 PUSH1 0x1F LT PUSH2 0x2E79 JUMPI PUSH2 0x100 DUP1 DUP4 SLOAD DIV MUL DUP4 MSTORE SWAP2 PUSH1 0x20 ADD SWAP2 PUSH2 0x2EA2 JUMP JUMPDEST DUP3 ADD SWAP2 SWAP1 PUSH0 MSTORE PUSH1 0x20 PUSH0 KECCAK256 SWAP1 JUMPDEST DUP2 SLOAD DUP2 MSTORE SWAP1 PUSH1 0x1 ADD SWAP1 PUSH1 0x20 ADD DUP1 DUP4 GT PUSH2 0x2E85 JUMPI DUP3 SWAP1 SUB PUSH1 0x1F AND DUP3 ADD SWAP2 JUMPDEST POP POP POP POP POP DUP2 MSTORE PUSH1 0x20 ADD PUSH1 0x5 DUP3 ADD DUP1 SLOAD PUSH2 0x2EBB SWAP1 PUSH2 0x54F1 JUMP JUMPDEST DUP1 PUSH1 0x1F ADD PUSH1 0x20 DUP1 SWAP2 DIV MUL PUSH1 0x20 ADD PUSH1 0x40 MLOAD SWAP1 DUP2 ADD PUSH1 0x40 MSTORE DUP1 SWAP3 SWAP2 SWAP1 DUP2 DUP2 MSTORE PUSH1 0x20 ADD DUP3 DUP1 SLOAD PUSH2 0x2EE7 SWAP1 PUSH2 0x54F1 JUMP JUMPDEST DUP1 ISZERO PUSH2 0x2F32 JUMPI DUP1 PUSH1 0x1F LT PUSH2 0x2F09 JUMPI PUSH2 0x100 DUP1 DUP4 SLOAD DIV MUL DUP4 MSTORE SWAP2 PUSH1 0x20 ADD SWAP2 PUSH2 0x2F32 JUMP JUMPDEST DUP3 ADD SWAP2 SWAP1 PUSH0 MSTORE PUSH1 0x20 PUSH0 KECCAK256 SWAP1 JUMPDEST DUP2 SLOAD DUP2 MSTORE SWAP1 PUSH1 0x1 ADD SWAP1 PUSH1 0x20 ADD DUP1 DUP4 GT PUSH2 0x2F15 JUMPI DUP3 SWAP1 SUB PUSH1 0x1F AND DUP3 ADD SWAP2 JUMPDEST POP POP POP POP POP DUP2 MSTORE PUSH1 0x20 ADD PUSH1 0x6 DUP3 ADD DUP1 SLOAD PUSH2 0x2F4B SWAP1 PUSH2 0x54F1 JUMP JUMPDEST DUP1 PUSH1 0x1F ADD PUSH1 0x20 DUP1 SWAP2 DIV MUL PUSH1 0x20 ADD PUSH1 0x40 MLOAD SWAP1 DUP2 ADD PUSH1 0x40 MSTORE DUP1 SWAP3 SWAP2 SWAP1 DUP2 DUP2 MSTORE PUSH1 0x20 ADD DUP3 DUP1 SLOAD PUSH2 0x2F77 SWAP1 PUSH2 0x54F1 JUMP JUMPDEST DUP1 ISZERO PUSH2 0x2FC2 JUMPI DUP1 PUSH1 0x1F LT PUSH2 0x2F99 JUMPI PUSH2 0x100 DUP1 DUP4 SLOAD DIV MUL DUP4 MSTORE SWAP2 PUSH1 0x20 ADD SWAP2 PUSH2 0x2FC2 JUMP JUMPDEST DUP3 ADD SWAP2 SWAP1 PUSH0 MSTORE PUSH1 0x20 PUSH0 KECCAK256 SWAP1 JUMPDEST DUP2 SLOAD DUP2 MSTORE SWAP1 PUSH1 0x1 ADD SWAP1 PUSH1 0x20 ADD DUP1 DUP4 GT PUSH2 0x2FA5 JUMPI DUP3 SWAP1 SUB PUSH1 0x1F AND DUP3 ADD SWAP2 JUMPDEST POP POP POP POP POP DUP2 MSTORE PUSH1 0x20 ADD PUSH1 0x7 DUP3 ADD DUP1 SLOAD PUSH2 0x2FDB SWAP1 PUSH2 0x54F1 JUMP JUMPDEST DUP1 PUSH1 0x1F ADD PUSH1 0x20 DUP1 SWAP2 DIV MUL PUSH1 0x20 ADD PUSH1 0x40 MLOAD SWAP1 DUP2 ADD PUSH1 0x40 MSTORE DUP1 SWAP3 SWAP2 SWAP1 DUP2 DUP2 MSTORE PUSH1 0x20 ADD DUP3 DUP1 SLOAD PUSH2 0x3007 SWAP1 PUSH2 0x54F1 JUMP JUMPDEST DUP1 ISZERO PUSH2 0x3052 JUMPI DUP1 PUSH1 0x1F LT PUSH2 0x3029 JUMPI PUSH2 0x100 DUP1 DUP4 SLOAD DIV MUL DUP4 MSTORE SWAP2 PUSH1 0x20 ADD SWAP2 PUSH2 0x3052 JUMP JUMPDEST DUP3 ADD SWAP2 SWAP1 PUSH0 MSTORE PUSH1 0x20 PUSH0 KECCAK256 SWAP1 JUMPDEST DUP2 SLOAD DUP2 MSTORE SWAP1 PUSH1 0x1 ADD SWAP1 PUSH1 0x20 ADD DUP1 DUP4 GT PUSH2 0x3035 JUMPI DUP3 SWAP1 SUB PUSH1 0x1F AND DUP3 ADD SWAP2 JUMPDEST POP POP POP POP POP DUP2 MSTORE PUSH1 0x20 ADD PUSH1 0x8 DUP3 ADD SLOAD DUP2 MSTORE POP POP SWAP2 POP DUP1 PUSH1 0x40 MLOAD DUP1 PUSH2 0x140 ADD PUSH1 0x40 MSTORE SWAP1 DUP2 PUSH0 DUP3 ADD DUP1 SLOAD PUSH2 0x3083 SWAP1 PUSH2 0x54F1 JUMP JUMPDEST DUP1 PUSH1 0x1F ADD PUSH1 0x20 DUP1 SWAP2 DIV MUL PUSH1 0x20 ADD PUSH1 0x40 MLOAD SWAP1 DUP2 ADD PUSH1 0x40 MSTORE DUP1 SWAP3 SWAP2 SWAP1 DUP2 DUP2 MSTORE PUSH1 0x20 ADD DUP3 DUP1 SLOAD PUSH2 0x30AF SWAP1 PUSH2 0x54F1 JUMP JUMPDEST DUP1 ISZERO PUSH2 0x30FA JUMPI DUP1 PUSH1 0x1F LT PUSH2 0x30D1 JUMPI PUSH2 0x100 DUP1 DUP4 SLOAD DIV MUL DUP4 MSTORE SWAP2 PUSH1 0x20 ADD SWAP2 PUSH2 0x30FA JUMP JUMPDEST DUP3 ADD SWAP2 SWAP1 PUSH0 MSTORE PUSH1 0x20 PUSH0 KECCAK256 SWAP1 JUMPDEST DUP2 SLOAD DUP2 MSTORE SWAP1 PUSH1 0x1 ADD SWAP1 PUSH1 0x20 ADD DUP1 DUP4 GT PUSH2 0x30DD JUMPI DUP3 SWAP1 SUB PUSH1 0x1F AND DUP3 ADD SWAP2 JUMPDEST POP POP POP POP POP DUP2 MSTORE PUSH1 0x20 ADD PUSH1 0x1 DUP3 ADD DUP1 SLOAD PUSH2 0x3113 SWAP1 PUSH2 0x54F1 JUMP JUMPDEST DUP1 PUSH1 0x1F ADD PUSH1 0x20 DUP1 SWAP2 DIV MUL PUSH1 0x20 ADD PUSH1 0x40 MLOAD SWAP1 DUP2 ADD PUSH1 0x40 MSTORE DUP1 SWAP3 SWAP2 SWAP1 DUP2 DUP2 MSTORE PUSH1 0x20 ADD DUP3 DUP1 SLOAD PUSH2 0x313F SWAP1 PUSH2 0x54F1 JUMP JUMPDEST DUP1 ISZERO PUSH2 0x318A JUMPI DUP1 PUSH1 0x1F LT PUSH2 0x3161 JUMPI PUSH2 0x100 DUP1 DUP4 SLOAD DIV MUL DUP4 MSTORE SWAP2 PUSH1 0x20 ADD SWAP2 PUSH2 0x318A JUMP JUMPDEST DUP3 ADD SWAP2 SWAP1 PUSH0 MSTORE PUSH1 0x20 PUSH0 KECCAK256 SWAP1 JUMPDEST DUP2 SLOAD DUP2 MSTORE SWAP1 PUSH1 0x1 ADD SWAP1 PUSH1 0x20 ADD DUP1 DUP4 GT PUSH2 0x316D JUMPI DUP3 SWAP1 SUB PUSH1 0x1F AND DUP3 ADD SWAP2 JUMPDEST POP POP POP POP POP DUP2 MSTORE PUSH1 0x20 ADD PUSH1 0x2 DUP3 ADD DUP1 SLOAD PUSH2 0x31A3 SWAP1 PUSH2 0x54F1 JUMP JUMPDEST DUP1 PUSH1 0x1F ADD PUSH1 0x20 DUP1 SWAP2 DIV MUL PUSH1 0x20 ADD PUSH1 0x40 MLOAD SWAP1 DUP2 ADD PUSH1 0x40 MSTORE DUP1 SWAP3 SWAP2 SWAP1 DUP2 DUP2 MSTORE PUSH1 0x20 ADD DUP3 DUP1 SLOAD PUSH2 0x31CF SWAP1 PUSH2 0x54F1 JUMP JUMPDEST DUP1 ISZERO PUSH2 0x321A JUMPI DUP1 PUSH1 0x1F LT PUSH2 0x31F1 JUMPI PUSH2 0x100 DUP1 DUP4 SLOAD DIV MUL DUP4 MSTORE SWAP2 PUSH1 0x20 ADD SWAP2 PUSH2 0x321A JUMP JUMPDEST DUP3 ADD SWAP2 SWAP1 PUSH0 MSTORE PUSH1 0x20 PUSH0 KECCAK256 SWAP1 JUMPDEST DUP2 SLOAD DUP2 MSTORE SWAP1 PUSH1 0x1 ADD SWAP1 PUSH1 0x20 ADD DUP1 DUP4 GT PUSH2 0x31FD JUMPI DUP3 SWAP1 SUB PUSH1 0x1F AND DUP3 ADD SWAP2 JUMPDEST POP POP POP POP POP DUP2 MSTORE PUSH1 0x20 ADD PUSH1 0x3 DUP3 ADD DUP1 SLOAD PUSH2 0x3233 SWAP1 PUSH2 0x54F1 JUMP JUMPDEST DUP1 PUSH1 0x1F ADD PUSH1 0x20 DUP1 SWAP2 DIV MUL PUSH1 0x20 ADD PUSH1 0x40 MLOAD SWAP1 DUP2 ADD PUSH1 0x40 MSTORE DUP1 SWAP3 SWAP2 SWAP1 DUP2 DUP2 MSTORE PUSH1 0x20 ADD DUP3 DUP1 SLOAD PUSH2 0x325F SWAP1 PUSH2 0x54F1 JUMP JUMPDEST DUP1 ISZERO PUSH2 0x32AA JUMPI DUP1 PUSH1 0x1F LT PUSH2 0x3281 JUMPI PUSH2 0x100 DUP1 DUP4 SLOAD DIV MUL DUP4 MSTORE SWAP2 PUSH1 0x20 ADD SWAP2 PUSH2 0x32AA JUMP JUMPDEST DUP3 ADD SWAP2 SWAP1 PUSH0 MSTORE PUSH1 0x20 PUSH0 KECCAK256 SWAP1 JUMPDEST DUP2 SLOAD DUP2 MSTORE SWAP1 PUSH1 0x1 ADD SWAP1 PUSH1 0x20 ADD DUP1 DUP4 GT PUSH2 0x328D JUMPI DUP3 SWAP1 SUB PUSH1 0x1F AND DUP3 ADD SWAP2 JUMPDEST POP POP POP POP POP DUP2 MSTORE PUSH1 0x20 ADD PUSH1 0x4 DUP3 ADD DUP1 SLOAD PUSH2 0x32C3 SWAP1 PUSH2 0x54F1 JUMP JUMPDEST DUP1 PUSH1 0x1F ADD PUSH1 0x20 DUP1 SWAP2 DIV MUL PUSH1 0x20 ADD PUSH1 0x40 MLOAD SWAP1 DUP2 ADD PUSH1 0x40 MSTORE DUP1 SWAP3 SWAP2 SWAP1 DUP2 DUP2 MSTORE PUSH1 0x20 ADD DUP3 DUP1 SLOAD PUSH2 0x32EF SWAP1 PUSH2 0x54F1 JUMP JUMPDEST DUP1 ISZERO PUSH2 0x333A JUMPI DUP1 PUSH1 0x1F LT PUSH2 0x3311 JUMPI PUSH2 0x100 DUP1 DUP4 SLOAD DIV MUL DUP4 MSTORE SWAP2 PUSH1 0x20 ADD SWAP2 PUSH2 0x333A JUMP JUMPDEST DUP3 ADD SWAP2 SWAP1 PUSH0 MSTORE PUSH1 0x20 PUSH0 KECCAK256 SWAP1 JUMPDEST DUP2 SLOAD DUP2 MSTORE SWAP1 PUSH1 0x1 ADD SWAP1 PUSH1 0x20 ADD DUP1 DUP4 GT PUSH2 0x331D JUMPI DUP3 SWAP1 SUB PUSH1 0x1F AND DUP3 ADD SWAP2 JUMPDEST POP POP POP POP POP DUP2 MSTORE PUSH1 0x20 ADD PUSH1 0x5 DUP3 ADD DUP1 SLOAD PUSH2 0x3353 SWAP1 PUSH2 0x54F1 JUMP JUMPDEST DUP1 PUSH1 0x1F ADD PUSH1 0x20 DUP1 SWAP2 DIV MUL PUSH1 0x20 ADD PUSH1 0x40 MLOAD SWAP1 DUP2 ADD PUSH1 0x40 MSTORE DUP1 SWAP3 SWAP2 SWAP1 DUP2 DUP2 MSTORE PUSH1 0x20 ADD DUP3 DUP1 SLOAD PUSH2 0x337F SWAP1 PUSH2 0x54F1 JUMP JUMPDEST DUP1 ISZERO PUSH2 0x33CA JUMPI DUP1 PUSH1 0x1F LT PUSH2 0x33A1 JUMPI PUSH2 0x100 DUP1 DUP4 SLOAD DIV MUL DUP4 MSTORE SWAP2 PUSH1 0x20 ADD SWAP2 PUSH2 0x33CA JUMP JUMPDEST DUP3 ADD SWAP2 SWAP1 PUSH0 MSTORE PUSH1 0x20 PUSH0 KECCAK256 SWAP1 JUMPDEST DUP2 SLOAD DUP2 MSTORE SWAP1 PUSH1 0x1 ADD SWAP1 PUSH1 0x20 ADD DUP1 DUP4 GT PUSH2 0x33AD JUMPI DUP3 SWAP1 SUB PUSH1 0x1F AND DUP3 ADD SWAP2 JUMPDEST POP POP POP POP POP DUP2 MSTORE PUSH1 0x20 ADD PUSH1 0x6 DUP3 ADD DUP1 SLOAD PUSH2 0x33E3 SWAP1 PUSH2 0x54F1 JUMP JUMPDEST DUP1 PUSH1 0x1F ADD PUSH1 0x20 DUP1 SWAP2 DIV MUL PUSH1 0x20 ADD PUSH1 0x40 MLOAD SWAP1 DUP2 ADD PUSH1 0x40 MSTORE DUP1 SWAP3 SWAP2 SWAP1 DUP2 DUP2 MSTORE PUSH1 0x20 ADD DUP3 DUP1 SLOAD PUSH2 0x340F SWAP1 PUSH2 0x54F1 JUMP JUMPDEST DUP1 ISZERO PUSH2 0x345A JUMPI DUP1 PUSH1 0x1F LT PUSH2 0x3431 JUMPI PUSH2 0x100 DUP1 DUP4 SLOAD DIV MUL DUP4 MSTORE SWAP2 PUSH1 0x20 ADD SWAP2 PUSH2 0x345A JUMP JUMPDEST DUP3 ADD SWAP2 SWAP1 PUSH0 MSTORE PUSH1 0x20 PUSH0 KECCAK256 SWAP1 JUMPDEST DUP2 SLOAD DUP2 MSTORE SWAP1 PUSH1 0x1 ADD SWAP1 PUSH1 0x20 ADD DUP1 DUP4 GT PUSH2 0x343D JUMPI DUP3 SWAP1 SUB PUSH1 0x1F AND DUP3 ADD SWAP2 JUMPDEST POP POP POP POP POP DUP2 MSTORE PUSH1 0x20 ADD PUSH1 0x7 DUP3 ADD DUP1 SLOAD PUSH2 0x3473 SWAP1 PUSH2 0x54F1 JUMP JUMPDEST DUP1 PUSH1 0x1F ADD PUSH1 0x20 DUP1 SWAP2 DIV MUL PUSH1 0x20 ADD PUSH1 0x40 MLOAD SWAP1 DUP2 ADD PUSH1 0x40 MSTORE DUP1 SWAP3 SWAP2 SWAP1 DUP2 DUP2 MSTORE PUSH1 0x20 ADD DUP3 DUP1 SLOAD PUSH2 0x349F SWAP1 PUSH2 0x54F1 JUMP JUMPDEST DUP1 ISZERO PUSH2 0x34EA JUMPI DUP1 PUSH1 0x1F LT PUSH2 0x34C1 JUMPI PUSH2 0x100 DUP1 DUP4 SLOAD DIV MUL DUP4 MSTORE SWAP2 PUSH1 0x20 ADD SWAP2 PUSH2 0x34EA JUMP JUMPDEST DUP3 ADD SWAP2 SWAP1 PUSH0 MSTORE PUSH1 0x20 PUSH0 KECCAK256 SWAP1 JUMPDEST DUP2 SLOAD DUP2 MSTORE SWAP1 PUSH1 0x1 ADD SWAP1 PUSH1 0x20 ADD DUP1 DUP4 GT PUSH2 0x34CD JUMPI DUP3 SWAP1 SUB PUSH1 0x1F AND DUP3 ADD SWAP2 JUMPDEST POP POP POP POP POP DUP2 MSTORE PUSH1 0x20 ADD PUSH1 0x8 DUP3 ADD PUSH0 SWAP1 SLOAD SWAP1 PUSH2 0x100 EXP SWAP1 DIV PUSH1 0xFF AND ISZERO ISZERO ISZERO ISZERO DUP2 MSTORE PUSH1 0x20 ADD PUSH1 0x9 DUP3 ADD SLOAD DUP2 MSTORE POP POP SWAP1 POP SWAP3 POP SWAP3 POP POP SWAP2 POP SWAP2 JUMP JUMPDEST PUSH1 0x10 PUSH0 CALLER PUSH20 0xFFFFFFFFFFFFFFFFFFFFFFFFFFFFFFFFFFFFFFFF AND PUSH20 0xFFFFFFFFFFFFFFFFFFFFFFFFFFFFFFFFFFFFFFFF AND DUP2 MSTORE PUSH1 0x20 ADD SWAP1 DUP2 MSTORE PUSH1 0x20 ADD PUSH0 KECCAK256 PUSH0 SWAP1 SLOAD SWAP1 PUSH2 0x100 EXP SWAP1 DIV PUSH1 0xFF AND PUSH2 0x3575 JUMPI PUSH0 DUP1 REVERT JUMPDEST PUSH0 PUSH1 0xA PUSH0 CALLER PUSH20 0xFFFFFFFFFFFFFFFFFFFFFFFFFFFFFFFFFFFFFFFF AND PUSH20 0xFFFFFFFFFFFFFFFFFFFFFFFFFFFFFFFFFFFFFFFF AND DUP2 MSTORE PUSH1 0x20 ADD SWAP1 DUP2 MSTORE PUSH1 0x20 ADD PUSH0 KECCAK256 SWAP1 POP CALLER DUP2 PUSH0 ADD PUSH0 PUSH2 0x100 EXP DUP2 SLOAD DUP2 PUSH20 0xFFFFFFFFFFFFFFFFFFFFFFFFFFFFFFFFFFFFFFFF MUL NOT AND SWAP1 DUP4 PUSH20 0xFFFFFFFFFFFFFFFFFFFFFFFFFFFFFFFFFFFFFFFF AND MUL OR SWAP1 SSTORE POP TIMESTAMP DUP2 PUSH1 0x1 ADD DUP2 SWAP1 SSTORE POP DUP3 DUP2 PUSH1 0x3 ADD DUP2 SWAP1 SSTORE POP DUP2 DUP2 PUSH1 0x2 ADD DUP2 SWAP1 SSTORE POP POP POP POP JUMP JUMPDEST PUSH1 0x60 PUSH1 0x7 DUP1 SLOAD DUP1 PUSH1 0x20 MUL PUSH1 0x20 ADD PUSH1 0x40 MLOAD SWAP1 DUP2 ADD PUSH1 0x40 MSTORE DUP1 SWAP3 SWAP2 SWAP1 DUP2 DUP2 MSTORE PUSH1 0x20 ADD DUP3 DUP1 SLOAD DUP1 ISZERO PUSH2 0x3697 JUMPI PUSH1 0x20 MUL DUP3 ADD SWAP2 SWAP1 PUSH0 MSTORE PUSH1 0x20 PUSH0 KECCAK256 SWAP1 JUMPDEST DUP2 PUSH0 SWAP1 SLOAD SWAP1 PUSH2 0x100 EXP SWAP1 DIV PUSH20 0xFFFFFFFFFFFFFFFFFFFFFFFFFFFFFFFFFFFFFFFF AND PUSH20 0xFFFFFFFFFFFFFFFFFFFFFFFFFFFFFFFFFFFFFFFF AND DUP2 MSTORE PUSH1 0x20 ADD SWAP1 PUSH1 0x1 ADD SWAP1 DUP1 DUP4 GT PUSH2 0x364E JUMPI JUMPDEST POP POP POP POP POP SWAP1 POP SWAP1 JUMP JUMPDEST PUSH1 0x14 SLOAD DUP2 JUMP JUMPDEST PUSH1 0x16 SLOAD DUP2 JUMP JUMPDEST PUSH1 0x60 PUSH1 0x3 DUP1 SLOAD DUP1 PUSH1 0x20 MUL PUSH1 0x20 ADD PUSH1 0x40 MLOAD SWAP1 DUP2 ADD PUSH1 0x40 MSTORE DUP1 SWAP3 SWAP2 SWAP1 DUP2 DUP2 MSTORE PUSH1 0x20 ADD DUP3 DUP1 SLOAD DUP1 ISZERO PUSH2 0x372E JUMPI PUSH1 0x20 MUL DUP3 ADD SWAP2 SWAP1 PUSH0 MSTORE PUSH1 0x20 PUSH0 KECCAK256 SWAP1 JUMPDEST DUP2 PUSH0 SWAP1 SLOAD SWAP1 PUSH2 0x100 EXP SWAP1 DIV PUSH20 0xFFFFFFFFFFFFFFFFFFFFFFFFFFFFFFFFFFFFFFFF AND PUSH20 0xFFFFFFFFFFFFFFFFFFFFFFFFFFFFFFFFFFFFFFFF AND DUP2 MSTORE PUSH1 0x20 ADD SWAP1 PUSH1 0x1 ADD SWAP1 DUP1 DUP4 GT PUSH2 0x36E5 JUMPI JUMPDEST POP POP POP POP POP SWAP1 POP SWAP1 JUMP JUMPDEST PUSH1 0x1 DUP2 DUP2 SLOAD DUP2 LT PUSH2 0x3747 JUMPI PUSH0 DUP1 REVERT JUMPDEST SWAP1 PUSH0 MSTORE PUSH1 0x20 PUSH0 KECCAK256 ADD PUSH0 SWAP2 POP SLOAD SWAP1 PUSH2 0x100 EXP SWAP1 DIV PUSH20 0xFFFFFFFFFFFFFFFFFFFFFFFFFFFFFFFFFFFFFFFF AND DUP2 JUMP JUMPDEST PUSH1 0x18 SLOAD DUP2 JUMP JUMPDEST PUSH0 PUSH1 0x14 SLOAD SWAP1 POP SWAP1 JUMP JUMPDEST PUSH2 0x378A PUSH2 0x44E1 JUMP JUMPDEST PUSH1 0x11 PUSH0 DUP4 PUSH20 0xFFFFFFFFFFFFFFFFFFFFFFFFFFFFFFFFFFFFFFFF AND PUSH20 0xFFFFFFFFFFFFFFFFFFFFFFFFFFFFFFFFFFFFFFFF AND DUP2 MSTORE PUSH1 0x20 ADD SWAP1 DUP2 MSTORE PUSH1 0x20 ADD PUSH0 KECCAK256 PUSH0 SWAP1 SLOAD SWAP1 PUSH2 0x100 EXP SWAP1 DIV PUSH1 0xFF AND PUSH2 0x37DC JUMPI PUSH0 DUP1 REVERT JUMPDEST PUSH1 0xB PUSH0 DUP4 PUSH20 0xFFFFFFFFFFFFFFFFFFFFFFFFFFFFFFFFFFFFFFFF AND PUSH20 0xFFFFFFFFFFFFFFFFFFFFFFFFFFFFFFFFFFFFFFFF AND DUP2 MSTORE PUSH1 0x20 ADD SWAP1 DUP2 MSTORE PUSH1 0x20 ADD PUSH0 KECCAK256 PUSH1 0x40 MLOAD DUP1 PUSH2 0x140 ADD PUSH1 0x40 MSTORE SWAP1 DUP2 PUSH0 DUP3 ADD DUP1 SLOAD PUSH2 0x3834 SWAP1 PUSH2 0x54F1 JUMP JUMPDEST DUP1 PUSH1 0x1F ADD PUSH1 0x20 DUP1 SWAP2 DIV MUL PUSH1 0x20 ADD PUSH1 0x40 MLOAD SWAP1 DUP2 ADD PUSH1 0x40 MSTORE DUP1 SWAP3 SWAP2 SWAP1 DUP2 DUP2 MSTORE PUSH1 0x20 ADD DUP3 DUP1 SLOAD PUSH2 0x3860 SWAP1 PUSH2 0x54F1 JUMP JUMPDEST DUP1 ISZERO PUSH2 0x38AB JUMPI DUP1 PUSH1 0x1F LT PUSH2 0x3882 JUMPI PUSH2 0x100 DUP1 DUP4 SLOAD DIV MUL DUP4 MSTORE SWAP2 PUSH1 0x20 ADD SWAP2 PUSH2 0x38AB JUMP JUMPDEST DUP3 ADD SWAP2 SWAP1 PUSH0 MSTORE PUSH1 0x20 PUSH0 KECCAK256 SWAP1 JUMPDEST DUP2 SLOAD DUP2 MSTORE SWAP1 PUSH1 0x1 ADD SWAP1 PUSH1 0x20 ADD DUP1 DUP4 GT PUSH2 0x388E JUMPI DUP3 SWAP1 SUB PUSH1 0x1F AND DUP3 ADD SWAP2 JUMPDEST POP POP POP POP POP DUP2 MSTORE PUSH1 0x20 ADD PUSH1 0x1 DUP3 ADD DUP1 SLOAD PUSH2 0x38C4 SWAP1 PUSH2 0x54F1 JUMP JUMPDEST DUP1 PUSH1 0x1F ADD PUSH1 0x20 DUP1 SWAP2 DIV MUL PUSH1 0x20 ADD PUSH1 0x40 MLOAD SWAP1 DUP2 ADD PUSH1 0x40 MSTORE DUP1 SWAP3 SWAP2 SWAP1 DUP2 DUP2 MSTORE PUSH1 0x20 ADD DUP3 DUP1 SLOAD PUSH2 0x38F0 SWAP1 PUSH2 0x54F1 JUMP JUMPDEST DUP1 ISZERO PUSH2 0x393B JUMPI DUP1 PUSH1 0x1F LT PUSH2 0x3912 JUMPI PUSH2 0x100 DUP1 DUP4 SLOAD DIV MUL DUP4 MSTORE SWAP2 PUSH1 0x20 ADD SWAP2 PUSH2 0x393B JUMP JUMPDEST DUP3 ADD SWAP2 SWAP1 PUSH0 MSTORE PUSH1 0x20 PUSH0 KECCAK256 SWAP1 JUMPDEST DUP2 SLOAD DUP2 MSTORE SWAP1 PUSH1 0x1 ADD SWAP1 PUSH1 0x20 ADD DUP1 DUP4 GT PUSH2 0x391E JUMPI DUP3 SWAP1 SUB PUSH1 0x1F AND DUP3 ADD SWAP2 JUMPDEST POP POP POP POP POP DUP2 MSTORE PUSH1 0x20 ADD PUSH1 0x2 DUP3 ADD DUP1 SLOAD PUSH2 0x3954 SWAP1 PUSH2 0x54F1 JUMP JUMPDEST DUP1 PUSH1 0x1F ADD PUSH1 0x20 DUP1 SWAP2 DIV MUL PUSH1 0x20 ADD PUSH1 0x40 MLOAD SWAP1 DUP2 ADD PUSH1 0x40 MSTORE DUP1 SWAP3 SWAP2 SWAP1 DUP2 DUP2 MSTORE PUSH1 0x20 ADD DUP3 DUP1 SLOAD PUSH2 0x3980 SWAP1 PUSH2 0x54F1 JUMP JUMPDEST DUP1 ISZERO PUSH2 0x39CB JUMPI DUP1 PUSH1 0x1F LT PUSH2 0x39A2 JUMPI PUSH2 0x100 DUP1 DUP4 SLOAD DIV MUL DUP4 MSTORE SWAP2 PUSH1 0x20 ADD SWAP2 PUSH2 0x39CB JUMP JUMPDEST DUP3 ADD SWAP2 SWAP1 PUSH0 MSTORE PUSH1 0x20 PUSH0 KECCAK256 SWAP1 JUMPDEST DUP2 SLOAD DUP2 MSTORE SWAP1 PUSH1 0x1 ADD SWAP1 PUSH1 0x20 ADD DUP1 DUP4 GT PUSH2 0x39AE JUMPI DUP3 SWAP1 SUB PUSH1 0x1F AND DUP3 ADD SWAP2 JUMPDEST POP POP POP POP POP DUP2 MSTORE PUSH1 0x20 ADD PUSH1 0x3 DUP3 ADD DUP1 SLOAD PUSH2 0x39E4 SWAP1 PUSH2 0x54F1 JUMP JUMPDEST DUP1 PUSH1 0x1F ADD PUSH1 0x20 DUP1 SWAP2 DIV MUL PUSH1 0x20 ADD PUSH1 0x40 MLOAD SWAP1 DUP2 ADD PUSH1 0x40 MSTORE DUP1 SWAP3 SWAP2 SWAP1 DUP2 DUP2 MSTORE PUSH1 0x20 ADD DUP3 DUP1 SLOAD PUSH2 0x3A10 SWAP1 PUSH2 0x54F1 JUMP JUMPDEST DUP1 ISZERO PUSH2 0x3A5B JUMPI DUP1 PUSH1 0x1F LT PUSH2 0x3A32 JUMPI PUSH2 0x100 DUP1 DUP4 SLOAD DIV MUL DUP4 MSTORE SWAP2 PUSH1 0x20 ADD SWAP2 PUSH2 0x3A5B JUMP JUMPDEST DUP3 ADD SWAP2 SWAP1 PUSH0 MSTORE PUSH1 0x20 PUSH0 KECCAK256 SWAP1 JUMPDEST DUP2 SLOAD DUP2 MSTORE SWAP1 PUSH1 0x1 ADD SWAP1 PUSH1 0x20 ADD DUP1 DUP4 GT PUSH2 0x3A3E JUMPI DUP3 SWAP1 SUB PUSH1 0x1F AND DUP3 ADD SWAP2 JUMPDEST POP POP POP POP POP DUP2 MSTORE PUSH1 0x20 ADD PUSH1 0x4 DUP3 ADD DUP1 SLOAD PUSH2 0x3A74 SWAP1 PUSH2 0x54F1 JUMP JUMPDEST DUP1 PUSH1 0x1F ADD PUSH1 0x20 DUP1 SWAP2 DIV MUL PUSH1 0x20 ADD PUSH1 0x40 MLOAD SWAP1 DUP2 ADD PUSH1 0x40 MSTORE DUP1 SWAP3 SWAP2 SWAP1 DUP2 DUP2 MSTORE PUSH1 0x20 ADD DUP3 DUP1 SLOAD PUSH2 0x3AA0 SWAP1 PUSH2 0x54F1 JUMP JUMPDEST DUP1 ISZERO PUSH2 0x3AEB JUMPI DUP1 PUSH1 0x1F LT PUSH2 0x3AC2 JUMPI PUSH2 0x100 DUP1 DUP4 SLOAD DIV MUL DUP4 MSTORE SWAP2 PUSH1 0x20 ADD SWAP2 PUSH2 0x3AEB JUMP JUMPDEST DUP3 ADD SWAP2 SWAP1 PUSH0 MSTORE PUSH1 0x20 PUSH0 KECCAK256 SWAP1 JUMPDEST DUP2 SLOAD DUP2 MSTORE SWAP1 PUSH1 0x1 ADD SWAP1 PUSH1 0x20 ADD DUP1 DUP4 GT PUSH2 0x3ACE JUMPI DUP3 SWAP1 SUB PUSH1 0x1F AND DUP3 ADD SWAP2 JUMPDEST POP POP POP POP POP DUP2 MSTORE PUSH1 0x20 ADD PUSH1 0x5 DUP3 ADD DUP1 SLOAD PUSH2 0x3B04 SWAP1 PUSH2 0x54F1 JUMP JUMPDEST DUP1 PUSH1 0x1F ADD PUSH1 0x20 DUP1 SWAP2 DIV MUL PUSH1 0x20 ADD PUSH1 0x40 MLOAD SWAP1 DUP2 ADD PUSH1 0x40 MSTORE DUP1 SWAP3 SWAP2 SWAP1 DUP2 DUP2 MSTORE PUSH1 0x20 ADD DUP3 DUP1 SLOAD PUSH2 0x3B30 SWAP1 PUSH2 0x54F1 JUMP JUMPDEST DUP1 ISZERO PUSH2 0x3B7B JUMPI DUP1 PUSH1 0x1F LT PUSH2 0x3B52 JUMPI PUSH2 0x100 DUP1 DUP4 SLOAD DIV MUL DUP4 MSTORE SWAP2 PUSH1 0x20 ADD SWAP2 PUSH2 0x3B7B JUMP JUMPDEST DUP3 ADD SWAP2 SWAP1 PUSH0 MSTORE PUSH1 0x20 PUSH0 KECCAK256 SWAP1 JUMPDEST DUP2 SLOAD DUP2 MSTORE SWAP1 PUSH1 0x1 ADD SWAP1 PUSH1 0x20 ADD DUP1 DUP4 GT PUSH2 0x3B5E JUMPI DUP3 SWAP1 SUB PUSH1 0x1F AND DUP3 ADD SWAP2 JUMPDEST POP POP POP POP POP DUP2 MSTORE PUSH1 0x20 ADD PUSH1 0x6 DUP3 ADD DUP1 SLOAD PUSH2 0x3B94 SWAP1 PUSH2 0x54F1 JUMP JUMPDEST DUP1 PUSH1 0x1F ADD PUSH1 0x20 DUP1 SWAP2 DIV MUL PUSH1 0x20 ADD PUSH1 0x40 MLOAD SWAP1 DUP2 ADD PUSH1 0x40 MSTORE DUP1 SWAP3 SWAP2 SWAP1 DUP2 DUP2 MSTORE PUSH1 0x20 ADD DUP3 DUP1 SLOAD PUSH2 0x3BC0 SWAP1 PUSH2 0x54F1 JUMP JUMPDEST DUP1 ISZERO PUSH2 0x3C0B JUMPI DUP1 PUSH1 0x1F LT PUSH2 0x3BE2 JUMPI PUSH2 0x100 DUP1 DUP4 SLOAD DIV MUL DUP4 MSTORE SWAP2 PUSH1 0x20 ADD SWAP2 PUSH2 0x3C0B JUMP JUMPDEST DUP3 ADD SWAP2 SWAP1 PUSH0 MSTORE PUSH1 0x20 PUSH0 KECCAK256 SWAP1 JUMPDEST DUP2 SLOAD DUP2 MSTORE SWAP1 PUSH1 0x1 ADD SWAP1 PUSH1 0x20 ADD DUP1 DUP4 GT PUSH2 0x3BEE JUMPI DUP3 SWAP1 SUB PUSH1 0x1F AND DUP3 ADD SWAP2 JUMPDEST POP POP POP POP POP DUP2 MSTORE PUSH1 0x20 ADD PUSH1 0x7 DUP3 ADD DUP1 SLOAD PUSH2 0x3C24 SWAP1 PUSH2 0x54F1 JUMP JUMPDEST DUP1 PUSH1 0x1F ADD PUSH1 0x20 DUP1 SWAP2 DIV MUL PUSH1 0x20 ADD PUSH1 0x40 MLOAD SWAP1 DUP2 ADD PUSH1 0x40 MSTORE DUP1 SWAP3 SWAP2 SWAP1 DUP2 DUP2 MSTORE PUSH1 0x20 ADD DUP3 DUP1 SLOAD PUSH2 0x3C50 SWAP1 PUSH2 0x54F1 JUMP JUMPDEST DUP1 ISZERO PUSH2 0x3C9B JUMPI DUP1 PUSH1 0x1F LT PUSH2 0x3C72 JUMPI PUSH2 0x100 DUP1 DUP4 SLOAD DIV MUL DUP4 MSTORE SWAP2 PUSH1 0x20 ADD SWAP2 PUSH2 0x3C9B JUMP JUMPDEST DUP3 ADD SWAP2 SWAP1 PUSH0 MSTORE PUSH1 0x20 PUSH0 KECCAK256 SWAP1 JUMPDEST DUP2 SLOAD DUP2 MSTORE SWAP1 PUSH1 0x1 ADD SWAP1 PUSH1 0x20 ADD DUP1 DUP4 GT PUSH2 0x3C7E JUMPI DUP3 SWAP1 SUB PUSH1 0x1F AND DUP3 ADD SWAP2 JUMPDEST POP POP POP POP POP DUP2 MSTORE PUSH1 0x20 ADD PUSH1 0x8 DUP3 ADD PUSH0 SWAP1 SLOAD SWAP1 PUSH2 0x100 EXP SWAP1 DIV PUSH1 0xFF AND ISZERO ISZERO ISZERO ISZERO DUP2 MSTORE PUSH1 0x20 ADD PUSH1 0x9 DUP3 ADD SLOAD DUP2 MSTORE POP POP SWAP1 POP SWAP2 SWAP1 POP JUMP JUMPDEST PUSH1 0x12 PUSH0 CALLER PUSH20 0xFFFFFFFFFFFFFFFFFFFFFFFFFFFFFFFFFFFFFFFF AND PUSH20 0xFFFFFFFFFFFFFFFFFFFFFFFFFFFFFFFFFFFFFFFF AND DUP2 MSTORE PUSH1 0x20 ADD SWAP1 DUP2 MSTORE PUSH1 0x20 ADD PUSH0 KECCAK256 PUSH0 SWAP1 SLOAD SWAP1 PUSH2 0x100 EXP SWAP1 DIV PUSH1 0xFF AND ISZERO PUSH2 0x3D22 JUMPI PUSH0 DUP1 REVERT JUMPDEST PUSH0 PUSH1 0xD PUSH0 CALLER PUSH20 0xFFFFFFFFFFFFFFFFFFFFFFFFFFFFFFFFFFFFFFFF AND PUSH20 0xFFFFFFFFFFFFFFFFFFFFFFFFFFFFFFFFFFFFFFFF AND DUP2 MSTORE PUSH1 0x20 ADD SWAP1 DUP2 MSTORE PUSH1 0x20 ADD PUSH0 KECCAK256 SWAP1 POP DUP8 DUP2 PUSH0 ADD SWAP1 DUP2 PUSH2 0x3D72 SWAP2 SWAP1 PUSH2 0x56BE JUMP JUMPDEST POP DUP7 DUP2 PUSH1 0x1 ADD SWAP1 DUP2 PUSH2 0x3D84 SWAP2 SWAP1 PUSH2 0x56BE JUMP JUMPDEST POP DUP6 DUP2 PUSH1 0x2 ADD SWAP1 DUP2 PUSH2 0x3D96 SWAP2 SWAP1 PUSH2 0x56BE JUMP JUMPDEST POP DUP5 DUP2 PUSH1 0x3 ADD SWAP1 DUP2 PUSH2 0x3DA8 SWAP2 SWAP1 PUSH2 0x56BE JUMP JUMPDEST POP DUP4 DUP2 PUSH1 0x4 ADD SWAP1 DUP2 PUSH2 0x3DBA SWAP2 SWAP1 PUSH2 0x56BE JUMP JUMPDEST POP DUP3 DUP2 PUSH1 0x6 ADD SWAP1 DUP2 PUSH2 0x3DCC SWAP2 SWAP1 PUSH2 0x56BE JUMP JUMPDEST POP DUP2 DUP2 PUSH1 0x7 ADD PUSH0 PUSH2 0x100 EXP DUP2 SLOAD DUP2 PUSH1 0xFF MUL NOT AND SWAP1 DUP4 ISZERO ISZERO MUL OR SWAP1 SSTORE POP PUSH1 0x3 CALLER SWAP1 DUP1 PUSH1 0x1 DUP2 SLOAD ADD DUP1 DUP3 SSTORE DUP1 SWAP2 POP POP PUSH1 0x1 SWAP1 SUB SWAP1 PUSH0 MSTORE PUSH1 0x20 PUSH0 KECCAK256 ADD PUSH0 SWAP1 SWAP2 SWAP1 SWAP2 SWAP1 SWAP2 PUSH2 0x100 EXP DUP2 SLOAD DUP2 PUSH20 0xFFFFFFFFFFFFFFFFFFFFFFFFFFFFFFFFFFFFFFFF MUL NOT AND SWAP1 DUP4 PUSH20 0xFFFFFFFFFFFFFFFFFFFFFFFFFFFFFFFFFFFFFFFF AND MUL OR SWAP1 SSTORE POP PUSH1 0x1 PUSH1 0x11 PUSH0 CALLER PUSH20 0xFFFFFFFFFFFFFFFFFFFFFFFFFFFFFFFFFFFFFFFF AND PUSH20 0xFFFFFFFFFFFFFFFFFFFFFFFFFFFFFFFFFFFFFFFF AND DUP2 MSTORE PUSH1 0x20 ADD SWAP1 DUP2 MSTORE PUSH1 0x20 ADD PUSH0 KECCAK256 PUSH0 PUSH2 0x100 EXP DUP2 SLOAD DUP2 PUSH1 0xFF MUL NOT AND SWAP1 DUP4 ISZERO ISZERO MUL OR SWAP1 SSTORE POP PUSH1 0x15 PUSH0 DUP2 SLOAD DUP1 SWAP3 SWAP2 SWAP1 PUSH2 0x3EAF SWAP1 PUSH2 0x57BA JUMP JUMPDEST SWAP2 SWAP1 POP SSTORE POP POP POP POP POP POP POP POP POP JUMP JUMPDEST PUSH1 0x10 PUSH0 CALLER PUSH20 0xFFFFFFFFFFFFFFFFFFFFFFFFFFFFFFFFFFFFFFFF AND PUSH20 0xFFFFFFFFFFFFFFFFFFFFFFFFFFFFFFFFFFFFFFFF AND DUP2 MSTORE PUSH1 0x20 ADD SWAP1 DUP2 MSTORE PUSH1 0x20 ADD PUSH0 KECCAK256 PUSH0 SWAP1 SLOAD SWAP1 PUSH2 0x100 EXP SWAP1 DIV PUSH1 0xFF AND ISZERO PUSH2 0x3F11 JUMPI PUSH0 DUP1 REVERT JUMPDEST PUSH0 PUSH1 0x8 PUSH0 CALLER PUSH20 0xFFFFFFFFFFFFFFFFFFFFFFFFFFFFFFFFFFFFFFFF AND PUSH20 0xFFFFFFFFFFFFFFFFFFFFFFFFFFFFFFFFFFFFFFFF AND DUP2 MSTORE PUSH1 0x20 ADD SWAP1 DUP2 MSTORE PUSH1 0x20 ADD PUSH0 KECCAK256 SWAP1 POP DUP12 DUP2 PUSH0 ADD SWAP1 DUP2 PUSH2 0x3F61 SWAP2 SWAP1 PUSH2 0x56BE JUMP JUMPDEST POP DUP11 DUP2 PUSH1 0x1 ADD SWAP1 DUP2 PUSH2 0x3F73 SWAP2 SWAP1 PUSH2 0x56BE JUMP JUMPDEST POP DUP10 DUP2 PUSH1 0x2 ADD SWAP1 DUP2 PUSH2 0x3F85 SWAP2 SWAP1 PUSH2 0x56BE JUMP JUMPDEST POP DUP9 DUP2 PUSH1 0x3 ADD SWAP1 DUP2 PUSH2 0x3F97 SWAP2 SWAP1 PUSH2 0x56BE JUMP JUMPDEST POP DUP8 DUP2 PUSH1 0x6 ADD SWAP1 DUP2 PUSH2 0x3FA9 SWAP2 SWAP1 PUSH2 0x56BE JUMP JUMPDEST POP DUP7 DUP2 PUSH1 0x4 ADD SWAP1 DUP2 PUSH2 0x3FBB SWAP2 SWAP1 PUSH2 0x56BE JUMP JUMPDEST POP DUP6 DUP2 PUSH1 0x5 ADD SWAP1 DUP2 PUSH2 0x3FCD SWAP2 SWAP1 PUSH2 0x56BE JUMP JUMPDEST POP DUP5 DUP2 PUSH1 0x7 ADD SWAP1 DUP2 PUSH2 0x3FDF SWAP2 SWAP1 PUSH2 0x56BE JUMP JUMPDEST POP DUP4 DUP2 PUSH1 0x8 ADD SWAP1 DUP2 PUSH2 0x3FF1 SWAP2 SWAP1 PUSH2 0x56BE JUMP JUMPDEST POP DUP3 DUP2 PUSH1 0x9 ADD SWAP1 DUP2 PUSH2 0x4003 SWAP2 SWAP1 PUSH2 0x56BE JUMP JUMPDEST POP DUP2 DUP2 PUSH1 0xA ADD SWAP1 DUP2 PUSH2 0x4015 SWAP2 SWAP1 PUSH2 0x56BE JUMP JUMPDEST POP PUSH1 0x1 CALLER SWAP1 DUP1 PUSH1 0x1 DUP2 SLOAD ADD DUP1 DUP3 SSTORE DUP1 SWAP2 POP POP PUSH1 0x1 SWAP1 SUB SWAP1 PUSH0 MSTORE PUSH1 0x20 PUSH0 KECCAK256 ADD PUSH0 SWAP1 SWAP2 SWAP1 SWAP2 SWAP1 SWAP2 PUSH2 0x100 EXP DUP2 SLOAD DUP2 PUSH20 0xFFFFFFFFFFFFFFFFFFFFFFFFFFFFFFFFFFFFFFFF MUL NOT AND SWAP1 DUP4 PUSH20 0xFFFFFFFFFFFFFFFFFFFFFFFFFFFFFFFFFFFFFFFF AND MUL OR SWAP1 SSTORE POP PUSH1 0x1 PUSH1 0x10 PUSH0 CALLER PUSH20 0xFFFFFFFFFFFFFFFFFFFFFFFFFFFFFFFFFFFFFFFF AND PUSH20 0xFFFFFFFFFFFFFFFFFFFFFFFFFFFFFFFFFFFFFFFF AND DUP2 MSTORE PUSH1 0x20 ADD SWAP1 DUP2 MSTORE PUSH1 0x20 ADD PUSH0 KECCAK256 PUSH0 PUSH2 0x100 EXP DUP2 SLOAD DUP2 PUSH1 0xFF MUL NOT AND SWAP1 DUP4 ISZERO ISZERO MUL OR SWAP1 SSTORE POP PUSH1 0x1 PUSH1 0xF PUSH0 CALLER PUSH20 0xFFFFFFFFFFFFFFFFFFFFFFFFFFFFFFFFFFFFFFFF AND PUSH20 0xFFFFFFFFFFFFFFFFFFFFFFFFFFFFFFFFFFFFFFFF AND DUP2 MSTORE PUSH1 0x20 ADD SWAP1 DUP2 MSTORE PUSH1 0x20 ADD PUSH0 KECCAK256 PUSH0 CALLER PUSH20 0xFFFFFFFFFFFFFFFFFFFFFFFFFFFFFFFFFFFFFFFF AND PUSH20 0xFFFFFFFFFFFFFFFFFFFFFFFFFFFFFFFFFFFFFFFF AND DUP2 MSTORE PUSH1 0x20 ADD SWAP1 DUP2 MSTORE PUSH1 0x20 ADD PUSH0 KECCAK256 PUSH0 PUSH2 0x100 EXP DUP2 SLOAD DUP2 PUSH1 0xFF MUL NOT AND SWAP1 DUP4 ISZERO ISZERO MUL OR SWAP1 SSTORE POP PUSH1 0x14 PUSH0 DUP2 SLOAD DUP1 SWAP3 SWAP2 SWAP1 PUSH2 0x416D SWAP1 PUSH2 0x57BA JUMP JUMPDEST SWAP2 SWAP1 POP SSTORE POP POP POP POP POP POP POP POP POP POP POP POP POP JUMP JUMPDEST PUSH1 0x5 DUP2 DUP2 SLOAD DUP2 LT PUSH2 0x418F JUMPI PUSH0 DUP1 REVERT JUMPDEST SWAP1 PUSH0 MSTORE PUSH1 0x20 PUSH0 KECCAK256 ADD PUSH0 SWAP2 POP SLOAD SWAP1 PUSH2 0x100 EXP SWAP1 DIV PUSH20 0xFFFFFFFFFFFFFFFFFFFFFFFFFFFFFFFFFFFFFFFF AND DUP2 JUMP JUMPDEST PUSH1 0x12 PUSH0 CALLER PUSH20 0xFFFFFFFFFFFFFFFFFFFFFFFFFFFFFFFFFFFFFFFF AND PUSH20 0xFFFFFFFFFFFFFFFFFFFFFFFFFFFFFFFFFFFFFFFF AND DUP2 MSTORE PUSH1 0x20 ADD SWAP1 DUP2 MSTORE PUSH1 0x20 ADD PUSH0 KECCAK256 PUSH0 SWAP1 SLOAD SWAP1 PUSH2 0x100 EXP SWAP1 DIV PUSH1 0xFF AND PUSH2 0x420D JUMPI PUSH0 DUP1 REVERT JUMPDEST PUSH0 PUSH1 0xD PUSH0 CALLER PUSH20 0xFFFFFFFFFFFFFFFFFFFFFFFFFFFFFFFFFFFFFFFF AND PUSH20 0xFFFFFFFFFFFFFFFFFFFFFFFFFFFFFFFFFFFFFFFF AND DUP2 MSTORE PUSH1 0x20 ADD SWAP1 DUP2 MSTORE PUSH1 0x20 ADD PUSH0 KECCAK256 SWAP1 POP DUP8 DUP2 PUSH0 ADD SWAP1 DUP2 PUSH2 0x425D SWAP2 SWAP1 PUSH2 0x56BE JUMP JUMPDEST POP DUP7 DUP2 PUSH1 0x1 ADD SWAP1 DUP2 PUSH2 0x426F SWAP2 SWAP1 PUSH2 0x56BE JUMP JUMPDEST POP DUP6 DUP2 PUSH1 0x2 ADD SWAP1 DUP2 PUSH2 0x4281 SWAP2 SWAP1 PUSH2 0x56BE JUMP JUMPDEST POP DUP5 DUP2 PUSH1 0x3 ADD SWAP1 DUP2 PUSH2 0x4293 SWAP2 SWAP1 PUSH2 0x56BE JUMP JUMPDEST POP DUP4 DUP2 PUSH1 0x4 ADD SWAP1 DUP2 PUSH2 0x42A5 SWAP2 SWAP1 PUSH2 0x56BE JUMP JUMPDEST POP DUP3 DUP2 PUSH1 0x6 ADD SWAP1 DUP2 PUSH2 0x42B7 SWAP2 SWAP1 PUSH2 0x56BE JUMP JUMPDEST POP DUP2 DUP2 PUSH1 0x7 ADD PUSH0 PUSH2 0x100 EXP DUP2 SLOAD DUP2 PUSH1 0xFF MUL NOT AND SWAP1 DUP4 ISZERO ISZERO MUL OR SWAP1 SSTORE POP POP POP POP POP POP POP POP POP JUMP JUMPDEST PUSH1 0x7 DUP2 DUP2 SLOAD DUP2 LT PUSH2 0x42EC JUMPI PUSH0 DUP1 REVERT JUMPDEST SWAP1 PUSH0 MSTORE PUSH1 0x20 PUSH0 KECCAK256 ADD PUSH0 SWAP2 POP SLOAD SWAP1 PUSH2 0x100 EXP SWAP1 DIV PUSH20 0xFFFFFFFFFFFFFFFFFFFFFFFFFFFFFFFFFFFFFFFF AND DUP2 JUMP JUMPDEST PUSH0 PUSH1 0x13 PUSH0 DUP4 PUSH20 0xFFFFFFFFFFFFFFFFFFFFFFFFFFFFFFFFFFFFFFFF AND PUSH20 0xFFFFFFFFFFFFFFFFFFFFFFFFFFFFFFFFFFFFFFFF AND DUP2 MSTORE PUSH1 0x20 ADD SWAP1 DUP2 MSTORE PUSH1 0x20 ADD PUSH0 KECCAK256 SLOAD SWAP1 POP SWAP2 SWAP1 POP JUMP JUMPDEST PUSH1 0x17 SLOAD DUP2 JUMP JUMPDEST PUSH1 0x40 MLOAD DUP1 PUSH1 0x80 ADD PUSH1 0x40 MSTORE DUP1 PUSH0 PUSH20 0xFFFFFFFFFFFFFFFFFFFFFFFFFFFFFFFFFFFFFFFF AND DUP2 MSTORE PUSH1 0x20 ADD PUSH0 DUP2 MSTORE PUSH1 0x20 ADD PUSH0 DUP2 MSTORE PUSH1 0x20 ADD PUSH0 DUP2 MSTORE POP SWAP1 JUMP JUMPDEST PUSH1 0x40 MLOAD DUP1 PUSH2 0x160 ADD PUSH1 0x40 MSTORE DUP1 PUSH1 0x60 DUP2 MSTORE PUSH1 0x20 ADD PUSH1 0x60 DUP2 MSTORE PUSH1 0x20 ADD PUSH1 0x60 DUP2 MSTORE PUSH1 0x20 ADD PUSH1 0x60 DUP2 MSTORE PUSH1 0x20 ADD PUSH1 0x60 DUP2 MSTORE PUSH1 0x20 ADD PUSH1 0x60 DUP2 MSTORE PUSH1 0x20 ADD PUSH1 0x60 DUP2 MSTORE PUSH1 0x20 ADD PUSH1 0x60 DUP2 MSTORE PUSH1 0x20 ADD PUSH1 0x60 DUP2 MSTORE PUSH1 0x20 ADD PUSH1 0x60 DUP2 MSTORE PUSH1 0x20 ADD PUSH1 0x60 DUP2 MSTORE POP SWAP1 JUMP JUMPDEST PUSH1 0x40 MLOAD DUP1 PUSH1 0x80 ADD PUSH1 0x40 MSTORE DUP1 PUSH0 PUSH20 0xFFFFFFFFFFFFFFFFFFFFFFFFFFFFFFFFFFFFFFFF AND DUP2 MSTORE PUSH1 0x20 ADD PUSH0 DUP2 MSTORE PUSH1 0x20 ADD PUSH0 DUP2 MSTORE PUSH1 0x20 ADD PUSH0 DUP2 MSTORE POP SWAP1 JUMP JUMPDEST PUSH1 0x40 MLOAD DUP1 PUSH1 0x80 ADD PUSH1 0x40 MSTORE DUP1 PUSH0 PUSH20 0xFFFFFFFFFFFFFFFFFFFFFFFFFFFFFFFFFFFFFFFF AND DUP2 MSTORE PUSH1 0x20 ADD PUSH0 DUP2 MSTORE PUSH1 0x20 ADD PUSH0 DUP2 MSTORE PUSH1 0x20 ADD PUSH0 DUP2 MSTORE POP SWAP1 JUMP JUMPDEST PUSH1 0x40 MLOAD DUP1 PUSH2 0x120 ADD PUSH1 0x40 MSTORE DUP1 PUSH0 PUSH20 0xFFFFFFFFFFFFFFFFFFFFFFFFFFFFFFFFFFFFFFFF AND DUP2 MSTORE PUSH1 0x20 ADD PUSH0 PUSH20 0xFFFFFFFFFFFFFFFFFFFFFFFFFFFFFFFFFFFFFFFF AND DUP2 MSTORE PUSH1 0x20 ADD PUSH1 0x60 DUP2 MSTORE PUSH1 0x20 ADD PUSH1 0x60 DUP2 MSTORE PUSH1 0x20 ADD PUSH1 0x60 DUP2 MSTORE PUSH1 0x20 ADD PUSH1 0x60 DUP2 MSTORE PUSH1 0x20 ADD PUSH1 0x60 DUP2 MSTORE PUSH1 0x20 ADD PUSH1 0x60 DUP2 MSTORE PUSH1 0x20 ADD PUSH0 DUP2 MSTORE POP SWAP1 JUMP JUMPDEST PUSH1 0x40 MLOAD DUP1 PUSH2 0x140 ADD PUSH1 0x40 MSTORE DUP1 PUSH1 0x60 DUP2 MSTORE PUSH1 0x20 ADD PUSH1 0x60 DUP2 MSTORE PUSH1 0x20 ADD PUSH1 0x60 DUP2 MSTORE PUSH1 0x20 ADD PUSH1 0x60 DUP2 MSTORE PUSH1 0x20 ADD PUSH1 0x60 DUP2 MSTORE PUSH1 0x20 ADD PUSH1 0x60 DUP2 MSTORE PUSH1 0x20 ADD PUSH1 0x60 DUP2 MSTORE PUSH1 0x20 ADD PUSH1 0x60 DUP2 MSTORE PUSH1 0x20 ADD PUSH0 ISZERO ISZERO DUP2 MSTORE PUSH1 0x20 ADD PUSH0 DUP2 MSTORE POP SWAP1 JUMP JUMPDEST PUSH0 PUSH1 0x40 MLOAD SWAP1 POP SWAP1 JUMP JUMPDEST PUSH0 DUP1 REVERT JUMPDEST PUSH0 DUP1 REVERT JUMPDEST PUSH0 PUSH20 0xFFFFFFFFFFFFFFFFFFFFFFFFFFFFFFFFFFFFFFFF DUP3 AND SWAP1 POP SWAP2 SWAP1 POP JUMP JUMPDEST PUSH0 PUSH2 0x456E DUP3 PUSH2 0x4545 JUMP JUMPDEST SWAP1 POP SWAP2 SWAP1 POP JUMP JUMPDEST PUSH2 0x457E DUP2 PUSH2 0x4564 JUMP JUMPDEST DUP2 EQ PUSH2 0x4588 JUMPI PUSH0 DUP1 REVERT JUMPDEST POP JUMP JUMPDEST PUSH0 DUP2 CALLDATALOAD SWAP1 POP PUSH2 0x4599 DUP2 PUSH2 0x4575 JUMP JUMPDEST SWAP3 SWAP2 POP POP JUMP JUMPDEST PUSH0 PUSH1 0x20 DUP3 DUP5 SUB SLT ISZERO PUSH2 0x45B4 JUMPI PUSH2 0x45B3 PUSH2 0x453D JUMP JUMPDEST JUMPDEST PUSH0 PUSH2 0x45C1 DUP5 DUP3 DUP6 ADD PUSH2 0x458B JUMP JUMPDEST SWAP2 POP POP SWAP3 SWAP2 POP POP JUMP JUMPDEST PUSH0 DUP2 ISZERO ISZERO SWAP1 POP SWAP2 SWAP1 POP JUMP JUMPDEST PUSH2 0x45DE DUP2 PUSH2 0x45CA JUMP JUMPDEST DUP3 MSTORE POP POP JUMP JUMPDEST PUSH0 PUSH1 0x20 DUP3 ADD SWAP1 POP PUSH2 0x45F7 PUSH0 DUP4 ADD DUP5 PUSH2 0x45D5 JUMP JUMPDEST SWAP3 SWAP2 POP POP JUMP JUMPDEST PUSH2 0x4606 DUP2 PUSH2 0x4564 JUMP JUMPDEST DUP3 MSTORE POP POP JUMP JUMPDEST PUSH0 DUP2 SWAP1 POP SWAP2 SWAP1 POP JUMP JUMPDEST PUSH2 0x461E DUP2 PUSH2 0x460C JUMP JUMPDEST DUP3 MSTORE POP POP JUMP JUMPDEST PUSH1 0x80 DUP3 ADD PUSH0 DUP3 ADD MLOAD PUSH2 0x4638 PUSH0 DUP6 ADD DUP3 PUSH2 0x45FD JUMP JUMPDEST POP PUSH1 0x20 DUP3 ADD MLOAD PUSH2 0x464B PUSH1 0x20 DUP6 ADD DUP3 PUSH2 0x4615 JUMP JUMPDEST POP PUSH1 0x40 DUP3 ADD MLOAD PUSH2 0x465E PUSH1 0x40 DUP6 ADD DUP3 PUSH2 0x4615 JUMP JUMPDEST POP PUSH1 0x60 DUP3 ADD MLOAD PUSH2 0x4671 PUSH1 0x60 DUP6 ADD DUP3 PUSH2 0x4615 JUMP JUMPDEST POP POP POP POP JUMP JUMPDEST PUSH0 PUSH1 0x80 DUP3 ADD SWAP1 POP PUSH2 0x468A PUSH0 DUP4 ADD DUP5 PUSH2 0x4624 JUMP JUMPDEST SWAP3 SWAP2 POP POP JUMP JUMPDEST PUSH2 0x4699 DUP2 PUSH2 0x460C JUMP JUMPDEST DUP2 EQ PUSH2 0x46A3 JUMPI PUSH0 DUP1 REVERT JUMPDEST POP JUMP JUMPDEST PUSH0 DUP2 CALLDATALOAD SWAP1 POP PUSH2 0x46B4 DUP2 PUSH2 0x4690 JUMP JUMPDEST SWAP3 SWAP2 POP POP JUMP JUMPDEST PUSH0 PUSH1 0x20 DUP3 DUP5 SUB SLT ISZERO PUSH2 0x46CF JUMPI PUSH2 0x46CE PUSH2 0x453D JUMP JUMPDEST JUMPDEST PUSH0 PUSH2 0x46DC DUP5 DUP3 DUP6 ADD PUSH2 0x46A6 JUMP JUMPDEST SWAP2 POP POP SWAP3 SWAP2 POP POP JUMP JUMPDEST PUSH2 0x46EE DUP2 PUSH2 0x4564 JUMP JUMPDEST DUP3 MSTORE POP POP JUMP JUMPDEST PUSH0 PUSH1 0x20 DUP3 ADD SWAP1 POP PUSH2 0x4707 PUSH0 DUP4 ADD DUP5 PUSH2 0x46E5 JUMP JUMPDEST SWAP3 SWAP2 POP POP JUMP JUMPDEST PUSH0 DUP2 MLOAD SWAP1 POP SWAP2 SWAP1 POP JUMP JUMPDEST PUSH0 DUP3 DUP3 MSTORE PUSH1 0x20 DUP3 ADD SWAP1 POP SWAP3 SWAP2 POP POP JUMP JUMPDEST PUSH0 DUP2 SWAP1 POP PUSH1 0x20 DUP3 ADD SWAP1 POP SWAP2 SWAP1 POP JUMP JUMPDEST PUSH0 PUSH2 0x4741 DUP4 DUP4 PUSH2 0x45FD JUMP JUMPDEST PUSH1 0x20 DUP4 ADD SWAP1 POP SWAP3 SWAP2 POP POP JUMP JUMPDEST PUSH0 PUSH1 0x20 DUP3 ADD SWAP1 POP SWAP2 SWAP1 POP JUMP JUMPDEST PUSH0 PUSH2 0x4763 DUP3 PUSH2 0x470D JUMP JUMPDEST PUSH2 0x476D DUP2 DUP6 PUSH2 0x4717 JUMP JUMPDEST SWAP4 POP PUSH2 0x4778 DUP4 PUSH2 0x4727 JUMP JUMPDEST DUP1 PUSH0 JUMPDEST DUP4 DUP2 LT ISZERO PUSH2 0x47A8 JUMPI DUP2 MLOAD PUSH2 0x478F DUP9 DUP3 PUSH2 0x4736 JUMP JUMPDEST SWAP8 POP PUSH2 0x479A DUP4 PUSH2 0x474D JUMP JUMPDEST SWAP3 POP POP PUSH1 0x1 DUP2 ADD SWAP1 POP PUSH2 0x477B JUMP JUMPDEST POP DUP6 SWAP4 POP POP POP POP SWAP3 SWAP2 POP POP JUMP JUMPDEST PUSH0 PUSH1 0x20 DUP3 ADD SWAP1 POP DUP2 DUP2 SUB PUSH0 DUP4 ADD MSTORE PUSH2 0x47CD DUP2 DUP5 PUSH2 0x4759 JUMP JUMPDEST SWAP1 POP SWAP3 SWAP2 POP POP JUMP JUMPDEST PUSH0 DUP1 REVERT JUMPDEST PUSH0 DUP1 REVERT JUMPDEST PUSH0 PUSH1 0x1F NOT PUSH1 0x1F DUP4 ADD AND SWAP1 POP SWAP2 SWAP1 POP JUMP JUMPDEST PUSH32 0x4E487B7100000000000000000000000000000000000000000000000000000000 PUSH0 MSTORE PUSH1 0x41 PUSH1 0x4 MSTORE PUSH1 0x24 PUSH0 REVERT JUMPDEST PUSH2 0x4823 DUP3 PUSH2 0x47DD JUMP JUMPDEST DUP2 ADD DUP2 DUP2 LT PUSH8 0xFFFFFFFFFFFFFFFF DUP3 GT OR ISZERO PUSH2 0x4842 JUMPI PUSH2 0x4841 PUSH2 0x47ED JUMP JUMPDEST JUMPDEST DUP1 PUSH1 0x40 MSTORE POP POP POP JUMP JUMPDEST PUSH0 PUSH2 0x4854 PUSH2 0x4534 JUMP JUMPDEST SWAP1 POP PUSH2 0x4860 DUP3 DUP3 PUSH2 0x481A JUMP JUMPDEST SWAP2 SWAP1 POP JUMP JUMPDEST PUSH0 PUSH8 0xFFFFFFFFFFFFFFFF DUP3 GT ISZERO PUSH2 0x487F JUMPI PUSH2 0x487E PUSH2 0x47ED JUMP JUMPDEST JUMPDEST PUSH2 0x4888 DUP3 PUSH2 0x47DD JUMP JUMPDEST SWAP1 POP PUSH1 0x20 DUP2 ADD SWAP1 POP SWAP2 SWAP1 POP JUMP JUMPDEST DUP3 DUP2 DUP4 CALLDATACOPY PUSH0 DUP4 DUP4 ADD MSTORE POP POP POP JUMP JUMPDEST PUSH0 PUSH2 0x48B5 PUSH2 0x48B0 DUP5 PUSH2 0x4865 JUMP JUMPDEST PUSH2 0x484B JUMP JUMPDEST SWAP1 POP DUP3 DUP2 MSTORE PUSH1 0x20 DUP2 ADD DUP5 DUP5 DUP5 ADD GT ISZERO PUSH2 0x48D1 JUMPI PUSH2 0x48D0 PUSH2 0x47D9 JUMP JUMPDEST JUMPDEST PUSH2 0x48DC DUP5 DUP3 DUP6 PUSH2 0x4895 JUMP JUMPDEST POP SWAP4 SWAP3 POP POP POP JUMP JUMPDEST PUSH0 DUP3 PUSH1 0x1F DUP4 ADD SLT PUSH2 0x48F8 JUMPI PUSH2 0x48F7 PUSH2 0x47D5 JUMP JUMPDEST JUMPDEST DUP2 CALLDATALOAD PUSH2 0x4908 DUP5 DUP3 PUSH1 0x20 DUP7 ADD PUSH2 0x48A3 JUMP JUMPDEST SWAP2 POP POP SWAP3 SWAP2 POP POP JUMP JUMPDEST PUSH2 0x491A DUP2 PUSH2 0x45CA JUMP JUMPDEST DUP2 EQ PUSH2 0x4924 JUMPI PUSH0 DUP1 REVERT JUMPDEST POP JUMP JUMPDEST PUSH0 DUP2 CALLDATALOAD SWAP1 POP PUSH2 0x4935 DUP2 PUSH2 0x4911 JUMP JUMPDEST SWAP3 SWAP2 POP POP JUMP JUMPDEST PUSH0 DUP1 PUSH0 DUP1 PUSH0 DUP1 PUSH0 DUP1 PUSH2 0x100 DUP10 DUP12 SUB SLT ISZERO PUSH2 0x4958 JUMPI PUSH2 0x4957 PUSH2 0x453D JUMP JUMPDEST JUMPDEST PUSH0 DUP10 ADD CALLDATALOAD PUSH8 0xFFFFFFFFFFFFFFFF DUP2 GT ISZERO PUSH2 0x4975 JUMPI PUSH2 0x4974 PUSH2 0x4541 JUMP JUMPDEST JUMPDEST PUSH2 0x4981 DUP12 DUP3 DUP13 ADD PUSH2 0x48E4 JUMP JUMPDEST SWAP9 POP POP PUSH1 0x20 DUP10 ADD CALLDATALOAD PUSH8 0xFFFFFFFFFFFFFFFF DUP2 GT ISZERO PUSH2 0x49A2 JUMPI PUSH2 0x49A1 PUSH2 0x4541 JUMP JUMPDEST JUMPDEST PUSH2 0x49AE DUP12 DUP3 DUP13 ADD PUSH2 0x48E4 JUMP JUMPDEST SWAP8 POP POP PUSH1 0x40 DUP10 ADD CALLDATALOAD PUSH8 0xFFFFFFFFFFFFFFFF DUP2 GT ISZERO PUSH2 0x49CF JUMPI PUSH2 0x49CE PUSH2 0x4541 JUMP JUMPDEST JUMPDEST PUSH2 0x49DB DUP12 DUP3 DUP13 ADD PUSH2 0x48E4 JUMP JUMPDEST SWAP7 POP POP PUSH1 0x60 DUP10 ADD CALLDATALOAD PUSH8 0xFFFFFFFFFFFFFFFF DUP2 GT ISZERO PUSH2 0x49FC JUMPI PUSH2 0x49FB PUSH2 0x4541 JUMP JUMPDEST JUMPDEST PUSH2 0x4A08 DUP12 DUP3 DUP13 ADD PUSH2 0x48E4 JUMP JUMPDEST SWAP6 POP POP PUSH1 0x80 DUP10 ADD CALLDATALOAD PUSH8 0xFFFFFFFFFFFFFFFF DUP2 GT ISZERO PUSH2 0x4A29 JUMPI PUSH2 0x4A28 PUSH2 0x4541 JUMP JUMPDEST JUMPDEST PUSH2 0x4A35 DUP12 DUP3 DUP13 ADD PUSH2 0x48E4 JUMP JUMPDEST SWAP5 POP POP PUSH1 0xA0 DUP10 ADD CALLDATALOAD PUSH8 0xFFFFFFFFFFFFFFFF DUP2 GT ISZERO PUSH2 0x4A56 JUMPI PUSH2 0x4A55 PUSH2 0x4541 JUMP JUMPDEST JUMPDEST PUSH2 0x4A62 DUP12 DUP3 DUP13 ADD PUSH2 0x48E4 JUMP JUMPDEST SWAP4 POP POP PUSH1 0xC0 DUP10 ADD CALLDATALOAD PUSH8 0xFFFFFFFFFFFFFFFF DUP2 GT ISZERO PUSH2 0x4A83 JUMPI PUSH2 0x4A82 PUSH2 0x4541 JUMP JUMPDEST JUMPDEST PUSH2 0x4A8F DUP12 DUP3 DUP13 ADD PUSH2 0x48E4 JUMP JUMPDEST SWAP3 POP POP PUSH1 0xE0 PUSH2 0x4AA0 DUP12 DUP3 DUP13 ADD PUSH2 0x4927 JUMP JUMPDEST SWAP2 POP POP SWAP3 SWAP6 SWAP9 POP SWAP3 SWAP6 SWAP9 SWAP1 SWAP4 SWAP7 POP JUMP JUMPDEST PUSH0 DUP1 PUSH0 DUP1 PUSH0 DUP1 PUSH0 PUSH1 0xE0 DUP9 DUP11 SUB SLT ISZERO PUSH2 0x4ACB JUMPI PUSH2 0x4ACA PUSH2 0x453D JUMP JUMPDEST JUMPDEST PUSH0 PUSH2 0x4AD8 DUP11 DUP3 DUP12 ADD PUSH2 0x458B JUMP JUMPDEST SWAP8 POP POP PUSH1 0x20 DUP9 ADD CALLDATALOAD PUSH8 0xFFFFFFFFFFFFFFFF DUP2 GT ISZERO PUSH2 0x4AF9 JUMPI PUSH2 0x4AF8 PUSH2 0x4541 JUMP JUMPDEST JUMPDEST PUSH2 0x4B05 DUP11 DUP3 DUP12 ADD PUSH2 0x48E4 JUMP JUMPDEST SWAP7 POP POP PUSH1 0x40 DUP9 ADD CALLDATALOAD PUSH8 0xFFFFFFFFFFFFFFFF DUP2 GT ISZERO PUSH2 0x4B26 JUMPI PUSH2 0x4B25 PUSH2 0x4541 JUMP JUMPDEST JUMPDEST PUSH2 0x4B32 DUP11 DUP3 DUP12 ADD PUSH2 0x48E4 JUMP JUMPDEST SWAP6 POP POP PUSH1 0x60 DUP9 ADD CALLDATALOAD PUSH8 0xFFFFFFFFFFFFFFFF DUP2 GT ISZERO PUSH2 0x4B53 JUMPI PUSH2 0x4B52 PUSH2 0x4541 JUMP JUMPDEST JUMPDEST PUSH2 0x4B5F DUP11 DUP3 DUP12 ADD PUSH2 0x48E4 JUMP JUMPDEST SWAP5 POP POP PUSH1 0x80 DUP9 ADD CALLDATALOAD PUSH8 0xFFFFFFFFFFFFFFFF DUP2 GT ISZERO PUSH2 0x4B80 JUMPI PUSH2 0x4B7F PUSH2 0x4541 JUMP JUMPDEST JUMPDEST PUSH2 0x4B8C DUP11 DUP3 DUP12 ADD PUSH2 0x48E4 JUMP JUMPDEST SWAP4 POP POP PUSH1 0xA0 DUP9 ADD CALLDATALOAD PUSH8 0xFFFFFFFFFFFFFFFF DUP2 GT ISZERO PUSH2 0x4BAD JUMPI PUSH2 0x4BAC PUSH2 0x4541 JUMP JUMPDEST JUMPDEST PUSH2 0x4BB9 DUP11 DUP3 DUP12 ADD PUSH2 0x48E4 JUMP JUMPDEST SWAP3 POP POP PUSH1 0xC0 DUP9 ADD CALLDATALOAD PUSH8 0xFFFFFFFFFFFFFFFF DUP2 GT ISZERO PUSH2 0x4BDA JUMPI PUSH2 0x4BD9 PUSH2 0x4541 JUMP JUMPDEST JUMPDEST PUSH2 0x4BE6 DUP11 DUP3 DUP12 ADD PUSH2 0x48E4 JUMP JUMPDEST SWAP2 POP POP SWAP3 SWAP6 SWAP9 SWAP2 SWAP5 SWAP8 POP SWAP3 SWAP6 POP JUMP JUMPDEST PUSH2 0x4BFE DUP2 PUSH2 0x460C JUMP JUMPDEST DUP3 MSTORE POP POP JUMP JUMPDEST PUSH0 PUSH1 0x20 DUP3 ADD SWAP1 POP PUSH2 0x4C17 PUSH0 DUP4 ADD DUP5 PUSH2 0x4BF5 JUMP JUMPDEST SWAP3 SWAP2 POP POP JUMP JUMPDEST PUSH0 DUP2 MLOAD SWAP1 POP SWAP2 SWAP1 POP JUMP JUMPDEST PUSH0 DUP3 DUP3 MSTORE PUSH1 0x20 DUP3 ADD SWAP1 POP SWAP3 SWAP2 POP POP JUMP JUMPDEST PUSH0 JUMPDEST DUP4 DUP2 LT ISZERO PUSH2 0x4C54 JUMPI DUP1 DUP3 ADD MLOAD DUP2 DUP5 ADD MSTORE PUSH1 0x20 DUP2 ADD SWAP1 POP PUSH2 0x4C39 JUMP JUMPDEST PUSH0 DUP5 DUP5 ADD MSTORE POP POP POP POP JUMP JUMPDEST PUSH0 PUSH2 0x4C69 DUP3 PUSH2 0x4C1D JUMP JUMPDEST PUSH2 0x4C73 DUP2 DUP6 PUSH2 0x4C27 JUMP JUMPDEST SWAP4 POP PUSH2 0x4C83 DUP2 DUP6 PUSH1 0x20 DUP7 ADD PUSH2 0x4C37 JUMP JUMPDEST PUSH2 0x4C8C DUP2 PUSH2 0x47DD JUMP JUMPDEST DUP5 ADD SWAP2 POP POP SWAP3 SWAP2 POP POP JUMP JUMPDEST PUSH0 PUSH2 0x160 DUP4 ADD PUSH0 DUP4 ADD MLOAD DUP5 DUP3 SUB PUSH0 DUP7 ADD MSTORE PUSH2 0x4CB2 DUP3 DUP3 PUSH2 0x4C5F JUMP JUMPDEST SWAP2 POP POP PUSH1 0x20 DUP4 ADD MLOAD DUP5 DUP3 SUB PUSH1 0x20 DUP7 ADD MSTORE PUSH2 0x4CCC DUP3 DUP3 PUSH2 0x4C5F JUMP JUMPDEST SWAP2 POP POP PUSH1 0x40 DUP4 ADD MLOAD DUP5 DUP3 SUB PUSH1 0x40 DUP7 ADD MSTORE PUSH2 0x4CE6 DUP3 DUP3 PUSH2 0x4C5F JUMP JUMPDEST SWAP2 POP POP PUSH1 0x60 DUP4 ADD MLOAD DUP5 DUP3 SUB PUSH1 0x60 DUP7 ADD MSTORE PUSH2 0x4D00 DUP3 DUP3 PUSH2 0x4C5F JUMP JUMPDEST SWAP2 POP POP PUSH1 0x80 DUP4 ADD MLOAD DUP5 DUP3 SUB PUSH1 0x80 DUP7 ADD MSTORE PUSH2 0x4D1A DUP3 DUP3 PUSH2 0x4C5F JUMP JUMPDEST SWAP2 POP POP PUSH1 0xA0 DUP4 ADD MLOAD DUP5 DUP3 SUB PUSH1 0xA0 DUP7 ADD MSTORE PUSH2 0x4D34 DUP3 DUP3 PUSH2 0x4C5F JUMP JUMPDEST SWAP2 POP POP PUSH1 0xC0 DUP4 ADD MLOAD DUP5 DUP3 SUB PUSH1 0xC0 DUP7 ADD MSTORE PUSH2 0x4D4E DUP3 DUP3 PUSH2 0x4C5F JUMP JUMPDEST SWAP2 POP POP PUSH1 0xE0 DUP4 ADD MLOAD DUP5 DUP3 SUB PUSH1 0xE0 DUP7 ADD MSTORE PUSH2 0x4D68 DUP3 DUP3 PUSH2 0x4C5F JUMP JUMPDEST SWAP2 POP POP PUSH2 0x100 DUP4 ADD MLOAD DUP5 DUP3 SUB PUSH2 0x100 DUP7 ADD MSTORE PUSH2 0x4D84 DUP3 DUP3 PUSH2 0x4C5F JUMP JUMPDEST SWAP2 POP POP PUSH2 0x120 DUP4 ADD MLOAD DUP5 DUP3 SUB PUSH2 0x120 DUP7 ADD MSTORE PUSH2 0x4DA0 DUP3 DUP3 PUSH2 0x4C5F JUMP JUMPDEST SWAP2 POP POP PUSH2 0x140 DUP4 ADD MLOAD DUP5 DUP3 SUB PUSH2 0x140 DUP7 ADD MSTORE PUSH2 0x4DBC DUP3 DUP3 PUSH2 0x4C5F JUMP JUMPDEST SWAP2 POP POP DUP1 SWAP2 POP POP SWAP3 SWAP2 POP POP JUMP JUMPDEST PUSH1 0x80 DUP3 ADD PUSH0 DUP3 ADD MLOAD PUSH2 0x4DDD PUSH0 DUP6 ADD DUP3 PUSH2 0x45FD JUMP JUMPDEST POP PUSH1 0x20 DUP3 ADD MLOAD PUSH2 0x4DF0 PUSH1 0x20 DUP6 ADD DUP3 PUSH2 0x4615 JUMP JUMPDEST POP PUSH1 0x40 DUP3 ADD MLOAD PUSH2 0x4E03 PUSH1 0x40 DUP6 ADD DUP3 PUSH2 0x4615 JUMP JUMPDEST POP PUSH1 0x60 DUP3 ADD MLOAD PUSH2 0x4E16 PUSH1 0x60 DUP6 ADD DUP3 PUSH2 0x4615 JUMP JUMPDEST POP POP POP POP JUMP JUMPDEST PUSH0 PUSH1 0xA0 DUP3 ADD SWAP1 POP DUP2 DUP2 SUB PUSH0 DUP4 ADD MSTORE PUSH2 0x4E34 DUP2 DUP6 PUSH2 0x4C97 JUMP JUMPDEST SWAP1 POP PUSH2 0x4E43 PUSH1 0x20 DUP4 ADD DUP5 PUSH2 0x4DC9 JUMP JUMPDEST SWAP4 SWAP3 POP POP POP JUMP JUMPDEST PUSH0 DUP1 PUSH1 0x40 DUP4 DUP6 SUB SLT ISZERO PUSH2 0x4E60 JUMPI PUSH2 0x4E5F PUSH2 0x453D JUMP JUMPDEST JUMPDEST PUSH0 PUSH2 0x4E6D DUP6 DUP3 DUP7 ADD PUSH2 0x46A6 JUMP JUMPDEST SWAP3 POP POP PUSH1 0x20 PUSH2 0x4E7E DUP6 DUP3 DUP7 ADD PUSH2 0x46A6 JUMP JUMPDEST SWAP2 POP POP SWAP3 POP SWAP3 SWAP1 POP JUMP JUMPDEST PUSH1 0x80 DUP3 ADD PUSH0 DUP3 ADD MLOAD PUSH2 0x4E9C PUSH0 DUP6 ADD DUP3 PUSH2 0x45FD JUMP JUMPDEST POP PUSH1 0x20 DUP3 ADD MLOAD PUSH2 0x4EAF PUSH1 0x20 DUP6 ADD DUP3 PUSH2 0x4615 JUMP JUMPDEST POP PUSH1 0x40 DUP3 ADD MLOAD PUSH2 0x4EC2 PUSH1 0x40 DUP6 ADD DUP3 PUSH2 0x4615 JUMP JUMPDEST POP PUSH1 0x60 DUP3 ADD MLOAD PUSH2 0x4ED5 PUSH1 0x60 DUP6 ADD DUP3 PUSH2 0x4615 JUMP JUMPDEST POP POP POP POP JUMP JUMPDEST PUSH0 PUSH1 0x80 DUP3 ADD SWAP1 POP PUSH2 0x4EEE PUSH0 DUP4 ADD DUP5 PUSH2 0x4E88 JUMP JUMPDEST SWAP3 SWAP2 POP POP JUMP JUMPDEST PUSH0 PUSH1 0x80 DUP3 ADD SWAP1 POP PUSH2 0x4F07 PUSH0 DUP4 ADD DUP5 PUSH2 0x4DC9 JUMP JUMPDEST SWAP3 SWAP2 POP POP JUMP JUMPDEST PUSH0 DUP1 PUSH0 DUP1 PUSH0 DUP1 PUSH0 DUP1 PUSH0 DUP1 PUSH0 PUSH2 0x160 DUP13 DUP15 SUB SLT ISZERO PUSH2 0x4F2D JUMPI PUSH2 0x4F2C PUSH2 0x453D JUMP JUMPDEST JUMPDEST PUSH0 DUP13 ADD CALLDATALOAD PUSH8 0xFFFFFFFFFFFFFFFF DUP2 GT ISZERO PUSH2 0x4F4A JUMPI PUSH2 0x4F49 PUSH2 0x4541 JUMP JUMPDEST JUMPDEST PUSH2 0x4F56 DUP15 DUP3 DUP16 ADD PUSH2 0x48E4 JUMP JUMPDEST SWAP12 POP POP PUSH1 0x20 DUP13 ADD CALLDATALOAD PUSH8 0xFFFFFFFFFFFFFFFF DUP2 GT ISZERO PUSH2 0x4F77 JUMPI PUSH2 0x4F76 PUSH2 0x4541 JUMP JUMPDEST JUMPDEST PUSH2 0x4F83 DUP15 DUP3 DUP16 ADD PUSH2 0x48E4 JUMP JUMPDEST SWAP11 POP POP PUSH1 0x40 DUP13 ADD CALLDATALOAD PUSH8 0xFFFFFFFFFFFFFFFF DUP2 GT ISZERO PUSH2 0x4FA4 JUMPI PUSH2 0x4FA3 PUSH2 0x4541 JUMP JUMPDEST JUMPDEST PUSH2 0x4FB0 DUP15 DUP3 DUP16 ADD PUSH2 0x48E4 JUMP JUMPDEST SWAP10 POP POP PUSH1 0x60 DUP13 ADD CALLDATALOAD PUSH8 0xFFFFFFFFFFFFFFFF DUP2 GT ISZERO PUSH2 0x4FD1 JUMPI PUSH2 0x4FD0 PUSH2 0x4541 JUMP JUMPDEST JUMPDEST PUSH2 0x4FDD DUP15 DUP3 DUP16 ADD PUSH2 0x48E4 JUMP JUMPDEST SWAP9 POP POP PUSH1 0x80 DUP13 ADD CALLDATALOAD PUSH8 0xFFFFFFFFFFFFFFFF DUP2 GT ISZERO PUSH2 0x4FFE JUMPI PUSH2 0x4FFD PUSH2 0x4541 JUMP JUMPDEST JUMPDEST PUSH2 0x500A DUP15 DUP3 DUP16 ADD PUSH2 0x48E4 JUMP JUMPDEST SWAP8 POP POP PUSH1 0xA0 DUP13 ADD CALLDATALOAD PUSH8 0xFFFFFFFFFFFFFFFF DUP2 GT ISZERO PUSH2 0x502B JUMPI PUSH2 0x502A PUSH2 0x4541 JUMP JUMPDEST JUMPDEST PUSH2 0x5037 DUP15 DUP3 DUP16 ADD PUSH2 0x48E4 JUMP JUMPDEST SWAP7 POP POP PUSH1 0xC0 DUP13 ADD CALLDATALOAD PUSH8 0xFFFFFFFFFFFFFFFF DUP2 GT ISZERO PUSH2 0x5058 JUMPI PUSH2 0x5057 PUSH2 0x4541 JUMP JUMPDEST JUMPDEST PUSH2 0x5064 DUP15 DUP3 DUP16 ADD PUSH2 0x48E4 JUMP JUMPDEST SWAP6 POP POP PUSH1 0xE0 DUP13 ADD CALLDATALOAD PUSH8 0xFFFFFFFFFFFFFFFF DUP2 GT ISZERO PUSH2 0x5085 JUMPI PUSH2 0x5084 PUSH2 0x4541 JUMP JUMPDEST JUMPDEST PUSH2 0x5091 DUP15 DUP3 DUP16 ADD PUSH2 0x48E4 JUMP JUMPDEST SWAP5 POP POP PUSH2 0x100 DUP13 ADD CALLDATALOAD PUSH8 0xFFFFFFFFFFFFFFFF DUP2 GT ISZERO PUSH2 0x50B3 JUMPI PUSH2 0x50B2 PUSH2 0x4541 JUMP JUMPDEST JUMPDEST PUSH2 0x50BF DUP15 DUP3 DUP16 ADD PUSH2 0x48E4 JUMP JUMPDEST SWAP4 POP POP PUSH2 0x120 DUP13 ADD CALLDATALOAD PUSH8 0xFFFFFFFFFFFFFFFF DUP2 GT ISZERO PUSH2 0x50E1 JUMPI PUSH2 0x50E0 PUSH2 0x4541 JUMP JUMPDEST JUMPDEST PUSH2 0x50ED DUP15 DUP3 DUP16 ADD PUSH2 0x48E4 JUMP JUMPDEST SWAP3 POP POP PUSH2 0x140 DUP13 ADD CALLDATALOAD PUSH8 0xFFFFFFFFFFFFFFFF DUP2 GT ISZERO PUSH2 0x510F JUMPI PUSH2 0x510E PUSH2 0x4541 JUMP JUMPDEST JUMPDEST PUSH2 0x511B DUP15 DUP3 DUP16 ADD PUSH2 0x48E4 JUMP JUMPDEST SWAP2 POP POP SWAP3 SWAP6 SWAP9 SWAP12 POP SWAP3 SWAP6 SWAP9 SWAP12 SWAP1 SWAP4 SWAP7 SWAP10 POP JUMP JUMPDEST PUSH0 PUSH2 0x120 DUP4 ADD PUSH0 DUP4 ADD MLOAD PUSH2 0x5144 PUSH0 DUP7 ADD DUP3 PUSH2 0x45FD JUMP JUMPDEST POP PUSH1 0x20 DUP4 ADD MLOAD PUSH2 0x5157 PUSH1 0x20 DUP7 ADD DUP3 PUSH2 0x45FD JUMP JUMPDEST POP PUSH1 0x40 DUP4 ADD MLOAD DUP5 DUP3 SUB PUSH1 0x40 DUP7 ADD MSTORE PUSH2 0x516F DUP3 DUP3 PUSH2 0x4C5F JUMP JUMPDEST SWAP2 POP POP PUSH1 0x60 DUP4 ADD MLOAD DUP5 DUP3 SUB PUSH1 0x60 DUP7 ADD MSTORE PUSH2 0x5189 DUP3 DUP3 PUSH2 0x4C5F JUMP JUMPDEST SWAP2 POP POP PUSH1 0x80 DUP4 ADD MLOAD DUP5 DUP3 SUB PUSH1 0x80 DUP7 ADD MSTORE PUSH2 0x51A3 DUP3 DUP3 PUSH2 0x4C5F JUMP JUMPDEST SWAP2 POP POP PUSH1 0xA0 DUP4 ADD MLOAD DUP5 DUP3 SUB PUSH1 0xA0 DUP7 ADD MSTORE PUSH2 0x51BD DUP3 DUP3 PUSH2 0x4C5F JUMP JUMPDEST SWAP2 POP POP PUSH1 0xC0 DUP4 ADD MLOAD DUP5 DUP3 SUB PUSH1 0xC0 DUP7 ADD MSTORE PUSH2 0x51D7 DUP3 DUP3 PUSH2 0x4C5F JUMP JUMPDEST SWAP2 POP POP PUSH1 0xE0 DUP4 ADD MLOAD DUP5 DUP3 SUB PUSH1 0xE0 DUP7 ADD MSTORE PUSH2 0x51F1 DUP3 DUP3 PUSH2 0x4C5F JUMP JUMPDEST SWAP2 POP POP PUSH2 0x100 DUP4 ADD MLOAD PUSH2 0x5208 PUSH2 0x100 DUP7 ADD DUP3 PUSH2 0x4615 JUMP JUMPDEST POP DUP1 SWAP2 POP POP SWAP3 SWAP2 POP POP JUMP JUMPDEST PUSH2 0x521C DUP2 PUSH2 0x45CA JUMP JUMPDEST DUP3 MSTORE POP POP JUMP JUMPDEST PUSH0 PUSH2 0x140 DUP4 ADD PUSH0 DUP4 ADD MLOAD DUP5 DUP3 SUB PUSH0 DUP7 ADD MSTORE PUSH2 0x523D DUP3 DUP3 PUSH2 0x4C5F JUMP JUMPDEST SWAP2 POP POP PUSH1 0x20 DUP4 ADD MLOAD DUP5 DUP3 SUB PUSH1 0x20 DUP7 ADD MSTORE PUSH2 0x5257 DUP3 DUP3 PUSH2 0x4C5F JUMP JUMPDEST SWAP2 POP POP PUSH1 0x40 DUP4 ADD MLOAD DUP5 DUP3 SUB PUSH1 0x40 DUP7 ADD MSTORE PUSH2 0x5271 DUP3 DUP3 PUSH2 0x4C5F JUMP JUMPDEST SWAP2 POP POP PUSH1 0x60 DUP4 ADD MLOAD DUP5 DUP3 SUB PUSH1 0x60 DUP7 ADD MSTORE PUSH2 0x528B DUP3 DUP3 PUSH2 0x4C5F JUMP JUMPDEST SWAP2 POP POP PUSH1 0x80 DUP4 ADD MLOAD DUP5 DUP3 SUB PUSH1 0x80 DUP7 ADD MSTORE PUSH2 0x52A5 DUP3 DUP3 PUSH2 0x4C5F JUMP JUMPDEST SWAP2 POP POP PUSH1 0xA0 DUP4 ADD MLOAD DUP5 DUP3 SUB PUSH1 0xA0 DUP7 ADD MSTORE PUSH2 0x52BF DUP3 DUP3 PUSH2 0x4C5F JUMP JUMPDEST SWAP2 POP POP PUSH1 0xC0 DUP4 ADD MLOAD DUP5 DUP3 SUB PUSH1 0xC0 DUP7 ADD MSTORE PUSH2 0x52D9 DUP3 DUP3 PUSH2 0x4C5F JUMP JUMPDEST SWAP2 POP POP PUSH1 0xE0 DUP4 ADD MLOAD DUP5 DUP3 SUB PUSH1 0xE0 DUP7 ADD MSTORE PUSH2 0x52F3 DUP3 DUP3 PUSH2 0x4C5F JUMP JUMPDEST SWAP2 POP POP PUSH2 0x100 DUP4 ADD MLOAD PUSH2 0x530A PUSH2 0x100 DUP7 ADD DUP3 PUSH2 0x5213 JUMP JUMPDEST POP PUSH2 0x120 DUP4 ADD MLOAD PUSH2 0x531F PUSH2 0x120 DUP7 ADD DUP3 PUSH2 0x4615 JUMP JUMPDEST POP DUP1 SWAP2 POP POP SWAP3 SWAP2 POP POP JUMP JUMPDEST PUSH0 PUSH1 0x40 DUP3 ADD SWAP1 POP DUP2 DUP2 SUB PUSH0 DUP4 ADD MSTORE PUSH2 0x5342 DUP2 DUP6 PUSH2 0x512E JUMP JUMPDEST SWAP1 POP DUP2 DUP2 SUB PUSH1 0x20 DUP4 ADD MSTORE PUSH2 0x5356 DUP2 DUP5 PUSH2 0x5222 JUMP JUMPDEST SWAP1 POP SWAP4 SWAP3 POP POP POP JUMP JUMPDEST PUSH0 PUSH1 0x20 DUP3 ADD SWAP1 POP DUP2 DUP2 SUB PUSH0 DUP4 ADD MSTORE PUSH2 0x5377 DUP2 DUP5 PUSH2 0x5222 JUMP JUMPDEST SWAP1 POP SWAP3 SWAP2 POP POP JUMP JUMPDEST PUSH0 DUP1 PUSH0 DUP1 PUSH0 DUP1 PUSH0 PUSH1 0xE0 DUP9 DUP11 SUB SLT ISZERO PUSH2 0x539A JUMPI PUSH2 0x5399 PUSH2 0x453D JUMP JUMPDEST JUMPDEST PUSH0 DUP9 ADD CALLDATALOAD PUSH8 0xFFFFFFFFFFFFFFFF DUP2 GT ISZERO PUSH2 0x53B7 JUMPI PUSH2 0x53B6 PUSH2 0x4541 JUMP JUMPDEST JUMPDEST PUSH2 0x53C3 DUP11 DUP3 DUP12 ADD PUSH2 0x48E4 JUMP JUMPDEST SWAP8 POP POP PUSH1 0x20 DUP9 ADD CALLDATALOAD PUSH8 0xFFFFFFFFFFFFFFFF DUP2 GT ISZERO PUSH2 0x53E4 JUMPI PUSH2 0x53E3 PUSH2 0x4541 JUMP JUMPDEST JUMPDEST PUSH2 0x53F0 DUP11 DUP3 DUP12 ADD PUSH2 0x48E4 JUMP JUMPDEST SWAP7 POP POP PUSH1 0x40 DUP9 ADD CALLDATALOAD PUSH8 0xFFFFFFFFFFFFFFFF DUP2 GT ISZERO PUSH2 0x5411 JUMPI PUSH2 0x5410 PUSH2 0x4541 JUMP JUMPDEST JUMPDEST PUSH2 0x541D DUP11 DUP3 DUP12 ADD PUSH2 0x48E4 JUMP JUMPDEST SWAP6 POP POP PUSH1 0x60 DUP9 ADD CALLDATALOAD PUSH8 0xFFFFFFFFFFFFFFFF DUP2 GT ISZERO PUSH2 0x543E JUMPI PUSH2 0x543D PUSH2 0x4541 JUMP JUMPDEST JUMPDEST PUSH2 0x544A DUP11 DUP3 DUP12 ADD PUSH2 0x48E4 JUMP JUMPDEST SWAP5 POP POP PUSH1 0x80 DUP9 ADD CALLDATALOAD PUSH8 0xFFFFFFFFFFFFFFFF DUP2 GT ISZERO PUSH2 0x546B JUMPI PUSH2 0x546A PUSH2 0x4541 JUMP JUMPDEST JUMPDEST PUSH2 0x5477 DUP11 DUP3 DUP12 ADD PUSH2 0x48E4 JUMP JUMPDEST SWAP4 POP POP PUSH1 0xA0 DUP9 ADD CALLDATALOAD PUSH8 0xFFFFFFFFFFFFFFFF DUP2 GT ISZERO PUSH2 0x5498 JUMPI PUSH2 0x5497 PUSH2 0x4541 JUMP JUMPDEST JUMPDEST PUSH2 0x54A4 DUP11 DUP3 DUP12 ADD PUSH2 0x48E4 JUMP JUMPDEST SWAP3 POP POP PUSH1 0xC0 PUSH2 0x54B5 DUP11 DUP3 DUP12 ADD PUSH2 0x4927 JUMP JUMPDEST SWAP2 POP POP SWAP3 SWAP6 SWAP9 SWAP2 SWAP5 SWAP8 POP SWAP3 SWAP6 POP JUMP JUMPDEST PUSH32 0x4E487B7100000000000000000000000000000000000000000000000000000000 PUSH0 MSTORE PUSH1 0x22 PUSH1 0x4 MSTORE PUSH1 0x24 PUSH0 REVERT JUMPDEST PUSH0 PUSH1 0x2 DUP3 DIV SWAP1 POP PUSH1 0x1 DUP3 AND DUP1 PUSH2 0x5508 JUMPI PUSH1 0x7F DUP3 AND SWAP2 POP JUMPDEST PUSH1 0x20 DUP3 LT DUP2 SUB PUSH2 0x551B JUMPI PUSH2 0x551A PUSH2 0x54C4 JUMP JUMPDEST JUMPDEST POP SWAP2 SWAP1 POP JUMP JUMPDEST PUSH0 DUP2 SWAP1 POP DUP2 PUSH0 MSTORE PUSH1 0x20 PUSH0 KECCAK256 SWAP1 POP SWAP2 SWAP1 POP JUMP JUMPDEST PUSH0 PUSH1 0x20 PUSH1 0x1F DUP4 ADD DIV SWAP1 POP SWAP2 SWAP1 POP JUMP JUMPDEST PUSH0 DUP3 DUP3 SHL SWAP1 POP SWAP3 SWAP2 POP POP JUMP JUMPDEST PUSH0 PUSH1 0x8 DUP4 MUL PUSH2 0x557D PUSH32 0xFFFFFFFFFFFFFFFFFFFFFFFFFFFFFFFFFFFFFFFFFFFFFFFFFFFFFFFFFFFFFFFF DUP3 PUSH2 0x5542 JUMP JUMPDEST PUSH2 0x5587 DUP7 DUP4 PUSH2 0x5542 JUMP JUMPDEST SWAP6 POP DUP1 NOT DUP5 AND SWAP4 POP DUP1 DUP7 AND DUP5 OR SWAP3 POP POP POP SWAP4 SWAP3 POP POP POP JUMP JUMPDEST PUSH0 DUP2 SWAP1 POP SWAP2 SWAP1 POP JUMP JUMPDEST PUSH0 PUSH2 0x55C2 PUSH2 0x55BD PUSH2 0x55B8 DUP5 PUSH2 0x460C JUMP JUMPDEST PUSH2 0x559F JUMP JUMPDEST PUSH2 0x460C JUMP JUMPDEST SWAP1 POP SWAP2 SWAP1 POP JUMP JUMPDEST PUSH0 DUP2 SWAP1 POP SWAP2 SWAP1 POP JUMP JUMPDEST PUSH2 0x55DB DUP4 PUSH2 0x55A8 JUMP JUMPDEST PUSH2 0x55EF PUSH2 0x55E7 DUP3 PUSH2 0x55C9 JUMP JUMPDEST DUP5 DUP5 SLOAD PUSH2 0x554E JUMP JUMPDEST DUP3 SSTORE POP POP POP POP JUMP JUMPDEST PUSH0 SWAP1 JUMP JUMPDEST PUSH2 0x5603 PUSH2 0x55F7 JUMP JUMPDEST PUSH2 0x560E DUP2 DUP5 DUP5 PUSH2 0x55D2 JUMP JUMPDEST POP POP POP JUMP JUMPDEST JUMPDEST DUP2 DUP2 LT ISZERO PUSH2 0x5631 JUMPI PUSH2 0x5626 PUSH0 DUP3 PUSH2 0x55FB JUMP JUMPDEST PUSH1 0x1 DUP2 ADD SWAP1 POP PUSH2 0x5614 JUMP JUMPDEST POP POP JUMP JUMPDEST PUSH1 0x1F DUP3 GT ISZERO PUSH2 0x5676 JUMPI PUSH2 0x5647 DUP2 PUSH2 0x5521 JUMP JUMPDEST PUSH2 0x5650 DUP5 PUSH2 0x5533 JUMP JUMPDEST DUP2 ADD PUSH1 0x20 DUP6 LT ISZERO PUSH2 0x565F JUMPI DUP2 SWAP1 POP JUMPDEST PUSH2 0x5673 PUSH2 0x566B DUP6 PUSH2 0x5533 JUMP JUMPDEST DUP4 ADD DUP3 PUSH2 0x5613 JUMP JUMPDEST POP POP JUMPDEST POP POP POP JUMP JUMPDEST PUSH0 DUP3 DUP3 SHR SWAP1 POP SWAP3 SWAP2 POP POP JUMP JUMPDEST PUSH0 PUSH2 0x5696 PUSH0 NOT DUP5 PUSH1 0x8 MUL PUSH2 0x567B JUMP JUMPDEST NOT DUP1 DUP4 AND SWAP2 POP POP SWAP3 SWAP2 POP POP JUMP JUMPDEST PUSH0 PUSH2 0x56AE DUP4 DUP4 PUSH2 0x5687 JUMP JUMPDEST SWAP2 POP DUP3 PUSH1 0x2 MUL DUP3 OR SWAP1 POP SWAP3 SWAP2 POP POP JUMP JUMPDEST PUSH2 0x56C7 DUP3 PUSH2 0x4C1D JUMP JUMPDEST PUSH8 0xFFFFFFFFFFFFFFFF DUP2 GT ISZERO PUSH2 0x56E0 JUMPI PUSH2 0x56DF PUSH2 0x47ED JUMP JUMPDEST JUMPDEST PUSH2 0x56EA DUP3 SLOAD PUSH2 0x54F1 JUMP JUMPDEST PUSH2 0x56F5 DUP3 DUP3 DUP6 PUSH2 0x5635 JUMP JUMPDEST PUSH0 PUSH1 0x20 SWAP1 POP PUSH1 0x1F DUP4 GT PUSH1 0x1 DUP2 EQ PUSH2 0x5726 JUMPI PUSH0 DUP5 ISZERO PUSH2 0x5714 JUMPI DUP3 DUP8 ADD MLOAD SWAP1 POP JUMPDEST PUSH2 0x571E DUP6 DUP3 PUSH2 0x56A3 JUMP JUMPDEST DUP7 SSTORE POP PUSH2 0x5785 JUMP JUMPDEST PUSH1 0x1F NOT DUP5 AND PUSH2 0x5734 DUP7 PUSH2 0x5521 JUMP JUMPDEST PUSH0 JUMPDEST DUP3 DUP2 LT ISZERO PUSH2 0x575B JUMPI DUP5 DUP10 ADD MLOAD DUP3 SSTORE PUSH1 0x1 DUP3 ADD SWAP2 POP PUSH1 0x20 DUP6 ADD SWAP5 POP PUSH1 0x20 DUP2 ADD SWAP1 POP PUSH2 0x5736 JUMP JUMPDEST DUP7 DUP4 LT ISZERO PUSH2 0x5778 JUMPI DUP5 DUP10 ADD MLOAD PUSH2 0x5774 PUSH1 0x1F DUP10 AND DUP3 PUSH2 0x5687 JUMP JUMPDEST DUP4 SSTORE POP JUMPDEST PUSH1 0x1 PUSH1 0x2 DUP9 MUL ADD DUP9 SSTORE POP POP POP JUMPDEST POP POP POP POP POP POP JUMP JUMPDEST PUSH32 0x4E487B7100000000000000000000000000000000000000000000000000000000 PUSH0 MSTORE PUSH1 0x11 PUSH1 0x4 MSTORE PUSH1 0x24 PUSH0 REVERT JUMPDEST PUSH0 PUSH2 0x57C4 DUP3 PUSH2 0x460C JUMP JUMPDEST SWAP2 POP PUSH32 0xFFFFFFFFFFFFFFFFFFFFFFFFFFFFFFFFFFFFFFFFFFFFFFFFFFFFFFFFFFFFFFFF DUP3 SUB PUSH2 0x57F6 JUMPI PUSH2 0x57F5 PUSH2 0x578D JUMP JUMPDEST JUMPDEST PUSH1 0x1 DUP3 ADD SWAP1 POP SWAP2 SWAP1 POP JUMP JUMPDEST PUSH0 DUP3 DUP3 MSTORE PUSH1 0x20 DUP3 ADD SWAP1 POP SWAP3 SWAP2 POP POP JUMP JUMPDEST PUSH32 0x5370656369616C74792063616E6E6F7420626520656D70747900000000000000 PUSH0 DUP3 ADD MSTORE POP JUMP JUMPDEST PUSH0 PUSH2 0x5845 PUSH1 0x19 DUP4 PUSH2 0x5801 JUMP JUMPDEST SWAP2 POP PUSH2 0x5850 DUP3 PUSH2 0x5811 JUMP JUMPDEST PUSH1 0x20 DUP3 ADD SWAP1 POP SWAP2 SWAP1 POP JUMP JUMPDEST PUSH0 PUSH1 0x20 DUP3 ADD SWAP1 POP DUP2 DUP2 SUB PUSH0 DUP4 ADD MSTORE PUSH2 0x5872 DUP2 PUSH2 0x5839 JUMP JUMPDEST SWAP1 POP SWAP2 SWAP1 POP JUMP INVALID LOG2 PUSH5 0x6970667358 0x22 SLT KECCAK256 0x4F 0xCD PUSH4 0xFFC22A83 BASEFEE 0xC7 SMOD GT 0xC9 0x2F PUSH30 0x15D84945BC26D73DC61E669D87C830A7252664736F6C6343000814003300 "
		},
		"gasEstimates": {
			"creation": {
				"codeDepositCost": "4540600",
				"executionCost": "30318",
				"totalCost": "4570918"
			},
			"external": {
				"Data()": "24520",
				"RevokePermission(address)": "25135",
				"appointmentCount()": "2579",
				"appointmentList(uint256)": "5054",
				"doctorCount()": "2558",
				"doctorList(uint256)": "5035",
				"doctorLocation(uint256)": "4990",
				"editDoctor(string,string,string,string,string,string,string,bool)": "infinite",
				"editPatients(string,string,string,string,string,string,string,string,string,string,string)": "infinite",
				"editPharmaceuticalStores(string,string,string,string,string,string,bool)": "infinite",
				"getAppointmentCount()": "2566",
				"getAppointmentPerPatient(address)": "2961",
				"getAppointments()": "infinite",
				"getDoctorCount()": "2587",
				"getDoctors()": "infinite",
				"getDoctorslocation()": "infinite",
				"getPatientCount()": "2543",
				"getPatientLocation()": "infinite",
				"getPatients()": "infinite",
				"getPermissionGrantedCount()": "2522",
				"getPharmaceuticalStoreLocation()": "infinite",
				"getPharmaciticalStores()": "infinite",
				"givePermission(address)": "49532",
				"owner()": "2617",
				"patientCount()": "2558",
				"patientList(uint256)": "5011",
				"patientLocation(uint256)": "4990",
				"permissionGrantedCount()": "2514",
				"searchAppointment(address)": "infinite",
				"searchAppointmentDate(address)": "2982",
				"searchDoctor(address)": "infinite",
				"searchDoctorDate(address)": "2915",
				"searchPatientDemographic(address)": "infinite",
				"searchPatientMedical(address)": "infinite",
				"searchRecordDate()": "2628",
				"setAppointment(address,string,string,string,string,string,string)": "infinite",
				"setDoctor(string,string,string,string,string,string,string,bool)": "infinite",
				"setDoctorlocation(uint256,uint256)": "infinite",
				"setPatients(string,string,string,string,string,string,string,string,string,string,string)": "infinite",
				"setPatientsLocation(uint256,uint256)": "infinite",
				"setPharmaceuticalStoreLocation(uint256,uint256)": "infinite",
				"setPharmaciticalStore(string,string,string,string,string,string,bool)": "infinite",
				"storeCount()": "2580",
				"storeList(uint256)": "5010",
				"storeLocation(uint256)": "4990",
				"updateAppointment(address,string,string,string,string,string,string)": "infinite"
			}
		},
		"methodIdentifiers": {
			"Data()": "4b6e7d78",
			"RevokePermission(address)": "02516abd",
			"appointmentCount()": "eebc3fb2",
			"appointmentList(uint256)": "e6fce0d2",
			"doctorCount()": "78522bc4",
			"doctorList(uint256)": "127ca4b4",
			"doctorLocation(uint256)": "20228e83",
			"editDoctor(string,string,string,string,string,string,string,bool)": "18f93be1",
			"editPatients(string,string,string,string,string,string,string,string,string,string,string)": "80ba2e86",
			"editPharmaceuticalStores(string,string,string,string,string,string,bool)": "de623b0f",
			"getAppointmentCount()": "29e4afbb",
			"getAppointmentPerPatient(address)": "e93a15b9",
			"getAppointments()": "96b80d08",
			"getDoctorCount()": "79111c1c",
			"getDoctors()": "b13d5d94",
			"getDoctorslocation()": "118d1a04",
			"getPatientCount()": "c190665b",
			"getPatientLocation()": "74198e61",
			"getPatients()": "12ad1c37",
			"getPermissionGrantedCount()": "24c24b2b",
			"getPharmaceuticalStoreLocation()": "5c2f4ef9",
			"getPharmaciticalStores()": "73bdec1a",
			"givePermission(address)": "3d391f70",
			"owner()": "8da5cb5b",
			"patientCount()": "a0303c41",
			"patientList(uint256)": "babb1d41",
			"patientLocation(uint256)": "8093aa5d",
			"permissionGrantedCount()": "c0cb24ba",
			"searchAppointment(address)": "92041982",
			"searchAppointmentDate(address)": "4c14b38d",
			"searchDoctor(address)": "caee6c85",
			"searchDoctorDate(address)": "625961fc",
			"searchPatientDemographic(address)": "3bc98280",
			"searchPatientMedical(address)": "2a825ba0",
			"searchRecordDate()": "8afa670b",
			"setAppointment(address,string,string,string,string,string,string)": "245f9686",
			"setDoctor(string,string,string,string,string,string,string,bool)": "9179cb8a",
			"setDoctorlocation(uint256,uint256)": "549a73cd",
			"setPatients(string,string,string,string,string,string,string,string,string,string,string)": "d0568a4d",
			"setPatientsLocation(uint256,uint256)": "93961dc5",
			"setPharmaceuticalStoreLocation(uint256,uint256)": "9119855d",
			"setPharmaciticalStore(string,string,string,string,string,string,bool)": "d002d3b1",
			"storeCount()": "a1b141d4",
			"storeList(uint256)": "d0f2e2b7",
			"storeLocation(uint256)": "2f9455d5",
			"updateAppointment(address,string,string,string,string,string,string)": "261b73f3"
		}
	},
	"abi": [
		{
			"inputs": [],
			"name": "Data",
			"outputs": [],
			"stateMutability": "nonpayable",
			"type": "function"
		},
		{
			"inputs": [
				{
					"internalType": "address",
					"name": "_address",
					"type": "address"
				}
			],
			"name": "RevokePermission",
			"outputs": [
				{
					"internalType": "bool",
					"name": "success",
					"type": "bool"
				}
			],
			"stateMutability": "nonpayable",
			"type": "function"
		},
		{
			"inputs": [],
			"name": "appointmentCount",
			"outputs": [
				{
					"internalType": "uint256",
					"name": "",
					"type": "uint256"
				}
			],
			"stateMutability": "view",
			"type": "function"
		},
		{
			"inputs": [
				{
					"internalType": "uint256",
					"name": "",
					"type": "uint256"
				}
			],
			"name": "appointmentList",
			"outputs": [
				{
					"internalType": "address",
					"name": "",
					"type": "address"
				}
			],
			"stateMutability": "view",
			"type": "function"
		},
		{
			"inputs": [],
			"name": "doctorCount",
			"outputs": [
				{
					"internalType": "uint256",
					"name": "",
					"type": "uint256"
				}
			],
			"stateMutability": "view",
			"type": "function"
		},
		{
			"inputs": [
				{
					"internalType": "uint256",
					"name": "",
					"type": "uint256"
				}
			],
			"name": "doctorList",
			"outputs": [
				{
					"internalType": "address",
					"name": "",
					"type": "address"
				}
			],
			"stateMutability": "view",
			"type": "function"
		},
		{
			"inputs": [
				{
					"internalType": "uint256",
					"name": "",
					"type": "uint256"
				}
			],
			"name": "doctorLocation",
			"outputs": [
				{
					"internalType": "address",
					"name": "",
					"type": "address"
				}
			],
			"stateMutability": "view",
			"type": "function"
		},
		{
			"inputs": [
				{
					"internalType": "string",
					"name": "_id",
					"type": "string"
				},
				{
					"internalType": "string",
					"name": "_name",
					"type": "string"
				},
				{
					"internalType": "string",
					"name": "_phone",
					"type": "string"
				},
				{
					"internalType": "string",
					"name": "_gender",
					"type": "string"
				},
				{
					"internalType": "string",
					"name": "_dob",
					"type": "string"
				},
				{
					"internalType": "string",
					"name": "_qualification",
					"type": "string"
				},
				{
					"internalType": "string",
					"name": "_major",
					"type": "string"
				},
				{
					"internalType": "bool",
					"name": "_isCertified",
					"type": "bool"
				}
			],
			"name": "editDoctor",
			"outputs": [],
			"stateMutability": "nonpayable",
			"type": "function"
		},
		{
			"inputs": [
				{
					"internalType": "string",
					"name": "_id",
					"type": "string"
				},
				{
					"internalType": "string",
					"name": "_name",
					"type": "string"
				},
				{
					"internalType": "string",
					"name": "_phone",
					"type": "string"
				},
				{
					"internalType": "string",
					"name": "_gender",
					"type": "string"
				},
				{
					"internalType": "string",
					"name": "_dob",
					"type": "string"
				},
				{
					"internalType": "string",
					"name": "_height",
					"type": "string"
				},
				{
					"internalType": "string",
					"name": "_weight",
					"type": "string"
				},
				{
					"internalType": "string",
					"name": "_houseaddr",
					"type": "string"
				},
				{
					"internalType": "string",
					"name": "_bloodgroup",
					"type": "string"
				},
				{
					"internalType": "string",
					"name": "_medicalconditions",
					"type": "string"
				},
				{
					"internalType": "string",
					"name": "_medication",
					"type": "string"
				}
			],
			"name": "editPatients",
			"outputs": [],
			"stateMutability": "nonpayable",
			"type": "function"
		},
		{
			"inputs": [
				{
					"internalType": "string",
					"name": "_id",
					"type": "string"
				},
				{
					"internalType": "string",
					"name": "_name",
					"type": "string"
				},
				{
					"internalType": "string",
					"name": "_phone",
					"type": "string"
				},
				{
					"internalType": "string",
					"name": "_gender",
					"type": "string"
				},
				{
					"internalType": "string",
					"name": "_dob",
					"type": "string"
				},
				{
					"internalType": "string",
					"name": "_qualification",
					"type": "string"
				},
				{
					"internalType": "bool",
					"name": "_isCertified",
					"type": "bool"
				}
			],
			"name": "editPharmaceuticalStores",
			"outputs": [],
			"stateMutability": "nonpayable",
			"type": "function"
		},
		{
			"inputs": [],
			"name": "getAppointmentCount",
			"outputs": [
				{
					"internalType": "uint256",
					"name": "",
					"type": "uint256"
				}
			],
			"stateMutability": "view",
			"type": "function"
		},
		{
			"inputs": [
				{
					"internalType": "address",
					"name": "_address",
					"type": "address"
				}
			],
			"name": "getAppointmentPerPatient",
			"outputs": [
				{
					"internalType": "uint256",
					"name": "",
					"type": "uint256"
				}
			],
			"stateMutability": "view",
			"type": "function"
		},
		{
			"inputs": [],
			"name": "getAppointments",
			"outputs": [
				{
					"internalType": "address[]",
					"name": "",
					"type": "address[]"
				}
			],
			"stateMutability": "view",
			"type": "function"
		},
		{
			"inputs": [],
			"name": "getDoctorCount",
			"outputs": [
				{
					"internalType": "uint256",
					"name": "",
					"type": "uint256"
				}
			],
			"stateMutability": "view",
			"type": "function"
		},
		{
			"inputs": [],
			"name": "getDoctors",
			"outputs": [
				{
					"internalType": "address[]",
					"name": "",
					"type": "address[]"
				}
			],
			"stateMutability": "view",
			"type": "function"
		},
		{
			"inputs": [],
			"name": "getDoctorslocation",
			"outputs": [
				{
					"components": [
						{
							"internalType": "address",
							"name": "addr",
							"type": "address"
						},
						{
							"internalType": "uint256",
							"name": "longitude",
							"type": "uint256"
						},
						{
							"internalType": "uint256",
							"name": "latitude",
							"type": "uint256"
						},
						{
							"internalType": "uint256",
							"name": "date",
							"type": "uint256"
						}
					],
					"internalType": "struct Record.Doctorslocation",
					"name": "",
					"type": "tuple"
				}
			],
			"stateMutability": "view",
			"type": "function"
		},
		{
			"inputs": [],
			"name": "getPatientCount",
			"outputs": [
				{
					"internalType": "uint256",
					"name": "",
					"type": "uint256"
				}
			],
			"stateMutability": "view",
			"type": "function"
		},
		{
			"inputs": [],
			"name": "getPatientLocation",
			"outputs": [
				{
					"components": [
						{
							"internalType": "address",
							"name": "addr",
							"type": "address"
						},
						{
							"internalType": "uint256",
							"name": "date",
							"type": "uint256"
						},
						{
							"internalType": "uint256",
							"name": "longitude",
							"type": "uint256"
						},
						{
							"internalType": "uint256",
							"name": "latitude",
							"type": "uint256"
						}
					],
					"internalType": "struct Record.Patientslocation",
					"name": "",
					"type": "tuple"
				}
			],
			"stateMutability": "view",
			"type": "function"
		},
		{
			"inputs": [],
			"name": "getPatients",
			"outputs": [
				{
					"internalType": "address[]",
					"name": "",
					"type": "address[]"
				}
			],
			"stateMutability": "view",
			"type": "function"
		},
		{
			"inputs": [],
			"name": "getPermissionGrantedCount",
			"outputs": [
				{
					"internalType": "uint256",
					"name": "",
					"type": "uint256"
				}
			],
			"stateMutability": "view",
			"type": "function"
		},
		{
			"inputs": [],
			"name": "getPharmaceuticalStoreLocation",
			"outputs": [
				{
					"components": [
						{
							"internalType": "address",
							"name": "addr",
							"type": "address"
						},
						{
							"internalType": "uint256",
							"name": "date",
							"type": "uint256"
						},
						{
							"internalType": "uint256",
							"name": "longitude",
							"type": "uint256"
						},
						{
							"internalType": "uint256",
							"name": "latitude",
							"type": "uint256"
						}
					],
					"internalType": "struct Record.PharmaceuticalStoresLocation",
					"name": "",
					"type": "tuple"
				}
			],
			"stateMutability": "view",
			"type": "function"
		},
		{
			"inputs": [],
			"name": "getPharmaciticalStores",
			"outputs": [
				{
					"internalType": "address[]",
					"name": "",
					"type": "address[]"
				}
			],
			"stateMutability": "view",
			"type": "function"
		},
		{
			"inputs": [
				{
					"internalType": "address",
					"name": "_address",
					"type": "address"
				}
			],
			"name": "givePermission",
			"outputs": [
				{
					"internalType": "bool",
					"name": "success",
					"type": "bool"
				}
			],
			"stateMutability": "nonpayable",
			"type": "function"
		},
		{
			"inputs": [],
			"name": "owner",
			"outputs": [
				{
					"internalType": "address",
					"name": "",
					"type": "address"
				}
			],
			"stateMutability": "view",
			"type": "function"
		},
		{
			"inputs": [],
			"name": "patientCount",
			"outputs": [
				{
					"internalType": "uint256",
					"name": "",
					"type": "uint256"
				}
			],
			"stateMutability": "view",
			"type": "function"
		},
		{
			"inputs": [
				{
					"internalType": "uint256",
					"name": "",
					"type": "uint256"
				}
			],
			"name": "patientList",
			"outputs": [
				{
					"internalType": "address",
					"name": "",
					"type": "address"
				}
			],
			"stateMutability": "view",
			"type": "function"
		},
		{
			"inputs": [
				{
					"internalType": "uint256",
					"name": "",
					"type": "uint256"
				}
			],
			"name": "patientLocation",
			"outputs": [
				{
					"internalType": "address",
					"name": "",
					"type": "address"
				}
			],
			"stateMutability": "view",
			"type": "function"
		},
		{
			"inputs": [],
			"name": "permissionGrantedCount",
			"outputs": [
				{
					"internalType": "uint256",
					"name": "",
					"type": "uint256"
				}
			],
			"stateMutability": "view",
			"type": "function"
		},
		{
			"inputs": [
				{
					"internalType": "address",
					"name": "_address",
					"type": "address"
				}
			],
			"name": "searchAppointment",
			"outputs": [
				{
					"components": [
						{
							"internalType": "address",
							"name": "doctoraddr",
							"type": "address"
						},
						{
							"internalType": "address",
							"name": "patientaddr",
							"type": "address"
						},
						{
							"internalType": "string",
							"name": "date",
							"type": "string"
						},
						{
							"internalType": "string",
							"name": "time",
							"type": "string"
						},
						{
							"internalType": "string",
							"name": "prescription",
							"type": "string"
						},
						{
							"internalType": "string",
							"name": "description",
							"type": "string"
						},
						{
							"internalType": "string",
							"name": "diagnosis",
							"type": "string"
						},
						{
							"internalType": "string",
							"name": "status",
							"type": "string"
						},
						{
							"internalType": "uint256",
							"name": "creationDate",
							"type": "uint256"
						}
					],
					"internalType": "struct Record.Appointments",
					"name": "",
					"type": "tuple"
				},
				{
					"components": [
						{
							"internalType": "string",
							"name": "id",
							"type": "string"
						},
						{
							"internalType": "string",
							"name": "name",
							"type": "string"
						},
						{
							"internalType": "string",
							"name": "phone",
							"type": "string"
						},
						{
							"internalType": "string",
							"name": "gender",
							"type": "string"
						},
						{
							"internalType": "string",
							"name": "dob",
							"type": "string"
						},
						{
							"internalType": "string",
							"name": "qualification",
							"type": "string"
						},
						{
							"internalType": "string",
							"name": "major",
							"type": "string"
						},
						{
							"internalType": "string",
							"name": "emergencyContact",
							"type": "string"
						},
						{
							"internalType": "bool",
							"name": "isCertified",
							"type": "bool"
						},
						{
							"internalType": "uint256",
							"name": "date",
							"type": "uint256"
						}
					],
					"internalType": "struct Record.Doctors",
					"name": "",
					"type": "tuple"
				}
			],
			"stateMutability": "view",
			"type": "function"
		},
		{
			"inputs": [
				{
					"internalType": "address",
					"name": "_address",
					"type": "address"
				}
			],
			"name": "searchAppointmentDate",
			"outputs": [
				{
					"internalType": "uint256",
					"name": "",
					"type": "uint256"
				}
			],
			"stateMutability": "view",
			"type": "function"
		},
		{
			"inputs": [
				{
					"internalType": "address",
					"name": "_address",
					"type": "address"
				}
			],
			"name": "searchDoctor",
			"outputs": [
				{
					"components": [
						{
							"internalType": "string",
							"name": "id",
							"type": "string"
						},
						{
							"internalType": "string",
							"name": "name",
							"type": "string"
						},
						{
							"internalType": "string",
							"name": "phone",
							"type": "string"
						},
						{
							"internalType": "string",
							"name": "gender",
							"type": "string"
						},
						{
							"internalType": "string",
							"name": "dob",
							"type": "string"
						},
						{
							"internalType": "string",
							"name": "qualification",
							"type": "string"
						},
						{
							"internalType": "string",
							"name": "major",
							"type": "string"
						},
						{
							"internalType": "string",
							"name": "emergencyContact",
							"type": "string"
						},
						{
							"internalType": "bool",
							"name": "isCertified",
							"type": "bool"
						},
						{
							"internalType": "uint256",
							"name": "date",
							"type": "uint256"
						}
					],
					"internalType": "struct Record.Doctors",
					"name": "",
					"type": "tuple"
				}
			],
			"stateMutability": "view",
			"type": "function"
		},
		{
			"inputs": [
				{
					"internalType": "address",
					"name": "_address",
					"type": "address"
				}
			],
			"name": "searchDoctorDate",
			"outputs": [
				{
					"internalType": "uint256",
					"name": "",
					"type": "uint256"
				}
			],
			"stateMutability": "view",
			"type": "function"
		},
		{
			"inputs": [
				{
					"internalType": "address",
					"name": "_address",
					"type": "address"
				}
			],
			"name": "searchPatientDemographic",
			"outputs": [
				{
					"components": [
						{
							"internalType": "string",
							"name": "id",
							"type": "string"
						},
						{
							"internalType": "string",
							"name": "name",
							"type": "string"
						},
						{
							"internalType": "string",
							"name": "phone",
							"type": "string"
						},
						{
							"internalType": "string",
							"name": "gender",
							"type": "string"
						},
						{
							"internalType": "string",
							"name": "height",
							"type": "string"
						},
						{
							"internalType": "string",
							"name": "weight",
							"type": "string"
						},
						{
							"internalType": "string",
							"name": "dob",
							"type": "string"
						},
						{
							"internalType": "string",
							"name": "houseaddr",
							"type": "string"
						},
						{
							"internalType": "string",
							"name": "bloodgroup",
							"type": "string"
						},
						{
							"internalType": "string",
							"name": "medicalconditions",
							"type": "string"
						},
						{
							"internalType": "string",
							"name": "medication",
							"type": "string"
						}
					],
					"internalType": "struct Record.Patients",
					"name": "",
					"type": "tuple"
				},
				{
					"components": [
						{
							"internalType": "address",
							"name": "addr",
							"type": "address"
						},
						{
							"internalType": "uint256",
							"name": "date",
							"type": "uint256"
						},
						{
							"internalType": "uint256",
							"name": "longitude",
							"type": "uint256"
						},
						{
							"internalType": "uint256",
							"name": "latitude",
							"type": "uint256"
						}
					],
					"internalType": "struct Record.Patientslocation",
					"name": "",
					"type": "tuple"
				}
			],
			"stateMutability": "view",
			"type": "function"
		},
		{
			"inputs": [
				{
					"internalType": "address",
					"name": "_address",
					"type": "address"
				}
			],
			"name": "searchPatientMedical",
			"outputs": [
				{
					"components": [
						{
							"internalType": "string",
							"name": "id",
							"type": "string"
						},
						{
							"internalType": "string",
							"name": "name",
							"type": "string"
						},
						{
							"internalType": "string",
							"name": "phone",
							"type": "string"
						},
						{
							"internalType": "string",
							"name": "gender",
							"type": "string"
						},
						{
							"internalType": "string",
							"name": "height",
							"type": "string"
						},
						{
							"internalType": "string",
							"name": "weight",
							"type": "string"
						},
						{
							"internalType": "string",
							"name": "dob",
							"type": "string"
						},
						{
							"internalType": "string",
							"name": "houseaddr",
							"type": "string"
						},
						{
							"internalType": "string",
							"name": "bloodgroup",
							"type": "string"
						},
						{
							"internalType": "string",
							"name": "medicalconditions",
							"type": "string"
						},
						{
							"internalType": "string",
							"name": "medication",
							"type": "string"
						}
					],
					"internalType": "struct Record.Patients",
					"name": "",
					"type": "tuple"
				},
				{
					"components": [
						{
							"internalType": "address",
							"name": "addr",
							"type": "address"
						},
						{
							"internalType": "uint256",
							"name": "date",
							"type": "uint256"
						},
						{
							"internalType": "uint256",
							"name": "longitude",
							"type": "uint256"
						},
						{
							"internalType": "uint256",
							"name": "latitude",
							"type": "uint256"
						}
					],
					"internalType": "struct Record.Patientslocation",
					"name": "",
					"type": "tuple"
				}
			],
			"stateMutability": "view",
			"type": "function"
		},
		{
			"inputs": [],
			"name": "searchRecordDate",
			"outputs": [
				{
					"internalType": "uint256",
					"name": "",
					"type": "uint256"
				}
			],
			"stateMutability": "view",
			"type": "function"
		},
		{
			"inputs": [
				{
					"internalType": "address",
					"name": "_addr",
					"type": "address"
				},
				{
					"internalType": "string",
					"name": "_date",
					"type": "string"
				},
				{
					"internalType": "string",
					"name": "_time",
					"type": "string"
				},
				{
					"internalType": "string",
					"name": "_diagnosis",
					"type": "string"
				},
				{
					"internalType": "string",
					"name": "_prescription",
					"type": "string"
				},
				{
					"internalType": "string",
					"name": "_description",
					"type": "string"
				},
				{
					"internalType": "string",
					"name": "_status",
					"type": "string"
				}
			],
			"name": "setAppointment",
			"outputs": [],
			"stateMutability": "nonpayable",
			"type": "function"
		},
		{
			"inputs": [
				{
					"internalType": "string",
					"name": "_id",
					"type": "string"
				},
				{
					"internalType": "string",
					"name": "_name",
					"type": "string"
				},
				{
					"internalType": "string",
					"name": "_phone",
					"type": "string"
				},
				{
					"internalType": "string",
					"name": "_gender",
					"type": "string"
				},
				{
					"internalType": "string",
					"name": "_dob",
					"type": "string"
				},
				{
					"internalType": "string",
					"name": "_qualification",
					"type": "string"
				},
				{
					"internalType": "string",
					"name": "_major",
					"type": "string"
				},
				{
					"internalType": "bool",
					"name": "_isCertified",
					"type": "bool"
				}
			],
			"name": "setDoctor",
			"outputs": [],
			"stateMutability": "nonpayable",
			"type": "function"
		},
		{
			"inputs": [
				{
					"internalType": "uint256",
					"name": "_latitude",
					"type": "uint256"
				},
				{
					"internalType": "uint256",
					"name": "_longitude",
					"type": "uint256"
				}
			],
			"name": "setDoctorlocation",
			"outputs": [],
			"stateMutability": "nonpayable",
			"type": "function"
		},
		{
			"inputs": [
				{
					"internalType": "string",
					"name": "_id",
					"type": "string"
				},
				{
					"internalType": "string",
					"name": "_name",
					"type": "string"
				},
				{
					"internalType": "string",
					"name": "_phone",
					"type": "string"
				},
				{
					"internalType": "string",
					"name": "_gender",
					"type": "string"
				},
				{
					"internalType": "string",
					"name": "_dob",
					"type": "string"
				},
				{
					"internalType": "string",
					"name": "_height",
					"type": "string"
				},
				{
					"internalType": "string",
					"name": "_weight",
					"type": "string"
				},
				{
					"internalType": "string",
					"name": "_houseaddr",
					"type": "string"
				},
				{
					"internalType": "string",
					"name": "_bloodgroup",
					"type": "string"
				},
				{
					"internalType": "string",
					"name": "_medicalconditions",
					"type": "string"
				},
				{
					"internalType": "string",
					"name": "_medication",
					"type": "string"
				}
			],
			"name": "setPatients",
			"outputs": [],
			"stateMutability": "nonpayable",
			"type": "function"
		},
		{
			"inputs": [
				{
					"internalType": "uint256",
					"name": "_latitude",
					"type": "uint256"
				},
				{
					"internalType": "uint256",
					"name": "_longitude",
					"type": "uint256"
				}
			],
			"name": "setPatientsLocation",
			"outputs": [],
			"stateMutability": "nonpayable",
			"type": "function"
		},
		{
			"inputs": [
				{
					"internalType": "uint256",
					"name": "_latitude",
					"type": "uint256"
				},
				{
					"internalType": "uint256",
					"name": "_longitude",
					"type": "uint256"
				}
			],
			"name": "setPharmaceuticalStoreLocation",
			"outputs": [],
			"stateMutability": "nonpayable",
			"type": "function"
		},
		{
			"inputs": [
				{
					"internalType": "string",
					"name": "_id",
					"type": "string"
				},
				{
					"internalType": "string",
					"name": "_name",
					"type": "string"
				},
				{
					"internalType": "string",
					"name": "_phone",
					"type": "string"
				},
				{
					"internalType": "string",
					"name": "_gender",
					"type": "string"
				},
				{
					"internalType": "string",
					"name": "_dob",
					"type": "string"
				},
				{
					"internalType": "string",
					"name": "_qualification",
					"type": "string"
				},
				{
					"internalType": "bool",
					"name": "_isCertified",
					"type": "bool"
				}
			],
			"name": "setPharmaciticalStore",
			"outputs": [],
			"stateMutability": "nonpayable",
			"type": "function"
		},
		{
			"inputs": [],
			"name": "storeCount",
			"outputs": [
				{
					"internalType": "uint256",
					"name": "",
					"type": "uint256"
				}
			],
			"stateMutability": "view",
			"type": "function"
		},
		{
			"inputs": [
				{
					"internalType": "uint256",
					"name": "",
					"type": "uint256"
				}
			],
			"name": "storeList",
			"outputs": [
				{
					"internalType": "address",
					"name": "",
					"type": "address"
				}
			],
			"stateMutability": "view",
			"type": "function"
		},
		{
			"inputs": [
				{
					"internalType": "uint256",
					"name": "",
					"type": "uint256"
				}
			],
			"name": "storeLocation",
			"outputs": [
				{
					"internalType": "address",
					"name": "",
					"type": "address"
				}
			],
			"stateMutability": "view",
			"type": "function"
		},
		{
			"inputs": [
				{
					"internalType": "address",
					"name": "_addr",
					"type": "address"
				},
				{
					"internalType": "string",
					"name": "_date",
					"type": "string"
				},
				{
					"internalType": "string",
					"name": "_time",
					"type": "string"
				},
				{
					"internalType": "string",
					"name": "_diagnosis",
					"type": "string"
				},
				{
					"internalType": "string",
					"name": "_prescription",
					"type": "string"
				},
				{
					"internalType": "string",
					"name": "_description",
					"type": "string"
				},
				{
					"internalType": "string",
					"name": "_status",
					"type": "string"
				}
			],
			"name": "updateAppointment",
			"outputs": [],
			"stateMutability": "nonpayable",
			"type": "function"
		}
	]
}